{
	"Subasta.sol": {
		"Subasta": {
			"abi": [
				{
					"inputs": [],
					"stateMutability": "nonpayable",
					"type": "constructor"
				},
				{
					"anonymous": false,
					"inputs": [],
					"name": "AuctionEnded",
					"type": "event"
				},
				{
					"anonymous": false,
					"inputs": [
						{
							"indexed": true,
							"internalType": "address",
							"name": "bidder",
							"type": "address"
						},
						{
							"indexed": false,
							"internalType": "uint256",
							"name": "amount",
							"type": "uint256"
						}
					],
					"name": "NewBid",
					"type": "event"
				},
				{
					"inputs": [],
					"name": "bid",
					"outputs": [],
					"stateMutability": "payable",
					"type": "function"
				},
				{
					"inputs": [
						{
							"internalType": "uint256",
							"name": "",
							"type": "uint256"
						}
					],
					"name": "bidHistory",
					"outputs": [
						{
							"internalType": "address",
							"name": "bidder",
							"type": "address"
						},
						{
							"internalType": "uint256",
							"name": "amount",
							"type": "uint256"
						},
						{
							"internalType": "uint256",
							"name": "time",
							"type": "uint256"
						},
						{
							"internalType": "bool",
							"name": "refunded",
							"type": "bool"
						}
					],
					"stateMutability": "view",
					"type": "function"
				},
				{
					"inputs": [
						{
							"internalType": "address",
							"name": "bidder",
							"type": "address"
						}
					],
					"name": "getBidOf",
					"outputs": [
						{
							"internalType": "uint256",
							"name": "",
							"type": "uint256"
						}
					],
					"stateMutability": "view",
					"type": "function"
				},
				{
					"inputs": [],
					"name": "getTimeNow",
					"outputs": [
						{
							"internalType": "uint256",
							"name": "",
							"type": "uint256"
						}
					],
					"stateMutability": "view",
					"type": "function"
				},
				{
					"inputs": [],
					"name": "highestBid",
					"outputs": [
						{
							"internalType": "uint256",
							"name": "",
							"type": "uint256"
						}
					],
					"stateMutability": "view",
					"type": "function"
				},
				{
					"inputs": [],
					"name": "highestBidder",
					"outputs": [
						{
							"internalType": "address",
							"name": "",
							"type": "address"
						}
					],
					"stateMutability": "view",
					"type": "function"
				},
				{
					"inputs": [],
					"name": "owner",
					"outputs": [
						{
							"internalType": "address payable",
							"name": "",
							"type": "address"
						}
					],
					"stateMutability": "view",
					"type": "function"
				},
				{
					"inputs": [],
					"name": "partialRefund",
					"outputs": [],
					"stateMutability": "nonpayable",
					"type": "function"
				},
				{
					"inputs": [],
					"name": "refundAll",
					"outputs": [],
					"stateMutability": "payable",
					"type": "function"
				},
				{
					"inputs": [],
					"name": "showBids",
					"outputs": [
						{
							"components": [
								{
									"internalType": "address",
									"name": "bidder",
									"type": "address"
								},
								{
									"internalType": "uint256",
									"name": "amount",
									"type": "uint256"
								},
								{
									"internalType": "uint256",
									"name": "time",
									"type": "uint256"
								},
								{
									"internalType": "bool",
									"name": "refunded",
									"type": "bool"
								}
							],
							"internalType": "struct Subasta.BidInfo[]",
							"name": "",
							"type": "tuple[]"
						}
					],
					"stateMutability": "view",
					"type": "function"
				},
				{
					"inputs": [],
					"name": "showCurrentWinner",
					"outputs": [
						{
							"internalType": "address",
							"name": "",
							"type": "address"
						},
						{
							"internalType": "uint256",
							"name": "",
							"type": "uint256"
						}
					],
					"stateMutability": "view",
					"type": "function"
				},
				{
					"inputs": [],
					"name": "showFinalWinner",
					"outputs": [
						{
							"internalType": "address",
							"name": "",
							"type": "address"
						},
						{
							"internalType": "uint256",
							"name": "",
							"type": "uint256"
						}
					],
					"stateMutability": "view",
					"type": "function"
				},
				{
					"inputs": [],
					"name": "startTime",
					"outputs": [
						{
							"internalType": "uint256",
							"name": "",
							"type": "uint256"
						}
					],
					"stateMutability": "view",
					"type": "function"
				},
				{
					"inputs": [],
					"name": "stopTime",
					"outputs": [
						{
							"internalType": "uint256",
							"name": "",
							"type": "uint256"
						}
					],
					"stateMutability": "view",
					"type": "function"
				}
			],
			"devdoc": {
				"kind": "dev",
				"methods": {},
				"version": 1
			},
			"evm": {
				"assembly": "    /* \"Subasta.sol\":57:4732  contract Subasta {... */\n  mstore(0x40, 0x80)\n    /* \"Subasta.sol\":640:761  constructor() {... */\n  callvalue\n  dup1\n  iszero\n  tag_1\n  jumpi\n  revert(0x00, 0x00)\ntag_1:\n  pop\n    /* \"Subasta.sol\":672:687  block.timestamp */\n  timestamp\n    /* \"Subasta.sol\":660:669  startTime */\n  0x02\n    /* \"Subasta.sol\":660:687  startTime = block.timestamp */\n  dup2\n  swap1\n  sstore\n  pop\n    /* \"Subasta.sol\":716:725  5 minutes */\n  0x012c\n    /* \"Subasta.sol\":704:713  startTime */\n  sload(0x02)\n    /* \"Subasta.sol\":704:725  startTime + 5 minutes */\n  tag_4\n  swap2\n  swap1\n  tag_5\n  jump\t// in\ntag_4:\n    /* \"Subasta.sol\":693:701  stopTime */\n  0x03\n    /* \"Subasta.sol\":693:725  stopTime = startTime + 5 minutes */\n  dup2\n  swap1\n  sstore\n  pop\n    /* \"Subasta.sol\":747:757  msg.sender */\n  caller\n    /* \"Subasta.sol\":731:736  owner */\n  0x04\n  0x00\n    /* \"Subasta.sol\":731:758  owner = payable(msg.sender) */\n  0x0100\n  exp\n  dup2\n  sload\n  dup2\n  0xffffffffffffffffffffffffffffffffffffffff\n  mul\n  not\n  and\n  swap1\n  dup4\n  0xffffffffffffffffffffffffffffffffffffffff\n  and\n  mul\n  or\n  swap1\n  sstore\n  pop\n    /* \"Subasta.sol\":57:4732  contract Subasta {... */\n  jump(tag_6)\n    /* \"#utility.yul\":7:84   */\ntag_7:\n    /* \"#utility.yul\":44:51   */\n  0x00\n    /* \"#utility.yul\":73:78   */\n  dup2\n    /* \"#utility.yul\":62:78   */\n  swap1\n  pop\n    /* \"#utility.yul\":7:84   */\n  swap2\n  swap1\n  pop\n  jump\t// out\n    /* \"#utility.yul\":90:270   */\ntag_8:\n    /* \"#utility.yul\":138:215   */\n  0x4e487b7100000000000000000000000000000000000000000000000000000000\n    /* \"#utility.yul\":135:136   */\n  0x00\n    /* \"#utility.yul\":128:216   */\n  mstore\n    /* \"#utility.yul\":235:239   */\n  0x11\n    /* \"#utility.yul\":232:233   */\n  0x04\n    /* \"#utility.yul\":225:240   */\n  mstore\n    /* \"#utility.yul\":259:263   */\n  0x24\n    /* \"#utility.yul\":256:257   */\n  0x00\n    /* \"#utility.yul\":249:264   */\n  revert\n    /* \"#utility.yul\":276:467   */\ntag_5:\n    /* \"#utility.yul\":316:319   */\n  0x00\n    /* \"#utility.yul\":335:355   */\n  tag_13\n    /* \"#utility.yul\":353:354   */\n  dup3\n    /* \"#utility.yul\":335:355   */\n  tag_7\n  jump\t// in\ntag_13:\n    /* \"#utility.yul\":330:355   */\n  swap2\n  pop\n    /* \"#utility.yul\":369:389   */\n  tag_14\n    /* \"#utility.yul\":387:388   */\n  dup4\n    /* \"#utility.yul\":369:389   */\n  tag_7\n  jump\t// in\ntag_14:\n    /* \"#utility.yul\":364:389   */\n  swap3\n  pop\n    /* \"#utility.yul\":412:413   */\n  dup3\n    /* \"#utility.yul\":409:410   */\n  dup3\n    /* \"#utility.yul\":405:414   */\n  add\n    /* \"#utility.yul\":398:414   */\n  swap1\n  pop\n    /* \"#utility.yul\":433:436   */\n  dup1\n    /* \"#utility.yul\":430:431   */\n  dup3\n    /* \"#utility.yul\":427:437   */\n  gt\n    /* \"#utility.yul\":424:460   */\n  iszero\n  tag_15\n  jumpi\n    /* \"#utility.yul\":440:458   */\n  tag_16\n  tag_8\n  jump\t// in\ntag_16:\n    /* \"#utility.yul\":424:460   */\ntag_15:\n    /* \"#utility.yul\":276:467   */\n  swap3\n  swap2\n  pop\n  pop\n  jump\t// out\n    /* \"Subasta.sol\":57:4732  contract Subasta {... */\ntag_6:\n  dataSize(sub_0)\n  dup1\n  dataOffset(sub_0)\n  0x00\n  codecopy\n  0x00\n  return\nstop\n\nsub_0: assembly {\n        /* \"Subasta.sol\":57:4732  contract Subasta {... */\n      mstore(0x40, 0x80)\n      jumpi(tag_1, lt(calldatasize, 0x04))\n      shr(0xe0, calldataload(0x00))\n      dup1\n      0x78e97925\n      gt\n      tag_16\n      jumpi\n      dup1\n      0xba9b5ae6\n      gt\n      tag_17\n      jumpi\n      dup1\n      0xba9b5ae6\n      eq\n      tag_12\n      jumpi\n      dup1\n      0xd46dd5bb\n      eq\n      tag_13\n      jumpi\n      dup1\n      0xd57bde79\n      eq\n      tag_14\n      jumpi\n      dup1\n      0xecde973d\n      eq\n      tag_15\n      jumpi\n      jump(tag_1)\n    tag_17:\n      dup1\n      0x78e97925\n      eq\n      tag_9\n      jumpi\n      dup1\n      0x8da5cb5b\n      eq\n      tag_10\n      jumpi\n      dup1\n      0x91f90157\n      eq\n      tag_11\n      jumpi\n      jump(tag_1)\n    tag_16:\n      dup1\n      0x1998aeef\n      gt\n      tag_18\n      jumpi\n      dup1\n      0x1998aeef\n      eq\n      tag_5\n      jumpi\n      dup1\n      0x1ce2bcf5\n      eq\n      tag_6\n      jumpi\n      dup1\n      0x38e771ab\n      eq\n      tag_7\n      jumpi\n      dup1\n      0x41b0cfa8\n      eq\n      tag_8\n      jumpi\n      jump(tag_1)\n    tag_18:\n      dup1\n      0x03ff5e73\n      eq\n      tag_2\n      jumpi\n      dup1\n      0x04d42901\n      eq\n      tag_3\n      jumpi\n      dup1\n      0x14d2687c\n      eq\n      tag_4\n      jumpi\n    tag_1:\n      revert(0x00, 0x00)\n        /* \"Subasta.sol\":179:202  uint256 public stopTime */\n    tag_2:\n      callvalue\n      dup1\n      iszero\n      tag_19\n      jumpi\n      revert(0x00, 0x00)\n    tag_19:\n      pop\n      tag_20\n      tag_21\n      jump\t// in\n    tag_20:\n      mload(0x40)\n      tag_22\n      swap2\n      swap1\n      tag_23\n      jump\t// in\n    tag_22:\n      mload(0x40)\n      dup1\n      swap2\n      sub\n      swap1\n      return\n        /* \"Subasta.sol\":2256:2347  function getBidOf(address bidder) external view returns (uint) {... */\n    tag_3:\n      callvalue\n      dup1\n      iszero\n      tag_24\n      jumpi\n      revert(0x00, 0x00)\n    tag_24:\n      pop\n      tag_25\n      0x04\n      dup1\n      calldatasize\n      sub\n      dup2\n      add\n      swap1\n      tag_26\n      swap2\n      swap1\n      tag_27\n      jump\t// in\n    tag_26:\n      tag_28\n      jump\t// in\n    tag_25:\n      mload(0x40)\n      tag_29\n      swap2\n      swap1\n      tag_23\n      jump\t// in\n    tag_29:\n      mload(0x40)\n      dup1\n      swap2\n      sub\n      swap1\n      return\n        /* \"Subasta.sol\":2536:2623  function showBids() external view returns (BidInfo[] memory) {... */\n    tag_4:\n      callvalue\n      dup1\n      iszero\n      tag_30\n      jumpi\n      revert(0x00, 0x00)\n    tag_30:\n      pop\n      tag_31\n      tag_32\n      jump\t// in\n    tag_31:\n      mload(0x40)\n      tag_33\n      swap2\n      swap1\n      tag_34\n      jump\t// in\n    tag_33:\n      mload(0x40)\n      dup1\n      swap2\n      sub\n      swap1\n      return\n        /* \"Subasta.sol\":1298:2211  function bid() external payable auctionActive {... */\n    tag_5:\n      tag_35\n      tag_36\n      jump\t// in\n    tag_35:\n      stop\n        /* \"Subasta.sol\":2665:3800  function partialRefund() external auctionActive {... */\n    tag_6:\n      callvalue\n      dup1\n      iszero\n      tag_37\n      jumpi\n      revert(0x00, 0x00)\n    tag_37:\n      pop\n      tag_38\n      tag_39\n      jump\t// in\n    tag_38:\n      stop\n        /* \"Subasta.sol\":4023:4591  function refundAll() external payable onlyOwner auctionFinalized { ... */\n    tag_7:\n      tag_40\n      tag_41\n      jump\t// in\n    tag_40:\n      stop\n        /* \"Subasta.sol\":3840:3965  function showFinalWinner() external view auctionFinalized returns (address, uint) {... */\n    tag_8:\n      callvalue\n      dup1\n      iszero\n      tag_42\n      jumpi\n      revert(0x00, 0x00)\n    tag_42:\n      pop\n      tag_43\n      tag_44\n      jump\t// in\n    tag_43:\n      mload(0x40)\n      tag_45\n      swap3\n      swap2\n      swap1\n      tag_46\n      jump\t// in\n    tag_45:\n      mload(0x40)\n      dup1\n      swap2\n      sub\n      swap1\n      return\n        /* \"Subasta.sol\":153:177  uint256 public startTime */\n    tag_9:\n      callvalue\n      dup1\n      iszero\n      tag_47\n      jumpi\n      revert(0x00, 0x00)\n    tag_47:\n      pop\n      tag_48\n      tag_49\n      jump\t// in\n    tag_48:\n      mload(0x40)\n      tag_50\n      swap2\n      swap1\n      tag_23\n      jump\t// in\n    tag_50:\n      mload(0x40)\n      dup1\n      swap2\n      sub\n      swap1\n      return\n        /* \"Subasta.sol\":204:232  address payable public owner */\n    tag_10:\n      callvalue\n      dup1\n      iszero\n      tag_51\n      jumpi\n      revert(0x00, 0x00)\n    tag_51:\n      pop\n      tag_52\n      tag_53\n      jump\t// in\n    tag_52:\n      mload(0x40)\n      tag_54\n      swap2\n      swap1\n      tag_55\n      jump\t// in\n    tag_54:\n      mload(0x40)\n      dup1\n      swap2\n      sub\n      swap1\n      return\n        /* \"Subasta.sol\":123:151  address public highestBidder */\n    tag_11:\n      callvalue\n      dup1\n      iszero\n      tag_56\n      jumpi\n      revert(0x00, 0x00)\n    tag_56:\n      pop\n      tag_57\n      tag_58\n      jump\t// in\n    tag_57:\n      mload(0x40)\n      tag_59\n      swap2\n      swap1\n      tag_60\n      jump\t// in\n    tag_59:\n      mload(0x40)\n      dup1\n      swap2\n      sub\n      swap1\n      return\n        /* \"Subasta.sol\":4647:4729  function getTimeNow() external view returns (uint) {... */\n    tag_12:\n      callvalue\n      dup1\n      iszero\n      tag_61\n      jumpi\n      revert(0x00, 0x00)\n    tag_61:\n      pop\n      tag_62\n      tag_63\n      jump\t// in\n    tag_62:\n      mload(0x40)\n      tag_64\n      swap2\n      swap1\n      tag_23\n      jump\t// in\n    tag_64:\n      mload(0x40)\n      dup1\n      swap2\n      sub\n      swap1\n      return\n        /* \"Subasta.sol\":2390:2500  function showCurrentWinner() external view returns (address, uint) {... */\n    tag_13:\n      callvalue\n      dup1\n      iszero\n      tag_65\n      jumpi\n      revert(0x00, 0x00)\n    tag_65:\n      pop\n      tag_66\n      tag_67\n      jump\t// in\n    tag_66:\n      mload(0x40)\n      tag_68\n      swap3\n      swap2\n      swap1\n      tag_46\n      jump\t// in\n    tag_68:\n      mload(0x40)\n      dup1\n      swap2\n      sub\n      swap1\n      return\n        /* \"Subasta.sol\":99:121  uint public highestBid */\n    tag_14:\n      callvalue\n      dup1\n      iszero\n      tag_69\n      jumpi\n      revert(0x00, 0x00)\n    tag_69:\n      pop\n      tag_70\n      tag_71\n      jump\t// in\n    tag_70:\n      mload(0x40)\n      tag_72\n      swap2\n      swap1\n      tag_23\n      jump\t// in\n    tag_72:\n      mload(0x40)\n      dup1\n      swap2\n      sub\n      swap1\n      return\n        /* \"Subasta.sol\":546:573  BidInfo[] public bidHistory */\n    tag_15:\n      callvalue\n      dup1\n      iszero\n      tag_73\n      jumpi\n      revert(0x00, 0x00)\n    tag_73:\n      pop\n      tag_74\n      0x04\n      dup1\n      calldatasize\n      sub\n      dup2\n      add\n      swap1\n      tag_75\n      swap2\n      swap1\n      tag_76\n      jump\t// in\n    tag_75:\n      tag_77\n      jump\t// in\n    tag_74:\n      mload(0x40)\n      tag_78\n      swap5\n      swap4\n      swap3\n      swap2\n      swap1\n      tag_79\n      jump\t// in\n    tag_78:\n      mload(0x40)\n      dup1\n      swap2\n      sub\n      swap1\n      return\n        /* \"Subasta.sol\":179:202  uint256 public stopTime */\n    tag_21:\n      sload(0x03)\n      dup2\n      jump\t// out\n        /* \"Subasta.sol\":2256:2347  function getBidOf(address bidder) external view returns (uint) {... */\n    tag_28:\n        /* \"Subasta.sol\":2313:2317  uint */\n      0x00\n        /* \"Subasta.sol\":2332:2336  bids */\n      0x05\n        /* \"Subasta.sol\":2332:2344  bids[bidder] */\n      0x00\n        /* \"Subasta.sol\":2337:2343  bidder */\n      dup4\n        /* \"Subasta.sol\":2332:2344  bids[bidder] */\n      0xffffffffffffffffffffffffffffffffffffffff\n      and\n      0xffffffffffffffffffffffffffffffffffffffff\n      and\n      dup2\n      mstore\n      0x20\n      add\n      swap1\n      dup2\n      mstore\n      0x20\n      add\n      0x00\n      keccak256\n      sload\n        /* \"Subasta.sol\":2325:2344  return bids[bidder] */\n      swap1\n      pop\n        /* \"Subasta.sol\":2256:2347  function getBidOf(address bidder) external view returns (uint) {... */\n      swap2\n      swap1\n      pop\n      jump\t// out\n        /* \"Subasta.sol\":2536:2623  function showBids() external view returns (BidInfo[] memory) {... */\n    tag_32:\n        /* \"Subasta.sol\":2579:2595  BidInfo[] memory */\n      0x60\n        /* \"Subasta.sol\":2610:2620  bidHistory */\n      0x06\n        /* \"Subasta.sol\":2603:2620  return bidHistory */\n      dup1\n      sload\n      dup1\n      0x20\n      mul\n      0x20\n      add\n      mload(0x40)\n      swap1\n      dup2\n      add\n      0x40\n      mstore\n      dup1\n      swap3\n      swap2\n      swap1\n      dup2\n      dup2\n      mstore\n      0x20\n      add\n      0x00\n      swap1\n    tag_82:\n      dup3\n      dup3\n      lt\n      iszero\n      tag_83\n      jumpi\n      dup4\n      dup3\n      swap1\n      0x00\n      mstore\n      keccak256(0x00, 0x20)\n      swap1\n      0x04\n      mul\n      add\n      mload(0x40)\n      dup1\n      0x80\n      add\n      0x40\n      mstore\n      swap1\n      dup2\n      0x00\n      dup3\n      add\n      0x00\n      swap1\n      sload\n      swap1\n      0x0100\n      exp\n      swap1\n      div\n      0xffffffffffffffffffffffffffffffffffffffff\n      and\n      0xffffffffffffffffffffffffffffffffffffffff\n      and\n      0xffffffffffffffffffffffffffffffffffffffff\n      and\n      dup2\n      mstore\n      0x20\n      add\n      0x01\n      dup3\n      add\n      sload\n      dup2\n      mstore\n      0x20\n      add\n      0x02\n      dup3\n      add\n      sload\n      dup2\n      mstore\n      0x20\n      add\n      0x03\n      dup3\n      add\n      0x00\n      swap1\n      sload\n      swap1\n      0x0100\n      exp\n      swap1\n      div\n      0xff\n      and\n      iszero\n      iszero\n      iszero\n      iszero\n      dup2\n      mstore\n      pop\n      pop\n      dup2\n      mstore\n      0x20\n      add\n      swap1\n      0x01\n      add\n      swap1\n      jump(tag_82)\n    tag_83:\n      pop\n      pop\n      pop\n      pop\n      swap1\n      pop\n        /* \"Subasta.sol\":2536:2623  function showBids() external view returns (BidInfo[] memory) {... */\n      swap1\n      jump\t// out\n        /* \"Subasta.sol\":1298:2211  function bid() external payable auctionActive {... */\n    tag_36:\n        /* \"Subasta.sol\":1032:1041  startTime */\n      sload(0x02)\n        /* \"Subasta.sol\":1013:1028  block.timestamp */\n      timestamp\n        /* \"Subasta.sol\":1013:1041  block.timestamp >= startTime */\n      lt\n      iszero\n        /* \"Subasta.sol\":1013:1072  block.timestamp >= startTime && block.timestamp <= stopTime */\n      dup1\n      iszero\n      tag_86\n      jumpi\n      pop\n        /* \"Subasta.sol\":1064:1072  stopTime */\n      sload(0x03)\n        /* \"Subasta.sol\":1045:1060  block.timestamp */\n      timestamp\n        /* \"Subasta.sol\":1045:1072  block.timestamp <= stopTime */\n      gt\n      iszero\n        /* \"Subasta.sol\":1013:1072  block.timestamp >= startTime && block.timestamp <= stopTime */\n    tag_86:\n        /* \"Subasta.sol\":1005:1094  require(block.timestamp >= startTime && block.timestamp <= stopTime, \"Bid is not active\") */\n      tag_87\n      jumpi\n      mload(0x40)\n      0x08c379a000000000000000000000000000000000000000000000000000000000\n      dup2\n      mstore\n      0x04\n      add\n      tag_88\n      swap1\n      tag_89\n      jump\t// in\n    tag_88:\n      mload(0x40)\n      dup1\n      swap2\n      sub\n      swap1\n      revert\n    tag_87:\n        /* \"Subasta.sol\":1467:1468  0 */\n      0x00\n        /* \"Subasta.sol\":1455:1464  msg.value */\n      callvalue\n        /* \"Subasta.sol\":1455:1468  msg.value > 0 */\n      gt\n        /* \"Subasta.sol\":1447:1495  require(msg.value > 0, \"You must send some ETH\") */\n      tag_91\n      jumpi\n      mload(0x40)\n      0x08c379a000000000000000000000000000000000000000000000000000000000\n      dup2\n      mstore\n      0x04\n      add\n      tag_92\n      swap1\n      tag_93\n      jump\t// in\n    tag_92:\n      mload(0x40)\n      dup1\n      swap2\n      sub\n      swap1\n      revert\n    tag_91:\n        /* \"Subasta.sol\":1541:1544  105 */\n      0x69\n        /* \"Subasta.sol\":1528:1538  highestBid */\n      sload(0x00)\n        /* \"Subasta.sol\":1528:1544  highestBid * 105 */\n      tag_94\n      swap2\n      swap1\n      tag_95\n      jump\t// in\n    tag_94:\n        /* \"Subasta.sol\":1521:1524  100 */\n      0x64\n        /* \"Subasta.sol\":1509:1518  msg.value */\n      callvalue\n        /* \"Subasta.sol\":1509:1524  msg.value * 100 */\n      tag_96\n      swap2\n      swap1\n      tag_95\n      jump\t// in\n    tag_96:\n        /* \"Subasta.sol\":1509:1544  msg.value * 100 >= highestBid * 105 */\n      lt\n      iszero\n        /* \"Subasta.sol\":1501:1579  require(msg.value * 100 >= highestBid * 105, \"Bid must be at least 5% higher\") */\n      tag_97\n      jumpi\n      mload(0x40)\n      0x08c379a000000000000000000000000000000000000000000000000000000000\n      dup2\n      mstore\n      0x04\n      add\n      tag_98\n      swap1\n      tag_99\n      jump\t// in\n    tag_98:\n      mload(0x40)\n      dup1\n      swap2\n      sub\n      swap1\n      revert\n    tag_97:\n        /* \"Subasta.sol\":1701:1711  10 minutes */\n      0x0258\n        /* \"Subasta.sol\":1682:1697  block.timestamp */\n      timestamp\n        /* \"Subasta.sol\":1671:1679  stopTime */\n      sload(0x03)\n        /* \"Subasta.sol\":1671:1697  stopTime - block.timestamp */\n      tag_100\n      swap2\n      swap1\n      tag_101\n      jump\t// in\n    tag_100:\n        /* \"Subasta.sol\":1671:1711  stopTime - block.timestamp <= 10 minutes */\n      gt\n        /* \"Subasta.sol\":1667:1748  if (stopTime - block.timestamp <= 10 minutes) {... */\n      tag_102\n      jumpi\n        /* \"Subasta.sol\":1731:1741  10 minutes */\n      0x0258\n        /* \"Subasta.sol\":1719:1727  stopTime */\n      0x03\n      0x00\n        /* \"Subasta.sol\":1719:1741  stopTime += 10 minutes */\n      dup3\n      dup3\n      sload\n      tag_103\n      swap2\n      swap1\n      tag_104\n      jump\t// in\n    tag_103:\n      swap3\n      pop\n      pop\n      dup2\n      swap1\n      sstore\n      pop\n        /* \"Subasta.sol\":1667:1748  if (stopTime - block.timestamp <= 10 minutes) {... */\n    tag_102:\n        /* \"Subasta.sol\":1819:1829  msg.sender */\n      caller\n        /* \"Subasta.sol\":1812:1841  NewBid(msg.sender, msg.value) */\n      0xffffffffffffffffffffffffffffffffffffffff\n      and\n      0xdd0b6c6a77960e2066c96171b4d7ac9e8b4c184011f38544afa36a5bb63ec59f\n        /* \"Subasta.sol\":1831:1840  msg.value */\n      callvalue\n        /* \"Subasta.sol\":1812:1841  NewBid(msg.sender, msg.value) */\n      mload(0x40)\n      tag_105\n      swap2\n      swap1\n      tag_23\n      jump\t// in\n    tag_105:\n      mload(0x40)\n      dup1\n      swap2\n      sub\n      swap1\n      log2\n        /* \"Subasta.sol\":1943:1952  msg.value */\n      callvalue\n        /* \"Subasta.sol\":1923:1927  bids */\n      0x05\n        /* \"Subasta.sol\":1923:1939  bids[msg.sender] */\n      0x00\n        /* \"Subasta.sol\":1928:1938  msg.sender */\n      caller\n        /* \"Subasta.sol\":1923:1939  bids[msg.sender] */\n      0xffffffffffffffffffffffffffffffffffffffff\n      and\n      0xffffffffffffffffffffffffffffffffffffffff\n      and\n      dup2\n      mstore\n      0x20\n      add\n      swap1\n      dup2\n      mstore\n      0x20\n      add\n      0x00\n      keccak256\n      0x00\n        /* \"Subasta.sol\":1923:1952  bids[msg.sender] += msg.value */\n      dup3\n      dup3\n      sload\n      tag_106\n      swap2\n      swap1\n      tag_104\n      jump\t// in\n    tag_106:\n      swap3\n      pop\n      pop\n      dup2\n      swap1\n      sstore\n      pop\n        /* \"Subasta.sol\":2030:2039  msg.value */\n      callvalue\n        /* \"Subasta.sol\":2017:2027  highestBid */\n      0x00\n        /* \"Subasta.sol\":2017:2039  highestBid = msg.value */\n      dup2\n      swap1\n      sstore\n      pop\n        /* \"Subasta.sol\":2061:2071  msg.sender */\n      caller\n        /* \"Subasta.sol\":2045:2058  highestBidder */\n      0x01\n      0x00\n        /* \"Subasta.sol\":2045:2071  highestBidder = msg.sender */\n      0x0100\n      exp\n      dup2\n      sload\n      dup2\n      0xffffffffffffffffffffffffffffffffffffffff\n      mul\n      not\n      and\n      swap1\n      dup4\n      0xffffffffffffffffffffffffffffffffffffffff\n      and\n      mul\n      or\n      swap1\n      sstore\n      pop\n        /* \"Subasta.sol\":2137:2147  bidHistory */\n      0x06\n        /* \"Subasta.sol\":2153:2207  BidInfo(msg.sender, msg.value, block.timestamp, false) */\n      mload(0x40)\n      dup1\n      0x80\n      add\n      0x40\n      mstore\n      dup1\n        /* \"Subasta.sol\":2161:2171  msg.sender */\n      caller\n        /* \"Subasta.sol\":2153:2207  BidInfo(msg.sender, msg.value, block.timestamp, false) */\n      0xffffffffffffffffffffffffffffffffffffffff\n      and\n      dup2\n      mstore\n      0x20\n      add\n        /* \"Subasta.sol\":2173:2182  msg.value */\n      callvalue\n        /* \"Subasta.sol\":2153:2207  BidInfo(msg.sender, msg.value, block.timestamp, false) */\n      dup2\n      mstore\n      0x20\n      add\n        /* \"Subasta.sol\":2184:2199  block.timestamp */\n      timestamp\n        /* \"Subasta.sol\":2153:2207  BidInfo(msg.sender, msg.value, block.timestamp, false) */\n      dup2\n      mstore\n      0x20\n      add\n        /* \"Subasta.sol\":2201:2206  false */\n      0x00\n        /* \"Subasta.sol\":2153:2207  BidInfo(msg.sender, msg.value, block.timestamp, false) */\n      iszero\n      iszero\n      dup2\n      mstore\n      pop\n        /* \"Subasta.sol\":2137:2208  bidHistory.push(BidInfo(msg.sender, msg.value, block.timestamp, false)) */\n      swap1\n      dup1\n      0x01\n      dup2\n      sload\n      add\n      dup1\n      dup3\n      sstore\n      dup1\n      swap2\n      pop\n      pop\n      0x01\n      swap1\n      sub\n      swap1\n      0x00\n      mstore\n      keccak256(0x00, 0x20)\n      swap1\n      0x04\n      mul\n      add\n      0x00\n      swap1\n      swap2\n      swap1\n      swap2\n      swap1\n      swap2\n      pop\n      0x00\n      dup3\n      add\n      mload\n      dup2\n      0x00\n      add\n      exp(0x0100, 0x00)\n      dup2\n      sload\n      dup2\n      0xffffffffffffffffffffffffffffffffffffffff\n      mul\n      not\n      and\n      swap1\n      dup4\n      0xffffffffffffffffffffffffffffffffffffffff\n      and\n      mul\n      or\n      swap1\n      sstore\n      pop\n      0x20\n      dup3\n      add\n      mload\n      dup2\n      0x01\n      add\n      sstore\n      0x40\n      dup3\n      add\n      mload\n      dup2\n      0x02\n      add\n      sstore\n      0x60\n      dup3\n      add\n      mload\n      dup2\n      0x03\n      add\n      exp(0x0100, 0x00)\n      dup2\n      sload\n      dup2\n      0xff\n      mul\n      not\n      and\n      swap1\n      dup4\n      iszero\n      iszero\n      mul\n      or\n      swap1\n      sstore\n      pop\n      pop\n      pop\n        /* \"Subasta.sol\":1298:2211  function bid() external payable auctionActive {... */\n      jump\t// out\n        /* \"Subasta.sol\":2665:3800  function partialRefund() external auctionActive {... */\n    tag_39:\n        /* \"Subasta.sol\":1032:1041  startTime */\n      sload(0x02)\n        /* \"Subasta.sol\":1013:1028  block.timestamp */\n      timestamp\n        /* \"Subasta.sol\":1013:1041  block.timestamp >= startTime */\n      lt\n      iszero\n        /* \"Subasta.sol\":1013:1072  block.timestamp >= startTime && block.timestamp <= stopTime */\n      dup1\n      iszero\n      tag_109\n      jumpi\n      pop\n        /* \"Subasta.sol\":1064:1072  stopTime */\n      sload(0x03)\n        /* \"Subasta.sol\":1045:1060  block.timestamp */\n      timestamp\n        /* \"Subasta.sol\":1045:1072  block.timestamp <= stopTime */\n      gt\n      iszero\n        /* \"Subasta.sol\":1013:1072  block.timestamp >= startTime && block.timestamp <= stopTime */\n    tag_109:\n        /* \"Subasta.sol\":1005:1094  require(block.timestamp >= startTime && block.timestamp <= stopTime, \"Bid is not active\") */\n      tag_110\n      jumpi\n      mload(0x40)\n      0x08c379a000000000000000000000000000000000000000000000000000000000\n      dup2\n      mstore\n      0x04\n      add\n      tag_111\n      swap1\n      tag_89\n      jump\t// in\n    tag_111:\n      mload(0x40)\n      dup1\n      swap2\n      sub\n      swap1\n      revert\n    tag_110:\n        /* \"Subasta.sol\":2719:2732  uint256 count */\n      0x00\n        /* \"Subasta.sol\":2735:2736  0 */\n      0x00\n        /* \"Subasta.sol\":2719:2736  uint256 count = 0 */\n      swap1\n      pop\n        /* \"Subasta.sol\":2826:2832  uint i */\n      0x00\n        /* \"Subasta.sol\":2835:2836  0 */\n      0x00\n        /* \"Subasta.sol\":2826:2836  uint i = 0 */\n      swap1\n      pop\n        /* \"Subasta.sol\":2821:2981  for (uint i = 0; i < bidHistory.length; i++) {... */\n    tag_113:\n        /* \"Subasta.sol\":2842:2852  bidHistory */\n      0x06\n        /* \"Subasta.sol\":2842:2859  bidHistory.length */\n      dup1\n      sload\n      swap1\n      pop\n        /* \"Subasta.sol\":2838:2839  i */\n      dup2\n        /* \"Subasta.sol\":2838:2859  i < bidHistory.length */\n      lt\n        /* \"Subasta.sol\":2821:2981  for (uint i = 0; i < bidHistory.length; i++) {... */\n      iszero\n      tag_114\n      jumpi\n        /* \"Subasta.sol\":2904:2914  msg.sender */\n      caller\n        /* \"Subasta.sol\":2880:2914  bidHistory[i].bidder == msg.sender */\n      0xffffffffffffffffffffffffffffffffffffffff\n      and\n        /* \"Subasta.sol\":2880:2890  bidHistory */\n      0x06\n        /* \"Subasta.sol\":2891:2892  i */\n      dup3\n        /* \"Subasta.sol\":2880:2893  bidHistory[i] */\n      dup2\n      sload\n      dup2\n      lt\n      tag_116\n      jumpi\n      tag_117\n      tag_118\n      jump\t// in\n    tag_117:\n    tag_116:\n      swap1\n      0x00\n      mstore\n      keccak256(0x00, 0x20)\n      swap1\n      0x04\n      mul\n      add\n        /* \"Subasta.sol\":2880:2900  bidHistory[i].bidder */\n      0x00\n      add\n      0x00\n      swap1\n      sload\n      swap1\n      0x0100\n      exp\n      swap1\n      div\n      0xffffffffffffffffffffffffffffffffffffffff\n      and\n        /* \"Subasta.sol\":2880:2914  bidHistory[i].bidder == msg.sender */\n      0xffffffffffffffffffffffffffffffffffffffff\n      and\n      eq\n        /* \"Subasta.sol\":2880:2941  bidHistory[i].bidder == msg.sender && !bidHistory[i].refunded */\n      dup1\n      iszero\n      tag_120\n      jumpi\n      pop\n        /* \"Subasta.sol\":2919:2929  bidHistory */\n      0x06\n        /* \"Subasta.sol\":2930:2931  i */\n      dup2\n        /* \"Subasta.sol\":2919:2932  bidHistory[i] */\n      dup2\n      sload\n      dup2\n      lt\n      tag_121\n      jumpi\n      tag_122\n      tag_118\n      jump\t// in\n    tag_122:\n    tag_121:\n      swap1\n      0x00\n      mstore\n      keccak256(0x00, 0x20)\n      swap1\n      0x04\n      mul\n      add\n        /* \"Subasta.sol\":2919:2941  bidHistory[i].refunded */\n      0x03\n      add\n      0x00\n      swap1\n      sload\n      swap1\n      0x0100\n      exp\n      swap1\n      div\n      0xff\n      and\n        /* \"Subasta.sol\":2918:2941  !bidHistory[i].refunded */\n      iszero\n        /* \"Subasta.sol\":2880:2941  bidHistory[i].bidder == msg.sender && !bidHistory[i].refunded */\n    tag_120:\n        /* \"Subasta.sol\":2876:2975  if (bidHistory[i].bidder == msg.sender && !bidHistory[i].refunded) {... */\n      iszero\n      tag_124\n      jumpi\n        /* \"Subasta.sol\":2957:2964  count++ */\n      dup2\n      dup1\n      tag_125\n      swap1\n      tag_126\n      jump\t// in\n    tag_125:\n      swap3\n      pop\n      pop\n        /* \"Subasta.sol\":2876:2975  if (bidHistory[i].bidder == msg.sender && !bidHistory[i].refunded) {... */\n    tag_124:\n        /* \"Subasta.sol\":2861:2864  i++ */\n      dup1\n      dup1\n      0x01\n      add\n      swap2\n      pop\n      pop\n        /* \"Subasta.sol\":2821:2981  for (uint i = 0; i < bidHistory.length; i++) {... */\n      jump(tag_113)\n    tag_114:\n      pop\n        /* \"Subasta.sol\":3003:3004  1 */\n      0x01\n        /* \"Subasta.sol\":2995:3000  count */\n      dup2\n        /* \"Subasta.sol\":2995:3004  count > 1 */\n      gt\n        /* \"Subasta.sol\":2987:3033  require(count > 1, \"No refundable bids found\") */\n      tag_127\n      jumpi\n      mload(0x40)\n      0x08c379a000000000000000000000000000000000000000000000000000000000\n      dup2\n      mstore\n      0x04\n      add\n      tag_128\n      swap1\n      tag_129\n      jump\t// in\n    tag_128:\n      mload(0x40)\n      dup1\n      swap2\n      sub\n      swap1\n      revert\n    tag_127:\n        /* \"Subasta.sol\":3040:3055  uint256 counter */\n      0x00\n        /* \"Subasta.sol\":3058:3059  0 */\n      0x00\n        /* \"Subasta.sol\":3040:3059  uint256 counter = 0 */\n      swap1\n      pop\n        /* \"Subasta.sol\":3065:3085  uint256 refundAmount */\n      0x00\n        /* \"Subasta.sol\":3088:3089  0 */\n      0x00\n        /* \"Subasta.sol\":3065:3089  uint256 refundAmount = 0 */\n      swap1\n      pop\n        /* \"Subasta.sol\":3202:3208  uint i */\n      0x00\n        /* \"Subasta.sol\":3211:3212  0 */\n      0x00\n        /* \"Subasta.sol\":3202:3212  uint i = 0 */\n      swap1\n      pop\n        /* \"Subasta.sol\":3197:3509  for (uint i = 0; i < bidHistory.length; i++) {... */\n    tag_130:\n        /* \"Subasta.sol\":3218:3228  bidHistory */\n      0x06\n        /* \"Subasta.sol\":3218:3235  bidHistory.length */\n      dup1\n      sload\n      swap1\n      pop\n        /* \"Subasta.sol\":3214:3215  i */\n      dup2\n        /* \"Subasta.sol\":3214:3235  i < bidHistory.length */\n      lt\n        /* \"Subasta.sol\":3197:3509  for (uint i = 0; i < bidHistory.length; i++) {... */\n      iszero\n      tag_131\n      jumpi\n        /* \"Subasta.sol\":3280:3290  msg.sender */\n      caller\n        /* \"Subasta.sol\":3256:3290  bidHistory[i].bidder == msg.sender */\n      0xffffffffffffffffffffffffffffffffffffffff\n      and\n        /* \"Subasta.sol\":3256:3266  bidHistory */\n      0x06\n        /* \"Subasta.sol\":3267:3268  i */\n      dup3\n        /* \"Subasta.sol\":3256:3269  bidHistory[i] */\n      dup2\n      sload\n      dup2\n      lt\n      tag_133\n      jumpi\n      tag_134\n      tag_118\n      jump\t// in\n    tag_134:\n    tag_133:\n      swap1\n      0x00\n      mstore\n      keccak256(0x00, 0x20)\n      swap1\n      0x04\n      mul\n      add\n        /* \"Subasta.sol\":3256:3276  bidHistory[i].bidder */\n      0x00\n      add\n      0x00\n      swap1\n      sload\n      swap1\n      0x0100\n      exp\n      swap1\n      div\n      0xffffffffffffffffffffffffffffffffffffffff\n      and\n        /* \"Subasta.sol\":3256:3290  bidHistory[i].bidder == msg.sender */\n      0xffffffffffffffffffffffffffffffffffffffff\n      and\n      eq\n        /* \"Subasta.sol\":3256:3317  bidHistory[i].bidder == msg.sender && !bidHistory[i].refunded */\n      dup1\n      iszero\n      tag_136\n      jumpi\n      pop\n        /* \"Subasta.sol\":3295:3305  bidHistory */\n      0x06\n        /* \"Subasta.sol\":3306:3307  i */\n      dup2\n        /* \"Subasta.sol\":3295:3308  bidHistory[i] */\n      dup2\n      sload\n      dup2\n      lt\n      tag_137\n      jumpi\n      tag_138\n      tag_118\n      jump\t// in\n    tag_138:\n    tag_137:\n      swap1\n      0x00\n      mstore\n      keccak256(0x00, 0x20)\n      swap1\n      0x04\n      mul\n      add\n        /* \"Subasta.sol\":3295:3317  bidHistory[i].refunded */\n      0x03\n      add\n      0x00\n      swap1\n      sload\n      swap1\n      0x0100\n      exp\n      swap1\n      div\n      0xff\n      and\n        /* \"Subasta.sol\":3294:3317  !bidHistory[i].refunded */\n      iszero\n        /* \"Subasta.sol\":3256:3317  bidHistory[i].bidder == msg.sender && !bidHistory[i].refunded */\n    tag_136:\n        /* \"Subasta.sol\":3252:3503  if (bidHistory[i].bidder == msg.sender && !bidHistory[i].refunded) {... */\n      iszero\n      tag_140\n      jumpi\n        /* \"Subasta.sol\":3333:3342  counter++ */\n      dup3\n      dup1\n      tag_141\n      swap1\n      tag_126\n      jump\t// in\n    tag_141:\n      swap4\n      pop\n      pop\n        /* \"Subasta.sol\":3370:3375  count */\n      dup4\n        /* \"Subasta.sol\":3360:3367  counter */\n      dup4\n        /* \"Subasta.sol\":3360:3375  counter < count */\n      lt\n        /* \"Subasta.sol\":3356:3493  if (counter < count) {... */\n      iszero\n      tag_142\n      jumpi\n        /* \"Subasta.sol\":3411:3421  bidHistory */\n      0x06\n        /* \"Subasta.sol\":3422:3423  i */\n      dup2\n        /* \"Subasta.sol\":3411:3424  bidHistory[i] */\n      dup2\n      sload\n      dup2\n      lt\n      tag_143\n      jumpi\n      tag_144\n      tag_118\n      jump\t// in\n    tag_144:\n    tag_143:\n      swap1\n      0x00\n      mstore\n      keccak256(0x00, 0x20)\n      swap1\n      0x04\n      mul\n      add\n        /* \"Subasta.sol\":3411:3431  bidHistory[i].amount */\n      0x01\n      add\n      sload\n        /* \"Subasta.sol\":3395:3431  refundAmount += bidHistory[i].amount */\n      dup3\n      tag_146\n      swap2\n      swap1\n      tag_104\n      jump\t// in\n    tag_146:\n      swap2\n      pop\n        /* \"Subasta.sol\":3474:3478  true */\n      0x01\n        /* \"Subasta.sol\":3449:3459  bidHistory */\n      0x06\n        /* \"Subasta.sol\":3460:3461  i */\n      dup3\n        /* \"Subasta.sol\":3449:3462  bidHistory[i] */\n      dup2\n      sload\n      dup2\n      lt\n      tag_147\n      jumpi\n      tag_148\n      tag_118\n      jump\t// in\n    tag_148:\n    tag_147:\n      swap1\n      0x00\n      mstore\n      keccak256(0x00, 0x20)\n      swap1\n      0x04\n      mul\n      add\n        /* \"Subasta.sol\":3449:3471  bidHistory[i].refunded */\n      0x03\n      add\n      0x00\n        /* \"Subasta.sol\":3449:3478  bidHistory[i].refunded = true */\n      0x0100\n      exp\n      dup2\n      sload\n      dup2\n      0xff\n      mul\n      not\n      and\n      swap1\n      dup4\n      iszero\n      iszero\n      mul\n      or\n      swap1\n      sstore\n      pop\n        /* \"Subasta.sol\":3356:3493  if (counter < count) {... */\n    tag_142:\n        /* \"Subasta.sol\":3252:3503  if (bidHistory[i].bidder == msg.sender && !bidHistory[i].refunded) {... */\n    tag_140:\n        /* \"Subasta.sol\":3237:3240  i++ */\n      dup1\n      dup1\n      0x01\n      add\n      swap2\n      pop\n      pop\n        /* \"Subasta.sol\":3197:3509  for (uint i = 0; i < bidHistory.length; i++) {... */\n      jump(tag_130)\n    tag_131:\n      pop\n        /* \"Subasta.sol\":3538:3539  0 */\n      0x00\n        /* \"Subasta.sol\":3523:3535  refundAmount */\n      dup2\n        /* \"Subasta.sol\":3523:3539  refundAmount > 0 */\n      gt\n        /* \"Subasta.sol\":3515:3561  require(refundAmount > 0, \"Nothing to refund\") */\n      tag_150\n      jumpi\n      mload(0x40)\n      0x08c379a000000000000000000000000000000000000000000000000000000000\n      dup2\n      mstore\n      0x04\n      add\n      tag_151\n      swap1\n      tag_152\n      jump\t// in\n    tag_151:\n      mload(0x40)\n      dup1\n      swap2\n      sub\n      swap1\n      revert\n    tag_150:\n        /* \"Subasta.sol\":3609:3618  bool sent */\n      0x00\n        /* \"Subasta.sol\":3632:3642  msg.sender */\n      caller\n        /* \"Subasta.sol\":3624:3648  payable(msg.sender).call */\n      0xffffffffffffffffffffffffffffffffffffffff\n      and\n        /* \"Subasta.sol\":3656:3668  refundAmount */\n      dup3\n        /* \"Subasta.sol\":3624:3673  payable(msg.sender).call{value: refundAmount}(\"\") */\n      mload(0x40)\n      tag_153\n      swap1\n      tag_154\n      jump\t// in\n    tag_153:\n      0x00\n      mload(0x40)\n      dup1\n      dup4\n      sub\n      dup2\n      dup6\n      dup8\n      gas\n      call\n      swap3\n      pop\n      pop\n      pop\n      returndatasize\n      dup1\n      0x00\n      dup2\n      eq\n      tag_157\n      jumpi\n      mload(0x40)\n      swap2\n      pop\n      and(add(returndatasize, 0x3f), not(0x1f))\n      dup3\n      add\n      0x40\n      mstore\n      returndatasize\n      dup3\n      mstore\n      returndatasize\n      0x00\n      0x20\n      dup5\n      add\n      returndatacopy\n      jump(tag_156)\n    tag_157:\n      0x60\n      swap2\n      pop\n    tag_156:\n      pop\n        /* \"Subasta.sol\":3608:3673  (bool sent, ) = payable(msg.sender).call{value: refundAmount}(\"\") */\n      pop\n      swap1\n      pop\n        /* \"Subasta.sol\":3687:3691  sent */\n      dup1\n        /* \"Subasta.sol\":3679:3709  require(sent, \"Refund failed\") */\n      tag_158\n      jumpi\n      mload(0x40)\n      0x08c379a000000000000000000000000000000000000000000000000000000000\n      dup2\n      mstore\n      0x04\n      add\n      tag_159\n      swap1\n      tag_160\n      jump\t// in\n    tag_159:\n      mload(0x40)\n      dup1\n      swap2\n      sub\n      swap1\n      revert\n    tag_158:\n        /* \"Subasta.sol\":3785:3797  refundAmount */\n      dup2\n        /* \"Subasta.sol\":3765:3769  bids */\n      0x05\n        /* \"Subasta.sol\":3765:3781  bids[msg.sender] */\n      0x00\n        /* \"Subasta.sol\":3770:3780  msg.sender */\n      caller\n        /* \"Subasta.sol\":3765:3781  bids[msg.sender] */\n      0xffffffffffffffffffffffffffffffffffffffff\n      and\n      0xffffffffffffffffffffffffffffffffffffffff\n      and\n      dup2\n      mstore\n      0x20\n      add\n      swap1\n      dup2\n      mstore\n      0x20\n      add\n      0x00\n      keccak256\n      0x00\n        /* \"Subasta.sol\":3765:3797  bids[msg.sender] -= refundAmount */\n      dup3\n      dup3\n      sload\n      tag_161\n      swap2\n      swap1\n      tag_101\n      jump\t// in\n    tag_161:\n      swap3\n      pop\n      pop\n      dup2\n      swap1\n      sstore\n      pop\n        /* \"Subasta.sol\":2713:3800  {... */\n      pop\n      pop\n      pop\n      pop\n        /* \"Subasta.sol\":2665:3800  function partialRefund() external auctionActive {... */\n      jump\t// out\n        /* \"Subasta.sol\":4023:4591  function refundAll() external payable onlyOwner auctionFinalized { ... */\n    tag_41:\n        /* \"Subasta.sol\":876:881  owner */\n      0x04\n      0x00\n      swap1\n      sload\n      swap1\n      0x0100\n      exp\n      swap1\n      div\n      0xffffffffffffffffffffffffffffffffffffffff\n      and\n        /* \"Subasta.sol\":862:881  msg.sender == owner */\n      0xffffffffffffffffffffffffffffffffffffffff\n      and\n        /* \"Subasta.sol\":862:872  msg.sender */\n      caller\n        /* \"Subasta.sol\":862:881  msg.sender == owner */\n      0xffffffffffffffffffffffffffffffffffffffff\n      and\n      eq\n        /* \"Subasta.sol\":854:924  require(msg.sender == owner, \"Only the owner can call this function.\") */\n      tag_163\n      jumpi\n      mload(0x40)\n      0x08c379a000000000000000000000000000000000000000000000000000000000\n      dup2\n      mstore\n      0x04\n      add\n      tag_164\n      swap1\n      tag_165\n      jump\t// in\n    tag_164:\n      mload(0x40)\n      dup1\n      swap2\n      sub\n      swap1\n      revert\n    tag_163:\n        /* \"Subasta.sol\":1208:1216  stopTime */\n      sload(0x03)\n        /* \"Subasta.sol\":1189:1204  block.timestamp */\n      timestamp\n        /* \"Subasta.sol\":1189:1216  block.timestamp >= stopTime */\n      lt\n      iszero\n        /* \"Subasta.sol\":1181:1248  require(block.timestamp >= stopTime, \"The auction is not over yet\") */\n      tag_167\n      jumpi\n      mload(0x40)\n      0x08c379a000000000000000000000000000000000000000000000000000000000\n      dup2\n      mstore\n      0x04\n      add\n      tag_168\n      swap1\n      tag_169\n      jump\t// in\n    tag_168:\n      mload(0x40)\n      dup1\n      swap2\n      sub\n      swap1\n      revert\n    tag_167:\n        /* \"Subasta.sol\":4099:4105  uint i */\n      0x00\n        /* \"Subasta.sol\":4108:4109  0 */\n      0x00\n        /* \"Subasta.sol\":4099:4109  uint i = 0 */\n      swap1\n      pop\n        /* \"Subasta.sol\":4095:4564  for(uint i = 0; i < bidHistory.length; ++i) {... */\n    tag_171:\n        /* \"Subasta.sol\":4115:4125  bidHistory */\n      0x06\n        /* \"Subasta.sol\":4115:4132  bidHistory.length */\n      dup1\n      sload\n      swap1\n      pop\n        /* \"Subasta.sol\":4111:4112  i */\n      dup2\n        /* \"Subasta.sol\":4111:4132  i < bidHistory.length */\n      lt\n        /* \"Subasta.sol\":4095:4564  for(uint i = 0; i < bidHistory.length; ++i) {... */\n      iszero\n      tag_172\n      jumpi\n        /* \"Subasta.sol\":4176:4186  highestBid */\n      sload(0x00)\n        /* \"Subasta.sol\":4152:4162  bidHistory */\n      0x06\n        /* \"Subasta.sol\":4163:4164  i */\n      dup3\n        /* \"Subasta.sol\":4152:4165  bidHistory[i] */\n      dup2\n      sload\n      dup2\n      lt\n      tag_174\n      jumpi\n      tag_175\n      tag_118\n      jump\t// in\n    tag_175:\n    tag_174:\n      swap1\n      0x00\n      mstore\n      keccak256(0x00, 0x20)\n      swap1\n      0x04\n      mul\n      add\n        /* \"Subasta.sol\":4152:4172  bidHistory[i].amount */\n      0x01\n      add\n      sload\n        /* \"Subasta.sol\":4152:4186  bidHistory[i].amount != highestBid */\n      eq\n      iszero\n        /* \"Subasta.sol\":4152:4221  bidHistory[i].amount != highestBid && bidHistory[i].refunded == false */\n      dup1\n      iszero\n      tag_177\n      jumpi\n      pop\n        /* \"Subasta.sol\":4216:4221  false */\n      0x00\n        /* \"Subasta.sol\":4190:4221  bidHistory[i].refunded == false */\n      iszero\n      iszero\n        /* \"Subasta.sol\":4190:4200  bidHistory */\n      0x06\n        /* \"Subasta.sol\":4201:4202  i */\n      dup3\n        /* \"Subasta.sol\":4190:4203  bidHistory[i] */\n      dup2\n      sload\n      dup2\n      lt\n      tag_178\n      jumpi\n      tag_179\n      tag_118\n      jump\t// in\n    tag_179:\n    tag_178:\n      swap1\n      0x00\n      mstore\n      keccak256(0x00, 0x20)\n      swap1\n      0x04\n      mul\n      add\n        /* \"Subasta.sol\":4190:4212  bidHistory[i].refunded */\n      0x03\n      add\n      0x00\n      swap1\n      sload\n      swap1\n      0x0100\n      exp\n      swap1\n      div\n      0xff\n      and\n        /* \"Subasta.sol\":4190:4221  bidHistory[i].refunded == false */\n      iszero\n      iszero\n      eq\n        /* \"Subasta.sol\":4152:4221  bidHistory[i].amount != highestBid && bidHistory[i].refunded == false */\n    tag_177:\n        /* \"Subasta.sol\":4149:4558  if(bidHistory[i].amount != highestBid && bidHistory[i].refunded == false) {... */\n      iszero\n      tag_181\n      jumpi\n        /* \"Subasta.sol\":4237:4254  uint refundAmount */\n      0x00\n        /* \"Subasta.sol\":4287:4290  100 */\n      0x64\n        /* \"Subasta.sol\":4282:4284  98 */\n      0x62\n        /* \"Subasta.sol\":4258:4268  bidHistory */\n      0x06\n        /* \"Subasta.sol\":4269:4270  i */\n      dup5\n        /* \"Subasta.sol\":4258:4271  bidHistory[i] */\n      dup2\n      sload\n      dup2\n      lt\n      tag_182\n      jumpi\n      tag_183\n      tag_118\n      jump\t// in\n    tag_183:\n    tag_182:\n      swap1\n      0x00\n      mstore\n      keccak256(0x00, 0x20)\n      swap1\n      0x04\n      mul\n      add\n        /* \"Subasta.sol\":4258:4278  bidHistory[i].amount */\n      0x01\n      add\n      sload\n        /* \"Subasta.sol\":4257:4284  (bidHistory[i].amount) * 98 */\n      tag_185\n      swap2\n      swap1\n      tag_95\n      jump\t// in\n    tag_185:\n        /* \"Subasta.sol\":4257:4290  (bidHistory[i].amount) * 98 / 100 */\n      tag_186\n      swap2\n      swap1\n      tag_187\n      jump\t// in\n    tag_186:\n        /* \"Subasta.sol\":4237:4290  uint refundAmount = (bidHistory[i].amount) * 98 / 100 */\n      swap1\n      pop\n        /* \"Subasta.sol\":4373:4382  bool sent */\n      0x00\n        /* \"Subasta.sol\":4396:4406  bidHistory */\n      0x06\n        /* \"Subasta.sol\":4407:4408  i */\n      dup4\n        /* \"Subasta.sol\":4396:4409  bidHistory[i] */\n      dup2\n      sload\n      dup2\n      lt\n      tag_188\n      jumpi\n      tag_189\n      tag_118\n      jump\t// in\n    tag_189:\n    tag_188:\n      swap1\n      0x00\n      mstore\n      keccak256(0x00, 0x20)\n      swap1\n      0x04\n      mul\n      add\n        /* \"Subasta.sol\":4396:4416  bidHistory[i].bidder */\n      0x00\n      add\n      0x00\n      swap1\n      sload\n      swap1\n      0x0100\n      exp\n      swap1\n      div\n      0xffffffffffffffffffffffffffffffffffffffff\n      and\n        /* \"Subasta.sol\":4388:4422  payable(bidHistory[i].bidder).call */\n      0xffffffffffffffffffffffffffffffffffffffff\n      and\n        /* \"Subasta.sol\":4430:4442  refundAmount */\n      dup3\n        /* \"Subasta.sol\":4388:4447  payable(bidHistory[i].bidder).call{value: refundAmount}(\"\") */\n      mload(0x40)\n      tag_191\n      swap1\n      tag_154\n      jump\t// in\n    tag_191:\n      0x00\n      mload(0x40)\n      dup1\n      dup4\n      sub\n      dup2\n      dup6\n      dup8\n      gas\n      call\n      swap3\n      pop\n      pop\n      pop\n      returndatasize\n      dup1\n      0x00\n      dup2\n      eq\n      tag_194\n      jumpi\n      mload(0x40)\n      swap2\n      pop\n      and(add(returndatasize, 0x3f), not(0x1f))\n      dup3\n      add\n      0x40\n      mstore\n      returndatasize\n      dup3\n      mstore\n      returndatasize\n      0x00\n      0x20\n      dup5\n      add\n      returndatacopy\n      jump(tag_193)\n    tag_194:\n      0x60\n      swap2\n      pop\n    tag_193:\n      pop\n        /* \"Subasta.sol\":4372:4447  (bool sent, ) = payable(bidHistory[i].bidder).call{value: refundAmount}(\"\") */\n      pop\n      swap1\n      pop\n        /* \"Subasta.sol\":4469:4473  sent */\n      dup1\n        /* \"Subasta.sol\":4461:4491  require(sent, \"Refund failed\") */\n      tag_195\n      jumpi\n      mload(0x40)\n      0x08c379a000000000000000000000000000000000000000000000000000000000\n      dup2\n      mstore\n      0x04\n      add\n      tag_196\n      swap1\n      tag_160\n      jump\t// in\n    tag_196:\n      mload(0x40)\n      dup1\n      swap2\n      sub\n      swap1\n      revert\n    tag_195:\n        /* \"Subasta.sol\":4543:4547  true */\n      0x01\n        /* \"Subasta.sol\":4518:4528  bidHistory */\n      0x06\n        /* \"Subasta.sol\":4529:4530  i */\n      dup5\n        /* \"Subasta.sol\":4518:4531  bidHistory[i] */\n      dup2\n      sload\n      dup2\n      lt\n      tag_197\n      jumpi\n      tag_198\n      tag_118\n      jump\t// in\n    tag_198:\n    tag_197:\n      swap1\n      0x00\n      mstore\n      keccak256(0x00, 0x20)\n      swap1\n      0x04\n      mul\n      add\n        /* \"Subasta.sol\":4518:4540  bidHistory[i].refunded */\n      0x03\n      add\n      0x00\n        /* \"Subasta.sol\":4518:4547  bidHistory[i].refunded = true */\n      0x0100\n      exp\n      dup2\n      sload\n      dup2\n      0xff\n      mul\n      not\n      and\n      swap1\n      dup4\n      iszero\n      iszero\n      mul\n      or\n      swap1\n      sstore\n      pop\n        /* \"Subasta.sol\":4223:4558  {... */\n      pop\n      pop\n        /* \"Subasta.sol\":4149:4558  if(bidHistory[i].amount != highestBid && bidHistory[i].refunded == false) {... */\n    tag_181:\n        /* \"Subasta.sol\":4134:4137  ++i */\n      dup1\n      0x01\n      add\n      swap1\n      pop\n        /* \"Subasta.sol\":4095:4564  for(uint i = 0; i < bidHistory.length; ++i) {... */\n      jump(tag_171)\n    tag_172:\n      pop\n        /* \"Subasta.sol\":4574:4588  AuctionEnded() */\n      0xa0e92984607195c326795751263414ee1074526323552e694c90ef2b99ae3f29\n      mload(0x40)\n      mload(0x40)\n      dup1\n      swap2\n      sub\n      swap1\n      log1\n        /* \"Subasta.sol\":4023:4591  function refundAll() external payable onlyOwner auctionFinalized { ... */\n      jump\t// out\n        /* \"Subasta.sol\":3840:3965  function showFinalWinner() external view auctionFinalized returns (address, uint) {... */\n    tag_44:\n        /* \"Subasta.sol\":3907:3914  address */\n      0x00\n        /* \"Subasta.sol\":3916:3920  uint */\n      0x00\n        /* \"Subasta.sol\":1208:1216  stopTime */\n      sload(0x03)\n        /* \"Subasta.sol\":1189:1204  block.timestamp */\n      timestamp\n        /* \"Subasta.sol\":1189:1216  block.timestamp >= stopTime */\n      lt\n      iszero\n        /* \"Subasta.sol\":1181:1248  require(block.timestamp >= stopTime, \"The auction is not over yet\") */\n      tag_201\n      jumpi\n      mload(0x40)\n      0x08c379a000000000000000000000000000000000000000000000000000000000\n      dup2\n      mstore\n      0x04\n      add\n      tag_202\n      swap1\n      tag_169\n      jump\t// in\n    tag_202:\n      mload(0x40)\n      dup1\n      swap2\n      sub\n      swap1\n      revert\n    tag_201:\n        /* \"Subasta.sol\":3936:3949  highestBidder */\n      0x01\n      0x00\n      swap1\n      sload\n      swap1\n      0x0100\n      exp\n      swap1\n      div\n      0xffffffffffffffffffffffffffffffffffffffff\n      and\n        /* \"Subasta.sol\":3951:3961  highestBid */\n      sload(0x00)\n        /* \"Subasta.sol\":3928:3962  return (highestBidder, highestBid) */\n      swap2\n      pop\n      swap2\n      pop\n        /* \"Subasta.sol\":3840:3965  function showFinalWinner() external view auctionFinalized returns (address, uint) {... */\n      swap1\n      swap2\n      jump\t// out\n        /* \"Subasta.sol\":153:177  uint256 public startTime */\n    tag_49:\n      sload(0x02)\n      dup2\n      jump\t// out\n        /* \"Subasta.sol\":204:232  address payable public owner */\n    tag_53:\n      0x04\n      0x00\n      swap1\n      sload\n      swap1\n      0x0100\n      exp\n      swap1\n      div\n      0xffffffffffffffffffffffffffffffffffffffff\n      and\n      dup2\n      jump\t// out\n        /* \"Subasta.sol\":123:151  address public highestBidder */\n    tag_58:\n      0x01\n      0x00\n      swap1\n      sload\n      swap1\n      0x0100\n      exp\n      swap1\n      div\n      0xffffffffffffffffffffffffffffffffffffffff\n      and\n      dup2\n      jump\t// out\n        /* \"Subasta.sol\":4647:4729  function getTimeNow() external view returns (uint) {... */\n    tag_63:\n        /* \"Subasta.sol\":4692:4696  uint */\n      0x00\n        /* \"Subasta.sol\":4711:4726  block.timestamp */\n      timestamp\n        /* \"Subasta.sol\":4704:4726  return block.timestamp */\n      swap1\n      pop\n        /* \"Subasta.sol\":4647:4729  function getTimeNow() external view returns (uint) {... */\n      swap1\n      jump\t// out\n        /* \"Subasta.sol\":2390:2500  function showCurrentWinner() external view returns (address, uint) {... */\n    tag_67:\n        /* \"Subasta.sol\":2442:2449  address */\n      0x00\n        /* \"Subasta.sol\":2451:2455  uint */\n      0x00\n        /* \"Subasta.sol\":2471:2484  highestBidder */\n      0x01\n      0x00\n      swap1\n      sload\n      swap1\n      0x0100\n      exp\n      swap1\n      div\n      0xffffffffffffffffffffffffffffffffffffffff\n      and\n        /* \"Subasta.sol\":2486:2496  highestBid */\n      sload(0x00)\n        /* \"Subasta.sol\":2463:2497  return (highestBidder, highestBid) */\n      swap2\n      pop\n      swap2\n      pop\n        /* \"Subasta.sol\":2390:2500  function showCurrentWinner() external view returns (address, uint) {... */\n      swap1\n      swap2\n      jump\t// out\n        /* \"Subasta.sol\":99:121  uint public highestBid */\n    tag_71:\n      sload(0x00)\n      dup2\n      jump\t// out\n        /* \"Subasta.sol\":546:573  BidInfo[] public bidHistory */\n    tag_77:\n      0x06\n      dup2\n      dup2\n      sload\n      dup2\n      lt\n      tag_206\n      jumpi\n      0x00\n      dup1\n      revert\n    tag_206:\n      swap1\n      0x00\n      mstore\n      keccak256(0x00, 0x20)\n      swap1\n      0x04\n      mul\n      add\n      0x00\n      swap2\n      pop\n      swap1\n      pop\n      dup1\n      0x00\n      add\n      0x00\n      swap1\n      sload\n      swap1\n      0x0100\n      exp\n      swap1\n      div\n      0xffffffffffffffffffffffffffffffffffffffff\n      and\n      swap1\n      dup1\n      0x01\n      add\n      sload\n      swap1\n      dup1\n      0x02\n      add\n      sload\n      swap1\n      dup1\n      0x03\n      add\n      0x00\n      swap1\n      sload\n      swap1\n      0x0100\n      exp\n      swap1\n      div\n      0xff\n      and\n      swap1\n      pop\n      dup5\n      jump\t// out\n        /* \"#utility.yul\":7:84   */\n    tag_208:\n        /* \"#utility.yul\":44:51   */\n      0x00\n        /* \"#utility.yul\":73:78   */\n      dup2\n        /* \"#utility.yul\":62:78   */\n      swap1\n      pop\n        /* \"#utility.yul\":7:84   */\n      swap2\n      swap1\n      pop\n      jump\t// out\n        /* \"#utility.yul\":90:208   */\n    tag_209:\n        /* \"#utility.yul\":177:201   */\n      tag_259\n        /* \"#utility.yul\":195:200   */\n      dup2\n        /* \"#utility.yul\":177:201   */\n      tag_208\n      jump\t// in\n    tag_259:\n        /* \"#utility.yul\":172:175   */\n      dup3\n        /* \"#utility.yul\":165:202   */\n      mstore\n        /* \"#utility.yul\":90:208   */\n      pop\n      pop\n      jump\t// out\n        /* \"#utility.yul\":214:436   */\n    tag_23:\n        /* \"#utility.yul\":307:311   */\n      0x00\n        /* \"#utility.yul\":345:347   */\n      0x20\n        /* \"#utility.yul\":334:343   */\n      dup3\n        /* \"#utility.yul\":330:348   */\n      add\n        /* \"#utility.yul\":322:348   */\n      swap1\n      pop\n        /* \"#utility.yul\":358:429   */\n      tag_261\n        /* \"#utility.yul\":426:427   */\n      0x00\n        /* \"#utility.yul\":415:424   */\n      dup4\n        /* \"#utility.yul\":411:428   */\n      add\n        /* \"#utility.yul\":402:408   */\n      dup5\n        /* \"#utility.yul\":358:429   */\n      tag_209\n      jump\t// in\n    tag_261:\n        /* \"#utility.yul\":214:436   */\n      swap3\n      swap2\n      pop\n      pop\n      jump\t// out\n        /* \"#utility.yul\":523:640   */\n    tag_211:\n        /* \"#utility.yul\":632:633   */\n      0x00\n        /* \"#utility.yul\":629:630   */\n      0x00\n        /* \"#utility.yul\":622:634   */\n      revert\n        /* \"#utility.yul\":769:895   */\n    tag_213:\n        /* \"#utility.yul\":806:813   */\n      0x00\n        /* \"#utility.yul\":846:888   */\n      0xffffffffffffffffffffffffffffffffffffffff\n        /* \"#utility.yul\":839:844   */\n      dup3\n        /* \"#utility.yul\":835:889   */\n      and\n        /* \"#utility.yul\":824:889   */\n      swap1\n      pop\n        /* \"#utility.yul\":769:895   */\n      swap2\n      swap1\n      pop\n      jump\t// out\n        /* \"#utility.yul\":901:997   */\n    tag_214:\n        /* \"#utility.yul\":938:945   */\n      0x00\n        /* \"#utility.yul\":967:991   */\n      tag_267\n        /* \"#utility.yul\":985:990   */\n      dup3\n        /* \"#utility.yul\":967:991   */\n      tag_213\n      jump\t// in\n    tag_267:\n        /* \"#utility.yul\":956:991   */\n      swap1\n      pop\n        /* \"#utility.yul\":901:997   */\n      swap2\n      swap1\n      pop\n      jump\t// out\n        /* \"#utility.yul\":1003:1125   */\n    tag_215:\n        /* \"#utility.yul\":1076:1100   */\n      tag_269\n        /* \"#utility.yul\":1094:1099   */\n      dup2\n        /* \"#utility.yul\":1076:1100   */\n      tag_214\n      jump\t// in\n    tag_269:\n        /* \"#utility.yul\":1069:1074   */\n      dup2\n        /* \"#utility.yul\":1066:1101   */\n      eq\n        /* \"#utility.yul\":1056:1119   */\n      tag_270\n      jumpi\n        /* \"#utility.yul\":1115:1116   */\n      0x00\n        /* \"#utility.yul\":1112:1113   */\n      0x00\n        /* \"#utility.yul\":1105:1117   */\n      revert\n        /* \"#utility.yul\":1056:1119   */\n    tag_270:\n        /* \"#utility.yul\":1003:1125   */\n      pop\n      jump\t// out\n        /* \"#utility.yul\":1131:1270   */\n    tag_216:\n        /* \"#utility.yul\":1177:1182   */\n      0x00\n        /* \"#utility.yul\":1215:1221   */\n      dup2\n        /* \"#utility.yul\":1202:1222   */\n      calldataload\n        /* \"#utility.yul\":1193:1222   */\n      swap1\n      pop\n        /* \"#utility.yul\":1231:1264   */\n      tag_272\n        /* \"#utility.yul\":1258:1263   */\n      dup2\n        /* \"#utility.yul\":1231:1264   */\n      tag_215\n      jump\t// in\n    tag_272:\n        /* \"#utility.yul\":1131:1270   */\n      swap3\n      swap2\n      pop\n      pop\n      jump\t// out\n        /* \"#utility.yul\":1276:1605   */\n    tag_27:\n        /* \"#utility.yul\":1335:1341   */\n      0x00\n        /* \"#utility.yul\":1384:1386   */\n      0x20\n        /* \"#utility.yul\":1372:1381   */\n      dup3\n        /* \"#utility.yul\":1363:1370   */\n      dup5\n        /* \"#utility.yul\":1359:1382   */\n      sub\n        /* \"#utility.yul\":1355:1387   */\n      slt\n        /* \"#utility.yul\":1352:1471   */\n      iszero\n      tag_274\n      jumpi\n        /* \"#utility.yul\":1390:1469   */\n      tag_275\n      tag_211\n      jump\t// in\n    tag_275:\n        /* \"#utility.yul\":1352:1471   */\n    tag_274:\n        /* \"#utility.yul\":1510:1511   */\n      0x00\n        /* \"#utility.yul\":1535:1588   */\n      tag_276\n        /* \"#utility.yul\":1580:1587   */\n      dup5\n        /* \"#utility.yul\":1571:1577   */\n      dup3\n        /* \"#utility.yul\":1560:1569   */\n      dup6\n        /* \"#utility.yul\":1556:1578   */\n      add\n        /* \"#utility.yul\":1535:1588   */\n      tag_216\n      jump\t// in\n    tag_276:\n        /* \"#utility.yul\":1525:1588   */\n      swap2\n      pop\n        /* \"#utility.yul\":1481:1598   */\n      pop\n        /* \"#utility.yul\":1276:1605   */\n      swap3\n      swap2\n      pop\n      pop\n      jump\t// out\n        /* \"#utility.yul\":1611:1748   */\n    tag_217:\n        /* \"#utility.yul\":1701:1707   */\n      0x00\n        /* \"#utility.yul\":1735:1740   */\n      dup2\n        /* \"#utility.yul\":1729:1741   */\n      mload\n        /* \"#utility.yul\":1719:1741   */\n      swap1\n      pop\n        /* \"#utility.yul\":1611:1748   */\n      swap2\n      swap1\n      pop\n      jump\t// out\n        /* \"#utility.yul\":1754:1961   */\n    tag_218:\n        /* \"#utility.yul\":1876:1887   */\n      0x00\n        /* \"#utility.yul\":1910:1916   */\n      dup3\n        /* \"#utility.yul\":1905:1908   */\n      dup3\n        /* \"#utility.yul\":1898:1917   */\n      mstore\n        /* \"#utility.yul\":1950:1954   */\n      0x20\n        /* \"#utility.yul\":1945:1948   */\n      dup3\n        /* \"#utility.yul\":1941:1955   */\n      add\n        /* \"#utility.yul\":1926:1955   */\n      swap1\n      pop\n        /* \"#utility.yul\":1754:1961   */\n      swap3\n      swap2\n      pop\n      pop\n      jump\t// out\n        /* \"#utility.yul\":1967:2122   */\n    tag_219:\n        /* \"#utility.yul\":2057:2061   */\n      0x00\n        /* \"#utility.yul\":2080:2083   */\n      dup2\n        /* \"#utility.yul\":2072:2083   */\n      swap1\n      pop\n        /* \"#utility.yul\":2110:2114   */\n      0x20\n        /* \"#utility.yul\":2105:2108   */\n      dup3\n        /* \"#utility.yul\":2101:2115   */\n      add\n        /* \"#utility.yul\":2093:2115   */\n      swap1\n      pop\n        /* \"#utility.yul\":1967:2122   */\n      swap2\n      swap1\n      pop\n      jump\t// out\n        /* \"#utility.yul\":2128:2236   */\n    tag_220:\n        /* \"#utility.yul\":2205:2229   */\n      tag_281\n        /* \"#utility.yul\":2223:2228   */\n      dup2\n        /* \"#utility.yul\":2205:2229   */\n      tag_214\n      jump\t// in\n    tag_281:\n        /* \"#utility.yul\":2200:2203   */\n      dup3\n        /* \"#utility.yul\":2193:2230   */\n      mstore\n        /* \"#utility.yul\":2128:2236   */\n      pop\n      pop\n      jump\t// out\n        /* \"#utility.yul\":2242:2350   */\n    tag_221:\n        /* \"#utility.yul\":2319:2343   */\n      tag_283\n        /* \"#utility.yul\":2337:2342   */\n      dup2\n        /* \"#utility.yul\":2319:2343   */\n      tag_208\n      jump\t// in\n    tag_283:\n        /* \"#utility.yul\":2314:2317   */\n      dup3\n        /* \"#utility.yul\":2307:2344   */\n      mstore\n        /* \"#utility.yul\":2242:2350   */\n      pop\n      pop\n      jump\t// out\n        /* \"#utility.yul\":2356:2446   */\n    tag_222:\n        /* \"#utility.yul\":2390:2397   */\n      0x00\n        /* \"#utility.yul\":2433:2438   */\n      dup2\n        /* \"#utility.yul\":2426:2439   */\n      iszero\n        /* \"#utility.yul\":2419:2440   */\n      iszero\n        /* \"#utility.yul\":2408:2440   */\n      swap1\n      pop\n        /* \"#utility.yul\":2356:2446   */\n      swap2\n      swap1\n      pop\n      jump\t// out\n        /* \"#utility.yul\":2452:2551   */\n    tag_223:\n        /* \"#utility.yul\":2523:2544   */\n      tag_286\n        /* \"#utility.yul\":2538:2543   */\n      dup2\n        /* \"#utility.yul\":2523:2544   */\n      tag_222\n      jump\t// in\n    tag_286:\n        /* \"#utility.yul\":2518:2521   */\n      dup3\n        /* \"#utility.yul\":2511:2545   */\n      mstore\n        /* \"#utility.yul\":2452:2551   */\n      pop\n      pop\n      jump\t// out\n        /* \"#utility.yul\":2613:3456   */\n    tag_224:\n        /* \"#utility.yul\":2746:2750   */\n      0x80\n        /* \"#utility.yul\":2741:2744   */\n      dup3\n        /* \"#utility.yul\":2737:2751   */\n      add\n        /* \"#utility.yul\":2835:2839   */\n      0x00\n        /* \"#utility.yul\":2828:2833   */\n      dup3\n        /* \"#utility.yul\":2824:2840   */\n      add\n        /* \"#utility.yul\":2818:2841   */\n      mload\n        /* \"#utility.yul\":2854:2917   */\n      tag_288\n        /* \"#utility.yul\":2911:2915   */\n      0x00\n        /* \"#utility.yul\":2906:2909   */\n      dup6\n        /* \"#utility.yul\":2902:2916   */\n      add\n        /* \"#utility.yul\":2888:2900   */\n      dup3\n        /* \"#utility.yul\":2854:2917   */\n      tag_220\n      jump\t// in\n    tag_288:\n        /* \"#utility.yul\":2761:2927   */\n      pop\n        /* \"#utility.yul\":3011:3015   */\n      0x20\n        /* \"#utility.yul\":3004:3009   */\n      dup3\n        /* \"#utility.yul\":3000:3016   */\n      add\n        /* \"#utility.yul\":2994:3017   */\n      mload\n        /* \"#utility.yul\":3030:3093   */\n      tag_289\n        /* \"#utility.yul\":3087:3091   */\n      0x20\n        /* \"#utility.yul\":3082:3085   */\n      dup6\n        /* \"#utility.yul\":3078:3092   */\n      add\n        /* \"#utility.yul\":3064:3076   */\n      dup3\n        /* \"#utility.yul\":3030:3093   */\n      tag_221\n      jump\t// in\n    tag_289:\n        /* \"#utility.yul\":2937:3103   */\n      pop\n        /* \"#utility.yul\":3185:3189   */\n      0x40\n        /* \"#utility.yul\":3178:3183   */\n      dup3\n        /* \"#utility.yul\":3174:3190   */\n      add\n        /* \"#utility.yul\":3168:3191   */\n      mload\n        /* \"#utility.yul\":3204:3267   */\n      tag_290\n        /* \"#utility.yul\":3261:3265   */\n      0x40\n        /* \"#utility.yul\":3256:3259   */\n      dup6\n        /* \"#utility.yul\":3252:3266   */\n      add\n        /* \"#utility.yul\":3238:3250   */\n      dup3\n        /* \"#utility.yul\":3204:3267   */\n      tag_221\n      jump\t// in\n    tag_290:\n        /* \"#utility.yul\":3113:3277   */\n      pop\n        /* \"#utility.yul\":3363:3367   */\n      0x60\n        /* \"#utility.yul\":3356:3361   */\n      dup3\n        /* \"#utility.yul\":3352:3368   */\n      add\n        /* \"#utility.yul\":3346:3369   */\n      mload\n        /* \"#utility.yul\":3382:3439   */\n      tag_291\n        /* \"#utility.yul\":3433:3437   */\n      0x60\n        /* \"#utility.yul\":3428:3431   */\n      dup6\n        /* \"#utility.yul\":3424:3438   */\n      add\n        /* \"#utility.yul\":3410:3422   */\n      dup3\n        /* \"#utility.yul\":3382:3439   */\n      tag_223\n      jump\t// in\n    tag_291:\n        /* \"#utility.yul\":3287:3449   */\n      pop\n        /* \"#utility.yul\":2715:3456   */\n      pop\n        /* \"#utility.yul\":2613:3456   */\n      pop\n      pop\n      jump\t// out\n        /* \"#utility.yul\":3462:3733   */\n    tag_225:\n        /* \"#utility.yul\":3577:3587   */\n      0x00\n        /* \"#utility.yul\":3598:3690   */\n      tag_293\n        /* \"#utility.yul\":3686:3689   */\n      dup4\n        /* \"#utility.yul\":3678:3684   */\n      dup4\n        /* \"#utility.yul\":3598:3690   */\n      tag_224\n      jump\t// in\n    tag_293:\n        /* \"#utility.yul\":3722:3726   */\n      0x80\n        /* \"#utility.yul\":3717:3720   */\n      dup4\n        /* \"#utility.yul\":3713:3727   */\n      add\n        /* \"#utility.yul\":3699:3727   */\n      swap1\n      pop\n        /* \"#utility.yul\":3462:3733   */\n      swap3\n      swap2\n      pop\n      pop\n      jump\t// out\n        /* \"#utility.yul\":3739:3875   */\n    tag_226:\n        /* \"#utility.yul\":3832:3836   */\n      0x00\n        /* \"#utility.yul\":3864:3868   */\n      0x20\n        /* \"#utility.yul\":3859:3862   */\n      dup3\n        /* \"#utility.yul\":3855:3869   */\n      add\n        /* \"#utility.yul\":3847:3869   */\n      swap1\n      pop\n        /* \"#utility.yul\":3739:3875   */\n      swap2\n      swap1\n      pop\n      jump\t// out\n        /* \"#utility.yul\":3941:4857   */\n    tag_227:\n        /* \"#utility.yul\":4106:4109   */\n      0x00\n        /* \"#utility.yul\":4135:4212   */\n      tag_296\n        /* \"#utility.yul\":4206:4211   */\n      dup3\n        /* \"#utility.yul\":4135:4212   */\n      tag_217\n      jump\t// in\n    tag_296:\n        /* \"#utility.yul\":4228:4337   */\n      tag_297\n        /* \"#utility.yul\":4330:4336   */\n      dup2\n        /* \"#utility.yul\":4325:4328   */\n      dup6\n        /* \"#utility.yul\":4228:4337   */\n      tag_218\n      jump\t// in\n    tag_297:\n        /* \"#utility.yul\":4221:4337   */\n      swap4\n      pop\n        /* \"#utility.yul\":4361:4440   */\n      tag_298\n        /* \"#utility.yul\":4434:4439   */\n      dup4\n        /* \"#utility.yul\":4361:4440   */\n      tag_219\n      jump\t// in\n    tag_298:\n        /* \"#utility.yul\":4463:4470   */\n      dup1\n        /* \"#utility.yul\":4494:4495   */\n      0x00\n        /* \"#utility.yul\":4479:4832   */\n    tag_299:\n        /* \"#utility.yul\":4504:4510   */\n      dup4\n        /* \"#utility.yul\":4501:4502   */\n      dup2\n        /* \"#utility.yul\":4498:4511   */\n      lt\n        /* \"#utility.yul\":4479:4832   */\n      iszero\n      tag_301\n      jumpi\n        /* \"#utility.yul\":4580:4586   */\n      dup2\n        /* \"#utility.yul\":4574:4587   */\n      mload\n        /* \"#utility.yul\":4607:4716   */\n      tag_302\n        /* \"#utility.yul\":4712:4715   */\n      dup9\n        /* \"#utility.yul\":4697:4710   */\n      dup3\n        /* \"#utility.yul\":4607:4716   */\n      tag_225\n      jump\t// in\n    tag_302:\n        /* \"#utility.yul\":4600:4716   */\n      swap8\n      pop\n        /* \"#utility.yul\":4739:4822   */\n      tag_303\n        /* \"#utility.yul\":4815:4821   */\n      dup4\n        /* \"#utility.yul\":4739:4822   */\n      tag_226\n      jump\t// in\n    tag_303:\n        /* \"#utility.yul\":4729:4822   */\n      swap3\n      pop\n        /* \"#utility.yul\":4539:4832   */\n      pop\n        /* \"#utility.yul\":4526:4527   */\n      0x01\n        /* \"#utility.yul\":4523:4524   */\n      dup2\n        /* \"#utility.yul\":4519:4528   */\n      add\n        /* \"#utility.yul\":4514:4528   */\n      swap1\n      pop\n        /* \"#utility.yul\":4479:4832   */\n      jump(tag_299)\n    tag_301:\n        /* \"#utility.yul\":4483:4497   */\n      pop\n        /* \"#utility.yul\":4848:4851   */\n      dup6\n        /* \"#utility.yul\":4841:4851   */\n      swap4\n      pop\n        /* \"#utility.yul\":4111:4857   */\n      pop\n      pop\n      pop\n        /* \"#utility.yul\":3941:4857   */\n      swap3\n      swap2\n      pop\n      pop\n      jump\t// out\n        /* \"#utility.yul\":4863:5328   */\n    tag_34:\n        /* \"#utility.yul\":5052:5056   */\n      0x00\n        /* \"#utility.yul\":5090:5092   */\n      0x20\n        /* \"#utility.yul\":5079:5088   */\n      dup3\n        /* \"#utility.yul\":5075:5093   */\n      add\n        /* \"#utility.yul\":5067:5093   */\n      swap1\n      pop\n        /* \"#utility.yul\":5139:5148   */\n      dup2\n        /* \"#utility.yul\":5133:5137   */\n      dup2\n        /* \"#utility.yul\":5129:5149   */\n      sub\n        /* \"#utility.yul\":5125:5126   */\n      0x00\n        /* \"#utility.yul\":5114:5123   */\n      dup4\n        /* \"#utility.yul\":5110:5127   */\n      add\n        /* \"#utility.yul\":5103:5150   */\n      mstore\n        /* \"#utility.yul\":5167:5321   */\n      tag_305\n        /* \"#utility.yul\":5316:5320   */\n      dup2\n        /* \"#utility.yul\":5307:5313   */\n      dup5\n        /* \"#utility.yul\":5167:5321   */\n      tag_227\n      jump\t// in\n    tag_305:\n        /* \"#utility.yul\":5159:5321   */\n      swap1\n      pop\n        /* \"#utility.yul\":4863:5328   */\n      swap3\n      swap2\n      pop\n      pop\n      jump\t// out\n        /* \"#utility.yul\":5334:5452   */\n    tag_228:\n        /* \"#utility.yul\":5421:5445   */\n      tag_307\n        /* \"#utility.yul\":5439:5444   */\n      dup2\n        /* \"#utility.yul\":5421:5445   */\n      tag_214\n      jump\t// in\n    tag_307:\n        /* \"#utility.yul\":5416:5419   */\n      dup3\n        /* \"#utility.yul\":5409:5446   */\n      mstore\n        /* \"#utility.yul\":5334:5452   */\n      pop\n      pop\n      jump\t// out\n        /* \"#utility.yul\":5458:5790   */\n    tag_46:\n        /* \"#utility.yul\":5579:5583   */\n      0x00\n        /* \"#utility.yul\":5617:5619   */\n      0x40\n        /* \"#utility.yul\":5606:5615   */\n      dup3\n        /* \"#utility.yul\":5602:5620   */\n      add\n        /* \"#utility.yul\":5594:5620   */\n      swap1\n      pop\n        /* \"#utility.yul\":5630:5701   */\n      tag_309\n        /* \"#utility.yul\":5698:5699   */\n      0x00\n        /* \"#utility.yul\":5687:5696   */\n      dup4\n        /* \"#utility.yul\":5683:5700   */\n      add\n        /* \"#utility.yul\":5674:5680   */\n      dup6\n        /* \"#utility.yul\":5630:5701   */\n      tag_228\n      jump\t// in\n    tag_309:\n        /* \"#utility.yul\":5711:5783   */\n      tag_310\n        /* \"#utility.yul\":5779:5781   */\n      0x20\n        /* \"#utility.yul\":5768:5777   */\n      dup4\n        /* \"#utility.yul\":5764:5782   */\n      add\n        /* \"#utility.yul\":5755:5761   */\n      dup5\n        /* \"#utility.yul\":5711:5783   */\n      tag_209\n      jump\t// in\n    tag_310:\n        /* \"#utility.yul\":5458:5790   */\n      swap4\n      swap3\n      pop\n      pop\n      pop\n      jump\t// out\n        /* \"#utility.yul\":5796:5900   */\n    tag_229:\n        /* \"#utility.yul\":5841:5848   */\n      0x00\n        /* \"#utility.yul\":5870:5894   */\n      tag_312\n        /* \"#utility.yul\":5888:5893   */\n      dup3\n        /* \"#utility.yul\":5870:5894   */\n      tag_213\n      jump\t// in\n    tag_312:\n        /* \"#utility.yul\":5859:5894   */\n      swap1\n      pop\n        /* \"#utility.yul\":5796:5900   */\n      swap2\n      swap1\n      pop\n      jump\t// out\n        /* \"#utility.yul\":5906:6048   */\n    tag_230:\n        /* \"#utility.yul\":6009:6041   */\n      tag_314\n        /* \"#utility.yul\":6035:6040   */\n      dup2\n        /* \"#utility.yul\":6009:6041   */\n      tag_229\n      jump\t// in\n    tag_314:\n        /* \"#utility.yul\":6004:6007   */\n      dup3\n        /* \"#utility.yul\":5997:6042   */\n      mstore\n        /* \"#utility.yul\":5906:6048   */\n      pop\n      pop\n      jump\t// out\n        /* \"#utility.yul\":6054:6308   */\n    tag_55:\n        /* \"#utility.yul\":6163:6167   */\n      0x00\n        /* \"#utility.yul\":6201:6203   */\n      0x20\n        /* \"#utility.yul\":6190:6199   */\n      dup3\n        /* \"#utility.yul\":6186:6204   */\n      add\n        /* \"#utility.yul\":6178:6204   */\n      swap1\n      pop\n        /* \"#utility.yul\":6214:6301   */\n      tag_316\n        /* \"#utility.yul\":6298:6299   */\n      0x00\n        /* \"#utility.yul\":6287:6296   */\n      dup4\n        /* \"#utility.yul\":6283:6300   */\n      add\n        /* \"#utility.yul\":6274:6280   */\n      dup5\n        /* \"#utility.yul\":6214:6301   */\n      tag_230\n      jump\t// in\n    tag_316:\n        /* \"#utility.yul\":6054:6308   */\n      swap3\n      swap2\n      pop\n      pop\n      jump\t// out\n        /* \"#utility.yul\":6314:6536   */\n    tag_60:\n        /* \"#utility.yul\":6407:6411   */\n      0x00\n        /* \"#utility.yul\":6445:6447   */\n      0x20\n        /* \"#utility.yul\":6434:6443   */\n      dup3\n        /* \"#utility.yul\":6430:6448   */\n      add\n        /* \"#utility.yul\":6422:6448   */\n      swap1\n      pop\n        /* \"#utility.yul\":6458:6529   */\n      tag_318\n        /* \"#utility.yul\":6526:6527   */\n      0x00\n        /* \"#utility.yul\":6515:6524   */\n      dup4\n        /* \"#utility.yul\":6511:6528   */\n      add\n        /* \"#utility.yul\":6502:6508   */\n      dup5\n        /* \"#utility.yul\":6458:6529   */\n      tag_228\n      jump\t// in\n    tag_318:\n        /* \"#utility.yul\":6314:6536   */\n      swap3\n      swap2\n      pop\n      pop\n      jump\t// out\n        /* \"#utility.yul\":6542:6664   */\n    tag_231:\n        /* \"#utility.yul\":6615:6639   */\n      tag_320\n        /* \"#utility.yul\":6633:6638   */\n      dup2\n        /* \"#utility.yul\":6615:6639   */\n      tag_208\n      jump\t// in\n    tag_320:\n        /* \"#utility.yul\":6608:6613   */\n      dup2\n        /* \"#utility.yul\":6605:6640   */\n      eq\n        /* \"#utility.yul\":6595:6658   */\n      tag_321\n      jumpi\n        /* \"#utility.yul\":6654:6655   */\n      0x00\n        /* \"#utility.yul\":6651:6652   */\n      0x00\n        /* \"#utility.yul\":6644:6656   */\n      revert\n        /* \"#utility.yul\":6595:6658   */\n    tag_321:\n        /* \"#utility.yul\":6542:6664   */\n      pop\n      jump\t// out\n        /* \"#utility.yul\":6670:6809   */\n    tag_232:\n        /* \"#utility.yul\":6716:6721   */\n      0x00\n        /* \"#utility.yul\":6754:6760   */\n      dup2\n        /* \"#utility.yul\":6741:6761   */\n      calldataload\n        /* \"#utility.yul\":6732:6761   */\n      swap1\n      pop\n        /* \"#utility.yul\":6770:6803   */\n      tag_323\n        /* \"#utility.yul\":6797:6802   */\n      dup2\n        /* \"#utility.yul\":6770:6803   */\n      tag_231\n      jump\t// in\n    tag_323:\n        /* \"#utility.yul\":6670:6809   */\n      swap3\n      swap2\n      pop\n      pop\n      jump\t// out\n        /* \"#utility.yul\":6815:7144   */\n    tag_76:\n        /* \"#utility.yul\":6874:6880   */\n      0x00\n        /* \"#utility.yul\":6923:6925   */\n      0x20\n        /* \"#utility.yul\":6911:6920   */\n      dup3\n        /* \"#utility.yul\":6902:6909   */\n      dup5\n        /* \"#utility.yul\":6898:6921   */\n      sub\n        /* \"#utility.yul\":6894:6926   */\n      slt\n        /* \"#utility.yul\":6891:7010   */\n      iszero\n      tag_325\n      jumpi\n        /* \"#utility.yul\":6929:7008   */\n      tag_326\n      tag_211\n      jump\t// in\n    tag_326:\n        /* \"#utility.yul\":6891:7010   */\n    tag_325:\n        /* \"#utility.yul\":7049:7050   */\n      0x00\n        /* \"#utility.yul\":7074:7127   */\n      tag_327\n        /* \"#utility.yul\":7119:7126   */\n      dup5\n        /* \"#utility.yul\":7110:7116   */\n      dup3\n        /* \"#utility.yul\":7099:7108   */\n      dup6\n        /* \"#utility.yul\":7095:7117   */\n      add\n        /* \"#utility.yul\":7074:7127   */\n      tag_232\n      jump\t// in\n    tag_327:\n        /* \"#utility.yul\":7064:7127   */\n      swap2\n      pop\n        /* \"#utility.yul\":7020:7137   */\n      pop\n        /* \"#utility.yul\":6815:7144   */\n      swap3\n      swap2\n      pop\n      pop\n      jump\t// out\n        /* \"#utility.yul\":7150:7259   */\n    tag_233:\n        /* \"#utility.yul\":7231:7252   */\n      tag_329\n        /* \"#utility.yul\":7246:7251   */\n      dup2\n        /* \"#utility.yul\":7231:7252   */\n      tag_222\n      jump\t// in\n    tag_329:\n        /* \"#utility.yul\":7226:7229   */\n      dup3\n        /* \"#utility.yul\":7219:7253   */\n      mstore\n        /* \"#utility.yul\":7150:7259   */\n      pop\n      pop\n      jump\t// out\n        /* \"#utility.yul\":7265:7806   */\n    tag_79:\n        /* \"#utility.yul\":7436:7440   */\n      0x00\n        /* \"#utility.yul\":7474:7477   */\n      0x80\n        /* \"#utility.yul\":7463:7472   */\n      dup3\n        /* \"#utility.yul\":7459:7478   */\n      add\n        /* \"#utility.yul\":7451:7478   */\n      swap1\n      pop\n        /* \"#utility.yul\":7488:7559   */\n      tag_331\n        /* \"#utility.yul\":7556:7557   */\n      0x00\n        /* \"#utility.yul\":7545:7554   */\n      dup4\n        /* \"#utility.yul\":7541:7558   */\n      add\n        /* \"#utility.yul\":7532:7538   */\n      dup8\n        /* \"#utility.yul\":7488:7559   */\n      tag_228\n      jump\t// in\n    tag_331:\n        /* \"#utility.yul\":7569:7641   */\n      tag_332\n        /* \"#utility.yul\":7637:7639   */\n      0x20\n        /* \"#utility.yul\":7626:7635   */\n      dup4\n        /* \"#utility.yul\":7622:7640   */\n      add\n        /* \"#utility.yul\":7613:7619   */\n      dup7\n        /* \"#utility.yul\":7569:7641   */\n      tag_209\n      jump\t// in\n    tag_332:\n        /* \"#utility.yul\":7651:7723   */\n      tag_333\n        /* \"#utility.yul\":7719:7721   */\n      0x40\n        /* \"#utility.yul\":7708:7717   */\n      dup4\n        /* \"#utility.yul\":7704:7722   */\n      add\n        /* \"#utility.yul\":7695:7701   */\n      dup6\n        /* \"#utility.yul\":7651:7723   */\n      tag_209\n      jump\t// in\n    tag_333:\n        /* \"#utility.yul\":7733:7799   */\n      tag_334\n        /* \"#utility.yul\":7795:7797   */\n      0x60\n        /* \"#utility.yul\":7784:7793   */\n      dup4\n        /* \"#utility.yul\":7780:7798   */\n      add\n        /* \"#utility.yul\":7771:7777   */\n      dup5\n        /* \"#utility.yul\":7733:7799   */\n      tag_233\n      jump\t// in\n    tag_334:\n        /* \"#utility.yul\":7265:7806   */\n      swap6\n      swap5\n      pop\n      pop\n      pop\n      pop\n      pop\n      jump\t// out\n        /* \"#utility.yul\":7812:7981   */\n    tag_234:\n        /* \"#utility.yul\":7896:7907   */\n      0x00\n        /* \"#utility.yul\":7930:7936   */\n      dup3\n        /* \"#utility.yul\":7925:7928   */\n      dup3\n        /* \"#utility.yul\":7918:7937   */\n      mstore\n        /* \"#utility.yul\":7970:7974   */\n      0x20\n        /* \"#utility.yul\":7965:7968   */\n      dup3\n        /* \"#utility.yul\":7961:7975   */\n      add\n        /* \"#utility.yul\":7946:7975   */\n      swap1\n      pop\n        /* \"#utility.yul\":7812:7981   */\n      swap3\n      swap2\n      pop\n      pop\n      jump\t// out\n        /* \"#utility.yul\":7987:8154   */\n    tag_235:\n        /* \"#utility.yul\":8127:8146   */\n      0x426964206973206e6f7420616374697665000000000000000000000000000000\n        /* \"#utility.yul\":8123:8124   */\n      0x00\n        /* \"#utility.yul\":8115:8121   */\n      dup3\n        /* \"#utility.yul\":8111:8125   */\n      add\n        /* \"#utility.yul\":8104:8147   */\n      mstore\n        /* \"#utility.yul\":7987:8154   */\n      pop\n      jump\t// out\n        /* \"#utility.yul\":8160:8526   */\n    tag_236:\n        /* \"#utility.yul\":8302:8305   */\n      0x00\n        /* \"#utility.yul\":8323:8390   */\n      tag_338\n        /* \"#utility.yul\":8387:8389   */\n      0x11\n        /* \"#utility.yul\":8382:8385   */\n      dup4\n        /* \"#utility.yul\":8323:8390   */\n      tag_234\n      jump\t// in\n    tag_338:\n        /* \"#utility.yul\":8316:8390   */\n      swap2\n      pop\n        /* \"#utility.yul\":8399:8492   */\n      tag_339\n        /* \"#utility.yul\":8488:8491   */\n      dup3\n        /* \"#utility.yul\":8399:8492   */\n      tag_235\n      jump\t// in\n    tag_339:\n        /* \"#utility.yul\":8517:8519   */\n      0x20\n        /* \"#utility.yul\":8512:8515   */\n      dup3\n        /* \"#utility.yul\":8508:8520   */\n      add\n        /* \"#utility.yul\":8501:8520   */\n      swap1\n      pop\n        /* \"#utility.yul\":8160:8526   */\n      swap2\n      swap1\n      pop\n      jump\t// out\n        /* \"#utility.yul\":8532:8951   */\n    tag_89:\n        /* \"#utility.yul\":8698:8702   */\n      0x00\n        /* \"#utility.yul\":8736:8738   */\n      0x20\n        /* \"#utility.yul\":8725:8734   */\n      dup3\n        /* \"#utility.yul\":8721:8739   */\n      add\n        /* \"#utility.yul\":8713:8739   */\n      swap1\n      pop\n        /* \"#utility.yul\":8785:8794   */\n      dup2\n        /* \"#utility.yul\":8779:8783   */\n      dup2\n        /* \"#utility.yul\":8775:8795   */\n      sub\n        /* \"#utility.yul\":8771:8772   */\n      0x00\n        /* \"#utility.yul\":8760:8769   */\n      dup4\n        /* \"#utility.yul\":8756:8773   */\n      add\n        /* \"#utility.yul\":8749:8796   */\n      mstore\n        /* \"#utility.yul\":8813:8944   */\n      tag_341\n        /* \"#utility.yul\":8939:8943   */\n      dup2\n        /* \"#utility.yul\":8813:8944   */\n      tag_236\n      jump\t// in\n    tag_341:\n        /* \"#utility.yul\":8805:8944   */\n      swap1\n      pop\n        /* \"#utility.yul\":8532:8951   */\n      swap2\n      swap1\n      pop\n      jump\t// out\n        /* \"#utility.yul\":8957:9129   */\n    tag_237:\n        /* \"#utility.yul\":9097:9121   */\n      0x596f75206d7573742073656e6420736f6d652045544800000000000000000000\n        /* \"#utility.yul\":9093:9094   */\n      0x00\n        /* \"#utility.yul\":9085:9091   */\n      dup3\n        /* \"#utility.yul\":9081:9095   */\n      add\n        /* \"#utility.yul\":9074:9122   */\n      mstore\n        /* \"#utility.yul\":8957:9129   */\n      pop\n      jump\t// out\n        /* \"#utility.yul\":9135:9501   */\n    tag_238:\n        /* \"#utility.yul\":9277:9280   */\n      0x00\n        /* \"#utility.yul\":9298:9365   */\n      tag_344\n        /* \"#utility.yul\":9362:9364   */\n      0x16\n        /* \"#utility.yul\":9357:9360   */\n      dup4\n        /* \"#utility.yul\":9298:9365   */\n      tag_234\n      jump\t// in\n    tag_344:\n        /* \"#utility.yul\":9291:9365   */\n      swap2\n      pop\n        /* \"#utility.yul\":9374:9467   */\n      tag_345\n        /* \"#utility.yul\":9463:9466   */\n      dup3\n        /* \"#utility.yul\":9374:9467   */\n      tag_237\n      jump\t// in\n    tag_345:\n        /* \"#utility.yul\":9492:9494   */\n      0x20\n        /* \"#utility.yul\":9487:9490   */\n      dup3\n        /* \"#utility.yul\":9483:9495   */\n      add\n        /* \"#utility.yul\":9476:9495   */\n      swap1\n      pop\n        /* \"#utility.yul\":9135:9501   */\n      swap2\n      swap1\n      pop\n      jump\t// out\n        /* \"#utility.yul\":9507:9926   */\n    tag_93:\n        /* \"#utility.yul\":9673:9677   */\n      0x00\n        /* \"#utility.yul\":9711:9713   */\n      0x20\n        /* \"#utility.yul\":9700:9709   */\n      dup3\n        /* \"#utility.yul\":9696:9714   */\n      add\n        /* \"#utility.yul\":9688:9714   */\n      swap1\n      pop\n        /* \"#utility.yul\":9760:9769   */\n      dup2\n        /* \"#utility.yul\":9754:9758   */\n      dup2\n        /* \"#utility.yul\":9750:9770   */\n      sub\n        /* \"#utility.yul\":9746:9747   */\n      0x00\n        /* \"#utility.yul\":9735:9744   */\n      dup4\n        /* \"#utility.yul\":9731:9748   */\n      add\n        /* \"#utility.yul\":9724:9771   */\n      mstore\n        /* \"#utility.yul\":9788:9919   */\n      tag_347\n        /* \"#utility.yul\":9914:9918   */\n      dup2\n        /* \"#utility.yul\":9788:9919   */\n      tag_238\n      jump\t// in\n    tag_347:\n        /* \"#utility.yul\":9780:9919   */\n      swap1\n      pop\n        /* \"#utility.yul\":9507:9926   */\n      swap2\n      swap1\n      pop\n      jump\t// out\n        /* \"#utility.yul\":9932:10112   */\n    tag_239:\n        /* \"#utility.yul\":9980:10057   */\n      0x4e487b7100000000000000000000000000000000000000000000000000000000\n        /* \"#utility.yul\":9977:9978   */\n      0x00\n        /* \"#utility.yul\":9970:10058   */\n      mstore\n        /* \"#utility.yul\":10077:10081   */\n      0x11\n        /* \"#utility.yul\":10074:10075   */\n      0x04\n        /* \"#utility.yul\":10067:10082   */\n      mstore\n        /* \"#utility.yul\":10101:10105   */\n      0x24\n        /* \"#utility.yul\":10098:10099   */\n      0x00\n        /* \"#utility.yul\":10091:10106   */\n      revert\n        /* \"#utility.yul\":10118:10528   */\n    tag_95:\n        /* \"#utility.yul\":10158:10165   */\n      0x00\n        /* \"#utility.yul\":10181:10201   */\n      tag_350\n        /* \"#utility.yul\":10199:10200   */\n      dup3\n        /* \"#utility.yul\":10181:10201   */\n      tag_208\n      jump\t// in\n    tag_350:\n        /* \"#utility.yul\":10176:10201   */\n      swap2\n      pop\n        /* \"#utility.yul\":10215:10235   */\n      tag_351\n        /* \"#utility.yul\":10233:10234   */\n      dup4\n        /* \"#utility.yul\":10215:10235   */\n      tag_208\n      jump\t// in\n    tag_351:\n        /* \"#utility.yul\":10210:10235   */\n      swap3\n      pop\n        /* \"#utility.yul\":10270:10271   */\n      dup3\n        /* \"#utility.yul\":10267:10268   */\n      dup3\n        /* \"#utility.yul\":10263:10272   */\n      mul\n        /* \"#utility.yul\":10292:10322   */\n      tag_352\n        /* \"#utility.yul\":10310:10321   */\n      dup2\n        /* \"#utility.yul\":10292:10322   */\n      tag_208\n      jump\t// in\n    tag_352:\n        /* \"#utility.yul\":10281:10322   */\n      swap2\n      pop\n        /* \"#utility.yul\":10471:10472   */\n      dup3\n        /* \"#utility.yul\":10462:10469   */\n      dup3\n        /* \"#utility.yul\":10458:10473   */\n      div\n        /* \"#utility.yul\":10455:10456   */\n      dup5\n        /* \"#utility.yul\":10452:10474   */\n      eq\n        /* \"#utility.yul\":10432:10433   */\n      dup4\n        /* \"#utility.yul\":10425:10434   */\n      iszero\n        /* \"#utility.yul\":10405:10488   */\n      or\n        /* \"#utility.yul\":10382:10521   */\n      tag_353\n      jumpi\n        /* \"#utility.yul\":10501:10519   */\n      tag_354\n      tag_239\n      jump\t// in\n    tag_354:\n        /* \"#utility.yul\":10382:10521   */\n    tag_353:\n        /* \"#utility.yul\":10166:10528   */\n      pop\n        /* \"#utility.yul\":10118:10528   */\n      swap3\n      swap2\n      pop\n      pop\n      jump\t// out\n        /* \"#utility.yul\":10534:10714   */\n    tag_240:\n        /* \"#utility.yul\":10674:10706   */\n      0x426964206d757374206265206174206c65617374203525206869676865720000\n        /* \"#utility.yul\":10670:10671   */\n      0x00\n        /* \"#utility.yul\":10662:10668   */\n      dup3\n        /* \"#utility.yul\":10658:10672   */\n      add\n        /* \"#utility.yul\":10651:10707   */\n      mstore\n        /* \"#utility.yul\":10534:10714   */\n      pop\n      jump\t// out\n        /* \"#utility.yul\":10720:11086   */\n    tag_241:\n        /* \"#utility.yul\":10862:10865   */\n      0x00\n        /* \"#utility.yul\":10883:10950   */\n      tag_357\n        /* \"#utility.yul\":10947:10949   */\n      0x1e\n        /* \"#utility.yul\":10942:10945   */\n      dup4\n        /* \"#utility.yul\":10883:10950   */\n      tag_234\n      jump\t// in\n    tag_357:\n        /* \"#utility.yul\":10876:10950   */\n      swap2\n      pop\n        /* \"#utility.yul\":10959:11052   */\n      tag_358\n        /* \"#utility.yul\":11048:11051   */\n      dup3\n        /* \"#utility.yul\":10959:11052   */\n      tag_240\n      jump\t// in\n    tag_358:\n        /* \"#utility.yul\":11077:11079   */\n      0x20\n        /* \"#utility.yul\":11072:11075   */\n      dup3\n        /* \"#utility.yul\":11068:11080   */\n      add\n        /* \"#utility.yul\":11061:11080   */\n      swap1\n      pop\n        /* \"#utility.yul\":10720:11086   */\n      swap2\n      swap1\n      pop\n      jump\t// out\n        /* \"#utility.yul\":11092:11511   */\n    tag_99:\n        /* \"#utility.yul\":11258:11262   */\n      0x00\n        /* \"#utility.yul\":11296:11298   */\n      0x20\n        /* \"#utility.yul\":11285:11294   */\n      dup3\n        /* \"#utility.yul\":11281:11299   */\n      add\n        /* \"#utility.yul\":11273:11299   */\n      swap1\n      pop\n        /* \"#utility.yul\":11345:11354   */\n      dup2\n        /* \"#utility.yul\":11339:11343   */\n      dup2\n        /* \"#utility.yul\":11335:11355   */\n      sub\n        /* \"#utility.yul\":11331:11332   */\n      0x00\n        /* \"#utility.yul\":11320:11329   */\n      dup4\n        /* \"#utility.yul\":11316:11333   */\n      add\n        /* \"#utility.yul\":11309:11356   */\n      mstore\n        /* \"#utility.yul\":11373:11504   */\n      tag_360\n        /* \"#utility.yul\":11499:11503   */\n      dup2\n        /* \"#utility.yul\":11373:11504   */\n      tag_241\n      jump\t// in\n    tag_360:\n        /* \"#utility.yul\":11365:11504   */\n      swap1\n      pop\n        /* \"#utility.yul\":11092:11511   */\n      swap2\n      swap1\n      pop\n      jump\t// out\n        /* \"#utility.yul\":11517:11711   */\n    tag_101:\n        /* \"#utility.yul\":11557:11561   */\n      0x00\n        /* \"#utility.yul\":11577:11597   */\n      tag_362\n        /* \"#utility.yul\":11595:11596   */\n      dup3\n        /* \"#utility.yul\":11577:11597   */\n      tag_208\n      jump\t// in\n    tag_362:\n        /* \"#utility.yul\":11572:11597   */\n      swap2\n      pop\n        /* \"#utility.yul\":11611:11631   */\n      tag_363\n        /* \"#utility.yul\":11629:11630   */\n      dup4\n        /* \"#utility.yul\":11611:11631   */\n      tag_208\n      jump\t// in\n    tag_363:\n        /* \"#utility.yul\":11606:11631   */\n      swap3\n      pop\n        /* \"#utility.yul\":11655:11656   */\n      dup3\n        /* \"#utility.yul\":11652:11653   */\n      dup3\n        /* \"#utility.yul\":11648:11657   */\n      sub\n        /* \"#utility.yul\":11640:11657   */\n      swap1\n      pop\n        /* \"#utility.yul\":11679:11680   */\n      dup2\n        /* \"#utility.yul\":11673:11677   */\n      dup2\n        /* \"#utility.yul\":11670:11681   */\n      gt\n        /* \"#utility.yul\":11667:11704   */\n      iszero\n      tag_364\n      jumpi\n        /* \"#utility.yul\":11684:11702   */\n      tag_365\n      tag_239\n      jump\t// in\n    tag_365:\n        /* \"#utility.yul\":11667:11704   */\n    tag_364:\n        /* \"#utility.yul\":11517:11711   */\n      swap3\n      swap2\n      pop\n      pop\n      jump\t// out\n        /* \"#utility.yul\":11717:11908   */\n    tag_104:\n        /* \"#utility.yul\":11757:11760   */\n      0x00\n        /* \"#utility.yul\":11776:11796   */\n      tag_367\n        /* \"#utility.yul\":11794:11795   */\n      dup3\n        /* \"#utility.yul\":11776:11796   */\n      tag_208\n      jump\t// in\n    tag_367:\n        /* \"#utility.yul\":11771:11796   */\n      swap2\n      pop\n        /* \"#utility.yul\":11810:11830   */\n      tag_368\n        /* \"#utility.yul\":11828:11829   */\n      dup4\n        /* \"#utility.yul\":11810:11830   */\n      tag_208\n      jump\t// in\n    tag_368:\n        /* \"#utility.yul\":11805:11830   */\n      swap3\n      pop\n        /* \"#utility.yul\":11853:11854   */\n      dup3\n        /* \"#utility.yul\":11850:11851   */\n      dup3\n        /* \"#utility.yul\":11846:11855   */\n      add\n        /* \"#utility.yul\":11839:11855   */\n      swap1\n      pop\n        /* \"#utility.yul\":11874:11877   */\n      dup1\n        /* \"#utility.yul\":11871:11872   */\n      dup3\n        /* \"#utility.yul\":11868:11878   */\n      gt\n        /* \"#utility.yul\":11865:11901   */\n      iszero\n      tag_369\n      jumpi\n        /* \"#utility.yul\":11881:11899   */\n      tag_370\n      tag_239\n      jump\t// in\n    tag_370:\n        /* \"#utility.yul\":11865:11901   */\n    tag_369:\n        /* \"#utility.yul\":11717:11908   */\n      swap3\n      swap2\n      pop\n      pop\n      jump\t// out\n        /* \"#utility.yul\":11914:12094   */\n    tag_118:\n        /* \"#utility.yul\":11962:12039   */\n      0x4e487b7100000000000000000000000000000000000000000000000000000000\n        /* \"#utility.yul\":11959:11960   */\n      0x00\n        /* \"#utility.yul\":11952:12040   */\n      mstore\n        /* \"#utility.yul\":12059:12063   */\n      0x32\n        /* \"#utility.yul\":12056:12057   */\n      0x04\n        /* \"#utility.yul\":12049:12064   */\n      mstore\n        /* \"#utility.yul\":12083:12087   */\n      0x24\n        /* \"#utility.yul\":12080:12081   */\n      0x00\n        /* \"#utility.yul\":12073:12088   */\n      revert\n        /* \"#utility.yul\":12100:12333   */\n    tag_126:\n        /* \"#utility.yul\":12139:12142   */\n      0x00\n        /* \"#utility.yul\":12162:12186   */\n      tag_373\n        /* \"#utility.yul\":12180:12185   */\n      dup3\n        /* \"#utility.yul\":12162:12186   */\n      tag_208\n      jump\t// in\n    tag_373:\n        /* \"#utility.yul\":12153:12186   */\n      swap2\n      pop\n        /* \"#utility.yul\":12208:12274   */\n      0xffffffffffffffffffffffffffffffffffffffffffffffffffffffffffffffff\n        /* \"#utility.yul\":12201:12206   */\n      dup3\n        /* \"#utility.yul\":12198:12275   */\n      sub\n        /* \"#utility.yul\":12195:12298   */\n      tag_374\n      jumpi\n        /* \"#utility.yul\":12278:12296   */\n      tag_375\n      tag_239\n      jump\t// in\n    tag_375:\n        /* \"#utility.yul\":12195:12298   */\n    tag_374:\n        /* \"#utility.yul\":12325:12326   */\n      0x01\n        /* \"#utility.yul\":12318:12323   */\n      dup3\n        /* \"#utility.yul\":12314:12327   */\n      add\n        /* \"#utility.yul\":12307:12327   */\n      swap1\n      pop\n        /* \"#utility.yul\":12100:12333   */\n      swap2\n      swap1\n      pop\n      jump\t// out\n        /* \"#utility.yul\":12339:12513   */\n    tag_242:\n        /* \"#utility.yul\":12479:12505   */\n      0x4e6f20726566756e6461626c65206269647320666f756e640000000000000000\n        /* \"#utility.yul\":12475:12476   */\n      0x00\n        /* \"#utility.yul\":12467:12473   */\n      dup3\n        /* \"#utility.yul\":12463:12477   */\n      add\n        /* \"#utility.yul\":12456:12506   */\n      mstore\n        /* \"#utility.yul\":12339:12513   */\n      pop\n      jump\t// out\n        /* \"#utility.yul\":12519:12885   */\n    tag_243:\n        /* \"#utility.yul\":12661:12664   */\n      0x00\n        /* \"#utility.yul\":12682:12749   */\n      tag_378\n        /* \"#utility.yul\":12746:12748   */\n      0x18\n        /* \"#utility.yul\":12741:12744   */\n      dup4\n        /* \"#utility.yul\":12682:12749   */\n      tag_234\n      jump\t// in\n    tag_378:\n        /* \"#utility.yul\":12675:12749   */\n      swap2\n      pop\n        /* \"#utility.yul\":12758:12851   */\n      tag_379\n        /* \"#utility.yul\":12847:12850   */\n      dup3\n        /* \"#utility.yul\":12758:12851   */\n      tag_242\n      jump\t// in\n    tag_379:\n        /* \"#utility.yul\":12876:12878   */\n      0x20\n        /* \"#utility.yul\":12871:12874   */\n      dup3\n        /* \"#utility.yul\":12867:12879   */\n      add\n        /* \"#utility.yul\":12860:12879   */\n      swap1\n      pop\n        /* \"#utility.yul\":12519:12885   */\n      swap2\n      swap1\n      pop\n      jump\t// out\n        /* \"#utility.yul\":12891:13310   */\n    tag_129:\n        /* \"#utility.yul\":13057:13061   */\n      0x00\n        /* \"#utility.yul\":13095:13097   */\n      0x20\n        /* \"#utility.yul\":13084:13093   */\n      dup3\n        /* \"#utility.yul\":13080:13098   */\n      add\n        /* \"#utility.yul\":13072:13098   */\n      swap1\n      pop\n        /* \"#utility.yul\":13144:13153   */\n      dup2\n        /* \"#utility.yul\":13138:13142   */\n      dup2\n        /* \"#utility.yul\":13134:13154   */\n      sub\n        /* \"#utility.yul\":13130:13131   */\n      0x00\n        /* \"#utility.yul\":13119:13128   */\n      dup4\n        /* \"#utility.yul\":13115:13132   */\n      add\n        /* \"#utility.yul\":13108:13155   */\n      mstore\n        /* \"#utility.yul\":13172:13303   */\n      tag_381\n        /* \"#utility.yul\":13298:13302   */\n      dup2\n        /* \"#utility.yul\":13172:13303   */\n      tag_243\n      jump\t// in\n    tag_381:\n        /* \"#utility.yul\":13164:13303   */\n      swap1\n      pop\n        /* \"#utility.yul\":12891:13310   */\n      swap2\n      swap1\n      pop\n      jump\t// out\n        /* \"#utility.yul\":13316:13483   */\n    tag_244:\n        /* \"#utility.yul\":13456:13475   */\n      0x4e6f7468696e6720746f20726566756e64000000000000000000000000000000\n        /* \"#utility.yul\":13452:13453   */\n      0x00\n        /* \"#utility.yul\":13444:13450   */\n      dup3\n        /* \"#utility.yul\":13440:13454   */\n      add\n        /* \"#utility.yul\":13433:13476   */\n      mstore\n        /* \"#utility.yul\":13316:13483   */\n      pop\n      jump\t// out\n        /* \"#utility.yul\":13489:13855   */\n    tag_245:\n        /* \"#utility.yul\":13631:13634   */\n      0x00\n        /* \"#utility.yul\":13652:13719   */\n      tag_384\n        /* \"#utility.yul\":13716:13718   */\n      0x11\n        /* \"#utility.yul\":13711:13714   */\n      dup4\n        /* \"#utility.yul\":13652:13719   */\n      tag_234\n      jump\t// in\n    tag_384:\n        /* \"#utility.yul\":13645:13719   */\n      swap2\n      pop\n        /* \"#utility.yul\":13728:13821   */\n      tag_385\n        /* \"#utility.yul\":13817:13820   */\n      dup3\n        /* \"#utility.yul\":13728:13821   */\n      tag_244\n      jump\t// in\n    tag_385:\n        /* \"#utility.yul\":13846:13848   */\n      0x20\n        /* \"#utility.yul\":13841:13844   */\n      dup3\n        /* \"#utility.yul\":13837:13849   */\n      add\n        /* \"#utility.yul\":13830:13849   */\n      swap1\n      pop\n        /* \"#utility.yul\":13489:13855   */\n      swap2\n      swap1\n      pop\n      jump\t// out\n        /* \"#utility.yul\":13861:14280   */\n    tag_152:\n        /* \"#utility.yul\":14027:14031   */\n      0x00\n        /* \"#utility.yul\":14065:14067   */\n      0x20\n        /* \"#utility.yul\":14054:14063   */\n      dup3\n        /* \"#utility.yul\":14050:14068   */\n      add\n        /* \"#utility.yul\":14042:14068   */\n      swap1\n      pop\n        /* \"#utility.yul\":14114:14123   */\n      dup2\n        /* \"#utility.yul\":14108:14112   */\n      dup2\n        /* \"#utility.yul\":14104:14124   */\n      sub\n        /* \"#utility.yul\":14100:14101   */\n      0x00\n        /* \"#utility.yul\":14089:14098   */\n      dup4\n        /* \"#utility.yul\":14085:14102   */\n      add\n        /* \"#utility.yul\":14078:14125   */\n      mstore\n        /* \"#utility.yul\":14142:14273   */\n      tag_387\n        /* \"#utility.yul\":14268:14272   */\n      dup2\n        /* \"#utility.yul\":14142:14273   */\n      tag_245\n      jump\t// in\n    tag_387:\n        /* \"#utility.yul\":14134:14273   */\n      swap1\n      pop\n        /* \"#utility.yul\":13861:14280   */\n      swap2\n      swap1\n      pop\n      jump\t// out\n        /* \"#utility.yul\":14286:14433   */\n    tag_246:\n        /* \"#utility.yul\":14387:14398   */\n      0x00\n        /* \"#utility.yul\":14424:14427   */\n      dup2\n        /* \"#utility.yul\":14409:14427   */\n      swap1\n      pop\n        /* \"#utility.yul\":14286:14433   */\n      swap3\n      swap2\n      pop\n      pop\n      jump\t// out\n        /* \"#utility.yul\":14439:14553   */\n    tag_247:\n      pop\n      jump\t// out\n        /* \"#utility.yul\":14559:14957   */\n    tag_248:\n        /* \"#utility.yul\":14718:14721   */\n      0x00\n        /* \"#utility.yul\":14739:14822   */\n      tag_391\n        /* \"#utility.yul\":14820:14821   */\n      0x00\n        /* \"#utility.yul\":14815:14818   */\n      dup4\n        /* \"#utility.yul\":14739:14822   */\n      tag_246\n      jump\t// in\n    tag_391:\n        /* \"#utility.yul\":14732:14822   */\n      swap2\n      pop\n        /* \"#utility.yul\":14831:14924   */\n      tag_392\n        /* \"#utility.yul\":14920:14923   */\n      dup3\n        /* \"#utility.yul\":14831:14924   */\n      tag_247\n      jump\t// in\n    tag_392:\n        /* \"#utility.yul\":14949:14950   */\n      0x00\n        /* \"#utility.yul\":14944:14947   */\n      dup3\n        /* \"#utility.yul\":14940:14951   */\n      add\n        /* \"#utility.yul\":14933:14951   */\n      swap1\n      pop\n        /* \"#utility.yul\":14559:14957   */\n      swap2\n      swap1\n      pop\n      jump\t// out\n        /* \"#utility.yul\":14963:15342   */\n    tag_154:\n        /* \"#utility.yul\":15147:15150   */\n      0x00\n        /* \"#utility.yul\":15169:15316   */\n      tag_394\n        /* \"#utility.yul\":15312:15315   */\n      dup3\n        /* \"#utility.yul\":15169:15316   */\n      tag_248\n      jump\t// in\n    tag_394:\n        /* \"#utility.yul\":15162:15316   */\n      swap2\n      pop\n        /* \"#utility.yul\":15333:15336   */\n      dup2\n        /* \"#utility.yul\":15326:15336   */\n      swap1\n      pop\n        /* \"#utility.yul\":14963:15342   */\n      swap2\n      swap1\n      pop\n      jump\t// out\n        /* \"#utility.yul\":15348:15511   */\n    tag_249:\n        /* \"#utility.yul\":15488:15503   */\n      0x526566756e64206661696c656400000000000000000000000000000000000000\n        /* \"#utility.yul\":15484:15485   */\n      0x00\n        /* \"#utility.yul\":15476:15482   */\n      dup3\n        /* \"#utility.yul\":15472:15486   */\n      add\n        /* \"#utility.yul\":15465:15504   */\n      mstore\n        /* \"#utility.yul\":15348:15511   */\n      pop\n      jump\t// out\n        /* \"#utility.yul\":15517:15883   */\n    tag_250:\n        /* \"#utility.yul\":15659:15662   */\n      0x00\n        /* \"#utility.yul\":15680:15747   */\n      tag_397\n        /* \"#utility.yul\":15744:15746   */\n      0x0d\n        /* \"#utility.yul\":15739:15742   */\n      dup4\n        /* \"#utility.yul\":15680:15747   */\n      tag_234\n      jump\t// in\n    tag_397:\n        /* \"#utility.yul\":15673:15747   */\n      swap2\n      pop\n        /* \"#utility.yul\":15756:15849   */\n      tag_398\n        /* \"#utility.yul\":15845:15848   */\n      dup3\n        /* \"#utility.yul\":15756:15849   */\n      tag_249\n      jump\t// in\n    tag_398:\n        /* \"#utility.yul\":15874:15876   */\n      0x20\n        /* \"#utility.yul\":15869:15872   */\n      dup3\n        /* \"#utility.yul\":15865:15877   */\n      add\n        /* \"#utility.yul\":15858:15877   */\n      swap1\n      pop\n        /* \"#utility.yul\":15517:15883   */\n      swap2\n      swap1\n      pop\n      jump\t// out\n        /* \"#utility.yul\":15889:16308   */\n    tag_160:\n        /* \"#utility.yul\":16055:16059   */\n      0x00\n        /* \"#utility.yul\":16093:16095   */\n      0x20\n        /* \"#utility.yul\":16082:16091   */\n      dup3\n        /* \"#utility.yul\":16078:16096   */\n      add\n        /* \"#utility.yul\":16070:16096   */\n      swap1\n      pop\n        /* \"#utility.yul\":16142:16151   */\n      dup2\n        /* \"#utility.yul\":16136:16140   */\n      dup2\n        /* \"#utility.yul\":16132:16152   */\n      sub\n        /* \"#utility.yul\":16128:16129   */\n      0x00\n        /* \"#utility.yul\":16117:16126   */\n      dup4\n        /* \"#utility.yul\":16113:16130   */\n      add\n        /* \"#utility.yul\":16106:16153   */\n      mstore\n        /* \"#utility.yul\":16170:16301   */\n      tag_400\n        /* \"#utility.yul\":16296:16300   */\n      dup2\n        /* \"#utility.yul\":16170:16301   */\n      tag_250\n      jump\t// in\n    tag_400:\n        /* \"#utility.yul\":16162:16301   */\n      swap1\n      pop\n        /* \"#utility.yul\":15889:16308   */\n      swap2\n      swap1\n      pop\n      jump\t// out\n        /* \"#utility.yul\":16314:16539   */\n    tag_251:\n        /* \"#utility.yul\":16454:16488   */\n      0x4f6e6c7920746865206f776e65722063616e2063616c6c20746869732066756e\n        /* \"#utility.yul\":16450:16451   */\n      0x00\n        /* \"#utility.yul\":16442:16448   */\n      dup3\n        /* \"#utility.yul\":16438:16452   */\n      add\n        /* \"#utility.yul\":16431:16489   */\n      mstore\n        /* \"#utility.yul\":16523:16531   */\n      0x6374696f6e2e0000000000000000000000000000000000000000000000000000\n        /* \"#utility.yul\":16518:16520   */\n      0x20\n        /* \"#utility.yul\":16510:16516   */\n      dup3\n        /* \"#utility.yul\":16506:16521   */\n      add\n        /* \"#utility.yul\":16499:16532   */\n      mstore\n        /* \"#utility.yul\":16314:16539   */\n      pop\n      jump\t// out\n        /* \"#utility.yul\":16545:16911   */\n    tag_252:\n        /* \"#utility.yul\":16687:16690   */\n      0x00\n        /* \"#utility.yul\":16708:16775   */\n      tag_403\n        /* \"#utility.yul\":16772:16774   */\n      0x26\n        /* \"#utility.yul\":16767:16770   */\n      dup4\n        /* \"#utility.yul\":16708:16775   */\n      tag_234\n      jump\t// in\n    tag_403:\n        /* \"#utility.yul\":16701:16775   */\n      swap2\n      pop\n        /* \"#utility.yul\":16784:16877   */\n      tag_404\n        /* \"#utility.yul\":16873:16876   */\n      dup3\n        /* \"#utility.yul\":16784:16877   */\n      tag_251\n      jump\t// in\n    tag_404:\n        /* \"#utility.yul\":16902:16904   */\n      0x40\n        /* \"#utility.yul\":16897:16900   */\n      dup3\n        /* \"#utility.yul\":16893:16905   */\n      add\n        /* \"#utility.yul\":16886:16905   */\n      swap1\n      pop\n        /* \"#utility.yul\":16545:16911   */\n      swap2\n      swap1\n      pop\n      jump\t// out\n        /* \"#utility.yul\":16917:17336   */\n    tag_165:\n        /* \"#utility.yul\":17083:17087   */\n      0x00\n        /* \"#utility.yul\":17121:17123   */\n      0x20\n        /* \"#utility.yul\":17110:17119   */\n      dup3\n        /* \"#utility.yul\":17106:17124   */\n      add\n        /* \"#utility.yul\":17098:17124   */\n      swap1\n      pop\n        /* \"#utility.yul\":17170:17179   */\n      dup2\n        /* \"#utility.yul\":17164:17168   */\n      dup2\n        /* \"#utility.yul\":17160:17180   */\n      sub\n        /* \"#utility.yul\":17156:17157   */\n      0x00\n        /* \"#utility.yul\":17145:17154   */\n      dup4\n        /* \"#utility.yul\":17141:17158   */\n      add\n        /* \"#utility.yul\":17134:17181   */\n      mstore\n        /* \"#utility.yul\":17198:17329   */\n      tag_406\n        /* \"#utility.yul\":17324:17328   */\n      dup2\n        /* \"#utility.yul\":17198:17329   */\n      tag_252\n      jump\t// in\n    tag_406:\n        /* \"#utility.yul\":17190:17329   */\n      swap1\n      pop\n        /* \"#utility.yul\":16917:17336   */\n      swap2\n      swap1\n      pop\n      jump\t// out\n        /* \"#utility.yul\":17342:17519   */\n    tag_253:\n        /* \"#utility.yul\":17482:17511   */\n      0x5468652061756374696f6e206973206e6f74206f766572207965740000000000\n        /* \"#utility.yul\":17478:17479   */\n      0x00\n        /* \"#utility.yul\":17470:17476   */\n      dup3\n        /* \"#utility.yul\":17466:17480   */\n      add\n        /* \"#utility.yul\":17459:17512   */\n      mstore\n        /* \"#utility.yul\":17342:17519   */\n      pop\n      jump\t// out\n        /* \"#utility.yul\":17525:17891   */\n    tag_254:\n        /* \"#utility.yul\":17667:17670   */\n      0x00\n        /* \"#utility.yul\":17688:17755   */\n      tag_409\n        /* \"#utility.yul\":17752:17754   */\n      0x1b\n        /* \"#utility.yul\":17747:17750   */\n      dup4\n        /* \"#utility.yul\":17688:17755   */\n      tag_234\n      jump\t// in\n    tag_409:\n        /* \"#utility.yul\":17681:17755   */\n      swap2\n      pop\n        /* \"#utility.yul\":17764:17857   */\n      tag_410\n        /* \"#utility.yul\":17853:17856   */\n      dup3\n        /* \"#utility.yul\":17764:17857   */\n      tag_253\n      jump\t// in\n    tag_410:\n        /* \"#utility.yul\":17882:17884   */\n      0x20\n        /* \"#utility.yul\":17877:17880   */\n      dup3\n        /* \"#utility.yul\":17873:17885   */\n      add\n        /* \"#utility.yul\":17866:17885   */\n      swap1\n      pop\n        /* \"#utility.yul\":17525:17891   */\n      swap2\n      swap1\n      pop\n      jump\t// out\n        /* \"#utility.yul\":17897:18316   */\n    tag_169:\n        /* \"#utility.yul\":18063:18067   */\n      0x00\n        /* \"#utility.yul\":18101:18103   */\n      0x20\n        /* \"#utility.yul\":18090:18099   */\n      dup3\n        /* \"#utility.yul\":18086:18104   */\n      add\n        /* \"#utility.yul\":18078:18104   */\n      swap1\n      pop\n        /* \"#utility.yul\":18150:18159   */\n      dup2\n        /* \"#utility.yul\":18144:18148   */\n      dup2\n        /* \"#utility.yul\":18140:18160   */\n      sub\n        /* \"#utility.yul\":18136:18137   */\n      0x00\n        /* \"#utility.yul\":18125:18134   */\n      dup4\n        /* \"#utility.yul\":18121:18138   */\n      add\n        /* \"#utility.yul\":18114:18161   */\n      mstore\n        /* \"#utility.yul\":18178:18309   */\n      tag_412\n        /* \"#utility.yul\":18304:18308   */\n      dup2\n        /* \"#utility.yul\":18178:18309   */\n      tag_254\n      jump\t// in\n    tag_412:\n        /* \"#utility.yul\":18170:18309   */\n      swap1\n      pop\n        /* \"#utility.yul\":17897:18316   */\n      swap2\n      swap1\n      pop\n      jump\t// out\n        /* \"#utility.yul\":18322:18502   */\n    tag_255:\n        /* \"#utility.yul\":18370:18447   */\n      0x4e487b7100000000000000000000000000000000000000000000000000000000\n        /* \"#utility.yul\":18367:18368   */\n      0x00\n        /* \"#utility.yul\":18360:18448   */\n      mstore\n        /* \"#utility.yul\":18467:18471   */\n      0x12\n        /* \"#utility.yul\":18464:18465   */\n      0x04\n        /* \"#utility.yul\":18457:18472   */\n      mstore\n        /* \"#utility.yul\":18491:18495   */\n      0x24\n        /* \"#utility.yul\":18488:18489   */\n      0x00\n        /* \"#utility.yul\":18481:18496   */\n      revert\n        /* \"#utility.yul\":18508:18693   */\n    tag_187:\n        /* \"#utility.yul\":18548:18549   */\n      0x00\n        /* \"#utility.yul\":18565:18585   */\n      tag_415\n        /* \"#utility.yul\":18583:18584   */\n      dup3\n        /* \"#utility.yul\":18565:18585   */\n      tag_208\n      jump\t// in\n    tag_415:\n        /* \"#utility.yul\":18560:18585   */\n      swap2\n      pop\n        /* \"#utility.yul\":18599:18619   */\n      tag_416\n        /* \"#utility.yul\":18617:18618   */\n      dup4\n        /* \"#utility.yul\":18599:18619   */\n      tag_208\n      jump\t// in\n    tag_416:\n        /* \"#utility.yul\":18594:18619   */\n      swap3\n      pop\n        /* \"#utility.yul\":18638:18639   */\n      dup3\n        /* \"#utility.yul\":18628:18663   */\n      tag_417\n      jumpi\n        /* \"#utility.yul\":18643:18661   */\n      tag_418\n      tag_255\n      jump\t// in\n    tag_418:\n        /* \"#utility.yul\":18628:18663   */\n    tag_417:\n        /* \"#utility.yul\":18685:18686   */\n      dup3\n        /* \"#utility.yul\":18682:18683   */\n      dup3\n        /* \"#utility.yul\":18678:18687   */\n      div\n        /* \"#utility.yul\":18673:18687   */\n      swap1\n      pop\n        /* \"#utility.yul\":18508:18693   */\n      swap3\n      swap2\n      pop\n      pop\n      jump\t// out\n\n    auxdata: 0xa2646970667358221220e875fb105ad2156e180cafc0094292b09ce9556c6f11c323caa0bcfe019776b964736f6c634300081e0033\n}\n",
				"bytecode": {
					"linkReferences": {},
					"object": "6080604052348015600e575f5ffd5b504260028190555061012c6002546024919060a4565b6003819055503360045f6101000a81548173ffffffffffffffffffffffffffffffffffffffff021916908373ffffffffffffffffffffffffffffffffffffffff16021790555060d0565b5f819050919050565b7f4e487b71000000000000000000000000000000000000000000000000000000005f52601160045260245ffd5b5f60ac82606e565b915060b583606e565b925082820190508082111560ca5760c96077565b5b92915050565b611846806100dd5f395ff3fe6080604052600436106100dc575f3560e01c806378e979251161007e578063ba9b5ae611610058578063ba9b5ae614610243578063d46dd5bb1461026d578063d57bde7914610298578063ecde973d146102c2576100dc565b806378e97925146101c55780638da5cb5b146101ef57806391f9015714610219576100dc565b80631998aeef116100ba5780631998aeef146101705780631ce2bcf51461017a57806338e771ab1461019057806341b0cfa81461019a576100dc565b806303ff5e73146100e057806304d429011461010a57806314d2687c14610146575b5f5ffd5b3480156100eb575f5ffd5b506100f4610301565b6040516101019190610f90565b60405180910390f35b348015610115575f5ffd5b50610130600480360381019061012b9190611007565b610307565b60405161013d9190610f90565b60405180910390f35b348015610151575f5ffd5b5061015a61034d565b6040516101679190611165565b60405180910390f35b61017861042b565b005b348015610185575f5ffd5b5061018e610710565b005b610198610b24565b005b3480156101a5575f5ffd5b506101ae610e15565b6040516101bc929190611194565b60405180910390f35b3480156101d0575f5ffd5b506101d9610e88565b6040516101e69190610f90565b60405180910390f35b3480156101fa575f5ffd5b50610203610e8e565b60405161021091906111db565b60405180910390f35b348015610224575f5ffd5b5061022d610eb3565b60405161023a91906111f4565b60405180910390f35b34801561024e575f5ffd5b50610257610ed8565b6040516102649190610f90565b60405180910390f35b348015610278575f5ffd5b50610281610edf565b60405161028f929190611194565b60405180910390f35b3480156102a3575f5ffd5b506102ac610f0d565b6040516102b99190610f90565b60405180910390f35b3480156102cd575f5ffd5b506102e860048036038101906102e39190611237565b610f12565b6040516102f89493929190611271565b60405180910390f35b60035481565b5f60055f8373ffffffffffffffffffffffffffffffffffffffff1673ffffffffffffffffffffffffffffffffffffffff1681526020019081526020015f20549050919050565b60606006805480602002602001604051908101604052809291908181526020015f905b82821015610422578382905f5260205f2090600402016040518060800160405290815f82015f9054906101000a900473ffffffffffffffffffffffffffffffffffffffff1673ffffffffffffffffffffffffffffffffffffffff1673ffffffffffffffffffffffffffffffffffffffff1681526020016001820154815260200160028201548152602001600382015f9054906101000a900460ff16151515158152505081526020019060010190610370565b50505050905090565b600254421015801561043f57506003544211155b61047e576040517f08c379a00000000000000000000000000000000000000000000000000000000081526004016104759061130e565b60405180910390fd5b5f34116104c0576040517f08c379a00000000000000000000000000000000000000000000000000000000081526004016104b790611376565b60405180910390fd5b60695f546104ce91906113c1565b6064346104db91906113c1565b101561051c576040517f08c379a00000000000000000000000000000000000000000000000000000000081526004016105139061144c565b60405180910390fd5b6102584260035461052d919061146a565b1161054d5761025860035f828254610545919061149d565b925050819055505b3373ffffffffffffffffffffffffffffffffffffffff167fdd0b6c6a77960e2066c96171b4d7ac9e8b4c184011f38544afa36a5bb63ec59f346040516105939190610f90565b60405180910390a23460055f3373ffffffffffffffffffffffffffffffffffffffff1673ffffffffffffffffffffffffffffffffffffffff1681526020019081526020015f205f8282546105e7919061149d565b92505081905550345f819055503360015f6101000a81548173ffffffffffffffffffffffffffffffffffffffff021916908373ffffffffffffffffffffffffffffffffffffffff160217905550600660405180608001604052803373ffffffffffffffffffffffffffffffffffffffff1681526020013481526020014281526020015f1515815250908060018154018082558091505060019003905f5260205f2090600402015f909190919091505f820151815f015f6101000a81548173ffffffffffffffffffffffffffffffffffffffff021916908373ffffffffffffffffffffffffffffffffffffffff16021790555060208201518160010155604082015181600201556060820151816003015f6101000a81548160ff0219169083151502179055505050565b600254421015801561072457506003544211155b610763576040517f08c379a000000000000000000000000000000000000000000000000000000000815260040161075a9061130e565b60405180910390fd5b5f5f90505f5f90505b600680549050811015610843573373ffffffffffffffffffffffffffffffffffffffff16600682815481106107a4576107a36114d0565b5b905f5260205f2090600402015f015f9054906101000a900473ffffffffffffffffffffffffffffffffffffffff1673ffffffffffffffffffffffffffffffffffffffff16148015610822575060068181548110610804576108036114d0565b5b905f5260205f2090600402016003015f9054906101000a900460ff16155b15610836578180610832906114fd565b9250505b808060010191505061076c565b5060018111610887576040517f08c379a000000000000000000000000000000000000000000000000000000000815260040161087e9061158e565b60405180910390fd5b5f5f90505f5f90505f5f90505b6006805490508110156109e0573373ffffffffffffffffffffffffffffffffffffffff16600682815481106108cc576108cb6114d0565b5b905f5260205f2090600402015f015f9054906101000a900473ffffffffffffffffffffffffffffffffffffffff1673ffffffffffffffffffffffffffffffffffffffff1614801561094a57506006818154811061092c5761092b6114d0565b5b905f5260205f2090600402016003015f9054906101000a900460ff16155b156109d357828061095a906114fd565b935050838310156109d25760068181548110610979576109786114d0565b5b905f5260205f2090600402016001015482610994919061149d565b91506001600682815481106109ac576109ab6114d0565b5b905f5260205f2090600402016003015f6101000a81548160ff0219169083151502179055505b5b8080600101915050610894565b505f8111610a23576040517f08c379a0000000000000000000000000000000000000000000000000000000008152600401610a1a906115f6565b60405180910390fd5b5f3373ffffffffffffffffffffffffffffffffffffffff1682604051610a4890611641565b5f6040518083038185875af1925050503d805f8114610a82576040519150601f19603f3d011682016040523d82523d5f602084013e610a87565b606091505b5050905080610acb576040517f08c379a0000000000000000000000000000000000000000000000000000000008152600401610ac29061169f565b60405180910390fd5b8160055f3373ffffffffffffffffffffffffffffffffffffffff1673ffffffffffffffffffffffffffffffffffffffff1681526020019081526020015f205f828254610b17919061146a565b9250508190555050505050565b60045f9054906101000a900473ffffffffffffffffffffffffffffffffffffffff1673ffffffffffffffffffffffffffffffffffffffff163373ffffffffffffffffffffffffffffffffffffffff1614610bb3576040517f08c379a0000000000000000000000000000000000000000000000000000000008152600401610baa9061172d565b60405180910390fd5b600354421015610bf8576040517f08c379a0000000000000000000000000000000000000000000000000000000008152600401610bef90611795565b60405180910390fd5b5f5f90505b600680549050811015610de6575f5460068281548110610c2057610c1f6114d0565b5b905f5260205f2090600402016001015414158015610c7057505f151560068281548110610c5057610c4f6114d0565b5b905f5260205f2090600402016003015f9054906101000a900460ff161515145b15610ddb575f6064606260068481548110610c8e57610c8d6114d0565b5b905f5260205f20906004020160010154610ca891906113c1565b610cb291906117e0565b90505f60068381548110610cc957610cc86114d0565b5b905f5260205f2090600402015f015f9054906101000a900473ffffffffffffffffffffffffffffffffffffffff1673ffffffffffffffffffffffffffffffffffffffff1682604051610d1a90611641565b5f6040518083038185875af1925050503d805f8114610d54576040519150601f19603f3d011682016040523d82523d5f602084013e610d59565b606091505b5050905080610d9d576040517f08c379a0000000000000000000000000000000000000000000000000000000008152600401610d949061169f565b60405180910390fd5b600160068481548110610db357610db26114d0565b5b905f5260205f2090600402016003015f6101000a81548160ff02191690831515021790555050505b806001019050610bfd565b507fa0e92984607195c326795751263414ee1074526323552e694c90ef2b99ae3f2960405160405180910390a1565b5f5f600354421015610e5c576040517f08c379a0000000000000000000000000000000000000000000000000000000008152600401610e5390611795565b60405180910390fd5b60015f9054906101000a900473ffffffffffffffffffffffffffffffffffffffff165f54915091509091565b60025481565b60045f9054906101000a900473ffffffffffffffffffffffffffffffffffffffff1681565b60015f9054906101000a900473ffffffffffffffffffffffffffffffffffffffff1681565b5f42905090565b5f5f60015f9054906101000a900473ffffffffffffffffffffffffffffffffffffffff165f54915091509091565b5f5481565b60068181548110610f21575f80fd5b905f5260205f2090600402015f91509050805f015f9054906101000a900473ffffffffffffffffffffffffffffffffffffffff1690806001015490806002015490806003015f9054906101000a900460ff16905084565b5f819050919050565b610f8a81610f78565b82525050565b5f602082019050610fa35f830184610f81565b92915050565b5f5ffd5b5f73ffffffffffffffffffffffffffffffffffffffff82169050919050565b5f610fd682610fad565b9050919050565b610fe681610fcc565b8114610ff0575f5ffd5b50565b5f8135905061100181610fdd565b92915050565b5f6020828403121561101c5761101b610fa9565b5b5f61102984828501610ff3565b91505092915050565b5f81519050919050565b5f82825260208201905092915050565b5f819050602082019050919050565b61106481610fcc565b82525050565b61107381610f78565b82525050565b5f8115159050919050565b61108d81611079565b82525050565b608082015f8201516110a75f85018261105b565b5060208201516110ba602085018261106a565b5060408201516110cd604085018261106a565b5060608201516110e06060850182611084565b50505050565b5f6110f18383611093565b60808301905092915050565b5f602082019050919050565b5f61111382611032565b61111d818561103c565b93506111288361104c565b805f5b8381101561115857815161113f88826110e6565b975061114a836110fd565b92505060018101905061112b565b5085935050505092915050565b5f6020820190508181035f83015261117d8184611109565b905092915050565b61118e81610fcc565b82525050565b5f6040820190506111a75f830185611185565b6111b46020830184610f81565b9392505050565b5f6111c582610fad565b9050919050565b6111d5816111bb565b82525050565b5f6020820190506111ee5f8301846111cc565b92915050565b5f6020820190506112075f830184611185565b92915050565b61121681610f78565b8114611220575f5ffd5b50565b5f813590506112318161120d565b92915050565b5f6020828403121561124c5761124b610fa9565b5b5f61125984828501611223565b91505092915050565b61126b81611079565b82525050565b5f6080820190506112845f830187611185565b6112916020830186610f81565b61129e6040830185610f81565b6112ab6060830184611262565b95945050505050565b5f82825260208201905092915050565b7f426964206973206e6f74206163746976650000000000000000000000000000005f82015250565b5f6112f86011836112b4565b9150611303826112c4565b602082019050919050565b5f6020820190508181035f830152611325816112ec565b9050919050565b7f596f75206d7573742073656e6420736f6d6520455448000000000000000000005f82015250565b5f6113606016836112b4565b915061136b8261132c565b602082019050919050565b5f6020820190508181035f83015261138d81611354565b9050919050565b7f4e487b71000000000000000000000000000000000000000000000000000000005f52601160045260245ffd5b5f6113cb82610f78565b91506113d683610f78565b92508282026113e481610f78565b915082820484148315176113fb576113fa611394565b5b5092915050565b7f426964206d757374206265206174206c656173742035252068696768657200005f82015250565b5f611436601e836112b4565b915061144182611402565b602082019050919050565b5f6020820190508181035f8301526114638161142a565b9050919050565b5f61147482610f78565b915061147f83610f78565b925082820390508181111561149757611496611394565b5b92915050565b5f6114a782610f78565b91506114b283610f78565b92508282019050808211156114ca576114c9611394565b5b92915050565b7f4e487b71000000000000000000000000000000000000000000000000000000005f52603260045260245ffd5b5f61150782610f78565b91507fffffffffffffffffffffffffffffffffffffffffffffffffffffffffffffffff820361153957611538611394565b5b600182019050919050565b7f4e6f20726566756e6461626c65206269647320666f756e6400000000000000005f82015250565b5f6115786018836112b4565b915061158382611544565b602082019050919050565b5f6020820190508181035f8301526115a58161156c565b9050919050565b7f4e6f7468696e6720746f20726566756e640000000000000000000000000000005f82015250565b5f6115e06011836112b4565b91506115eb826115ac565b602082019050919050565b5f6020820190508181035f83015261160d816115d4565b9050919050565b5f81905092915050565b50565b5f61162c5f83611614565b91506116378261161e565b5f82019050919050565b5f61164b82611621565b9150819050919050565b7f526566756e64206661696c6564000000000000000000000000000000000000005f82015250565b5f611689600d836112b4565b915061169482611655565b602082019050919050565b5f6020820190508181035f8301526116b68161167d565b9050919050565b7f4f6e6c7920746865206f776e65722063616e2063616c6c20746869732066756e5f8201527f6374696f6e2e0000000000000000000000000000000000000000000000000000602082015250565b5f6117176026836112b4565b9150611722826116bd565b604082019050919050565b5f6020820190508181035f8301526117448161170b565b9050919050565b7f5468652061756374696f6e206973206e6f74206f7665722079657400000000005f82015250565b5f61177f601b836112b4565b915061178a8261174b565b602082019050919050565b5f6020820190508181035f8301526117ac81611773565b9050919050565b7f4e487b71000000000000000000000000000000000000000000000000000000005f52601260045260245ffd5b5f6117ea82610f78565b91506117f583610f78565b925082611805576118046117b3565b5b82820490509291505056fea2646970667358221220e875fb105ad2156e180cafc0094292b09ce9556c6f11c323caa0bcfe019776b964736f6c634300081e0033",
					"opcodes": "PUSH1 0x80 PUSH1 0x40 MSTORE CALLVALUE DUP1 ISZERO PUSH1 0xE JUMPI PUSH0 PUSH0 REVERT JUMPDEST POP TIMESTAMP PUSH1 0x2 DUP2 SWAP1 SSTORE POP PUSH2 0x12C PUSH1 0x2 SLOAD PUSH1 0x24 SWAP2 SWAP1 PUSH1 0xA4 JUMP JUMPDEST PUSH1 0x3 DUP2 SWAP1 SSTORE POP CALLER PUSH1 0x4 PUSH0 PUSH2 0x100 EXP DUP2 SLOAD DUP2 PUSH20 0xFFFFFFFFFFFFFFFFFFFFFFFFFFFFFFFFFFFFFFFF MUL NOT AND SWAP1 DUP4 PUSH20 0xFFFFFFFFFFFFFFFFFFFFFFFFFFFFFFFFFFFFFFFF AND MUL OR SWAP1 SSTORE POP PUSH1 0xD0 JUMP JUMPDEST PUSH0 DUP2 SWAP1 POP SWAP2 SWAP1 POP JUMP JUMPDEST PUSH32 0x4E487B7100000000000000000000000000000000000000000000000000000000 PUSH0 MSTORE PUSH1 0x11 PUSH1 0x4 MSTORE PUSH1 0x24 PUSH0 REVERT JUMPDEST PUSH0 PUSH1 0xAC DUP3 PUSH1 0x6E JUMP JUMPDEST SWAP2 POP PUSH1 0xB5 DUP4 PUSH1 0x6E JUMP JUMPDEST SWAP3 POP DUP3 DUP3 ADD SWAP1 POP DUP1 DUP3 GT ISZERO PUSH1 0xCA JUMPI PUSH1 0xC9 PUSH1 0x77 JUMP JUMPDEST JUMPDEST SWAP3 SWAP2 POP POP JUMP JUMPDEST PUSH2 0x1846 DUP1 PUSH2 0xDD PUSH0 CODECOPY PUSH0 RETURN INVALID PUSH1 0x80 PUSH1 0x40 MSTORE PUSH1 0x4 CALLDATASIZE LT PUSH2 0xDC JUMPI PUSH0 CALLDATALOAD PUSH1 0xE0 SHR DUP1 PUSH4 0x78E97925 GT PUSH2 0x7E JUMPI DUP1 PUSH4 0xBA9B5AE6 GT PUSH2 0x58 JUMPI DUP1 PUSH4 0xBA9B5AE6 EQ PUSH2 0x243 JUMPI DUP1 PUSH4 0xD46DD5BB EQ PUSH2 0x26D JUMPI DUP1 PUSH4 0xD57BDE79 EQ PUSH2 0x298 JUMPI DUP1 PUSH4 0xECDE973D EQ PUSH2 0x2C2 JUMPI PUSH2 0xDC JUMP JUMPDEST DUP1 PUSH4 0x78E97925 EQ PUSH2 0x1C5 JUMPI DUP1 PUSH4 0x8DA5CB5B EQ PUSH2 0x1EF JUMPI DUP1 PUSH4 0x91F90157 EQ PUSH2 0x219 JUMPI PUSH2 0xDC JUMP JUMPDEST DUP1 PUSH4 0x1998AEEF GT PUSH2 0xBA JUMPI DUP1 PUSH4 0x1998AEEF EQ PUSH2 0x170 JUMPI DUP1 PUSH4 0x1CE2BCF5 EQ PUSH2 0x17A JUMPI DUP1 PUSH4 0x38E771AB EQ PUSH2 0x190 JUMPI DUP1 PUSH4 0x41B0CFA8 EQ PUSH2 0x19A JUMPI PUSH2 0xDC JUMP JUMPDEST DUP1 PUSH4 0x3FF5E73 EQ PUSH2 0xE0 JUMPI DUP1 PUSH4 0x4D42901 EQ PUSH2 0x10A JUMPI DUP1 PUSH4 0x14D2687C EQ PUSH2 0x146 JUMPI JUMPDEST PUSH0 PUSH0 REVERT JUMPDEST CALLVALUE DUP1 ISZERO PUSH2 0xEB JUMPI PUSH0 PUSH0 REVERT JUMPDEST POP PUSH2 0xF4 PUSH2 0x301 JUMP JUMPDEST PUSH1 0x40 MLOAD PUSH2 0x101 SWAP2 SWAP1 PUSH2 0xF90 JUMP JUMPDEST PUSH1 0x40 MLOAD DUP1 SWAP2 SUB SWAP1 RETURN JUMPDEST CALLVALUE DUP1 ISZERO PUSH2 0x115 JUMPI PUSH0 PUSH0 REVERT JUMPDEST POP PUSH2 0x130 PUSH1 0x4 DUP1 CALLDATASIZE SUB DUP2 ADD SWAP1 PUSH2 0x12B SWAP2 SWAP1 PUSH2 0x1007 JUMP JUMPDEST PUSH2 0x307 JUMP JUMPDEST PUSH1 0x40 MLOAD PUSH2 0x13D SWAP2 SWAP1 PUSH2 0xF90 JUMP JUMPDEST PUSH1 0x40 MLOAD DUP1 SWAP2 SUB SWAP1 RETURN JUMPDEST CALLVALUE DUP1 ISZERO PUSH2 0x151 JUMPI PUSH0 PUSH0 REVERT JUMPDEST POP PUSH2 0x15A PUSH2 0x34D JUMP JUMPDEST PUSH1 0x40 MLOAD PUSH2 0x167 SWAP2 SWAP1 PUSH2 0x1165 JUMP JUMPDEST PUSH1 0x40 MLOAD DUP1 SWAP2 SUB SWAP1 RETURN JUMPDEST PUSH2 0x178 PUSH2 0x42B JUMP JUMPDEST STOP JUMPDEST CALLVALUE DUP1 ISZERO PUSH2 0x185 JUMPI PUSH0 PUSH0 REVERT JUMPDEST POP PUSH2 0x18E PUSH2 0x710 JUMP JUMPDEST STOP JUMPDEST PUSH2 0x198 PUSH2 0xB24 JUMP JUMPDEST STOP JUMPDEST CALLVALUE DUP1 ISZERO PUSH2 0x1A5 JUMPI PUSH0 PUSH0 REVERT JUMPDEST POP PUSH2 0x1AE PUSH2 0xE15 JUMP JUMPDEST PUSH1 0x40 MLOAD PUSH2 0x1BC SWAP3 SWAP2 SWAP1 PUSH2 0x1194 JUMP JUMPDEST PUSH1 0x40 MLOAD DUP1 SWAP2 SUB SWAP1 RETURN JUMPDEST CALLVALUE DUP1 ISZERO PUSH2 0x1D0 JUMPI PUSH0 PUSH0 REVERT JUMPDEST POP PUSH2 0x1D9 PUSH2 0xE88 JUMP JUMPDEST PUSH1 0x40 MLOAD PUSH2 0x1E6 SWAP2 SWAP1 PUSH2 0xF90 JUMP JUMPDEST PUSH1 0x40 MLOAD DUP1 SWAP2 SUB SWAP1 RETURN JUMPDEST CALLVALUE DUP1 ISZERO PUSH2 0x1FA JUMPI PUSH0 PUSH0 REVERT JUMPDEST POP PUSH2 0x203 PUSH2 0xE8E JUMP JUMPDEST PUSH1 0x40 MLOAD PUSH2 0x210 SWAP2 SWAP1 PUSH2 0x11DB JUMP JUMPDEST PUSH1 0x40 MLOAD DUP1 SWAP2 SUB SWAP1 RETURN JUMPDEST CALLVALUE DUP1 ISZERO PUSH2 0x224 JUMPI PUSH0 PUSH0 REVERT JUMPDEST POP PUSH2 0x22D PUSH2 0xEB3 JUMP JUMPDEST PUSH1 0x40 MLOAD PUSH2 0x23A SWAP2 SWAP1 PUSH2 0x11F4 JUMP JUMPDEST PUSH1 0x40 MLOAD DUP1 SWAP2 SUB SWAP1 RETURN JUMPDEST CALLVALUE DUP1 ISZERO PUSH2 0x24E JUMPI PUSH0 PUSH0 REVERT JUMPDEST POP PUSH2 0x257 PUSH2 0xED8 JUMP JUMPDEST PUSH1 0x40 MLOAD PUSH2 0x264 SWAP2 SWAP1 PUSH2 0xF90 JUMP JUMPDEST PUSH1 0x40 MLOAD DUP1 SWAP2 SUB SWAP1 RETURN JUMPDEST CALLVALUE DUP1 ISZERO PUSH2 0x278 JUMPI PUSH0 PUSH0 REVERT JUMPDEST POP PUSH2 0x281 PUSH2 0xEDF JUMP JUMPDEST PUSH1 0x40 MLOAD PUSH2 0x28F SWAP3 SWAP2 SWAP1 PUSH2 0x1194 JUMP JUMPDEST PUSH1 0x40 MLOAD DUP1 SWAP2 SUB SWAP1 RETURN JUMPDEST CALLVALUE DUP1 ISZERO PUSH2 0x2A3 JUMPI PUSH0 PUSH0 REVERT JUMPDEST POP PUSH2 0x2AC PUSH2 0xF0D JUMP JUMPDEST PUSH1 0x40 MLOAD PUSH2 0x2B9 SWAP2 SWAP1 PUSH2 0xF90 JUMP JUMPDEST PUSH1 0x40 MLOAD DUP1 SWAP2 SUB SWAP1 RETURN JUMPDEST CALLVALUE DUP1 ISZERO PUSH2 0x2CD JUMPI PUSH0 PUSH0 REVERT JUMPDEST POP PUSH2 0x2E8 PUSH1 0x4 DUP1 CALLDATASIZE SUB DUP2 ADD SWAP1 PUSH2 0x2E3 SWAP2 SWAP1 PUSH2 0x1237 JUMP JUMPDEST PUSH2 0xF12 JUMP JUMPDEST PUSH1 0x40 MLOAD PUSH2 0x2F8 SWAP5 SWAP4 SWAP3 SWAP2 SWAP1 PUSH2 0x1271 JUMP JUMPDEST PUSH1 0x40 MLOAD DUP1 SWAP2 SUB SWAP1 RETURN JUMPDEST PUSH1 0x3 SLOAD DUP2 JUMP JUMPDEST PUSH0 PUSH1 0x5 PUSH0 DUP4 PUSH20 0xFFFFFFFFFFFFFFFFFFFFFFFFFFFFFFFFFFFFFFFF AND PUSH20 0xFFFFFFFFFFFFFFFFFFFFFFFFFFFFFFFFFFFFFFFF AND DUP2 MSTORE PUSH1 0x20 ADD SWAP1 DUP2 MSTORE PUSH1 0x20 ADD PUSH0 KECCAK256 SLOAD SWAP1 POP SWAP2 SWAP1 POP JUMP JUMPDEST PUSH1 0x60 PUSH1 0x6 DUP1 SLOAD DUP1 PUSH1 0x20 MUL PUSH1 0x20 ADD PUSH1 0x40 MLOAD SWAP1 DUP2 ADD PUSH1 0x40 MSTORE DUP1 SWAP3 SWAP2 SWAP1 DUP2 DUP2 MSTORE PUSH1 0x20 ADD PUSH0 SWAP1 JUMPDEST DUP3 DUP3 LT ISZERO PUSH2 0x422 JUMPI DUP4 DUP3 SWAP1 PUSH0 MSTORE PUSH1 0x20 PUSH0 KECCAK256 SWAP1 PUSH1 0x4 MUL ADD PUSH1 0x40 MLOAD DUP1 PUSH1 0x80 ADD PUSH1 0x40 MSTORE SWAP1 DUP2 PUSH0 DUP3 ADD PUSH0 SWAP1 SLOAD SWAP1 PUSH2 0x100 EXP SWAP1 DIV PUSH20 0xFFFFFFFFFFFFFFFFFFFFFFFFFFFFFFFFFFFFFFFF AND PUSH20 0xFFFFFFFFFFFFFFFFFFFFFFFFFFFFFFFFFFFFFFFF AND PUSH20 0xFFFFFFFFFFFFFFFFFFFFFFFFFFFFFFFFFFFFFFFF AND DUP2 MSTORE PUSH1 0x20 ADD PUSH1 0x1 DUP3 ADD SLOAD DUP2 MSTORE PUSH1 0x20 ADD PUSH1 0x2 DUP3 ADD SLOAD DUP2 MSTORE PUSH1 0x20 ADD PUSH1 0x3 DUP3 ADD PUSH0 SWAP1 SLOAD SWAP1 PUSH2 0x100 EXP SWAP1 DIV PUSH1 0xFF AND ISZERO ISZERO ISZERO ISZERO DUP2 MSTORE POP POP DUP2 MSTORE PUSH1 0x20 ADD SWAP1 PUSH1 0x1 ADD SWAP1 PUSH2 0x370 JUMP JUMPDEST POP POP POP POP SWAP1 POP SWAP1 JUMP JUMPDEST PUSH1 0x2 SLOAD TIMESTAMP LT ISZERO DUP1 ISZERO PUSH2 0x43F JUMPI POP PUSH1 0x3 SLOAD TIMESTAMP GT ISZERO JUMPDEST PUSH2 0x47E JUMPI PUSH1 0x40 MLOAD PUSH32 0x8C379A000000000000000000000000000000000000000000000000000000000 DUP2 MSTORE PUSH1 0x4 ADD PUSH2 0x475 SWAP1 PUSH2 0x130E JUMP JUMPDEST PUSH1 0x40 MLOAD DUP1 SWAP2 SUB SWAP1 REVERT JUMPDEST PUSH0 CALLVALUE GT PUSH2 0x4C0 JUMPI PUSH1 0x40 MLOAD PUSH32 0x8C379A000000000000000000000000000000000000000000000000000000000 DUP2 MSTORE PUSH1 0x4 ADD PUSH2 0x4B7 SWAP1 PUSH2 0x1376 JUMP JUMPDEST PUSH1 0x40 MLOAD DUP1 SWAP2 SUB SWAP1 REVERT JUMPDEST PUSH1 0x69 PUSH0 SLOAD PUSH2 0x4CE SWAP2 SWAP1 PUSH2 0x13C1 JUMP JUMPDEST PUSH1 0x64 CALLVALUE PUSH2 0x4DB SWAP2 SWAP1 PUSH2 0x13C1 JUMP JUMPDEST LT ISZERO PUSH2 0x51C JUMPI PUSH1 0x40 MLOAD PUSH32 0x8C379A000000000000000000000000000000000000000000000000000000000 DUP2 MSTORE PUSH1 0x4 ADD PUSH2 0x513 SWAP1 PUSH2 0x144C JUMP JUMPDEST PUSH1 0x40 MLOAD DUP1 SWAP2 SUB SWAP1 REVERT JUMPDEST PUSH2 0x258 TIMESTAMP PUSH1 0x3 SLOAD PUSH2 0x52D SWAP2 SWAP1 PUSH2 0x146A JUMP JUMPDEST GT PUSH2 0x54D JUMPI PUSH2 0x258 PUSH1 0x3 PUSH0 DUP3 DUP3 SLOAD PUSH2 0x545 SWAP2 SWAP1 PUSH2 0x149D JUMP JUMPDEST SWAP3 POP POP DUP2 SWAP1 SSTORE POP JUMPDEST CALLER PUSH20 0xFFFFFFFFFFFFFFFFFFFFFFFFFFFFFFFFFFFFFFFF AND PUSH32 0xDD0B6C6A77960E2066C96171B4D7AC9E8B4C184011F38544AFA36A5BB63EC59F CALLVALUE PUSH1 0x40 MLOAD PUSH2 0x593 SWAP2 SWAP1 PUSH2 0xF90 JUMP JUMPDEST PUSH1 0x40 MLOAD DUP1 SWAP2 SUB SWAP1 LOG2 CALLVALUE PUSH1 0x5 PUSH0 CALLER PUSH20 0xFFFFFFFFFFFFFFFFFFFFFFFFFFFFFFFFFFFFFFFF AND PUSH20 0xFFFFFFFFFFFFFFFFFFFFFFFFFFFFFFFFFFFFFFFF AND DUP2 MSTORE PUSH1 0x20 ADD SWAP1 DUP2 MSTORE PUSH1 0x20 ADD PUSH0 KECCAK256 PUSH0 DUP3 DUP3 SLOAD PUSH2 0x5E7 SWAP2 SWAP1 PUSH2 0x149D JUMP JUMPDEST SWAP3 POP POP DUP2 SWAP1 SSTORE POP CALLVALUE PUSH0 DUP2 SWAP1 SSTORE POP CALLER PUSH1 0x1 PUSH0 PUSH2 0x100 EXP DUP2 SLOAD DUP2 PUSH20 0xFFFFFFFFFFFFFFFFFFFFFFFFFFFFFFFFFFFFFFFF MUL NOT AND SWAP1 DUP4 PUSH20 0xFFFFFFFFFFFFFFFFFFFFFFFFFFFFFFFFFFFFFFFF AND MUL OR SWAP1 SSTORE POP PUSH1 0x6 PUSH1 0x40 MLOAD DUP1 PUSH1 0x80 ADD PUSH1 0x40 MSTORE DUP1 CALLER PUSH20 0xFFFFFFFFFFFFFFFFFFFFFFFFFFFFFFFFFFFFFFFF AND DUP2 MSTORE PUSH1 0x20 ADD CALLVALUE DUP2 MSTORE PUSH1 0x20 ADD TIMESTAMP DUP2 MSTORE PUSH1 0x20 ADD PUSH0 ISZERO ISZERO DUP2 MSTORE POP SWAP1 DUP1 PUSH1 0x1 DUP2 SLOAD ADD DUP1 DUP3 SSTORE DUP1 SWAP2 POP POP PUSH1 0x1 SWAP1 SUB SWAP1 PUSH0 MSTORE PUSH1 0x20 PUSH0 KECCAK256 SWAP1 PUSH1 0x4 MUL ADD PUSH0 SWAP1 SWAP2 SWAP1 SWAP2 SWAP1 SWAP2 POP PUSH0 DUP3 ADD MLOAD DUP2 PUSH0 ADD PUSH0 PUSH2 0x100 EXP DUP2 SLOAD DUP2 PUSH20 0xFFFFFFFFFFFFFFFFFFFFFFFFFFFFFFFFFFFFFFFF MUL NOT AND SWAP1 DUP4 PUSH20 0xFFFFFFFFFFFFFFFFFFFFFFFFFFFFFFFFFFFFFFFF AND MUL OR SWAP1 SSTORE POP PUSH1 0x20 DUP3 ADD MLOAD DUP2 PUSH1 0x1 ADD SSTORE PUSH1 0x40 DUP3 ADD MLOAD DUP2 PUSH1 0x2 ADD SSTORE PUSH1 0x60 DUP3 ADD MLOAD DUP2 PUSH1 0x3 ADD PUSH0 PUSH2 0x100 EXP DUP2 SLOAD DUP2 PUSH1 0xFF MUL NOT AND SWAP1 DUP4 ISZERO ISZERO MUL OR SWAP1 SSTORE POP POP POP JUMP JUMPDEST PUSH1 0x2 SLOAD TIMESTAMP LT ISZERO DUP1 ISZERO PUSH2 0x724 JUMPI POP PUSH1 0x3 SLOAD TIMESTAMP GT ISZERO JUMPDEST PUSH2 0x763 JUMPI PUSH1 0x40 MLOAD PUSH32 0x8C379A000000000000000000000000000000000000000000000000000000000 DUP2 MSTORE PUSH1 0x4 ADD PUSH2 0x75A SWAP1 PUSH2 0x130E JUMP JUMPDEST PUSH1 0x40 MLOAD DUP1 SWAP2 SUB SWAP1 REVERT JUMPDEST PUSH0 PUSH0 SWAP1 POP PUSH0 PUSH0 SWAP1 POP JUMPDEST PUSH1 0x6 DUP1 SLOAD SWAP1 POP DUP2 LT ISZERO PUSH2 0x843 JUMPI CALLER PUSH20 0xFFFFFFFFFFFFFFFFFFFFFFFFFFFFFFFFFFFFFFFF AND PUSH1 0x6 DUP3 DUP2 SLOAD DUP2 LT PUSH2 0x7A4 JUMPI PUSH2 0x7A3 PUSH2 0x14D0 JUMP JUMPDEST JUMPDEST SWAP1 PUSH0 MSTORE PUSH1 0x20 PUSH0 KECCAK256 SWAP1 PUSH1 0x4 MUL ADD PUSH0 ADD PUSH0 SWAP1 SLOAD SWAP1 PUSH2 0x100 EXP SWAP1 DIV PUSH20 0xFFFFFFFFFFFFFFFFFFFFFFFFFFFFFFFFFFFFFFFF AND PUSH20 0xFFFFFFFFFFFFFFFFFFFFFFFFFFFFFFFFFFFFFFFF AND EQ DUP1 ISZERO PUSH2 0x822 JUMPI POP PUSH1 0x6 DUP2 DUP2 SLOAD DUP2 LT PUSH2 0x804 JUMPI PUSH2 0x803 PUSH2 0x14D0 JUMP JUMPDEST JUMPDEST SWAP1 PUSH0 MSTORE PUSH1 0x20 PUSH0 KECCAK256 SWAP1 PUSH1 0x4 MUL ADD PUSH1 0x3 ADD PUSH0 SWAP1 SLOAD SWAP1 PUSH2 0x100 EXP SWAP1 DIV PUSH1 0xFF AND ISZERO JUMPDEST ISZERO PUSH2 0x836 JUMPI DUP2 DUP1 PUSH2 0x832 SWAP1 PUSH2 0x14FD JUMP JUMPDEST SWAP3 POP POP JUMPDEST DUP1 DUP1 PUSH1 0x1 ADD SWAP2 POP POP PUSH2 0x76C JUMP JUMPDEST POP PUSH1 0x1 DUP2 GT PUSH2 0x887 JUMPI PUSH1 0x40 MLOAD PUSH32 0x8C379A000000000000000000000000000000000000000000000000000000000 DUP2 MSTORE PUSH1 0x4 ADD PUSH2 0x87E SWAP1 PUSH2 0x158E JUMP JUMPDEST PUSH1 0x40 MLOAD DUP1 SWAP2 SUB SWAP1 REVERT JUMPDEST PUSH0 PUSH0 SWAP1 POP PUSH0 PUSH0 SWAP1 POP PUSH0 PUSH0 SWAP1 POP JUMPDEST PUSH1 0x6 DUP1 SLOAD SWAP1 POP DUP2 LT ISZERO PUSH2 0x9E0 JUMPI CALLER PUSH20 0xFFFFFFFFFFFFFFFFFFFFFFFFFFFFFFFFFFFFFFFF AND PUSH1 0x6 DUP3 DUP2 SLOAD DUP2 LT PUSH2 0x8CC JUMPI PUSH2 0x8CB PUSH2 0x14D0 JUMP JUMPDEST JUMPDEST SWAP1 PUSH0 MSTORE PUSH1 0x20 PUSH0 KECCAK256 SWAP1 PUSH1 0x4 MUL ADD PUSH0 ADD PUSH0 SWAP1 SLOAD SWAP1 PUSH2 0x100 EXP SWAP1 DIV PUSH20 0xFFFFFFFFFFFFFFFFFFFFFFFFFFFFFFFFFFFFFFFF AND PUSH20 0xFFFFFFFFFFFFFFFFFFFFFFFFFFFFFFFFFFFFFFFF AND EQ DUP1 ISZERO PUSH2 0x94A JUMPI POP PUSH1 0x6 DUP2 DUP2 SLOAD DUP2 LT PUSH2 0x92C JUMPI PUSH2 0x92B PUSH2 0x14D0 JUMP JUMPDEST JUMPDEST SWAP1 PUSH0 MSTORE PUSH1 0x20 PUSH0 KECCAK256 SWAP1 PUSH1 0x4 MUL ADD PUSH1 0x3 ADD PUSH0 SWAP1 SLOAD SWAP1 PUSH2 0x100 EXP SWAP1 DIV PUSH1 0xFF AND ISZERO JUMPDEST ISZERO PUSH2 0x9D3 JUMPI DUP3 DUP1 PUSH2 0x95A SWAP1 PUSH2 0x14FD JUMP JUMPDEST SWAP4 POP POP DUP4 DUP4 LT ISZERO PUSH2 0x9D2 JUMPI PUSH1 0x6 DUP2 DUP2 SLOAD DUP2 LT PUSH2 0x979 JUMPI PUSH2 0x978 PUSH2 0x14D0 JUMP JUMPDEST JUMPDEST SWAP1 PUSH0 MSTORE PUSH1 0x20 PUSH0 KECCAK256 SWAP1 PUSH1 0x4 MUL ADD PUSH1 0x1 ADD SLOAD DUP3 PUSH2 0x994 SWAP2 SWAP1 PUSH2 0x149D JUMP JUMPDEST SWAP2 POP PUSH1 0x1 PUSH1 0x6 DUP3 DUP2 SLOAD DUP2 LT PUSH2 0x9AC JUMPI PUSH2 0x9AB PUSH2 0x14D0 JUMP JUMPDEST JUMPDEST SWAP1 PUSH0 MSTORE PUSH1 0x20 PUSH0 KECCAK256 SWAP1 PUSH1 0x4 MUL ADD PUSH1 0x3 ADD PUSH0 PUSH2 0x100 EXP DUP2 SLOAD DUP2 PUSH1 0xFF MUL NOT AND SWAP1 DUP4 ISZERO ISZERO MUL OR SWAP1 SSTORE POP JUMPDEST JUMPDEST DUP1 DUP1 PUSH1 0x1 ADD SWAP2 POP POP PUSH2 0x894 JUMP JUMPDEST POP PUSH0 DUP2 GT PUSH2 0xA23 JUMPI PUSH1 0x40 MLOAD PUSH32 0x8C379A000000000000000000000000000000000000000000000000000000000 DUP2 MSTORE PUSH1 0x4 ADD PUSH2 0xA1A SWAP1 PUSH2 0x15F6 JUMP JUMPDEST PUSH1 0x40 MLOAD DUP1 SWAP2 SUB SWAP1 REVERT JUMPDEST PUSH0 CALLER PUSH20 0xFFFFFFFFFFFFFFFFFFFFFFFFFFFFFFFFFFFFFFFF AND DUP3 PUSH1 0x40 MLOAD PUSH2 0xA48 SWAP1 PUSH2 0x1641 JUMP JUMPDEST PUSH0 PUSH1 0x40 MLOAD DUP1 DUP4 SUB DUP2 DUP6 DUP8 GAS CALL SWAP3 POP POP POP RETURNDATASIZE DUP1 PUSH0 DUP2 EQ PUSH2 0xA82 JUMPI PUSH1 0x40 MLOAD SWAP2 POP PUSH1 0x1F NOT PUSH1 0x3F RETURNDATASIZE ADD AND DUP3 ADD PUSH1 0x40 MSTORE RETURNDATASIZE DUP3 MSTORE RETURNDATASIZE PUSH0 PUSH1 0x20 DUP5 ADD RETURNDATACOPY PUSH2 0xA87 JUMP JUMPDEST PUSH1 0x60 SWAP2 POP JUMPDEST POP POP SWAP1 POP DUP1 PUSH2 0xACB JUMPI PUSH1 0x40 MLOAD PUSH32 0x8C379A000000000000000000000000000000000000000000000000000000000 DUP2 MSTORE PUSH1 0x4 ADD PUSH2 0xAC2 SWAP1 PUSH2 0x169F JUMP JUMPDEST PUSH1 0x40 MLOAD DUP1 SWAP2 SUB SWAP1 REVERT JUMPDEST DUP2 PUSH1 0x5 PUSH0 CALLER PUSH20 0xFFFFFFFFFFFFFFFFFFFFFFFFFFFFFFFFFFFFFFFF AND PUSH20 0xFFFFFFFFFFFFFFFFFFFFFFFFFFFFFFFFFFFFFFFF AND DUP2 MSTORE PUSH1 0x20 ADD SWAP1 DUP2 MSTORE PUSH1 0x20 ADD PUSH0 KECCAK256 PUSH0 DUP3 DUP3 SLOAD PUSH2 0xB17 SWAP2 SWAP1 PUSH2 0x146A JUMP JUMPDEST SWAP3 POP POP DUP2 SWAP1 SSTORE POP POP POP POP POP JUMP JUMPDEST PUSH1 0x4 PUSH0 SWAP1 SLOAD SWAP1 PUSH2 0x100 EXP SWAP1 DIV PUSH20 0xFFFFFFFFFFFFFFFFFFFFFFFFFFFFFFFFFFFFFFFF AND PUSH20 0xFFFFFFFFFFFFFFFFFFFFFFFFFFFFFFFFFFFFFFFF AND CALLER PUSH20 0xFFFFFFFFFFFFFFFFFFFFFFFFFFFFFFFFFFFFFFFF AND EQ PUSH2 0xBB3 JUMPI PUSH1 0x40 MLOAD PUSH32 0x8C379A000000000000000000000000000000000000000000000000000000000 DUP2 MSTORE PUSH1 0x4 ADD PUSH2 0xBAA SWAP1 PUSH2 0x172D JUMP JUMPDEST PUSH1 0x40 MLOAD DUP1 SWAP2 SUB SWAP1 REVERT JUMPDEST PUSH1 0x3 SLOAD TIMESTAMP LT ISZERO PUSH2 0xBF8 JUMPI PUSH1 0x40 MLOAD PUSH32 0x8C379A000000000000000000000000000000000000000000000000000000000 DUP2 MSTORE PUSH1 0x4 ADD PUSH2 0xBEF SWAP1 PUSH2 0x1795 JUMP JUMPDEST PUSH1 0x40 MLOAD DUP1 SWAP2 SUB SWAP1 REVERT JUMPDEST PUSH0 PUSH0 SWAP1 POP JUMPDEST PUSH1 0x6 DUP1 SLOAD SWAP1 POP DUP2 LT ISZERO PUSH2 0xDE6 JUMPI PUSH0 SLOAD PUSH1 0x6 DUP3 DUP2 SLOAD DUP2 LT PUSH2 0xC20 JUMPI PUSH2 0xC1F PUSH2 0x14D0 JUMP JUMPDEST JUMPDEST SWAP1 PUSH0 MSTORE PUSH1 0x20 PUSH0 KECCAK256 SWAP1 PUSH1 0x4 MUL ADD PUSH1 0x1 ADD SLOAD EQ ISZERO DUP1 ISZERO PUSH2 0xC70 JUMPI POP PUSH0 ISZERO ISZERO PUSH1 0x6 DUP3 DUP2 SLOAD DUP2 LT PUSH2 0xC50 JUMPI PUSH2 0xC4F PUSH2 0x14D0 JUMP JUMPDEST JUMPDEST SWAP1 PUSH0 MSTORE PUSH1 0x20 PUSH0 KECCAK256 SWAP1 PUSH1 0x4 MUL ADD PUSH1 0x3 ADD PUSH0 SWAP1 SLOAD SWAP1 PUSH2 0x100 EXP SWAP1 DIV PUSH1 0xFF AND ISZERO ISZERO EQ JUMPDEST ISZERO PUSH2 0xDDB JUMPI PUSH0 PUSH1 0x64 PUSH1 0x62 PUSH1 0x6 DUP5 DUP2 SLOAD DUP2 LT PUSH2 0xC8E JUMPI PUSH2 0xC8D PUSH2 0x14D0 JUMP JUMPDEST JUMPDEST SWAP1 PUSH0 MSTORE PUSH1 0x20 PUSH0 KECCAK256 SWAP1 PUSH1 0x4 MUL ADD PUSH1 0x1 ADD SLOAD PUSH2 0xCA8 SWAP2 SWAP1 PUSH2 0x13C1 JUMP JUMPDEST PUSH2 0xCB2 SWAP2 SWAP1 PUSH2 0x17E0 JUMP JUMPDEST SWAP1 POP PUSH0 PUSH1 0x6 DUP4 DUP2 SLOAD DUP2 LT PUSH2 0xCC9 JUMPI PUSH2 0xCC8 PUSH2 0x14D0 JUMP JUMPDEST JUMPDEST SWAP1 PUSH0 MSTORE PUSH1 0x20 PUSH0 KECCAK256 SWAP1 PUSH1 0x4 MUL ADD PUSH0 ADD PUSH0 SWAP1 SLOAD SWAP1 PUSH2 0x100 EXP SWAP1 DIV PUSH20 0xFFFFFFFFFFFFFFFFFFFFFFFFFFFFFFFFFFFFFFFF AND PUSH20 0xFFFFFFFFFFFFFFFFFFFFFFFFFFFFFFFFFFFFFFFF AND DUP3 PUSH1 0x40 MLOAD PUSH2 0xD1A SWAP1 PUSH2 0x1641 JUMP JUMPDEST PUSH0 PUSH1 0x40 MLOAD DUP1 DUP4 SUB DUP2 DUP6 DUP8 GAS CALL SWAP3 POP POP POP RETURNDATASIZE DUP1 PUSH0 DUP2 EQ PUSH2 0xD54 JUMPI PUSH1 0x40 MLOAD SWAP2 POP PUSH1 0x1F NOT PUSH1 0x3F RETURNDATASIZE ADD AND DUP3 ADD PUSH1 0x40 MSTORE RETURNDATASIZE DUP3 MSTORE RETURNDATASIZE PUSH0 PUSH1 0x20 DUP5 ADD RETURNDATACOPY PUSH2 0xD59 JUMP JUMPDEST PUSH1 0x60 SWAP2 POP JUMPDEST POP POP SWAP1 POP DUP1 PUSH2 0xD9D JUMPI PUSH1 0x40 MLOAD PUSH32 0x8C379A000000000000000000000000000000000000000000000000000000000 DUP2 MSTORE PUSH1 0x4 ADD PUSH2 0xD94 SWAP1 PUSH2 0x169F JUMP JUMPDEST PUSH1 0x40 MLOAD DUP1 SWAP2 SUB SWAP1 REVERT JUMPDEST PUSH1 0x1 PUSH1 0x6 DUP5 DUP2 SLOAD DUP2 LT PUSH2 0xDB3 JUMPI PUSH2 0xDB2 PUSH2 0x14D0 JUMP JUMPDEST JUMPDEST SWAP1 PUSH0 MSTORE PUSH1 0x20 PUSH0 KECCAK256 SWAP1 PUSH1 0x4 MUL ADD PUSH1 0x3 ADD PUSH0 PUSH2 0x100 EXP DUP2 SLOAD DUP2 PUSH1 0xFF MUL NOT AND SWAP1 DUP4 ISZERO ISZERO MUL OR SWAP1 SSTORE POP POP POP JUMPDEST DUP1 PUSH1 0x1 ADD SWAP1 POP PUSH2 0xBFD JUMP JUMPDEST POP PUSH32 0xA0E92984607195C326795751263414EE1074526323552E694C90EF2B99AE3F29 PUSH1 0x40 MLOAD PUSH1 0x40 MLOAD DUP1 SWAP2 SUB SWAP1 LOG1 JUMP JUMPDEST PUSH0 PUSH0 PUSH1 0x3 SLOAD TIMESTAMP LT ISZERO PUSH2 0xE5C JUMPI PUSH1 0x40 MLOAD PUSH32 0x8C379A000000000000000000000000000000000000000000000000000000000 DUP2 MSTORE PUSH1 0x4 ADD PUSH2 0xE53 SWAP1 PUSH2 0x1795 JUMP JUMPDEST PUSH1 0x40 MLOAD DUP1 SWAP2 SUB SWAP1 REVERT JUMPDEST PUSH1 0x1 PUSH0 SWAP1 SLOAD SWAP1 PUSH2 0x100 EXP SWAP1 DIV PUSH20 0xFFFFFFFFFFFFFFFFFFFFFFFFFFFFFFFFFFFFFFFF AND PUSH0 SLOAD SWAP2 POP SWAP2 POP SWAP1 SWAP2 JUMP JUMPDEST PUSH1 0x2 SLOAD DUP2 JUMP JUMPDEST PUSH1 0x4 PUSH0 SWAP1 SLOAD SWAP1 PUSH2 0x100 EXP SWAP1 DIV PUSH20 0xFFFFFFFFFFFFFFFFFFFFFFFFFFFFFFFFFFFFFFFF AND DUP2 JUMP JUMPDEST PUSH1 0x1 PUSH0 SWAP1 SLOAD SWAP1 PUSH2 0x100 EXP SWAP1 DIV PUSH20 0xFFFFFFFFFFFFFFFFFFFFFFFFFFFFFFFFFFFFFFFF AND DUP2 JUMP JUMPDEST PUSH0 TIMESTAMP SWAP1 POP SWAP1 JUMP JUMPDEST PUSH0 PUSH0 PUSH1 0x1 PUSH0 SWAP1 SLOAD SWAP1 PUSH2 0x100 EXP SWAP1 DIV PUSH20 0xFFFFFFFFFFFFFFFFFFFFFFFFFFFFFFFFFFFFFFFF AND PUSH0 SLOAD SWAP2 POP SWAP2 POP SWAP1 SWAP2 JUMP JUMPDEST PUSH0 SLOAD DUP2 JUMP JUMPDEST PUSH1 0x6 DUP2 DUP2 SLOAD DUP2 LT PUSH2 0xF21 JUMPI PUSH0 DUP1 REVERT JUMPDEST SWAP1 PUSH0 MSTORE PUSH1 0x20 PUSH0 KECCAK256 SWAP1 PUSH1 0x4 MUL ADD PUSH0 SWAP2 POP SWAP1 POP DUP1 PUSH0 ADD PUSH0 SWAP1 SLOAD SWAP1 PUSH2 0x100 EXP SWAP1 DIV PUSH20 0xFFFFFFFFFFFFFFFFFFFFFFFFFFFFFFFFFFFFFFFF AND SWAP1 DUP1 PUSH1 0x1 ADD SLOAD SWAP1 DUP1 PUSH1 0x2 ADD SLOAD SWAP1 DUP1 PUSH1 0x3 ADD PUSH0 SWAP1 SLOAD SWAP1 PUSH2 0x100 EXP SWAP1 DIV PUSH1 0xFF AND SWAP1 POP DUP5 JUMP JUMPDEST PUSH0 DUP2 SWAP1 POP SWAP2 SWAP1 POP JUMP JUMPDEST PUSH2 0xF8A DUP2 PUSH2 0xF78 JUMP JUMPDEST DUP3 MSTORE POP POP JUMP JUMPDEST PUSH0 PUSH1 0x20 DUP3 ADD SWAP1 POP PUSH2 0xFA3 PUSH0 DUP4 ADD DUP5 PUSH2 0xF81 JUMP JUMPDEST SWAP3 SWAP2 POP POP JUMP JUMPDEST PUSH0 PUSH0 REVERT JUMPDEST PUSH0 PUSH20 0xFFFFFFFFFFFFFFFFFFFFFFFFFFFFFFFFFFFFFFFF DUP3 AND SWAP1 POP SWAP2 SWAP1 POP JUMP JUMPDEST PUSH0 PUSH2 0xFD6 DUP3 PUSH2 0xFAD JUMP JUMPDEST SWAP1 POP SWAP2 SWAP1 POP JUMP JUMPDEST PUSH2 0xFE6 DUP2 PUSH2 0xFCC JUMP JUMPDEST DUP2 EQ PUSH2 0xFF0 JUMPI PUSH0 PUSH0 REVERT JUMPDEST POP JUMP JUMPDEST PUSH0 DUP2 CALLDATALOAD SWAP1 POP PUSH2 0x1001 DUP2 PUSH2 0xFDD JUMP JUMPDEST SWAP3 SWAP2 POP POP JUMP JUMPDEST PUSH0 PUSH1 0x20 DUP3 DUP5 SUB SLT ISZERO PUSH2 0x101C JUMPI PUSH2 0x101B PUSH2 0xFA9 JUMP JUMPDEST JUMPDEST PUSH0 PUSH2 0x1029 DUP5 DUP3 DUP6 ADD PUSH2 0xFF3 JUMP JUMPDEST SWAP2 POP POP SWAP3 SWAP2 POP POP JUMP JUMPDEST PUSH0 DUP2 MLOAD SWAP1 POP SWAP2 SWAP1 POP JUMP JUMPDEST PUSH0 DUP3 DUP3 MSTORE PUSH1 0x20 DUP3 ADD SWAP1 POP SWAP3 SWAP2 POP POP JUMP JUMPDEST PUSH0 DUP2 SWAP1 POP PUSH1 0x20 DUP3 ADD SWAP1 POP SWAP2 SWAP1 POP JUMP JUMPDEST PUSH2 0x1064 DUP2 PUSH2 0xFCC JUMP JUMPDEST DUP3 MSTORE POP POP JUMP JUMPDEST PUSH2 0x1073 DUP2 PUSH2 0xF78 JUMP JUMPDEST DUP3 MSTORE POP POP JUMP JUMPDEST PUSH0 DUP2 ISZERO ISZERO SWAP1 POP SWAP2 SWAP1 POP JUMP JUMPDEST PUSH2 0x108D DUP2 PUSH2 0x1079 JUMP JUMPDEST DUP3 MSTORE POP POP JUMP JUMPDEST PUSH1 0x80 DUP3 ADD PUSH0 DUP3 ADD MLOAD PUSH2 0x10A7 PUSH0 DUP6 ADD DUP3 PUSH2 0x105B JUMP JUMPDEST POP PUSH1 0x20 DUP3 ADD MLOAD PUSH2 0x10BA PUSH1 0x20 DUP6 ADD DUP3 PUSH2 0x106A JUMP JUMPDEST POP PUSH1 0x40 DUP3 ADD MLOAD PUSH2 0x10CD PUSH1 0x40 DUP6 ADD DUP3 PUSH2 0x106A JUMP JUMPDEST POP PUSH1 0x60 DUP3 ADD MLOAD PUSH2 0x10E0 PUSH1 0x60 DUP6 ADD DUP3 PUSH2 0x1084 JUMP JUMPDEST POP POP POP POP JUMP JUMPDEST PUSH0 PUSH2 0x10F1 DUP4 DUP4 PUSH2 0x1093 JUMP JUMPDEST PUSH1 0x80 DUP4 ADD SWAP1 POP SWAP3 SWAP2 POP POP JUMP JUMPDEST PUSH0 PUSH1 0x20 DUP3 ADD SWAP1 POP SWAP2 SWAP1 POP JUMP JUMPDEST PUSH0 PUSH2 0x1113 DUP3 PUSH2 0x1032 JUMP JUMPDEST PUSH2 0x111D DUP2 DUP6 PUSH2 0x103C JUMP JUMPDEST SWAP4 POP PUSH2 0x1128 DUP4 PUSH2 0x104C JUMP JUMPDEST DUP1 PUSH0 JUMPDEST DUP4 DUP2 LT ISZERO PUSH2 0x1158 JUMPI DUP2 MLOAD PUSH2 0x113F DUP9 DUP3 PUSH2 0x10E6 JUMP JUMPDEST SWAP8 POP PUSH2 0x114A DUP4 PUSH2 0x10FD JUMP JUMPDEST SWAP3 POP POP PUSH1 0x1 DUP2 ADD SWAP1 POP PUSH2 0x112B JUMP JUMPDEST POP DUP6 SWAP4 POP POP POP POP SWAP3 SWAP2 POP POP JUMP JUMPDEST PUSH0 PUSH1 0x20 DUP3 ADD SWAP1 POP DUP2 DUP2 SUB PUSH0 DUP4 ADD MSTORE PUSH2 0x117D DUP2 DUP5 PUSH2 0x1109 JUMP JUMPDEST SWAP1 POP SWAP3 SWAP2 POP POP JUMP JUMPDEST PUSH2 0x118E DUP2 PUSH2 0xFCC JUMP JUMPDEST DUP3 MSTORE POP POP JUMP JUMPDEST PUSH0 PUSH1 0x40 DUP3 ADD SWAP1 POP PUSH2 0x11A7 PUSH0 DUP4 ADD DUP6 PUSH2 0x1185 JUMP JUMPDEST PUSH2 0x11B4 PUSH1 0x20 DUP4 ADD DUP5 PUSH2 0xF81 JUMP JUMPDEST SWAP4 SWAP3 POP POP POP JUMP JUMPDEST PUSH0 PUSH2 0x11C5 DUP3 PUSH2 0xFAD JUMP JUMPDEST SWAP1 POP SWAP2 SWAP1 POP JUMP JUMPDEST PUSH2 0x11D5 DUP2 PUSH2 0x11BB JUMP JUMPDEST DUP3 MSTORE POP POP JUMP JUMPDEST PUSH0 PUSH1 0x20 DUP3 ADD SWAP1 POP PUSH2 0x11EE PUSH0 DUP4 ADD DUP5 PUSH2 0x11CC JUMP JUMPDEST SWAP3 SWAP2 POP POP JUMP JUMPDEST PUSH0 PUSH1 0x20 DUP3 ADD SWAP1 POP PUSH2 0x1207 PUSH0 DUP4 ADD DUP5 PUSH2 0x1185 JUMP JUMPDEST SWAP3 SWAP2 POP POP JUMP JUMPDEST PUSH2 0x1216 DUP2 PUSH2 0xF78 JUMP JUMPDEST DUP2 EQ PUSH2 0x1220 JUMPI PUSH0 PUSH0 REVERT JUMPDEST POP JUMP JUMPDEST PUSH0 DUP2 CALLDATALOAD SWAP1 POP PUSH2 0x1231 DUP2 PUSH2 0x120D JUMP JUMPDEST SWAP3 SWAP2 POP POP JUMP JUMPDEST PUSH0 PUSH1 0x20 DUP3 DUP5 SUB SLT ISZERO PUSH2 0x124C JUMPI PUSH2 0x124B PUSH2 0xFA9 JUMP JUMPDEST JUMPDEST PUSH0 PUSH2 0x1259 DUP5 DUP3 DUP6 ADD PUSH2 0x1223 JUMP JUMPDEST SWAP2 POP POP SWAP3 SWAP2 POP POP JUMP JUMPDEST PUSH2 0x126B DUP2 PUSH2 0x1079 JUMP JUMPDEST DUP3 MSTORE POP POP JUMP JUMPDEST PUSH0 PUSH1 0x80 DUP3 ADD SWAP1 POP PUSH2 0x1284 PUSH0 DUP4 ADD DUP8 PUSH2 0x1185 JUMP JUMPDEST PUSH2 0x1291 PUSH1 0x20 DUP4 ADD DUP7 PUSH2 0xF81 JUMP JUMPDEST PUSH2 0x129E PUSH1 0x40 DUP4 ADD DUP6 PUSH2 0xF81 JUMP JUMPDEST PUSH2 0x12AB PUSH1 0x60 DUP4 ADD DUP5 PUSH2 0x1262 JUMP JUMPDEST SWAP6 SWAP5 POP POP POP POP POP JUMP JUMPDEST PUSH0 DUP3 DUP3 MSTORE PUSH1 0x20 DUP3 ADD SWAP1 POP SWAP3 SWAP2 POP POP JUMP JUMPDEST PUSH32 0x426964206973206E6F7420616374697665000000000000000000000000000000 PUSH0 DUP3 ADD MSTORE POP JUMP JUMPDEST PUSH0 PUSH2 0x12F8 PUSH1 0x11 DUP4 PUSH2 0x12B4 JUMP JUMPDEST SWAP2 POP PUSH2 0x1303 DUP3 PUSH2 0x12C4 JUMP JUMPDEST PUSH1 0x20 DUP3 ADD SWAP1 POP SWAP2 SWAP1 POP JUMP JUMPDEST PUSH0 PUSH1 0x20 DUP3 ADD SWAP1 POP DUP2 DUP2 SUB PUSH0 DUP4 ADD MSTORE PUSH2 0x1325 DUP2 PUSH2 0x12EC JUMP JUMPDEST SWAP1 POP SWAP2 SWAP1 POP JUMP JUMPDEST PUSH32 0x596F75206D7573742073656E6420736F6D652045544800000000000000000000 PUSH0 DUP3 ADD MSTORE POP JUMP JUMPDEST PUSH0 PUSH2 0x1360 PUSH1 0x16 DUP4 PUSH2 0x12B4 JUMP JUMPDEST SWAP2 POP PUSH2 0x136B DUP3 PUSH2 0x132C JUMP JUMPDEST PUSH1 0x20 DUP3 ADD SWAP1 POP SWAP2 SWAP1 POP JUMP JUMPDEST PUSH0 PUSH1 0x20 DUP3 ADD SWAP1 POP DUP2 DUP2 SUB PUSH0 DUP4 ADD MSTORE PUSH2 0x138D DUP2 PUSH2 0x1354 JUMP JUMPDEST SWAP1 POP SWAP2 SWAP1 POP JUMP JUMPDEST PUSH32 0x4E487B7100000000000000000000000000000000000000000000000000000000 PUSH0 MSTORE PUSH1 0x11 PUSH1 0x4 MSTORE PUSH1 0x24 PUSH0 REVERT JUMPDEST PUSH0 PUSH2 0x13CB DUP3 PUSH2 0xF78 JUMP JUMPDEST SWAP2 POP PUSH2 0x13D6 DUP4 PUSH2 0xF78 JUMP JUMPDEST SWAP3 POP DUP3 DUP3 MUL PUSH2 0x13E4 DUP2 PUSH2 0xF78 JUMP JUMPDEST SWAP2 POP DUP3 DUP3 DIV DUP5 EQ DUP4 ISZERO OR PUSH2 0x13FB JUMPI PUSH2 0x13FA PUSH2 0x1394 JUMP JUMPDEST JUMPDEST POP SWAP3 SWAP2 POP POP JUMP JUMPDEST PUSH32 0x426964206D757374206265206174206C65617374203525206869676865720000 PUSH0 DUP3 ADD MSTORE POP JUMP JUMPDEST PUSH0 PUSH2 0x1436 PUSH1 0x1E DUP4 PUSH2 0x12B4 JUMP JUMPDEST SWAP2 POP PUSH2 0x1441 DUP3 PUSH2 0x1402 JUMP JUMPDEST PUSH1 0x20 DUP3 ADD SWAP1 POP SWAP2 SWAP1 POP JUMP JUMPDEST PUSH0 PUSH1 0x20 DUP3 ADD SWAP1 POP DUP2 DUP2 SUB PUSH0 DUP4 ADD MSTORE PUSH2 0x1463 DUP2 PUSH2 0x142A JUMP JUMPDEST SWAP1 POP SWAP2 SWAP1 POP JUMP JUMPDEST PUSH0 PUSH2 0x1474 DUP3 PUSH2 0xF78 JUMP JUMPDEST SWAP2 POP PUSH2 0x147F DUP4 PUSH2 0xF78 JUMP JUMPDEST SWAP3 POP DUP3 DUP3 SUB SWAP1 POP DUP2 DUP2 GT ISZERO PUSH2 0x1497 JUMPI PUSH2 0x1496 PUSH2 0x1394 JUMP JUMPDEST JUMPDEST SWAP3 SWAP2 POP POP JUMP JUMPDEST PUSH0 PUSH2 0x14A7 DUP3 PUSH2 0xF78 JUMP JUMPDEST SWAP2 POP PUSH2 0x14B2 DUP4 PUSH2 0xF78 JUMP JUMPDEST SWAP3 POP DUP3 DUP3 ADD SWAP1 POP DUP1 DUP3 GT ISZERO PUSH2 0x14CA JUMPI PUSH2 0x14C9 PUSH2 0x1394 JUMP JUMPDEST JUMPDEST SWAP3 SWAP2 POP POP JUMP JUMPDEST PUSH32 0x4E487B7100000000000000000000000000000000000000000000000000000000 PUSH0 MSTORE PUSH1 0x32 PUSH1 0x4 MSTORE PUSH1 0x24 PUSH0 REVERT JUMPDEST PUSH0 PUSH2 0x1507 DUP3 PUSH2 0xF78 JUMP JUMPDEST SWAP2 POP PUSH32 0xFFFFFFFFFFFFFFFFFFFFFFFFFFFFFFFFFFFFFFFFFFFFFFFFFFFFFFFFFFFFFFFF DUP3 SUB PUSH2 0x1539 JUMPI PUSH2 0x1538 PUSH2 0x1394 JUMP JUMPDEST JUMPDEST PUSH1 0x1 DUP3 ADD SWAP1 POP SWAP2 SWAP1 POP JUMP JUMPDEST PUSH32 0x4E6F20726566756E6461626C65206269647320666F756E640000000000000000 PUSH0 DUP3 ADD MSTORE POP JUMP JUMPDEST PUSH0 PUSH2 0x1578 PUSH1 0x18 DUP4 PUSH2 0x12B4 JUMP JUMPDEST SWAP2 POP PUSH2 0x1583 DUP3 PUSH2 0x1544 JUMP JUMPDEST PUSH1 0x20 DUP3 ADD SWAP1 POP SWAP2 SWAP1 POP JUMP JUMPDEST PUSH0 PUSH1 0x20 DUP3 ADD SWAP1 POP DUP2 DUP2 SUB PUSH0 DUP4 ADD MSTORE PUSH2 0x15A5 DUP2 PUSH2 0x156C JUMP JUMPDEST SWAP1 POP SWAP2 SWAP1 POP JUMP JUMPDEST PUSH32 0x4E6F7468696E6720746F20726566756E64000000000000000000000000000000 PUSH0 DUP3 ADD MSTORE POP JUMP JUMPDEST PUSH0 PUSH2 0x15E0 PUSH1 0x11 DUP4 PUSH2 0x12B4 JUMP JUMPDEST SWAP2 POP PUSH2 0x15EB DUP3 PUSH2 0x15AC JUMP JUMPDEST PUSH1 0x20 DUP3 ADD SWAP1 POP SWAP2 SWAP1 POP JUMP JUMPDEST PUSH0 PUSH1 0x20 DUP3 ADD SWAP1 POP DUP2 DUP2 SUB PUSH0 DUP4 ADD MSTORE PUSH2 0x160D DUP2 PUSH2 0x15D4 JUMP JUMPDEST SWAP1 POP SWAP2 SWAP1 POP JUMP JUMPDEST PUSH0 DUP2 SWAP1 POP SWAP3 SWAP2 POP POP JUMP JUMPDEST POP JUMP JUMPDEST PUSH0 PUSH2 0x162C PUSH0 DUP4 PUSH2 0x1614 JUMP JUMPDEST SWAP2 POP PUSH2 0x1637 DUP3 PUSH2 0x161E JUMP JUMPDEST PUSH0 DUP3 ADD SWAP1 POP SWAP2 SWAP1 POP JUMP JUMPDEST PUSH0 PUSH2 0x164B DUP3 PUSH2 0x1621 JUMP JUMPDEST SWAP2 POP DUP2 SWAP1 POP SWAP2 SWAP1 POP JUMP JUMPDEST PUSH32 0x526566756E64206661696C656400000000000000000000000000000000000000 PUSH0 DUP3 ADD MSTORE POP JUMP JUMPDEST PUSH0 PUSH2 0x1689 PUSH1 0xD DUP4 PUSH2 0x12B4 JUMP JUMPDEST SWAP2 POP PUSH2 0x1694 DUP3 PUSH2 0x1655 JUMP JUMPDEST PUSH1 0x20 DUP3 ADD SWAP1 POP SWAP2 SWAP1 POP JUMP JUMPDEST PUSH0 PUSH1 0x20 DUP3 ADD SWAP1 POP DUP2 DUP2 SUB PUSH0 DUP4 ADD MSTORE PUSH2 0x16B6 DUP2 PUSH2 0x167D JUMP JUMPDEST SWAP1 POP SWAP2 SWAP1 POP JUMP JUMPDEST PUSH32 0x4F6E6C7920746865206F776E65722063616E2063616C6C20746869732066756E PUSH0 DUP3 ADD MSTORE PUSH32 0x6374696F6E2E0000000000000000000000000000000000000000000000000000 PUSH1 0x20 DUP3 ADD MSTORE POP JUMP JUMPDEST PUSH0 PUSH2 0x1717 PUSH1 0x26 DUP4 PUSH2 0x12B4 JUMP JUMPDEST SWAP2 POP PUSH2 0x1722 DUP3 PUSH2 0x16BD JUMP JUMPDEST PUSH1 0x40 DUP3 ADD SWAP1 POP SWAP2 SWAP1 POP JUMP JUMPDEST PUSH0 PUSH1 0x20 DUP3 ADD SWAP1 POP DUP2 DUP2 SUB PUSH0 DUP4 ADD MSTORE PUSH2 0x1744 DUP2 PUSH2 0x170B JUMP JUMPDEST SWAP1 POP SWAP2 SWAP1 POP JUMP JUMPDEST PUSH32 0x5468652061756374696F6E206973206E6F74206F766572207965740000000000 PUSH0 DUP3 ADD MSTORE POP JUMP JUMPDEST PUSH0 PUSH2 0x177F PUSH1 0x1B DUP4 PUSH2 0x12B4 JUMP JUMPDEST SWAP2 POP PUSH2 0x178A DUP3 PUSH2 0x174B JUMP JUMPDEST PUSH1 0x20 DUP3 ADD SWAP1 POP SWAP2 SWAP1 POP JUMP JUMPDEST PUSH0 PUSH1 0x20 DUP3 ADD SWAP1 POP DUP2 DUP2 SUB PUSH0 DUP4 ADD MSTORE PUSH2 0x17AC DUP2 PUSH2 0x1773 JUMP JUMPDEST SWAP1 POP SWAP2 SWAP1 POP JUMP JUMPDEST PUSH32 0x4E487B7100000000000000000000000000000000000000000000000000000000 PUSH0 MSTORE PUSH1 0x12 PUSH1 0x4 MSTORE PUSH1 0x24 PUSH0 REVERT JUMPDEST PUSH0 PUSH2 0x17EA DUP3 PUSH2 0xF78 JUMP JUMPDEST SWAP2 POP PUSH2 0x17F5 DUP4 PUSH2 0xF78 JUMP JUMPDEST SWAP3 POP DUP3 PUSH2 0x1805 JUMPI PUSH2 0x1804 PUSH2 0x17B3 JUMP JUMPDEST JUMPDEST DUP3 DUP3 DIV SWAP1 POP SWAP3 SWAP2 POP POP JUMP INVALID LOG2 PUSH5 0x6970667358 0x22 SLT KECCAK256 0xE8 PUSH22 0xFB105AD2156E180CAFC0094292B09CE9556C6F11C323 0xCA LOG0 0xBC INVALID ADD SWAP8 PUSH23 0xB964736F6C634300081E00330000000000000000000000 "
				},
				"gasEstimates": {
					"creation": {
						"codeDepositCost": "1242800",
						"executionCost": "infinite",
						"totalCost": "infinite"
					},
					"external": {
						"bid()": "infinite",
						"bidHistory(uint256)": "infinite",
						"getBidOf(address)": "2875",
						"getTimeNow()": "353",
						"highestBid()": "2490",
						"highestBidder()": "2575",
						"owner()": "2553",
						"partialRefund()": "infinite",
						"refundAll()": "infinite",
						"showBids()": "infinite",
						"showCurrentWinner()": "4770",
						"showFinalWinner()": "6940",
						"startTime()": "2448",
						"stopTime()": "2449"
					}
				},
				"methodIdentifiers": {
					"bid()": "1998aeef",
					"bidHistory(uint256)": "ecde973d",
					"getBidOf(address)": "04d42901",
					"getTimeNow()": "ba9b5ae6",
					"highestBid()": "d57bde79",
					"highestBidder()": "91f90157",
					"owner()": "8da5cb5b",
					"partialRefund()": "1ce2bcf5",
					"refundAll()": "38e771ab",
					"showBids()": "14d2687c",
					"showCurrentWinner()": "d46dd5bb",
					"showFinalWinner()": "41b0cfa8",
					"startTime()": "78e97925",
					"stopTime()": "03ff5e73"
				}
			},
			"storageLayout": {
				"storage": [
					{
						"astId": 3,
						"contract": "Subasta.sol:Subasta",
						"label": "highestBid",
						"offset": 0,
						"slot": "0",
						"type": "t_uint256"
					},
					{
						"astId": 5,
						"contract": "Subasta.sol:Subasta",
						"label": "highestBidder",
						"offset": 0,
						"slot": "1",
						"type": "t_address"
					},
					{
						"astId": 7,
						"contract": "Subasta.sol:Subasta",
						"label": "startTime",
						"offset": 0,
						"slot": "2",
						"type": "t_uint256"
					},
					{
						"astId": 9,
						"contract": "Subasta.sol:Subasta",
						"label": "stopTime",
						"offset": 0,
						"slot": "3",
						"type": "t_uint256"
					},
					{
						"astId": 11,
						"contract": "Subasta.sol:Subasta",
						"label": "owner",
						"offset": 0,
						"slot": "4",
						"type": "t_address_payable"
					},
					{
						"astId": 15,
						"contract": "Subasta.sol:Subasta",
						"label": "bids",
						"offset": 0,
						"slot": "5",
						"type": "t_mapping(t_address,t_uint256)"
					},
					{
						"astId": 36,
						"contract": "Subasta.sol:Subasta",
						"label": "bidHistory",
						"offset": 0,
						"slot": "6",
						"type": "t_array(t_struct(BidInfo)24_storage)dyn_storage"
					}
				],
				"types": {
					"t_address": {
						"encoding": "inplace",
						"label": "address",
						"numberOfBytes": "20"
					},
					"t_address_payable": {
						"encoding": "inplace",
						"label": "address payable",
						"numberOfBytes": "20"
					},
					"t_array(t_struct(BidInfo)24_storage)dyn_storage": {
						"base": "t_struct(BidInfo)24_storage",
						"encoding": "dynamic_array",
						"label": "struct Subasta.BidInfo[]",
						"numberOfBytes": "32"
					},
					"t_bool": {
						"encoding": "inplace",
						"label": "bool",
						"numberOfBytes": "1"
					},
					"t_mapping(t_address,t_uint256)": {
						"encoding": "mapping",
						"key": "t_address",
						"label": "mapping(address => uint256)",
						"numberOfBytes": "32",
						"value": "t_uint256"
					},
					"t_struct(BidInfo)24_storage": {
						"encoding": "inplace",
						"label": "struct Subasta.BidInfo",
						"members": [
							{
								"astId": 17,
								"contract": "Subasta.sol:Subasta",
								"label": "bidder",
								"offset": 0,
								"slot": "0",
								"type": "t_address"
							},
							{
								"astId": 19,
								"contract": "Subasta.sol:Subasta",
								"label": "amount",
								"offset": 0,
								"slot": "1",
								"type": "t_uint256"
							},
							{
								"astId": 21,
								"contract": "Subasta.sol:Subasta",
								"label": "time",
								"offset": 0,
								"slot": "2",
								"type": "t_uint256"
							},
							{
								"astId": 23,
								"contract": "Subasta.sol:Subasta",
								"label": "refunded",
								"offset": 0,
								"slot": "3",
								"type": "t_bool"
							}
						],
						"numberOfBytes": "128"
					},
					"t_uint256": {
						"encoding": "inplace",
						"label": "uint256",
						"numberOfBytes": "32"
					}
				}
			},
			"userdoc": {
				"kind": "user",
				"methods": {},
				"version": 1
			}
		}
	}
}