{
	"Subasta.sol": {
		"Subasta": {
			"abi": [
				{
					"inputs": [],
					"stateMutability": "nonpayable",
					"type": "constructor"
				},
				{
					"anonymous": false,
					"inputs": [],
					"name": "AuctionEnded",
					"type": "event"
				},
				{
					"anonymous": false,
					"inputs": [
						{
							"indexed": true,
							"internalType": "address",
							"name": "bidder",
							"type": "address"
						},
						{
							"indexed": false,
							"internalType": "uint256",
							"name": "amount",
							"type": "uint256"
						}
					],
					"name": "NewBid",
					"type": "event"
				},
				{
					"inputs": [],
					"name": "bid",
					"outputs": [],
					"stateMutability": "payable",
					"type": "function"
				},
				{
					"inputs": [
						{
							"internalType": "uint256",
							"name": "",
							"type": "uint256"
						}
					],
					"name": "bidHistory",
					"outputs": [
						{
							"internalType": "address",
							"name": "bidder",
							"type": "address"
						},
						{
							"internalType": "uint256",
							"name": "amount",
							"type": "uint256"
						}
					],
					"stateMutability": "view",
					"type": "function"
				},
				{
					"inputs": [
						{
							"internalType": "address",
							"name": "bidder",
							"type": "address"
						}
					],
					"name": "getBidOf",
					"outputs": [
						{
							"internalType": "uint256",
							"name": "",
							"type": "uint256"
						}
					],
					"stateMutability": "view",
					"type": "function"
				},
				{
					"inputs": [],
					"name": "highestBid",
					"outputs": [
						{
							"internalType": "uint256",
							"name": "",
							"type": "uint256"
						}
					],
					"stateMutability": "view",
					"type": "function"
				},
				{
					"inputs": [],
					"name": "highestBidder",
					"outputs": [
						{
							"internalType": "address",
							"name": "",
							"type": "address"
						}
					],
					"stateMutability": "view",
					"type": "function"
				},
				{
					"inputs": [],
					"name": "refundAll",
					"outputs": [],
					"stateMutability": "payable",
					"type": "function"
				},
				{
					"inputs": [],
					"name": "showCurrentWinner",
					"outputs": [
						{
							"internalType": "address",
							"name": "",
							"type": "address"
						},
						{
							"internalType": "uint256",
							"name": "",
							"type": "uint256"
						}
					],
					"stateMutability": "view",
					"type": "function"
				},
				{
					"inputs": [],
					"name": "showFinalWinner",
					"outputs": [
						{
							"internalType": "address",
							"name": "",
							"type": "address"
						},
						{
							"internalType": "uint256",
							"name": "",
							"type": "uint256"
						}
					],
					"stateMutability": "view",
					"type": "function"
				},
				{
					"inputs": [],
					"name": "showOffers",
					"outputs": [
						{
							"components": [
								{
									"internalType": "address",
									"name": "bidder",
									"type": "address"
								},
								{
									"internalType": "uint256",
									"name": "amount",
									"type": "uint256"
								}
							],
							"internalType": "struct Subasta.BidInfo[]",
							"name": "",
							"type": "tuple[]"
						}
					],
					"stateMutability": "view",
					"type": "function"
				},
				{
					"inputs": [],
					"name": "startTime",
					"outputs": [
						{
							"internalType": "uint256",
							"name": "",
							"type": "uint256"
						}
					],
					"stateMutability": "view",
					"type": "function"
				},
				{
					"inputs": [],
					"name": "stopTime",
					"outputs": [
						{
							"internalType": "uint256",
							"name": "",
							"type": "uint256"
						}
					],
					"stateMutability": "view",
					"type": "function"
				}
			],
			"devdoc": {
				"kind": "dev",
				"methods": {},
				"version": 1
			},
			"evm": {
				"assembly": "    /* \"Subasta.sol\":57:2973  contract Subasta {... */\n  mstore(0x40, 0x80)\n    /* \"Subasta.sol\":584:702  constructor() {... */\n  callvalue\n  dup1\n  iszero\n  tag_1\n  jumpi\n  revert(0x00, 0x00)\ntag_1:\n  pop\n    /* \"Subasta.sol\":616:631  block.timestamp */\n  timestamp\n    /* \"Subasta.sol\":604:613  startTime */\n  0x02\n    /* \"Subasta.sol\":604:631  startTime = block.timestamp */\n  dup2\n  swap1\n  sstore\n  pop\n    /* \"Subasta.sol\":660:666  7 days */\n  0x093a80\n    /* \"Subasta.sol\":648:657  startTime */\n  sload(0x02)\n    /* \"Subasta.sol\":648:666  startTime + 7 days */\n  tag_4\n  swap2\n  swap1\n  tag_5\n  jump\t// in\ntag_4:\n    /* \"Subasta.sol\":637:645  stopTime */\n  0x03\n    /* \"Subasta.sol\":637:666  stopTime = startTime + 7 days */\n  dup2\n  swap1\n  sstore\n  pop\n    /* \"Subasta.sol\":688:698  msg.sender */\n  caller\n    /* \"Subasta.sol\":672:677  owner */\n  0x04\n  0x00\n    /* \"Subasta.sol\":672:699  owner = payable(msg.sender) */\n  0x0100\n  exp\n  dup2\n  sload\n  dup2\n  0xffffffffffffffffffffffffffffffffffffffff\n  mul\n  not\n  and\n  swap1\n  dup4\n  0xffffffffffffffffffffffffffffffffffffffff\n  and\n  mul\n  or\n  swap1\n  sstore\n  pop\n    /* \"Subasta.sol\":57:2973  contract Subasta {... */\n  jump(tag_6)\n    /* \"#utility.yul\":7:84   */\ntag_7:\n    /* \"#utility.yul\":44:51   */\n  0x00\n    /* \"#utility.yul\":73:78   */\n  dup2\n    /* \"#utility.yul\":62:78   */\n  swap1\n  pop\n    /* \"#utility.yul\":7:84   */\n  swap2\n  swap1\n  pop\n  jump\t// out\n    /* \"#utility.yul\":90:270   */\ntag_8:\n    /* \"#utility.yul\":138:215   */\n  0x4e487b7100000000000000000000000000000000000000000000000000000000\n    /* \"#utility.yul\":135:136   */\n  0x00\n    /* \"#utility.yul\":128:216   */\n  mstore\n    /* \"#utility.yul\":235:239   */\n  0x11\n    /* \"#utility.yul\":232:233   */\n  0x04\n    /* \"#utility.yul\":225:240   */\n  mstore\n    /* \"#utility.yul\":259:263   */\n  0x24\n    /* \"#utility.yul\":256:257   */\n  0x00\n    /* \"#utility.yul\":249:264   */\n  revert\n    /* \"#utility.yul\":276:467   */\ntag_5:\n    /* \"#utility.yul\":316:319   */\n  0x00\n    /* \"#utility.yul\":335:355   */\n  tag_13\n    /* \"#utility.yul\":353:354   */\n  dup3\n    /* \"#utility.yul\":335:355   */\n  tag_7\n  jump\t// in\ntag_13:\n    /* \"#utility.yul\":330:355   */\n  swap2\n  pop\n    /* \"#utility.yul\":369:389   */\n  tag_14\n    /* \"#utility.yul\":387:388   */\n  dup4\n    /* \"#utility.yul\":369:389   */\n  tag_7\n  jump\t// in\ntag_14:\n    /* \"#utility.yul\":364:389   */\n  swap3\n  pop\n    /* \"#utility.yul\":412:413   */\n  dup3\n    /* \"#utility.yul\":409:410   */\n  dup3\n    /* \"#utility.yul\":405:414   */\n  add\n    /* \"#utility.yul\":398:414   */\n  swap1\n  pop\n    /* \"#utility.yul\":433:436   */\n  dup1\n    /* \"#utility.yul\":430:431   */\n  dup3\n    /* \"#utility.yul\":427:437   */\n  gt\n    /* \"#utility.yul\":424:460   */\n  iszero\n  tag_15\n  jumpi\n    /* \"#utility.yul\":440:458   */\n  tag_16\n  tag_8\n  jump\t// in\ntag_16:\n    /* \"#utility.yul\":424:460   */\ntag_15:\n    /* \"#utility.yul\":276:467   */\n  swap3\n  swap2\n  pop\n  pop\n  jump\t// out\n    /* \"Subasta.sol\":57:2973  contract Subasta {... */\ntag_6:\n  dataSize(sub_0)\n  dup1\n  dataOffset(sub_0)\n  0x00\n  codecopy\n  0x00\n  return\nstop\n\nsub_0: assembly {\n        /* \"Subasta.sol\":57:2973  contract Subasta {... */\n      mstore(0x40, 0x80)\n      jumpi(tag_1, lt(calldatasize, 0x04))\n      shr(0xe0, calldataload(0x00))\n      dup1\n      0x534823bf\n      gt\n      tag_13\n      jumpi\n      dup1\n      0x534823bf\n      eq\n      tag_7\n      jumpi\n      dup1\n      0x78e97925\n      eq\n      tag_8\n      jumpi\n      dup1\n      0x91f90157\n      eq\n      tag_9\n      jumpi\n      dup1\n      0xd46dd5bb\n      eq\n      tag_10\n      jumpi\n      dup1\n      0xd57bde79\n      eq\n      tag_11\n      jumpi\n      dup1\n      0xecde973d\n      eq\n      tag_12\n      jumpi\n      jump(tag_1)\n    tag_13:\n      dup1\n      0x03ff5e73\n      eq\n      tag_2\n      jumpi\n      dup1\n      0x04d42901\n      eq\n      tag_3\n      jumpi\n      dup1\n      0x1998aeef\n      eq\n      tag_4\n      jumpi\n      dup1\n      0x38e771ab\n      eq\n      tag_5\n      jumpi\n      dup1\n      0x41b0cfa8\n      eq\n      tag_6\n      jumpi\n    tag_1:\n      revert(0x00, 0x00)\n        /* \"Subasta.sol\":179:202  uint256 public stopTime */\n    tag_2:\n      callvalue\n      dup1\n      iszero\n      tag_14\n      jumpi\n      revert(0x00, 0x00)\n    tag_14:\n      pop\n      tag_15\n      tag_16\n      jump\t// in\n    tag_15:\n      mload(0x40)\n      tag_17\n      swap2\n      swap1\n      tag_18\n      jump\t// in\n    tag_17:\n      mload(0x40)\n      dup1\n      swap2\n      sub\n      swap1\n      return\n        /* \"Subasta.sol\":1898:1989  function getBidOf(address bidder) external view returns (uint) {... */\n    tag_3:\n      callvalue\n      dup1\n      iszero\n      tag_19\n      jumpi\n      revert(0x00, 0x00)\n    tag_19:\n      pop\n      tag_20\n      0x04\n      dup1\n      calldatasize\n      sub\n      dup2\n      add\n      swap1\n      tag_21\n      swap2\n      swap1\n      tag_22\n      jump\t// in\n    tag_21:\n      tag_23\n      jump\t// in\n    tag_20:\n      mload(0x40)\n      tag_24\n      swap2\n      swap1\n      tag_18\n      jump\t// in\n    tag_24:\n      mload(0x40)\n      dup1\n      swap2\n      sub\n      swap1\n      return\n        /* \"Subasta.sol\":980:1853  function bid() external payable {... */\n    tag_4:\n      tag_25\n      tag_26\n      jump\t// in\n    tag_25:\n      stop\n        /* \"Subasta.sol\":2490:2970  function refundAll() external payable onlyOwner auctionFinalized { ... */\n    tag_5:\n      tag_27\n      tag_28\n      jump\t// in\n    tag_27:\n      stop\n        /* \"Subasta.sol\":2307:2432  function showFinalWinner() external view auctionFinalized returns (address, uint) {... */\n    tag_6:\n      callvalue\n      dup1\n      iszero\n      tag_29\n      jumpi\n      revert(0x00, 0x00)\n    tag_29:\n      pop\n      tag_30\n      tag_31\n      jump\t// in\n    tag_30:\n      mload(0x40)\n      tag_32\n      swap3\n      swap2\n      swap1\n      tag_33\n      jump\t// in\n    tag_32:\n      mload(0x40)\n      dup1\n      swap2\n      sub\n      swap1\n      return\n        /* \"Subasta.sol\":2178:2267  function showOffers() external view returns (BidInfo[] memory) {... */\n    tag_7:\n      callvalue\n      dup1\n      iszero\n      tag_34\n      jumpi\n      revert(0x00, 0x00)\n    tag_34:\n      pop\n      tag_35\n      tag_36\n      jump\t// in\n    tag_35:\n      mload(0x40)\n      tag_37\n      swap2\n      swap1\n      tag_38\n      jump\t// in\n    tag_37:\n      mload(0x40)\n      dup1\n      swap2\n      sub\n      swap1\n      return\n        /* \"Subasta.sol\":153:177  uint256 public startTime */\n    tag_8:\n      callvalue\n      dup1\n      iszero\n      tag_39\n      jumpi\n      revert(0x00, 0x00)\n    tag_39:\n      pop\n      tag_40\n      tag_41\n      jump\t// in\n    tag_40:\n      mload(0x40)\n      tag_42\n      swap2\n      swap1\n      tag_18\n      jump\t// in\n    tag_42:\n      mload(0x40)\n      dup1\n      swap2\n      sub\n      swap1\n      return\n        /* \"Subasta.sol\":123:151  address public highestBidder */\n    tag_9:\n      callvalue\n      dup1\n      iszero\n      tag_43\n      jumpi\n      revert(0x00, 0x00)\n    tag_43:\n      pop\n      tag_44\n      tag_45\n      jump\t// in\n    tag_44:\n      mload(0x40)\n      tag_46\n      swap2\n      swap1\n      tag_47\n      jump\t// in\n    tag_46:\n      mload(0x40)\n      dup1\n      swap2\n      sub\n      swap1\n      return\n        /* \"Subasta.sol\":2032:2142  function showCurrentWinner() external view returns (address, uint) {... */\n    tag_10:\n      callvalue\n      dup1\n      iszero\n      tag_48\n      jumpi\n      revert(0x00, 0x00)\n    tag_48:\n      pop\n      tag_49\n      tag_50\n      jump\t// in\n    tag_49:\n      mload(0x40)\n      tag_51\n      swap3\n      swap2\n      swap1\n      tag_33\n      jump\t// in\n    tag_51:\n      mload(0x40)\n      dup1\n      swap2\n      sub\n      swap1\n      return\n        /* \"Subasta.sol\":99:121  uint public highestBid */\n    tag_11:\n      callvalue\n      dup1\n      iszero\n      tag_52\n      jumpi\n      revert(0x00, 0x00)\n    tag_52:\n      pop\n      tag_53\n      tag_54\n      jump\t// in\n    tag_53:\n      mload(0x40)\n      tag_55\n      swap2\n      swap1\n      tag_18\n      jump\t// in\n    tag_55:\n      mload(0x40)\n      dup1\n      swap2\n      sub\n      swap1\n      return\n        /* \"Subasta.sol\":499:526  BidInfo[] public bidHistory */\n    tag_12:\n      callvalue\n      dup1\n      iszero\n      tag_56\n      jumpi\n      revert(0x00, 0x00)\n    tag_56:\n      pop\n      tag_57\n      0x04\n      dup1\n      calldatasize\n      sub\n      dup2\n      add\n      swap1\n      tag_58\n      swap2\n      swap1\n      tag_59\n      jump\t// in\n    tag_58:\n      tag_60\n      jump\t// in\n    tag_57:\n      mload(0x40)\n      tag_61\n      swap3\n      swap2\n      swap1\n      tag_33\n      jump\t// in\n    tag_61:\n      mload(0x40)\n      dup1\n      swap2\n      sub\n      swap1\n      return\n        /* \"Subasta.sol\":179:202  uint256 public stopTime */\n    tag_16:\n      sload(0x03)\n      dup2\n      jump\t// out\n        /* \"Subasta.sol\":1898:1989  function getBidOf(address bidder) external view returns (uint) {... */\n    tag_23:\n        /* \"Subasta.sol\":1955:1959  uint */\n      0x00\n        /* \"Subasta.sol\":1974:1978  bids */\n      0x05\n        /* \"Subasta.sol\":1974:1986  bids[bidder] */\n      0x00\n        /* \"Subasta.sol\":1979:1985  bidder */\n      dup4\n        /* \"Subasta.sol\":1974:1986  bids[bidder] */\n      0xffffffffffffffffffffffffffffffffffffffff\n      and\n      0xffffffffffffffffffffffffffffffffffffffff\n      and\n      dup2\n      mstore\n      0x20\n      add\n      swap1\n      dup2\n      mstore\n      0x20\n      add\n      0x00\n      keccak256\n      sload\n        /* \"Subasta.sol\":1967:1986  return bids[bidder] */\n      swap1\n      pop\n        /* \"Subasta.sol\":1898:1989  function getBidOf(address bidder) external view returns (uint) {... */\n      swap2\n      swap1\n      pop\n      jump\t// out\n        /* \"Subasta.sol\":980:1853  function bid() external payable {... */\n    tag_26:\n        /* \"Subasta.sol\":1045:1054  startTime */\n      sload(0x02)\n        /* \"Subasta.sol\":1026:1041  block.timestamp */\n      timestamp\n        /* \"Subasta.sol\":1026:1054  block.timestamp >= startTime */\n      lt\n      iszero\n        /* \"Subasta.sol\":1026:1085  block.timestamp >= startTime && block.timestamp <= stopTime */\n      dup1\n      iszero\n      tag_64\n      jumpi\n      pop\n        /* \"Subasta.sol\":1077:1085  stopTime */\n      sload(0x03)\n        /* \"Subasta.sol\":1058:1073  block.timestamp */\n      timestamp\n        /* \"Subasta.sol\":1058:1085  block.timestamp <= stopTime */\n      gt\n      iszero\n        /* \"Subasta.sol\":1026:1085  block.timestamp >= startTime && block.timestamp <= stopTime */\n    tag_64:\n        /* \"Subasta.sol\":1018:1107  require(block.timestamp >= startTime && block.timestamp <= stopTime, \"Bid is not active\") */\n      tag_65\n      jumpi\n      mload(0x40)\n      0x08c379a000000000000000000000000000000000000000000000000000000000\n      dup2\n      mstore\n      0x04\n      add\n      tag_66\n      swap1\n      tag_67\n      jump\t// in\n    tag_66:\n      mload(0x40)\n      dup1\n      swap2\n      sub\n      swap1\n      revert\n    tag_65:\n        /* \"Subasta.sol\":1133:1134  0 */\n      0x00\n        /* \"Subasta.sol\":1121:1130  msg.value */\n      callvalue\n        /* \"Subasta.sol\":1121:1134  msg.value > 0 */\n      gt\n        /* \"Subasta.sol\":1113:1161  require(msg.value > 0, \"You must send some ETH\") */\n      tag_68\n      jumpi\n      mload(0x40)\n      0x08c379a000000000000000000000000000000000000000000000000000000000\n      dup2\n      mstore\n      0x04\n      add\n      tag_69\n      swap1\n      tag_70\n      jump\t// in\n    tag_69:\n      mload(0x40)\n      dup1\n      swap2\n      sub\n      swap1\n      revert\n    tag_68:\n        /* \"Subasta.sol\":1207:1210  105 */\n      0x69\n        /* \"Subasta.sol\":1194:1204  highestBid */\n      sload(0x00)\n        /* \"Subasta.sol\":1194:1210  highestBid * 105 */\n      tag_71\n      swap2\n      swap1\n      tag_72\n      jump\t// in\n    tag_71:\n        /* \"Subasta.sol\":1187:1190  100 */\n      0x64\n        /* \"Subasta.sol\":1175:1184  msg.value */\n      callvalue\n        /* \"Subasta.sol\":1175:1190  msg.value * 100 */\n      tag_73\n      swap2\n      swap1\n      tag_72\n      jump\t// in\n    tag_73:\n        /* \"Subasta.sol\":1175:1210  msg.value * 100 >= highestBid * 105 */\n      lt\n      iszero\n        /* \"Subasta.sol\":1167:1245  require(msg.value * 100 >= highestBid * 105, \"Bid must be at least 5% higher\") */\n      tag_74\n      jumpi\n      mload(0x40)\n      0x08c379a000000000000000000000000000000000000000000000000000000000\n      dup2\n      mstore\n      0x04\n      add\n      tag_75\n      swap1\n      tag_76\n      jump\t// in\n    tag_75:\n      mload(0x40)\n      dup1\n      swap2\n      sub\n      swap1\n      revert\n    tag_74:\n        /* \"Subasta.sol\":1367:1377  10 minutes */\n      0x0258\n        /* \"Subasta.sol\":1348:1363  block.timestamp */\n      timestamp\n        /* \"Subasta.sol\":1337:1345  stopTime */\n      sload(0x03)\n        /* \"Subasta.sol\":1337:1363  stopTime - block.timestamp */\n      tag_77\n      swap2\n      swap1\n      tag_78\n      jump\t// in\n    tag_77:\n        /* \"Subasta.sol\":1337:1377  stopTime - block.timestamp <= 10 minutes */\n      gt\n        /* \"Subasta.sol\":1333:1414  if (stopTime - block.timestamp <= 10 minutes) {... */\n      tag_79\n      jumpi\n        /* \"Subasta.sol\":1397:1407  10 minutes */\n      0x0258\n        /* \"Subasta.sol\":1385:1393  stopTime */\n      0x03\n      0x00\n        /* \"Subasta.sol\":1385:1407  stopTime += 10 minutes */\n      dup3\n      dup3\n      sload\n      tag_80\n      swap2\n      swap1\n      tag_81\n      jump\t// in\n    tag_80:\n      swap3\n      pop\n      pop\n      dup2\n      swap1\n      sstore\n      pop\n        /* \"Subasta.sol\":1333:1414  if (stopTime - block.timestamp <= 10 minutes) {... */\n    tag_79:\n        /* \"Subasta.sol\":1485:1495  msg.sender */\n      caller\n        /* \"Subasta.sol\":1478:1507  NewBid(msg.sender, msg.value) */\n      0xffffffffffffffffffffffffffffffffffffffff\n      and\n      0xdd0b6c6a77960e2066c96171b4d7ac9e8b4c184011f38544afa36a5bb63ec59f\n        /* \"Subasta.sol\":1497:1506  msg.value */\n      callvalue\n        /* \"Subasta.sol\":1478:1507  NewBid(msg.sender, msg.value) */\n      mload(0x40)\n      tag_82\n      swap2\n      swap1\n      tag_18\n      jump\t// in\n    tag_82:\n      mload(0x40)\n      dup1\n      swap2\n      sub\n      swap1\n      log2\n        /* \"Subasta.sol\":1609:1618  msg.value */\n      callvalue\n        /* \"Subasta.sol\":1589:1593  bids */\n      0x05\n        /* \"Subasta.sol\":1589:1605  bids[msg.sender] */\n      0x00\n        /* \"Subasta.sol\":1594:1604  msg.sender */\n      caller\n        /* \"Subasta.sol\":1589:1605  bids[msg.sender] */\n      0xffffffffffffffffffffffffffffffffffffffff\n      and\n      0xffffffffffffffffffffffffffffffffffffffff\n      and\n      dup2\n      mstore\n      0x20\n      add\n      swap1\n      dup2\n      mstore\n      0x20\n      add\n      0x00\n      keccak256\n      0x00\n        /* \"Subasta.sol\":1589:1618  bids[msg.sender] += msg.value */\n      dup3\n      dup3\n      sload\n      tag_83\n      swap2\n      swap1\n      tag_81\n      jump\t// in\n    tag_83:\n      swap3\n      pop\n      pop\n      dup2\n      swap1\n      sstore\n      pop\n        /* \"Subasta.sol\":1696:1705  msg.value */\n      callvalue\n        /* \"Subasta.sol\":1683:1693  highestBid */\n      0x00\n        /* \"Subasta.sol\":1683:1705  highestBid = msg.value */\n      dup2\n      swap1\n      sstore\n      pop\n        /* \"Subasta.sol\":1727:1737  msg.sender */\n      caller\n        /* \"Subasta.sol\":1711:1724  highestBidder */\n      0x01\n      0x00\n        /* \"Subasta.sol\":1711:1737  highestBidder = msg.sender */\n      0x0100\n      exp\n      dup2\n      sload\n      dup2\n      0xffffffffffffffffffffffffffffffffffffffff\n      mul\n      not\n      and\n      swap1\n      dup4\n      0xffffffffffffffffffffffffffffffffffffffff\n      and\n      mul\n      or\n      swap1\n      sstore\n      pop\n        /* \"Subasta.sol\":1803:1813  bidHistory */\n      0x06\n        /* \"Subasta.sol\":1819:1849  BidInfo(msg.sender, msg.value) */\n      mload(0x40)\n      dup1\n      0x40\n      add\n      0x40\n      mstore\n      dup1\n        /* \"Subasta.sol\":1827:1837  msg.sender */\n      caller\n        /* \"Subasta.sol\":1819:1849  BidInfo(msg.sender, msg.value) */\n      0xffffffffffffffffffffffffffffffffffffffff\n      and\n      dup2\n      mstore\n      0x20\n      add\n        /* \"Subasta.sol\":1839:1848  msg.value */\n      callvalue\n        /* \"Subasta.sol\":1819:1849  BidInfo(msg.sender, msg.value) */\n      dup2\n      mstore\n      pop\n        /* \"Subasta.sol\":1803:1850  bidHistory.push(BidInfo(msg.sender, msg.value)) */\n      swap1\n      dup1\n      0x01\n      dup2\n      sload\n      add\n      dup1\n      dup3\n      sstore\n      dup1\n      swap2\n      pop\n      pop\n      0x01\n      swap1\n      sub\n      swap1\n      0x00\n      mstore\n      keccak256(0x00, 0x20)\n      swap1\n      0x02\n      mul\n      add\n      0x00\n      swap1\n      swap2\n      swap1\n      swap2\n      swap1\n      swap2\n      pop\n      0x00\n      dup3\n      add\n      mload\n      dup2\n      0x00\n      add\n      exp(0x0100, 0x00)\n      dup2\n      sload\n      dup2\n      0xffffffffffffffffffffffffffffffffffffffff\n      mul\n      not\n      and\n      swap1\n      dup4\n      0xffffffffffffffffffffffffffffffffffffffff\n      and\n      mul\n      or\n      swap1\n      sstore\n      pop\n      0x20\n      dup3\n      add\n      mload\n      dup2\n      0x01\n      add\n      sstore\n      pop\n      pop\n        /* \"Subasta.sol\":980:1853  function bid() external payable {... */\n      jump\t// out\n        /* \"Subasta.sol\":2490:2970  function refundAll() external payable onlyOwner auctionFinalized { ... */\n    tag_28:\n        /* \"Subasta.sol\":769:774  owner */\n      0x04\n      0x00\n      swap1\n      sload\n      swap1\n      0x0100\n      exp\n      swap1\n      div\n      0xffffffffffffffffffffffffffffffffffffffff\n      and\n        /* \"Subasta.sol\":755:774  msg.sender == owner */\n      0xffffffffffffffffffffffffffffffffffffffff\n      and\n        /* \"Subasta.sol\":755:765  msg.sender */\n      caller\n        /* \"Subasta.sol\":755:774  msg.sender == owner */\n      0xffffffffffffffffffffffffffffffffffffffff\n      and\n      eq\n        /* \"Subasta.sol\":747:817  require(msg.sender == owner, \"Only the owner can call this function.\") */\n      tag_86\n      jumpi\n      mload(0x40)\n      0x08c379a000000000000000000000000000000000000000000000000000000000\n      dup2\n      mstore\n      0x04\n      add\n      tag_87\n      swap1\n      tag_88\n      jump\t// in\n    tag_87:\n      mload(0x40)\n      dup1\n      swap2\n      sub\n      swap1\n      revert\n    tag_86:\n        /* \"Subasta.sol\":890:898  stopTime */\n      sload(0x03)\n        /* \"Subasta.sol\":871:886  block.timestamp */\n      timestamp\n        /* \"Subasta.sol\":871:898  block.timestamp >= stopTime */\n      lt\n      iszero\n        /* \"Subasta.sol\":863:930  require(block.timestamp >= stopTime, \"The auction is not over yet\") */\n      tag_90\n      jumpi\n      mload(0x40)\n      0x08c379a000000000000000000000000000000000000000000000000000000000\n      dup2\n      mstore\n      0x04\n      add\n      tag_91\n      swap1\n      tag_92\n      jump\t// in\n    tag_91:\n      mload(0x40)\n      dup1\n      swap2\n      sub\n      swap1\n      revert\n    tag_90:\n        /* \"Subasta.sol\":2566:2572  uint i */\n      0x00\n        /* \"Subasta.sol\":2575:2576  0 */\n      0x00\n        /* \"Subasta.sol\":2566:2576  uint i = 0 */\n      swap1\n      pop\n        /* \"Subasta.sol\":2562:2943  for(uint i = 0; i < bidHistory.length; ++i) {... */\n    tag_94:\n        /* \"Subasta.sol\":2582:2592  bidHistory */\n      0x06\n        /* \"Subasta.sol\":2582:2599  bidHistory.length */\n      dup1\n      sload\n      swap1\n      pop\n        /* \"Subasta.sol\":2578:2579  i */\n      dup2\n        /* \"Subasta.sol\":2578:2599  i < bidHistory.length */\n      lt\n        /* \"Subasta.sol\":2562:2943  for(uint i = 0; i < bidHistory.length; ++i) {... */\n      iszero\n      tag_95\n      jumpi\n        /* \"Subasta.sol\":2643:2656  highestBidder */\n      0x01\n      0x00\n      swap1\n      sload\n      swap1\n      0x0100\n      exp\n      swap1\n      div\n      0xffffffffffffffffffffffffffffffffffffffff\n      and\n        /* \"Subasta.sol\":2619:2656  bidHistory[i].bidder != highestBidder */\n      0xffffffffffffffffffffffffffffffffffffffff\n      and\n        /* \"Subasta.sol\":2619:2629  bidHistory */\n      0x06\n        /* \"Subasta.sol\":2630:2631  i */\n      dup3\n        /* \"Subasta.sol\":2619:2632  bidHistory[i] */\n      dup2\n      sload\n      dup2\n      lt\n      tag_97\n      jumpi\n      tag_98\n      tag_99\n      jump\t// in\n    tag_98:\n    tag_97:\n      swap1\n      0x00\n      mstore\n      keccak256(0x00, 0x20)\n      swap1\n      0x02\n      mul\n      add\n        /* \"Subasta.sol\":2619:2639  bidHistory[i].bidder */\n      0x00\n      add\n      0x00\n      swap1\n      sload\n      swap1\n      0x0100\n      exp\n      swap1\n      div\n      0xffffffffffffffffffffffffffffffffffffffff\n      and\n        /* \"Subasta.sol\":2619:2656  bidHistory[i].bidder != highestBidder */\n      0xffffffffffffffffffffffffffffffffffffffff\n      and\n      eq\n        /* \"Subasta.sol\":2616:2937  if(bidHistory[i].bidder != highestBidder) {... */\n      tag_101\n      jumpi\n        /* \"Subasta.sol\":2672:2689  uint refundAmount */\n      0x00\n        /* \"Subasta.sol\":2722:2725  100 */\n      0x64\n        /* \"Subasta.sol\":2717:2719  98 */\n      0x62\n        /* \"Subasta.sol\":2693:2703  bidHistory */\n      0x06\n        /* \"Subasta.sol\":2704:2705  i */\n      dup5\n        /* \"Subasta.sol\":2693:2706  bidHistory[i] */\n      dup2\n      sload\n      dup2\n      lt\n      tag_102\n      jumpi\n      tag_103\n      tag_99\n      jump\t// in\n    tag_103:\n    tag_102:\n      swap1\n      0x00\n      mstore\n      keccak256(0x00, 0x20)\n      swap1\n      0x02\n      mul\n      add\n        /* \"Subasta.sol\":2693:2713  bidHistory[i].amount */\n      0x01\n      add\n      sload\n        /* \"Subasta.sol\":2692:2719  (bidHistory[i].amount) * 98 */\n      tag_105\n      swap2\n      swap1\n      tag_72\n      jump\t// in\n    tag_105:\n        /* \"Subasta.sol\":2692:2725  (bidHistory[i].amount) * 98 / 100 */\n      tag_106\n      swap2\n      swap1\n      tag_107\n      jump\t// in\n    tag_106:\n        /* \"Subasta.sol\":2672:2725  uint refundAmount = (bidHistory[i].amount) * 98 / 100 */\n      swap1\n      pop\n        /* \"Subasta.sol\":2808:2817  bool sent */\n      0x00\n        /* \"Subasta.sol\":2831:2841  bidHistory */\n      0x06\n        /* \"Subasta.sol\":2842:2843  i */\n      dup4\n        /* \"Subasta.sol\":2831:2844  bidHistory[i] */\n      dup2\n      sload\n      dup2\n      lt\n      tag_108\n      jumpi\n      tag_109\n      tag_99\n      jump\t// in\n    tag_109:\n    tag_108:\n      swap1\n      0x00\n      mstore\n      keccak256(0x00, 0x20)\n      swap1\n      0x02\n      mul\n      add\n        /* \"Subasta.sol\":2831:2851  bidHistory[i].bidder */\n      0x00\n      add\n      0x00\n      swap1\n      sload\n      swap1\n      0x0100\n      exp\n      swap1\n      div\n      0xffffffffffffffffffffffffffffffffffffffff\n      and\n        /* \"Subasta.sol\":2823:2857  payable(bidHistory[i].bidder).call */\n      0xffffffffffffffffffffffffffffffffffffffff\n      and\n        /* \"Subasta.sol\":2865:2877  refundAmount */\n      dup3\n        /* \"Subasta.sol\":2823:2882  payable(bidHistory[i].bidder).call{value: refundAmount}(\"\") */\n      mload(0x40)\n      tag_111\n      swap1\n      tag_112\n      jump\t// in\n    tag_111:\n      0x00\n      mload(0x40)\n      dup1\n      dup4\n      sub\n      dup2\n      dup6\n      dup8\n      gas\n      call\n      swap3\n      pop\n      pop\n      pop\n      returndatasize\n      dup1\n      0x00\n      dup2\n      eq\n      tag_115\n      jumpi\n      mload(0x40)\n      swap2\n      pop\n      and(add(returndatasize, 0x3f), not(0x1f))\n      dup3\n      add\n      0x40\n      mstore\n      returndatasize\n      dup3\n      mstore\n      returndatasize\n      0x00\n      0x20\n      dup5\n      add\n      returndatacopy\n      jump(tag_114)\n    tag_115:\n      0x60\n      swap2\n      pop\n    tag_114:\n      pop\n        /* \"Subasta.sol\":2807:2882  (bool sent, ) = payable(bidHistory[i].bidder).call{value: refundAmount}(\"\") */\n      pop\n      swap1\n      pop\n        /* \"Subasta.sol\":2904:2908  sent */\n      dup1\n        /* \"Subasta.sol\":2896:2926  require(sent, \"Refund failed\") */\n      tag_116\n      jumpi\n      mload(0x40)\n      0x08c379a000000000000000000000000000000000000000000000000000000000\n      dup2\n      mstore\n      0x04\n      add\n      tag_117\n      swap1\n      tag_118\n      jump\t// in\n    tag_117:\n      mload(0x40)\n      dup1\n      swap2\n      sub\n      swap1\n      revert\n    tag_116:\n        /* \"Subasta.sol\":2658:2937  {... */\n      pop\n      pop\n        /* \"Subasta.sol\":2616:2937  if(bidHistory[i].bidder != highestBidder) {... */\n    tag_101:\n        /* \"Subasta.sol\":2601:2604  ++i */\n      dup1\n      0x01\n      add\n      swap1\n      pop\n        /* \"Subasta.sol\":2562:2943  for(uint i = 0; i < bidHistory.length; ++i) {... */\n      jump(tag_94)\n    tag_95:\n      pop\n        /* \"Subasta.sol\":2953:2967  AuctionEnded() */\n      0xa0e92984607195c326795751263414ee1074526323552e694c90ef2b99ae3f29\n      mload(0x40)\n      mload(0x40)\n      dup1\n      swap2\n      sub\n      swap1\n      log1\n        /* \"Subasta.sol\":2490:2970  function refundAll() external payable onlyOwner auctionFinalized { ... */\n      jump\t// out\n        /* \"Subasta.sol\":2307:2432  function showFinalWinner() external view auctionFinalized returns (address, uint) {... */\n    tag_31:\n        /* \"Subasta.sol\":2374:2381  address */\n      0x00\n        /* \"Subasta.sol\":2383:2387  uint */\n      0x00\n        /* \"Subasta.sol\":890:898  stopTime */\n      sload(0x03)\n        /* \"Subasta.sol\":871:886  block.timestamp */\n      timestamp\n        /* \"Subasta.sol\":871:898  block.timestamp >= stopTime */\n      lt\n      iszero\n        /* \"Subasta.sol\":863:930  require(block.timestamp >= stopTime, \"The auction is not over yet\") */\n      tag_120\n      jumpi\n      mload(0x40)\n      0x08c379a000000000000000000000000000000000000000000000000000000000\n      dup2\n      mstore\n      0x04\n      add\n      tag_121\n      swap1\n      tag_92\n      jump\t// in\n    tag_121:\n      mload(0x40)\n      dup1\n      swap2\n      sub\n      swap1\n      revert\n    tag_120:\n        /* \"Subasta.sol\":2403:2416  highestBidder */\n      0x01\n      0x00\n      swap1\n      sload\n      swap1\n      0x0100\n      exp\n      swap1\n      div\n      0xffffffffffffffffffffffffffffffffffffffff\n      and\n        /* \"Subasta.sol\":2418:2428  highestBid */\n      sload(0x00)\n        /* \"Subasta.sol\":2395:2429  return (highestBidder, highestBid) */\n      swap2\n      pop\n      swap2\n      pop\n        /* \"Subasta.sol\":2307:2432  function showFinalWinner() external view auctionFinalized returns (address, uint) {... */\n      swap1\n      swap2\n      jump\t// out\n        /* \"Subasta.sol\":2178:2267  function showOffers() external view returns (BidInfo[] memory) {... */\n    tag_36:\n        /* \"Subasta.sol\":2223:2239  BidInfo[] memory */\n      0x60\n        /* \"Subasta.sol\":2254:2264  bidHistory */\n      0x06\n        /* \"Subasta.sol\":2247:2264  return bidHistory */\n      dup1\n      sload\n      dup1\n      0x20\n      mul\n      0x20\n      add\n      mload(0x40)\n      swap1\n      dup2\n      add\n      0x40\n      mstore\n      dup1\n      swap3\n      swap2\n      swap1\n      dup2\n      dup2\n      mstore\n      0x20\n      add\n      0x00\n      swap1\n    tag_124:\n      dup3\n      dup3\n      lt\n      iszero\n      tag_125\n      jumpi\n      dup4\n      dup3\n      swap1\n      0x00\n      mstore\n      keccak256(0x00, 0x20)\n      swap1\n      0x02\n      mul\n      add\n      mload(0x40)\n      dup1\n      0x40\n      add\n      0x40\n      mstore\n      swap1\n      dup2\n      0x00\n      dup3\n      add\n      0x00\n      swap1\n      sload\n      swap1\n      0x0100\n      exp\n      swap1\n      div\n      0xffffffffffffffffffffffffffffffffffffffff\n      and\n      0xffffffffffffffffffffffffffffffffffffffff\n      and\n      0xffffffffffffffffffffffffffffffffffffffff\n      and\n      dup2\n      mstore\n      0x20\n      add\n      0x01\n      dup3\n      add\n      sload\n      dup2\n      mstore\n      pop\n      pop\n      dup2\n      mstore\n      0x20\n      add\n      swap1\n      0x01\n      add\n      swap1\n      jump(tag_124)\n    tag_125:\n      pop\n      pop\n      pop\n      pop\n      swap1\n      pop\n        /* \"Subasta.sol\":2178:2267  function showOffers() external view returns (BidInfo[] memory) {... */\n      swap1\n      jump\t// out\n        /* \"Subasta.sol\":153:177  uint256 public startTime */\n    tag_41:\n      sload(0x02)\n      dup2\n      jump\t// out\n        /* \"Subasta.sol\":123:151  address public highestBidder */\n    tag_45:\n      0x01\n      0x00\n      swap1\n      sload\n      swap1\n      0x0100\n      exp\n      swap1\n      div\n      0xffffffffffffffffffffffffffffffffffffffff\n      and\n      dup2\n      jump\t// out\n        /* \"Subasta.sol\":2032:2142  function showCurrentWinner() external view returns (address, uint) {... */\n    tag_50:\n        /* \"Subasta.sol\":2084:2091  address */\n      0x00\n        /* \"Subasta.sol\":2093:2097  uint */\n      0x00\n        /* \"Subasta.sol\":2113:2126  highestBidder */\n      0x01\n      0x00\n      swap1\n      sload\n      swap1\n      0x0100\n      exp\n      swap1\n      div\n      0xffffffffffffffffffffffffffffffffffffffff\n      and\n        /* \"Subasta.sol\":2128:2138  highestBid */\n      sload(0x00)\n        /* \"Subasta.sol\":2105:2139  return (highestBidder, highestBid) */\n      swap2\n      pop\n      swap2\n      pop\n        /* \"Subasta.sol\":2032:2142  function showCurrentWinner() external view returns (address, uint) {... */\n      swap1\n      swap2\n      jump\t// out\n        /* \"Subasta.sol\":99:121  uint public highestBid */\n    tag_54:\n      sload(0x00)\n      dup2\n      jump\t// out\n        /* \"Subasta.sol\":499:526  BidInfo[] public bidHistory */\n    tag_60:\n      0x06\n      dup2\n      dup2\n      sload\n      dup2\n      lt\n      tag_128\n      jumpi\n      0x00\n      dup1\n      revert\n    tag_128:\n      swap1\n      0x00\n      mstore\n      keccak256(0x00, 0x20)\n      swap1\n      0x02\n      mul\n      add\n      0x00\n      swap2\n      pop\n      swap1\n      pop\n      dup1\n      0x00\n      add\n      0x00\n      swap1\n      sload\n      swap1\n      0x0100\n      exp\n      swap1\n      div\n      0xffffffffffffffffffffffffffffffffffffffff\n      and\n      swap1\n      dup1\n      0x01\n      add\n      sload\n      swap1\n      pop\n      dup3\n      jump\t// out\n        /* \"#utility.yul\":7:84   */\n    tag_130:\n        /* \"#utility.yul\":44:51   */\n      0x00\n        /* \"#utility.yul\":73:78   */\n      dup2\n        /* \"#utility.yul\":62:78   */\n      swap1\n      pop\n        /* \"#utility.yul\":7:84   */\n      swap2\n      swap1\n      pop\n      jump\t// out\n        /* \"#utility.yul\":90:208   */\n    tag_131:\n        /* \"#utility.yul\":177:201   */\n      tag_172\n        /* \"#utility.yul\":195:200   */\n      dup2\n        /* \"#utility.yul\":177:201   */\n      tag_130\n      jump\t// in\n    tag_172:\n        /* \"#utility.yul\":172:175   */\n      dup3\n        /* \"#utility.yul\":165:202   */\n      mstore\n        /* \"#utility.yul\":90:208   */\n      pop\n      pop\n      jump\t// out\n        /* \"#utility.yul\":214:436   */\n    tag_18:\n        /* \"#utility.yul\":307:311   */\n      0x00\n        /* \"#utility.yul\":345:347   */\n      0x20\n        /* \"#utility.yul\":334:343   */\n      dup3\n        /* \"#utility.yul\":330:348   */\n      add\n        /* \"#utility.yul\":322:348   */\n      swap1\n      pop\n        /* \"#utility.yul\":358:429   */\n      tag_174\n        /* \"#utility.yul\":426:427   */\n      0x00\n        /* \"#utility.yul\":415:424   */\n      dup4\n        /* \"#utility.yul\":411:428   */\n      add\n        /* \"#utility.yul\":402:408   */\n      dup5\n        /* \"#utility.yul\":358:429   */\n      tag_131\n      jump\t// in\n    tag_174:\n        /* \"#utility.yul\":214:436   */\n      swap3\n      swap2\n      pop\n      pop\n      jump\t// out\n        /* \"#utility.yul\":523:640   */\n    tag_133:\n        /* \"#utility.yul\":632:633   */\n      0x00\n        /* \"#utility.yul\":629:630   */\n      0x00\n        /* \"#utility.yul\":622:634   */\n      revert\n        /* \"#utility.yul\":769:895   */\n    tag_135:\n        /* \"#utility.yul\":806:813   */\n      0x00\n        /* \"#utility.yul\":846:888   */\n      0xffffffffffffffffffffffffffffffffffffffff\n        /* \"#utility.yul\":839:844   */\n      dup3\n        /* \"#utility.yul\":835:889   */\n      and\n        /* \"#utility.yul\":824:889   */\n      swap1\n      pop\n        /* \"#utility.yul\":769:895   */\n      swap2\n      swap1\n      pop\n      jump\t// out\n        /* \"#utility.yul\":901:997   */\n    tag_136:\n        /* \"#utility.yul\":938:945   */\n      0x00\n        /* \"#utility.yul\":967:991   */\n      tag_180\n        /* \"#utility.yul\":985:990   */\n      dup3\n        /* \"#utility.yul\":967:991   */\n      tag_135\n      jump\t// in\n    tag_180:\n        /* \"#utility.yul\":956:991   */\n      swap1\n      pop\n        /* \"#utility.yul\":901:997   */\n      swap2\n      swap1\n      pop\n      jump\t// out\n        /* \"#utility.yul\":1003:1125   */\n    tag_137:\n        /* \"#utility.yul\":1076:1100   */\n      tag_182\n        /* \"#utility.yul\":1094:1099   */\n      dup2\n        /* \"#utility.yul\":1076:1100   */\n      tag_136\n      jump\t// in\n    tag_182:\n        /* \"#utility.yul\":1069:1074   */\n      dup2\n        /* \"#utility.yul\":1066:1101   */\n      eq\n        /* \"#utility.yul\":1056:1119   */\n      tag_183\n      jumpi\n        /* \"#utility.yul\":1115:1116   */\n      0x00\n        /* \"#utility.yul\":1112:1113   */\n      0x00\n        /* \"#utility.yul\":1105:1117   */\n      revert\n        /* \"#utility.yul\":1056:1119   */\n    tag_183:\n        /* \"#utility.yul\":1003:1125   */\n      pop\n      jump\t// out\n        /* \"#utility.yul\":1131:1270   */\n    tag_138:\n        /* \"#utility.yul\":1177:1182   */\n      0x00\n        /* \"#utility.yul\":1215:1221   */\n      dup2\n        /* \"#utility.yul\":1202:1222   */\n      calldataload\n        /* \"#utility.yul\":1193:1222   */\n      swap1\n      pop\n        /* \"#utility.yul\":1231:1264   */\n      tag_185\n        /* \"#utility.yul\":1258:1263   */\n      dup2\n        /* \"#utility.yul\":1231:1264   */\n      tag_137\n      jump\t// in\n    tag_185:\n        /* \"#utility.yul\":1131:1270   */\n      swap3\n      swap2\n      pop\n      pop\n      jump\t// out\n        /* \"#utility.yul\":1276:1605   */\n    tag_22:\n        /* \"#utility.yul\":1335:1341   */\n      0x00\n        /* \"#utility.yul\":1384:1386   */\n      0x20\n        /* \"#utility.yul\":1372:1381   */\n      dup3\n        /* \"#utility.yul\":1363:1370   */\n      dup5\n        /* \"#utility.yul\":1359:1382   */\n      sub\n        /* \"#utility.yul\":1355:1387   */\n      slt\n        /* \"#utility.yul\":1352:1471   */\n      iszero\n      tag_187\n      jumpi\n        /* \"#utility.yul\":1390:1469   */\n      tag_188\n      tag_133\n      jump\t// in\n    tag_188:\n        /* \"#utility.yul\":1352:1471   */\n    tag_187:\n        /* \"#utility.yul\":1510:1511   */\n      0x00\n        /* \"#utility.yul\":1535:1588   */\n      tag_189\n        /* \"#utility.yul\":1580:1587   */\n      dup5\n        /* \"#utility.yul\":1571:1577   */\n      dup3\n        /* \"#utility.yul\":1560:1569   */\n      dup6\n        /* \"#utility.yul\":1556:1578   */\n      add\n        /* \"#utility.yul\":1535:1588   */\n      tag_138\n      jump\t// in\n    tag_189:\n        /* \"#utility.yul\":1525:1588   */\n      swap2\n      pop\n        /* \"#utility.yul\":1481:1598   */\n      pop\n        /* \"#utility.yul\":1276:1605   */\n      swap3\n      swap2\n      pop\n      pop\n      jump\t// out\n        /* \"#utility.yul\":1611:1729   */\n    tag_139:\n        /* \"#utility.yul\":1698:1722   */\n      tag_191\n        /* \"#utility.yul\":1716:1721   */\n      dup2\n        /* \"#utility.yul\":1698:1722   */\n      tag_136\n      jump\t// in\n    tag_191:\n        /* \"#utility.yul\":1693:1696   */\n      dup3\n        /* \"#utility.yul\":1686:1723   */\n      mstore\n        /* \"#utility.yul\":1611:1729   */\n      pop\n      pop\n      jump\t// out\n        /* \"#utility.yul\":1735:2067   */\n    tag_33:\n        /* \"#utility.yul\":1856:1860   */\n      0x00\n        /* \"#utility.yul\":1894:1896   */\n      0x40\n        /* \"#utility.yul\":1883:1892   */\n      dup3\n        /* \"#utility.yul\":1879:1897   */\n      add\n        /* \"#utility.yul\":1871:1897   */\n      swap1\n      pop\n        /* \"#utility.yul\":1907:1978   */\n      tag_193\n        /* \"#utility.yul\":1975:1976   */\n      0x00\n        /* \"#utility.yul\":1964:1973   */\n      dup4\n        /* \"#utility.yul\":1960:1977   */\n      add\n        /* \"#utility.yul\":1951:1957   */\n      dup6\n        /* \"#utility.yul\":1907:1978   */\n      tag_139\n      jump\t// in\n    tag_193:\n        /* \"#utility.yul\":1988:2060   */\n      tag_194\n        /* \"#utility.yul\":2056:2058   */\n      0x20\n        /* \"#utility.yul\":2045:2054   */\n      dup4\n        /* \"#utility.yul\":2041:2059   */\n      add\n        /* \"#utility.yul\":2032:2038   */\n      dup5\n        /* \"#utility.yul\":1988:2060   */\n      tag_131\n      jump\t// in\n    tag_194:\n        /* \"#utility.yul\":1735:2067   */\n      swap4\n      swap3\n      pop\n      pop\n      pop\n      jump\t// out\n        /* \"#utility.yul\":2073:2210   */\n    tag_140:\n        /* \"#utility.yul\":2163:2169   */\n      0x00\n        /* \"#utility.yul\":2197:2202   */\n      dup2\n        /* \"#utility.yul\":2191:2203   */\n      mload\n        /* \"#utility.yul\":2181:2203   */\n      swap1\n      pop\n        /* \"#utility.yul\":2073:2210   */\n      swap2\n      swap1\n      pop\n      jump\t// out\n        /* \"#utility.yul\":2216:2423   */\n    tag_141:\n        /* \"#utility.yul\":2338:2349   */\n      0x00\n        /* \"#utility.yul\":2372:2378   */\n      dup3\n        /* \"#utility.yul\":2367:2370   */\n      dup3\n        /* \"#utility.yul\":2360:2379   */\n      mstore\n        /* \"#utility.yul\":2412:2416   */\n      0x20\n        /* \"#utility.yul\":2407:2410   */\n      dup3\n        /* \"#utility.yul\":2403:2417   */\n      add\n        /* \"#utility.yul\":2388:2417   */\n      swap1\n      pop\n        /* \"#utility.yul\":2216:2423   */\n      swap3\n      swap2\n      pop\n      pop\n      jump\t// out\n        /* \"#utility.yul\":2429:2584   */\n    tag_142:\n        /* \"#utility.yul\":2519:2523   */\n      0x00\n        /* \"#utility.yul\":2542:2545   */\n      dup2\n        /* \"#utility.yul\":2534:2545   */\n      swap1\n      pop\n        /* \"#utility.yul\":2572:2576   */\n      0x20\n        /* \"#utility.yul\":2567:2570   */\n      dup3\n        /* \"#utility.yul\":2563:2577   */\n      add\n        /* \"#utility.yul\":2555:2577   */\n      swap1\n      pop\n        /* \"#utility.yul\":2429:2584   */\n      swap2\n      swap1\n      pop\n      jump\t// out\n        /* \"#utility.yul\":2590:2698   */\n    tag_143:\n        /* \"#utility.yul\":2667:2691   */\n      tag_199\n        /* \"#utility.yul\":2685:2690   */\n      dup2\n        /* \"#utility.yul\":2667:2691   */\n      tag_136\n      jump\t// in\n    tag_199:\n        /* \"#utility.yul\":2662:2665   */\n      dup3\n        /* \"#utility.yul\":2655:2692   */\n      mstore\n        /* \"#utility.yul\":2590:2698   */\n      pop\n      pop\n      jump\t// out\n        /* \"#utility.yul\":2704:2812   */\n    tag_144:\n        /* \"#utility.yul\":2781:2805   */\n      tag_201\n        /* \"#utility.yul\":2799:2804   */\n      dup2\n        /* \"#utility.yul\":2781:2805   */\n      tag_130\n      jump\t// in\n    tag_201:\n        /* \"#utility.yul\":2776:2779   */\n      dup3\n        /* \"#utility.yul\":2769:2806   */\n      mstore\n        /* \"#utility.yul\":2704:2812   */\n      pop\n      pop\n      jump\t// out\n        /* \"#utility.yul\":2874:3371   */\n    tag_145:\n        /* \"#utility.yul\":3007:3011   */\n      0x40\n        /* \"#utility.yul\":3002:3005   */\n      dup3\n        /* \"#utility.yul\":2998:3012   */\n      add\n        /* \"#utility.yul\":3096:3100   */\n      0x00\n        /* \"#utility.yul\":3089:3094   */\n      dup3\n        /* \"#utility.yul\":3085:3101   */\n      add\n        /* \"#utility.yul\":3079:3102   */\n      mload\n        /* \"#utility.yul\":3115:3178   */\n      tag_203\n        /* \"#utility.yul\":3172:3176   */\n      0x00\n        /* \"#utility.yul\":3167:3170   */\n      dup6\n        /* \"#utility.yul\":3163:3177   */\n      add\n        /* \"#utility.yul\":3149:3161   */\n      dup3\n        /* \"#utility.yul\":3115:3178   */\n      tag_143\n      jump\t// in\n    tag_203:\n        /* \"#utility.yul\":3022:3188   */\n      pop\n        /* \"#utility.yul\":3272:3276   */\n      0x20\n        /* \"#utility.yul\":3265:3270   */\n      dup3\n        /* \"#utility.yul\":3261:3277   */\n      add\n        /* \"#utility.yul\":3255:3278   */\n      mload\n        /* \"#utility.yul\":3291:3354   */\n      tag_204\n        /* \"#utility.yul\":3348:3352   */\n      0x20\n        /* \"#utility.yul\":3343:3346   */\n      dup6\n        /* \"#utility.yul\":3339:3353   */\n      add\n        /* \"#utility.yul\":3325:3337   */\n      dup3\n        /* \"#utility.yul\":3291:3354   */\n      tag_144\n      jump\t// in\n    tag_204:\n        /* \"#utility.yul\":3198:3364   */\n      pop\n        /* \"#utility.yul\":2976:3371   */\n      pop\n        /* \"#utility.yul\":2874:3371   */\n      pop\n      pop\n      jump\t// out\n        /* \"#utility.yul\":3377:3648   */\n    tag_146:\n        /* \"#utility.yul\":3492:3502   */\n      0x00\n        /* \"#utility.yul\":3513:3605   */\n      tag_206\n        /* \"#utility.yul\":3601:3604   */\n      dup4\n        /* \"#utility.yul\":3593:3599   */\n      dup4\n        /* \"#utility.yul\":3513:3605   */\n      tag_145\n      jump\t// in\n    tag_206:\n        /* \"#utility.yul\":3637:3641   */\n      0x40\n        /* \"#utility.yul\":3632:3635   */\n      dup4\n        /* \"#utility.yul\":3628:3642   */\n      add\n        /* \"#utility.yul\":3614:3642   */\n      swap1\n      pop\n        /* \"#utility.yul\":3377:3648   */\n      swap3\n      swap2\n      pop\n      pop\n      jump\t// out\n        /* \"#utility.yul\":3654:3790   */\n    tag_147:\n        /* \"#utility.yul\":3747:3751   */\n      0x00\n        /* \"#utility.yul\":3779:3783   */\n      0x20\n        /* \"#utility.yul\":3774:3777   */\n      dup3\n        /* \"#utility.yul\":3770:3784   */\n      add\n        /* \"#utility.yul\":3762:3784   */\n      swap1\n      pop\n        /* \"#utility.yul\":3654:3790   */\n      swap2\n      swap1\n      pop\n      jump\t// out\n        /* \"#utility.yul\":3856:4772   */\n    tag_148:\n        /* \"#utility.yul\":4021:4024   */\n      0x00\n        /* \"#utility.yul\":4050:4127   */\n      tag_209\n        /* \"#utility.yul\":4121:4126   */\n      dup3\n        /* \"#utility.yul\":4050:4127   */\n      tag_140\n      jump\t// in\n    tag_209:\n        /* \"#utility.yul\":4143:4252   */\n      tag_210\n        /* \"#utility.yul\":4245:4251   */\n      dup2\n        /* \"#utility.yul\":4240:4243   */\n      dup6\n        /* \"#utility.yul\":4143:4252   */\n      tag_141\n      jump\t// in\n    tag_210:\n        /* \"#utility.yul\":4136:4252   */\n      swap4\n      pop\n        /* \"#utility.yul\":4276:4355   */\n      tag_211\n        /* \"#utility.yul\":4349:4354   */\n      dup4\n        /* \"#utility.yul\":4276:4355   */\n      tag_142\n      jump\t// in\n    tag_211:\n        /* \"#utility.yul\":4378:4385   */\n      dup1\n        /* \"#utility.yul\":4409:4410   */\n      0x00\n        /* \"#utility.yul\":4394:4747   */\n    tag_212:\n        /* \"#utility.yul\":4419:4425   */\n      dup4\n        /* \"#utility.yul\":4416:4417   */\n      dup2\n        /* \"#utility.yul\":4413:4426   */\n      lt\n        /* \"#utility.yul\":4394:4747   */\n      iszero\n      tag_214\n      jumpi\n        /* \"#utility.yul\":4495:4501   */\n      dup2\n        /* \"#utility.yul\":4489:4502   */\n      mload\n        /* \"#utility.yul\":4522:4631   */\n      tag_215\n        /* \"#utility.yul\":4627:4630   */\n      dup9\n        /* \"#utility.yul\":4612:4625   */\n      dup3\n        /* \"#utility.yul\":4522:4631   */\n      tag_146\n      jump\t// in\n    tag_215:\n        /* \"#utility.yul\":4515:4631   */\n      swap8\n      pop\n        /* \"#utility.yul\":4654:4737   */\n      tag_216\n        /* \"#utility.yul\":4730:4736   */\n      dup4\n        /* \"#utility.yul\":4654:4737   */\n      tag_147\n      jump\t// in\n    tag_216:\n        /* \"#utility.yul\":4644:4737   */\n      swap3\n      pop\n        /* \"#utility.yul\":4454:4747   */\n      pop\n        /* \"#utility.yul\":4441:4442   */\n      0x01\n        /* \"#utility.yul\":4438:4439   */\n      dup2\n        /* \"#utility.yul\":4434:4443   */\n      add\n        /* \"#utility.yul\":4429:4443   */\n      swap1\n      pop\n        /* \"#utility.yul\":4394:4747   */\n      jump(tag_212)\n    tag_214:\n        /* \"#utility.yul\":4398:4412   */\n      pop\n        /* \"#utility.yul\":4763:4766   */\n      dup6\n        /* \"#utility.yul\":4756:4766   */\n      swap4\n      pop\n        /* \"#utility.yul\":4026:4772   */\n      pop\n      pop\n      pop\n        /* \"#utility.yul\":3856:4772   */\n      swap3\n      swap2\n      pop\n      pop\n      jump\t// out\n        /* \"#utility.yul\":4778:5243   */\n    tag_38:\n        /* \"#utility.yul\":4967:4971   */\n      0x00\n        /* \"#utility.yul\":5005:5007   */\n      0x20\n        /* \"#utility.yul\":4994:5003   */\n      dup3\n        /* \"#utility.yul\":4990:5008   */\n      add\n        /* \"#utility.yul\":4982:5008   */\n      swap1\n      pop\n        /* \"#utility.yul\":5054:5063   */\n      dup2\n        /* \"#utility.yul\":5048:5052   */\n      dup2\n        /* \"#utility.yul\":5044:5064   */\n      sub\n        /* \"#utility.yul\":5040:5041   */\n      0x00\n        /* \"#utility.yul\":5029:5038   */\n      dup4\n        /* \"#utility.yul\":5025:5042   */\n      add\n        /* \"#utility.yul\":5018:5065   */\n      mstore\n        /* \"#utility.yul\":5082:5236   */\n      tag_218\n        /* \"#utility.yul\":5231:5235   */\n      dup2\n        /* \"#utility.yul\":5222:5228   */\n      dup5\n        /* \"#utility.yul\":5082:5236   */\n      tag_148\n      jump\t// in\n    tag_218:\n        /* \"#utility.yul\":5074:5236   */\n      swap1\n      pop\n        /* \"#utility.yul\":4778:5243   */\n      swap3\n      swap2\n      pop\n      pop\n      jump\t// out\n        /* \"#utility.yul\":5249:5471   */\n    tag_47:\n        /* \"#utility.yul\":5342:5346   */\n      0x00\n        /* \"#utility.yul\":5380:5382   */\n      0x20\n        /* \"#utility.yul\":5369:5378   */\n      dup3\n        /* \"#utility.yul\":5365:5383   */\n      add\n        /* \"#utility.yul\":5357:5383   */\n      swap1\n      pop\n        /* \"#utility.yul\":5393:5464   */\n      tag_220\n        /* \"#utility.yul\":5461:5462   */\n      0x00\n        /* \"#utility.yul\":5450:5459   */\n      dup4\n        /* \"#utility.yul\":5446:5463   */\n      add\n        /* \"#utility.yul\":5437:5443   */\n      dup5\n        /* \"#utility.yul\":5393:5464   */\n      tag_139\n      jump\t// in\n    tag_220:\n        /* \"#utility.yul\":5249:5471   */\n      swap3\n      swap2\n      pop\n      pop\n      jump\t// out\n        /* \"#utility.yul\":5477:5599   */\n    tag_149:\n        /* \"#utility.yul\":5550:5574   */\n      tag_222\n        /* \"#utility.yul\":5568:5573   */\n      dup2\n        /* \"#utility.yul\":5550:5574   */\n      tag_130\n      jump\t// in\n    tag_222:\n        /* \"#utility.yul\":5543:5548   */\n      dup2\n        /* \"#utility.yul\":5540:5575   */\n      eq\n        /* \"#utility.yul\":5530:5593   */\n      tag_223\n      jumpi\n        /* \"#utility.yul\":5589:5590   */\n      0x00\n        /* \"#utility.yul\":5586:5587   */\n      0x00\n        /* \"#utility.yul\":5579:5591   */\n      revert\n        /* \"#utility.yul\":5530:5593   */\n    tag_223:\n        /* \"#utility.yul\":5477:5599   */\n      pop\n      jump\t// out\n        /* \"#utility.yul\":5605:5744   */\n    tag_150:\n        /* \"#utility.yul\":5651:5656   */\n      0x00\n        /* \"#utility.yul\":5689:5695   */\n      dup2\n        /* \"#utility.yul\":5676:5696   */\n      calldataload\n        /* \"#utility.yul\":5667:5696   */\n      swap1\n      pop\n        /* \"#utility.yul\":5705:5738   */\n      tag_225\n        /* \"#utility.yul\":5732:5737   */\n      dup2\n        /* \"#utility.yul\":5705:5738   */\n      tag_149\n      jump\t// in\n    tag_225:\n        /* \"#utility.yul\":5605:5744   */\n      swap3\n      swap2\n      pop\n      pop\n      jump\t// out\n        /* \"#utility.yul\":5750:6079   */\n    tag_59:\n        /* \"#utility.yul\":5809:5815   */\n      0x00\n        /* \"#utility.yul\":5858:5860   */\n      0x20\n        /* \"#utility.yul\":5846:5855   */\n      dup3\n        /* \"#utility.yul\":5837:5844   */\n      dup5\n        /* \"#utility.yul\":5833:5856   */\n      sub\n        /* \"#utility.yul\":5829:5861   */\n      slt\n        /* \"#utility.yul\":5826:5945   */\n      iszero\n      tag_227\n      jumpi\n        /* \"#utility.yul\":5864:5943   */\n      tag_228\n      tag_133\n      jump\t// in\n    tag_228:\n        /* \"#utility.yul\":5826:5945   */\n    tag_227:\n        /* \"#utility.yul\":5984:5985   */\n      0x00\n        /* \"#utility.yul\":6009:6062   */\n      tag_229\n        /* \"#utility.yul\":6054:6061   */\n      dup5\n        /* \"#utility.yul\":6045:6051   */\n      dup3\n        /* \"#utility.yul\":6034:6043   */\n      dup6\n        /* \"#utility.yul\":6030:6052   */\n      add\n        /* \"#utility.yul\":6009:6062   */\n      tag_150\n      jump\t// in\n    tag_229:\n        /* \"#utility.yul\":5999:6062   */\n      swap2\n      pop\n        /* \"#utility.yul\":5955:6072   */\n      pop\n        /* \"#utility.yul\":5750:6079   */\n      swap3\n      swap2\n      pop\n      pop\n      jump\t// out\n        /* \"#utility.yul\":6085:6254   */\n    tag_151:\n        /* \"#utility.yul\":6169:6180   */\n      0x00\n        /* \"#utility.yul\":6203:6209   */\n      dup3\n        /* \"#utility.yul\":6198:6201   */\n      dup3\n        /* \"#utility.yul\":6191:6210   */\n      mstore\n        /* \"#utility.yul\":6243:6247   */\n      0x20\n        /* \"#utility.yul\":6238:6241   */\n      dup3\n        /* \"#utility.yul\":6234:6248   */\n      add\n        /* \"#utility.yul\":6219:6248   */\n      swap1\n      pop\n        /* \"#utility.yul\":6085:6254   */\n      swap3\n      swap2\n      pop\n      pop\n      jump\t// out\n        /* \"#utility.yul\":6260:6427   */\n    tag_152:\n        /* \"#utility.yul\":6400:6419   */\n      0x426964206973206e6f7420616374697665000000000000000000000000000000\n        /* \"#utility.yul\":6396:6397   */\n      0x00\n        /* \"#utility.yul\":6388:6394   */\n      dup3\n        /* \"#utility.yul\":6384:6398   */\n      add\n        /* \"#utility.yul\":6377:6420   */\n      mstore\n        /* \"#utility.yul\":6260:6427   */\n      pop\n      jump\t// out\n        /* \"#utility.yul\":6433:6799   */\n    tag_153:\n        /* \"#utility.yul\":6575:6578   */\n      0x00\n        /* \"#utility.yul\":6596:6663   */\n      tag_233\n        /* \"#utility.yul\":6660:6662   */\n      0x11\n        /* \"#utility.yul\":6655:6658   */\n      dup4\n        /* \"#utility.yul\":6596:6663   */\n      tag_151\n      jump\t// in\n    tag_233:\n        /* \"#utility.yul\":6589:6663   */\n      swap2\n      pop\n        /* \"#utility.yul\":6672:6765   */\n      tag_234\n        /* \"#utility.yul\":6761:6764   */\n      dup3\n        /* \"#utility.yul\":6672:6765   */\n      tag_152\n      jump\t// in\n    tag_234:\n        /* \"#utility.yul\":6790:6792   */\n      0x20\n        /* \"#utility.yul\":6785:6788   */\n      dup3\n        /* \"#utility.yul\":6781:6793   */\n      add\n        /* \"#utility.yul\":6774:6793   */\n      swap1\n      pop\n        /* \"#utility.yul\":6433:6799   */\n      swap2\n      swap1\n      pop\n      jump\t// out\n        /* \"#utility.yul\":6805:7224   */\n    tag_67:\n        /* \"#utility.yul\":6971:6975   */\n      0x00\n        /* \"#utility.yul\":7009:7011   */\n      0x20\n        /* \"#utility.yul\":6998:7007   */\n      dup3\n        /* \"#utility.yul\":6994:7012   */\n      add\n        /* \"#utility.yul\":6986:7012   */\n      swap1\n      pop\n        /* \"#utility.yul\":7058:7067   */\n      dup2\n        /* \"#utility.yul\":7052:7056   */\n      dup2\n        /* \"#utility.yul\":7048:7068   */\n      sub\n        /* \"#utility.yul\":7044:7045   */\n      0x00\n        /* \"#utility.yul\":7033:7042   */\n      dup4\n        /* \"#utility.yul\":7029:7046   */\n      add\n        /* \"#utility.yul\":7022:7069   */\n      mstore\n        /* \"#utility.yul\":7086:7217   */\n      tag_236\n        /* \"#utility.yul\":7212:7216   */\n      dup2\n        /* \"#utility.yul\":7086:7217   */\n      tag_153\n      jump\t// in\n    tag_236:\n        /* \"#utility.yul\":7078:7217   */\n      swap1\n      pop\n        /* \"#utility.yul\":6805:7224   */\n      swap2\n      swap1\n      pop\n      jump\t// out\n        /* \"#utility.yul\":7230:7402   */\n    tag_154:\n        /* \"#utility.yul\":7370:7394   */\n      0x596f75206d7573742073656e6420736f6d652045544800000000000000000000\n        /* \"#utility.yul\":7366:7367   */\n      0x00\n        /* \"#utility.yul\":7358:7364   */\n      dup3\n        /* \"#utility.yul\":7354:7368   */\n      add\n        /* \"#utility.yul\":7347:7395   */\n      mstore\n        /* \"#utility.yul\":7230:7402   */\n      pop\n      jump\t// out\n        /* \"#utility.yul\":7408:7774   */\n    tag_155:\n        /* \"#utility.yul\":7550:7553   */\n      0x00\n        /* \"#utility.yul\":7571:7638   */\n      tag_239\n        /* \"#utility.yul\":7635:7637   */\n      0x16\n        /* \"#utility.yul\":7630:7633   */\n      dup4\n        /* \"#utility.yul\":7571:7638   */\n      tag_151\n      jump\t// in\n    tag_239:\n        /* \"#utility.yul\":7564:7638   */\n      swap2\n      pop\n        /* \"#utility.yul\":7647:7740   */\n      tag_240\n        /* \"#utility.yul\":7736:7739   */\n      dup3\n        /* \"#utility.yul\":7647:7740   */\n      tag_154\n      jump\t// in\n    tag_240:\n        /* \"#utility.yul\":7765:7767   */\n      0x20\n        /* \"#utility.yul\":7760:7763   */\n      dup3\n        /* \"#utility.yul\":7756:7768   */\n      add\n        /* \"#utility.yul\":7749:7768   */\n      swap1\n      pop\n        /* \"#utility.yul\":7408:7774   */\n      swap2\n      swap1\n      pop\n      jump\t// out\n        /* \"#utility.yul\":7780:8199   */\n    tag_70:\n        /* \"#utility.yul\":7946:7950   */\n      0x00\n        /* \"#utility.yul\":7984:7986   */\n      0x20\n        /* \"#utility.yul\":7973:7982   */\n      dup3\n        /* \"#utility.yul\":7969:7987   */\n      add\n        /* \"#utility.yul\":7961:7987   */\n      swap1\n      pop\n        /* \"#utility.yul\":8033:8042   */\n      dup2\n        /* \"#utility.yul\":8027:8031   */\n      dup2\n        /* \"#utility.yul\":8023:8043   */\n      sub\n        /* \"#utility.yul\":8019:8020   */\n      0x00\n        /* \"#utility.yul\":8008:8017   */\n      dup4\n        /* \"#utility.yul\":8004:8021   */\n      add\n        /* \"#utility.yul\":7997:8044   */\n      mstore\n        /* \"#utility.yul\":8061:8192   */\n      tag_242\n        /* \"#utility.yul\":8187:8191   */\n      dup2\n        /* \"#utility.yul\":8061:8192   */\n      tag_155\n      jump\t// in\n    tag_242:\n        /* \"#utility.yul\":8053:8192   */\n      swap1\n      pop\n        /* \"#utility.yul\":7780:8199   */\n      swap2\n      swap1\n      pop\n      jump\t// out\n        /* \"#utility.yul\":8205:8385   */\n    tag_156:\n        /* \"#utility.yul\":8253:8330   */\n      0x4e487b7100000000000000000000000000000000000000000000000000000000\n        /* \"#utility.yul\":8250:8251   */\n      0x00\n        /* \"#utility.yul\":8243:8331   */\n      mstore\n        /* \"#utility.yul\":8350:8354   */\n      0x11\n        /* \"#utility.yul\":8347:8348   */\n      0x04\n        /* \"#utility.yul\":8340:8355   */\n      mstore\n        /* \"#utility.yul\":8374:8378   */\n      0x24\n        /* \"#utility.yul\":8371:8372   */\n      0x00\n        /* \"#utility.yul\":8364:8379   */\n      revert\n        /* \"#utility.yul\":8391:8801   */\n    tag_72:\n        /* \"#utility.yul\":8431:8438   */\n      0x00\n        /* \"#utility.yul\":8454:8474   */\n      tag_245\n        /* \"#utility.yul\":8472:8473   */\n      dup3\n        /* \"#utility.yul\":8454:8474   */\n      tag_130\n      jump\t// in\n    tag_245:\n        /* \"#utility.yul\":8449:8474   */\n      swap2\n      pop\n        /* \"#utility.yul\":8488:8508   */\n      tag_246\n        /* \"#utility.yul\":8506:8507   */\n      dup4\n        /* \"#utility.yul\":8488:8508   */\n      tag_130\n      jump\t// in\n    tag_246:\n        /* \"#utility.yul\":8483:8508   */\n      swap3\n      pop\n        /* \"#utility.yul\":8543:8544   */\n      dup3\n        /* \"#utility.yul\":8540:8541   */\n      dup3\n        /* \"#utility.yul\":8536:8545   */\n      mul\n        /* \"#utility.yul\":8565:8595   */\n      tag_247\n        /* \"#utility.yul\":8583:8594   */\n      dup2\n        /* \"#utility.yul\":8565:8595   */\n      tag_130\n      jump\t// in\n    tag_247:\n        /* \"#utility.yul\":8554:8595   */\n      swap2\n      pop\n        /* \"#utility.yul\":8744:8745   */\n      dup3\n        /* \"#utility.yul\":8735:8742   */\n      dup3\n        /* \"#utility.yul\":8731:8746   */\n      div\n        /* \"#utility.yul\":8728:8729   */\n      dup5\n        /* \"#utility.yul\":8725:8747   */\n      eq\n        /* \"#utility.yul\":8705:8706   */\n      dup4\n        /* \"#utility.yul\":8698:8707   */\n      iszero\n        /* \"#utility.yul\":8678:8761   */\n      or\n        /* \"#utility.yul\":8655:8794   */\n      tag_248\n      jumpi\n        /* \"#utility.yul\":8774:8792   */\n      tag_249\n      tag_156\n      jump\t// in\n    tag_249:\n        /* \"#utility.yul\":8655:8794   */\n    tag_248:\n        /* \"#utility.yul\":8439:8801   */\n      pop\n        /* \"#utility.yul\":8391:8801   */\n      swap3\n      swap2\n      pop\n      pop\n      jump\t// out\n        /* \"#utility.yul\":8807:8987   */\n    tag_157:\n        /* \"#utility.yul\":8947:8979   */\n      0x426964206d757374206265206174206c65617374203525206869676865720000\n        /* \"#utility.yul\":8943:8944   */\n      0x00\n        /* \"#utility.yul\":8935:8941   */\n      dup3\n        /* \"#utility.yul\":8931:8945   */\n      add\n        /* \"#utility.yul\":8924:8980   */\n      mstore\n        /* \"#utility.yul\":8807:8987   */\n      pop\n      jump\t// out\n        /* \"#utility.yul\":8993:9359   */\n    tag_158:\n        /* \"#utility.yul\":9135:9138   */\n      0x00\n        /* \"#utility.yul\":9156:9223   */\n      tag_252\n        /* \"#utility.yul\":9220:9222   */\n      0x1e\n        /* \"#utility.yul\":9215:9218   */\n      dup4\n        /* \"#utility.yul\":9156:9223   */\n      tag_151\n      jump\t// in\n    tag_252:\n        /* \"#utility.yul\":9149:9223   */\n      swap2\n      pop\n        /* \"#utility.yul\":9232:9325   */\n      tag_253\n        /* \"#utility.yul\":9321:9324   */\n      dup3\n        /* \"#utility.yul\":9232:9325   */\n      tag_157\n      jump\t// in\n    tag_253:\n        /* \"#utility.yul\":9350:9352   */\n      0x20\n        /* \"#utility.yul\":9345:9348   */\n      dup3\n        /* \"#utility.yul\":9341:9353   */\n      add\n        /* \"#utility.yul\":9334:9353   */\n      swap1\n      pop\n        /* \"#utility.yul\":8993:9359   */\n      swap2\n      swap1\n      pop\n      jump\t// out\n        /* \"#utility.yul\":9365:9784   */\n    tag_76:\n        /* \"#utility.yul\":9531:9535   */\n      0x00\n        /* \"#utility.yul\":9569:9571   */\n      0x20\n        /* \"#utility.yul\":9558:9567   */\n      dup3\n        /* \"#utility.yul\":9554:9572   */\n      add\n        /* \"#utility.yul\":9546:9572   */\n      swap1\n      pop\n        /* \"#utility.yul\":9618:9627   */\n      dup2\n        /* \"#utility.yul\":9612:9616   */\n      dup2\n        /* \"#utility.yul\":9608:9628   */\n      sub\n        /* \"#utility.yul\":9604:9605   */\n      0x00\n        /* \"#utility.yul\":9593:9602   */\n      dup4\n        /* \"#utility.yul\":9589:9606   */\n      add\n        /* \"#utility.yul\":9582:9629   */\n      mstore\n        /* \"#utility.yul\":9646:9777   */\n      tag_255\n        /* \"#utility.yul\":9772:9776   */\n      dup2\n        /* \"#utility.yul\":9646:9777   */\n      tag_158\n      jump\t// in\n    tag_255:\n        /* \"#utility.yul\":9638:9777   */\n      swap1\n      pop\n        /* \"#utility.yul\":9365:9784   */\n      swap2\n      swap1\n      pop\n      jump\t// out\n        /* \"#utility.yul\":9790:9984   */\n    tag_78:\n        /* \"#utility.yul\":9830:9834   */\n      0x00\n        /* \"#utility.yul\":9850:9870   */\n      tag_257\n        /* \"#utility.yul\":9868:9869   */\n      dup3\n        /* \"#utility.yul\":9850:9870   */\n      tag_130\n      jump\t// in\n    tag_257:\n        /* \"#utility.yul\":9845:9870   */\n      swap2\n      pop\n        /* \"#utility.yul\":9884:9904   */\n      tag_258\n        /* \"#utility.yul\":9902:9903   */\n      dup4\n        /* \"#utility.yul\":9884:9904   */\n      tag_130\n      jump\t// in\n    tag_258:\n        /* \"#utility.yul\":9879:9904   */\n      swap3\n      pop\n        /* \"#utility.yul\":9928:9929   */\n      dup3\n        /* \"#utility.yul\":9925:9926   */\n      dup3\n        /* \"#utility.yul\":9921:9930   */\n      sub\n        /* \"#utility.yul\":9913:9930   */\n      swap1\n      pop\n        /* \"#utility.yul\":9952:9953   */\n      dup2\n        /* \"#utility.yul\":9946:9950   */\n      dup2\n        /* \"#utility.yul\":9943:9954   */\n      gt\n        /* \"#utility.yul\":9940:9977   */\n      iszero\n      tag_259\n      jumpi\n        /* \"#utility.yul\":9957:9975   */\n      tag_260\n      tag_156\n      jump\t// in\n    tag_260:\n        /* \"#utility.yul\":9940:9977   */\n    tag_259:\n        /* \"#utility.yul\":9790:9984   */\n      swap3\n      swap2\n      pop\n      pop\n      jump\t// out\n        /* \"#utility.yul\":9990:10181   */\n    tag_81:\n        /* \"#utility.yul\":10030:10033   */\n      0x00\n        /* \"#utility.yul\":10049:10069   */\n      tag_262\n        /* \"#utility.yul\":10067:10068   */\n      dup3\n        /* \"#utility.yul\":10049:10069   */\n      tag_130\n      jump\t// in\n    tag_262:\n        /* \"#utility.yul\":10044:10069   */\n      swap2\n      pop\n        /* \"#utility.yul\":10083:10103   */\n      tag_263\n        /* \"#utility.yul\":10101:10102   */\n      dup4\n        /* \"#utility.yul\":10083:10103   */\n      tag_130\n      jump\t// in\n    tag_263:\n        /* \"#utility.yul\":10078:10103   */\n      swap3\n      pop\n        /* \"#utility.yul\":10126:10127   */\n      dup3\n        /* \"#utility.yul\":10123:10124   */\n      dup3\n        /* \"#utility.yul\":10119:10128   */\n      add\n        /* \"#utility.yul\":10112:10128   */\n      swap1\n      pop\n        /* \"#utility.yul\":10147:10150   */\n      dup1\n        /* \"#utility.yul\":10144:10145   */\n      dup3\n        /* \"#utility.yul\":10141:10151   */\n      gt\n        /* \"#utility.yul\":10138:10174   */\n      iszero\n      tag_264\n      jumpi\n        /* \"#utility.yul\":10154:10172   */\n      tag_265\n      tag_156\n      jump\t// in\n    tag_265:\n        /* \"#utility.yul\":10138:10174   */\n    tag_264:\n        /* \"#utility.yul\":9990:10181   */\n      swap3\n      swap2\n      pop\n      pop\n      jump\t// out\n        /* \"#utility.yul\":10187:10412   */\n    tag_159:\n        /* \"#utility.yul\":10327:10361   */\n      0x4f6e6c7920746865206f776e65722063616e2063616c6c20746869732066756e\n        /* \"#utility.yul\":10323:10324   */\n      0x00\n        /* \"#utility.yul\":10315:10321   */\n      dup3\n        /* \"#utility.yul\":10311:10325   */\n      add\n        /* \"#utility.yul\":10304:10362   */\n      mstore\n        /* \"#utility.yul\":10396:10404   */\n      0x6374696f6e2e0000000000000000000000000000000000000000000000000000\n        /* \"#utility.yul\":10391:10393   */\n      0x20\n        /* \"#utility.yul\":10383:10389   */\n      dup3\n        /* \"#utility.yul\":10379:10394   */\n      add\n        /* \"#utility.yul\":10372:10405   */\n      mstore\n        /* \"#utility.yul\":10187:10412   */\n      pop\n      jump\t// out\n        /* \"#utility.yul\":10418:10784   */\n    tag_160:\n        /* \"#utility.yul\":10560:10563   */\n      0x00\n        /* \"#utility.yul\":10581:10648   */\n      tag_268\n        /* \"#utility.yul\":10645:10647   */\n      0x26\n        /* \"#utility.yul\":10640:10643   */\n      dup4\n        /* \"#utility.yul\":10581:10648   */\n      tag_151\n      jump\t// in\n    tag_268:\n        /* \"#utility.yul\":10574:10648   */\n      swap2\n      pop\n        /* \"#utility.yul\":10657:10750   */\n      tag_269\n        /* \"#utility.yul\":10746:10749   */\n      dup3\n        /* \"#utility.yul\":10657:10750   */\n      tag_159\n      jump\t// in\n    tag_269:\n        /* \"#utility.yul\":10775:10777   */\n      0x40\n        /* \"#utility.yul\":10770:10773   */\n      dup3\n        /* \"#utility.yul\":10766:10778   */\n      add\n        /* \"#utility.yul\":10759:10778   */\n      swap1\n      pop\n        /* \"#utility.yul\":10418:10784   */\n      swap2\n      swap1\n      pop\n      jump\t// out\n        /* \"#utility.yul\":10790:11209   */\n    tag_88:\n        /* \"#utility.yul\":10956:10960   */\n      0x00\n        /* \"#utility.yul\":10994:10996   */\n      0x20\n        /* \"#utility.yul\":10983:10992   */\n      dup3\n        /* \"#utility.yul\":10979:10997   */\n      add\n        /* \"#utility.yul\":10971:10997   */\n      swap1\n      pop\n        /* \"#utility.yul\":11043:11052   */\n      dup2\n        /* \"#utility.yul\":11037:11041   */\n      dup2\n        /* \"#utility.yul\":11033:11053   */\n      sub\n        /* \"#utility.yul\":11029:11030   */\n      0x00\n        /* \"#utility.yul\":11018:11027   */\n      dup4\n        /* \"#utility.yul\":11014:11031   */\n      add\n        /* \"#utility.yul\":11007:11054   */\n      mstore\n        /* \"#utility.yul\":11071:11202   */\n      tag_271\n        /* \"#utility.yul\":11197:11201   */\n      dup2\n        /* \"#utility.yul\":11071:11202   */\n      tag_160\n      jump\t// in\n    tag_271:\n        /* \"#utility.yul\":11063:11202   */\n      swap1\n      pop\n        /* \"#utility.yul\":10790:11209   */\n      swap2\n      swap1\n      pop\n      jump\t// out\n        /* \"#utility.yul\":11215:11392   */\n    tag_161:\n        /* \"#utility.yul\":11355:11384   */\n      0x5468652061756374696f6e206973206e6f74206f766572207965740000000000\n        /* \"#utility.yul\":11351:11352   */\n      0x00\n        /* \"#utility.yul\":11343:11349   */\n      dup3\n        /* \"#utility.yul\":11339:11353   */\n      add\n        /* \"#utility.yul\":11332:11385   */\n      mstore\n        /* \"#utility.yul\":11215:11392   */\n      pop\n      jump\t// out\n        /* \"#utility.yul\":11398:11764   */\n    tag_162:\n        /* \"#utility.yul\":11540:11543   */\n      0x00\n        /* \"#utility.yul\":11561:11628   */\n      tag_274\n        /* \"#utility.yul\":11625:11627   */\n      0x1b\n        /* \"#utility.yul\":11620:11623   */\n      dup4\n        /* \"#utility.yul\":11561:11628   */\n      tag_151\n      jump\t// in\n    tag_274:\n        /* \"#utility.yul\":11554:11628   */\n      swap2\n      pop\n        /* \"#utility.yul\":11637:11730   */\n      tag_275\n        /* \"#utility.yul\":11726:11729   */\n      dup3\n        /* \"#utility.yul\":11637:11730   */\n      tag_161\n      jump\t// in\n    tag_275:\n        /* \"#utility.yul\":11755:11757   */\n      0x20\n        /* \"#utility.yul\":11750:11753   */\n      dup3\n        /* \"#utility.yul\":11746:11758   */\n      add\n        /* \"#utility.yul\":11739:11758   */\n      swap1\n      pop\n        /* \"#utility.yul\":11398:11764   */\n      swap2\n      swap1\n      pop\n      jump\t// out\n        /* \"#utility.yul\":11770:12189   */\n    tag_92:\n        /* \"#utility.yul\":11936:11940   */\n      0x00\n        /* \"#utility.yul\":11974:11976   */\n      0x20\n        /* \"#utility.yul\":11963:11972   */\n      dup3\n        /* \"#utility.yul\":11959:11977   */\n      add\n        /* \"#utility.yul\":11951:11977   */\n      swap1\n      pop\n        /* \"#utility.yul\":12023:12032   */\n      dup2\n        /* \"#utility.yul\":12017:12021   */\n      dup2\n        /* \"#utility.yul\":12013:12033   */\n      sub\n        /* \"#utility.yul\":12009:12010   */\n      0x00\n        /* \"#utility.yul\":11998:12007   */\n      dup4\n        /* \"#utility.yul\":11994:12011   */\n      add\n        /* \"#utility.yul\":11987:12034   */\n      mstore\n        /* \"#utility.yul\":12051:12182   */\n      tag_277\n        /* \"#utility.yul\":12177:12181   */\n      dup2\n        /* \"#utility.yul\":12051:12182   */\n      tag_162\n      jump\t// in\n    tag_277:\n        /* \"#utility.yul\":12043:12182   */\n      swap1\n      pop\n        /* \"#utility.yul\":11770:12189   */\n      swap2\n      swap1\n      pop\n      jump\t// out\n        /* \"#utility.yul\":12195:12375   */\n    tag_99:\n        /* \"#utility.yul\":12243:12320   */\n      0x4e487b7100000000000000000000000000000000000000000000000000000000\n        /* \"#utility.yul\":12240:12241   */\n      0x00\n        /* \"#utility.yul\":12233:12321   */\n      mstore\n        /* \"#utility.yul\":12340:12344   */\n      0x32\n        /* \"#utility.yul\":12337:12338   */\n      0x04\n        /* \"#utility.yul\":12330:12345   */\n      mstore\n        /* \"#utility.yul\":12364:12368   */\n      0x24\n        /* \"#utility.yul\":12361:12362   */\n      0x00\n        /* \"#utility.yul\":12354:12369   */\n      revert\n        /* \"#utility.yul\":12381:12561   */\n    tag_163:\n        /* \"#utility.yul\":12429:12506   */\n      0x4e487b7100000000000000000000000000000000000000000000000000000000\n        /* \"#utility.yul\":12426:12427   */\n      0x00\n        /* \"#utility.yul\":12419:12507   */\n      mstore\n        /* \"#utility.yul\":12526:12530   */\n      0x12\n        /* \"#utility.yul\":12523:12524   */\n      0x04\n        /* \"#utility.yul\":12516:12531   */\n      mstore\n        /* \"#utility.yul\":12550:12554   */\n      0x24\n        /* \"#utility.yul\":12547:12548   */\n      0x00\n        /* \"#utility.yul\":12540:12555   */\n      revert\n        /* \"#utility.yul\":12567:12752   */\n    tag_107:\n        /* \"#utility.yul\":12607:12608   */\n      0x00\n        /* \"#utility.yul\":12624:12644   */\n      tag_281\n        /* \"#utility.yul\":12642:12643   */\n      dup3\n        /* \"#utility.yul\":12624:12644   */\n      tag_130\n      jump\t// in\n    tag_281:\n        /* \"#utility.yul\":12619:12644   */\n      swap2\n      pop\n        /* \"#utility.yul\":12658:12678   */\n      tag_282\n        /* \"#utility.yul\":12676:12677   */\n      dup4\n        /* \"#utility.yul\":12658:12678   */\n      tag_130\n      jump\t// in\n    tag_282:\n        /* \"#utility.yul\":12653:12678   */\n      swap3\n      pop\n        /* \"#utility.yul\":12697:12698   */\n      dup3\n        /* \"#utility.yul\":12687:12722   */\n      tag_283\n      jumpi\n        /* \"#utility.yul\":12702:12720   */\n      tag_284\n      tag_163\n      jump\t// in\n    tag_284:\n        /* \"#utility.yul\":12687:12722   */\n    tag_283:\n        /* \"#utility.yul\":12744:12745   */\n      dup3\n        /* \"#utility.yul\":12741:12742   */\n      dup3\n        /* \"#utility.yul\":12737:12746   */\n      div\n        /* \"#utility.yul\":12732:12746   */\n      swap1\n      pop\n        /* \"#utility.yul\":12567:12752   */\n      swap3\n      swap2\n      pop\n      pop\n      jump\t// out\n        /* \"#utility.yul\":12758:12905   */\n    tag_164:\n        /* \"#utility.yul\":12859:12870   */\n      0x00\n        /* \"#utility.yul\":12896:12899   */\n      dup2\n        /* \"#utility.yul\":12881:12899   */\n      swap1\n      pop\n        /* \"#utility.yul\":12758:12905   */\n      swap3\n      swap2\n      pop\n      pop\n      jump\t// out\n        /* \"#utility.yul\":12911:13025   */\n    tag_165:\n      pop\n      jump\t// out\n        /* \"#utility.yul\":13031:13429   */\n    tag_166:\n        /* \"#utility.yul\":13190:13193   */\n      0x00\n        /* \"#utility.yul\":13211:13294   */\n      tag_288\n        /* \"#utility.yul\":13292:13293   */\n      0x00\n        /* \"#utility.yul\":13287:13290   */\n      dup4\n        /* \"#utility.yul\":13211:13294   */\n      tag_164\n      jump\t// in\n    tag_288:\n        /* \"#utility.yul\":13204:13294   */\n      swap2\n      pop\n        /* \"#utility.yul\":13303:13396   */\n      tag_289\n        /* \"#utility.yul\":13392:13395   */\n      dup3\n        /* \"#utility.yul\":13303:13396   */\n      tag_165\n      jump\t// in\n    tag_289:\n        /* \"#utility.yul\":13421:13422   */\n      0x00\n        /* \"#utility.yul\":13416:13419   */\n      dup3\n        /* \"#utility.yul\":13412:13423   */\n      add\n        /* \"#utility.yul\":13405:13423   */\n      swap1\n      pop\n        /* \"#utility.yul\":13031:13429   */\n      swap2\n      swap1\n      pop\n      jump\t// out\n        /* \"#utility.yul\":13435:13814   */\n    tag_112:\n        /* \"#utility.yul\":13619:13622   */\n      0x00\n        /* \"#utility.yul\":13641:13788   */\n      tag_291\n        /* \"#utility.yul\":13784:13787   */\n      dup3\n        /* \"#utility.yul\":13641:13788   */\n      tag_166\n      jump\t// in\n    tag_291:\n        /* \"#utility.yul\":13634:13788   */\n      swap2\n      pop\n        /* \"#utility.yul\":13805:13808   */\n      dup2\n        /* \"#utility.yul\":13798:13808   */\n      swap1\n      pop\n        /* \"#utility.yul\":13435:13814   */\n      swap2\n      swap1\n      pop\n      jump\t// out\n        /* \"#utility.yul\":13820:13983   */\n    tag_167:\n        /* \"#utility.yul\":13960:13975   */\n      0x526566756e64206661696c656400000000000000000000000000000000000000\n        /* \"#utility.yul\":13956:13957   */\n      0x00\n        /* \"#utility.yul\":13948:13954   */\n      dup3\n        /* \"#utility.yul\":13944:13958   */\n      add\n        /* \"#utility.yul\":13937:13976   */\n      mstore\n        /* \"#utility.yul\":13820:13983   */\n      pop\n      jump\t// out\n        /* \"#utility.yul\":13989:14355   */\n    tag_168:\n        /* \"#utility.yul\":14131:14134   */\n      0x00\n        /* \"#utility.yul\":14152:14219   */\n      tag_294\n        /* \"#utility.yul\":14216:14218   */\n      0x0d\n        /* \"#utility.yul\":14211:14214   */\n      dup4\n        /* \"#utility.yul\":14152:14219   */\n      tag_151\n      jump\t// in\n    tag_294:\n        /* \"#utility.yul\":14145:14219   */\n      swap2\n      pop\n        /* \"#utility.yul\":14228:14321   */\n      tag_295\n        /* \"#utility.yul\":14317:14320   */\n      dup3\n        /* \"#utility.yul\":14228:14321   */\n      tag_167\n      jump\t// in\n    tag_295:\n        /* \"#utility.yul\":14346:14348   */\n      0x20\n        /* \"#utility.yul\":14341:14344   */\n      dup3\n        /* \"#utility.yul\":14337:14349   */\n      add\n        /* \"#utility.yul\":14330:14349   */\n      swap1\n      pop\n        /* \"#utility.yul\":13989:14355   */\n      swap2\n      swap1\n      pop\n      jump\t// out\n        /* \"#utility.yul\":14361:14780   */\n    tag_118:\n        /* \"#utility.yul\":14527:14531   */\n      0x00\n        /* \"#utility.yul\":14565:14567   */\n      0x20\n        /* \"#utility.yul\":14554:14563   */\n      dup3\n        /* \"#utility.yul\":14550:14568   */\n      add\n        /* \"#utility.yul\":14542:14568   */\n      swap1\n      pop\n        /* \"#utility.yul\":14614:14623   */\n      dup2\n        /* \"#utility.yul\":14608:14612   */\n      dup2\n        /* \"#utility.yul\":14604:14624   */\n      sub\n        /* \"#utility.yul\":14600:14601   */\n      0x00\n        /* \"#utility.yul\":14589:14598   */\n      dup4\n        /* \"#utility.yul\":14585:14602   */\n      add\n        /* \"#utility.yul\":14578:14625   */\n      mstore\n        /* \"#utility.yul\":14642:14773   */\n      tag_297\n        /* \"#utility.yul\":14768:14772   */\n      dup2\n        /* \"#utility.yul\":14642:14773   */\n      tag_168\n      jump\t// in\n    tag_297:\n        /* \"#utility.yul\":14634:14773   */\n      swap1\n      pop\n        /* \"#utility.yul\":14361:14780   */\n      swap2\n      swap1\n      pop\n      jump\t// out\n\n    auxdata: 0xa26469706673582212206039cff6c8bcd65cbfdb4be03daa11f064ed25533435918fec3cc202c462484b64736f6c634300081e0033\n}\n",
				"bytecode": {
					"linkReferences": {},
					"object": "6080604052348015600e575f5ffd5b504260028190555062093a806002546025919060a5565b6003819055503360045f6101000a81548173ffffffffffffffffffffffffffffffffffffffff021916908373ffffffffffffffffffffffffffffffffffffffff16021790555060d1565b5f819050919050565b7f4e487b71000000000000000000000000000000000000000000000000000000005f52601160045260245ffd5b5f60ad82606f565b915060b683606f565b925082820190508082111560cb5760ca6078565b5b92915050565b6110f3806100de5f395ff3fe60806040526004361061009b575f3560e01c8063534823bf11610063578063534823bf1461014457806378e979251461016e57806391f9015714610198578063d46dd5bb146101c2578063d57bde79146101ed578063ecde973d146102175761009b565b806303ff5e731461009f57806304d42901146100c95780631998aeef1461010557806338e771ab1461010f57806341b0cfa814610119575b5f5ffd5b3480156100aa575f5ffd5b506100b3610254565b6040516100c09190610a1f565b60405180910390f35b3480156100d4575f5ffd5b506100ef60048036038101906100ea9190610a96565b61025a565b6040516100fc9190610a1f565b60405180910390f35b61010d6102a0565b005b61011761054e565b005b348015610124575f5ffd5b5061012d61082e565b60405161013b929190610ad0565b60405180910390f35b34801561014f575f5ffd5b506101586108a1565b6040516101659190610bea565b60405180910390f35b348015610179575f5ffd5b5061018261095b565b60405161018f9190610a1f565b60405180910390f35b3480156101a3575f5ffd5b506101ac610961565b6040516101b99190610c0a565b60405180910390f35b3480156101cd575f5ffd5b506101d6610986565b6040516101e4929190610ad0565b60405180910390f35b3480156101f8575f5ffd5b506102016109b4565b60405161020e9190610a1f565b60405180910390f35b348015610222575f5ffd5b5061023d60048036038101906102389190610c4d565b6109b9565b60405161024b929190610ad0565b60405180910390f35b60035481565b5f60055f8373ffffffffffffffffffffffffffffffffffffffff1673ffffffffffffffffffffffffffffffffffffffff1681526020019081526020015f20549050919050565b60025442101580156102b457506003544211155b6102f3576040517f08c379a00000000000000000000000000000000000000000000000000000000081526004016102ea90610cd2565b60405180910390fd5b5f3411610335576040517f08c379a000000000000000000000000000000000000000000000000000000000815260040161032c90610d3a565b60405180910390fd5b60695f546103439190610d85565b6064346103509190610d85565b1015610391576040517f08c379a000000000000000000000000000000000000000000000000000000000815260040161038890610e10565b60405180910390fd5b610258426003546103a29190610e2e565b116103c25761025860035f8282546103ba9190610e61565b925050819055505b3373ffffffffffffffffffffffffffffffffffffffff167fdd0b6c6a77960e2066c96171b4d7ac9e8b4c184011f38544afa36a5bb63ec59f346040516104089190610a1f565b60405180910390a23460055f3373ffffffffffffffffffffffffffffffffffffffff1673ffffffffffffffffffffffffffffffffffffffff1681526020019081526020015f205f82825461045c9190610e61565b92505081905550345f819055503360015f6101000a81548173ffffffffffffffffffffffffffffffffffffffff021916908373ffffffffffffffffffffffffffffffffffffffff160217905550600660405180604001604052803373ffffffffffffffffffffffffffffffffffffffff16815260200134815250908060018154018082558091505060019003905f5260205f2090600202015f909190919091505f820151815f015f6101000a81548173ffffffffffffffffffffffffffffffffffffffff021916908373ffffffffffffffffffffffffffffffffffffffff160217905550602082015181600101555050565b60045f9054906101000a900473ffffffffffffffffffffffffffffffffffffffff1673ffffffffffffffffffffffffffffffffffffffff163373ffffffffffffffffffffffffffffffffffffffff16146105dd576040517f08c379a00000000000000000000000000000000000000000000000000000000081526004016105d490610f04565b60405180910390fd5b600354421015610622576040517f08c379a000000000000000000000000000000000000000000000000000000000815260040161061990610f6c565b60405180910390fd5b5f5f90505b6006805490508110156107ff5760015f9054906101000a900473ffffffffffffffffffffffffffffffffffffffff1673ffffffffffffffffffffffffffffffffffffffff16600682815481106106805761067f610f8a565b5b905f5260205f2090600202015f015f9054906101000a900473ffffffffffffffffffffffffffffffffffffffff1673ffffffffffffffffffffffffffffffffffffffff16146107f4575f60646062600684815481106106e2576106e1610f8a565b5b905f5260205f209060020201600101546106fc9190610d85565b6107069190610fe4565b90505f6006838154811061071d5761071c610f8a565b5b905f5260205f2090600202015f015f9054906101000a900473ffffffffffffffffffffffffffffffffffffffff1673ffffffffffffffffffffffffffffffffffffffff168260405161076e90611041565b5f6040518083038185875af1925050503d805f81146107a8576040519150601f19603f3d011682016040523d82523d5f602084013e6107ad565b606091505b50509050806107f1576040517f08c379a00000000000000000000000000000000000000000000000000000000081526004016107e89061109f565b60405180910390fd5b50505b806001019050610627565b507fa0e92984607195c326795751263414ee1074526323552e694c90ef2b99ae3f2960405160405180910390a1565b5f5f600354421015610875576040517f08c379a000000000000000000000000000000000000000000000000000000000815260040161086c90610f6c565b60405180910390fd5b60015f9054906101000a900473ffffffffffffffffffffffffffffffffffffffff165f54915091509091565b60606006805480602002602001604051908101604052809291908181526020015f905b82821015610952578382905f5260205f2090600202016040518060400160405290815f82015f9054906101000a900473ffffffffffffffffffffffffffffffffffffffff1673ffffffffffffffffffffffffffffffffffffffff1673ffffffffffffffffffffffffffffffffffffffff168152602001600182015481525050815260200190600101906108c4565b50505050905090565b60025481565b60015f9054906101000a900473ffffffffffffffffffffffffffffffffffffffff1681565b5f5f60015f9054906101000a900473ffffffffffffffffffffffffffffffffffffffff165f54915091509091565b5f5481565b600681815481106109c8575f80fd5b905f5260205f2090600202015f91509050805f015f9054906101000a900473ffffffffffffffffffffffffffffffffffffffff16908060010154905082565b5f819050919050565b610a1981610a07565b82525050565b5f602082019050610a325f830184610a10565b92915050565b5f5ffd5b5f73ffffffffffffffffffffffffffffffffffffffff82169050919050565b5f610a6582610a3c565b9050919050565b610a7581610a5b565b8114610a7f575f5ffd5b50565b5f81359050610a9081610a6c565b92915050565b5f60208284031215610aab57610aaa610a38565b5b5f610ab884828501610a82565b91505092915050565b610aca81610a5b565b82525050565b5f604082019050610ae35f830185610ac1565b610af06020830184610a10565b9392505050565b5f81519050919050565b5f82825260208201905092915050565b5f819050602082019050919050565b610b2981610a5b565b82525050565b610b3881610a07565b82525050565b604082015f820151610b525f850182610b20565b506020820151610b656020850182610b2f565b50505050565b5f610b768383610b3e565b60408301905092915050565b5f602082019050919050565b5f610b9882610af7565b610ba28185610b01565b9350610bad83610b11565b805f5b83811015610bdd578151610bc48882610b6b565b9750610bcf83610b82565b925050600181019050610bb0565b5085935050505092915050565b5f6020820190508181035f830152610c028184610b8e565b905092915050565b5f602082019050610c1d5f830184610ac1565b92915050565b610c2c81610a07565b8114610c36575f5ffd5b50565b5f81359050610c4781610c23565b92915050565b5f60208284031215610c6257610c61610a38565b5b5f610c6f84828501610c39565b91505092915050565b5f82825260208201905092915050565b7f426964206973206e6f74206163746976650000000000000000000000000000005f82015250565b5f610cbc601183610c78565b9150610cc782610c88565b602082019050919050565b5f6020820190508181035f830152610ce981610cb0565b9050919050565b7f596f75206d7573742073656e6420736f6d6520455448000000000000000000005f82015250565b5f610d24601683610c78565b9150610d2f82610cf0565b602082019050919050565b5f6020820190508181035f830152610d5181610d18565b9050919050565b7f4e487b71000000000000000000000000000000000000000000000000000000005f52601160045260245ffd5b5f610d8f82610a07565b9150610d9a83610a07565b9250828202610da881610a07565b91508282048414831517610dbf57610dbe610d58565b5b5092915050565b7f426964206d757374206265206174206c656173742035252068696768657200005f82015250565b5f610dfa601e83610c78565b9150610e0582610dc6565b602082019050919050565b5f6020820190508181035f830152610e2781610dee565b9050919050565b5f610e3882610a07565b9150610e4383610a07565b9250828203905081811115610e5b57610e5a610d58565b5b92915050565b5f610e6b82610a07565b9150610e7683610a07565b9250828201905080821115610e8e57610e8d610d58565b5b92915050565b7f4f6e6c7920746865206f776e65722063616e2063616c6c20746869732066756e5f8201527f6374696f6e2e0000000000000000000000000000000000000000000000000000602082015250565b5f610eee602683610c78565b9150610ef982610e94565b604082019050919050565b5f6020820190508181035f830152610f1b81610ee2565b9050919050565b7f5468652061756374696f6e206973206e6f74206f7665722079657400000000005f82015250565b5f610f56601b83610c78565b9150610f6182610f22565b602082019050919050565b5f6020820190508181035f830152610f8381610f4a565b9050919050565b7f4e487b71000000000000000000000000000000000000000000000000000000005f52603260045260245ffd5b7f4e487b71000000000000000000000000000000000000000000000000000000005f52601260045260245ffd5b5f610fee82610a07565b9150610ff983610a07565b92508261100957611008610fb7565b5b828204905092915050565b5f81905092915050565b50565b5f61102c5f83611014565b91506110378261101e565b5f82019050919050565b5f61104b82611021565b9150819050919050565b7f526566756e64206661696c6564000000000000000000000000000000000000005f82015250565b5f611089600d83610c78565b915061109482611055565b602082019050919050565b5f6020820190508181035f8301526110b68161107d565b905091905056fea26469706673582212206039cff6c8bcd65cbfdb4be03daa11f064ed25533435918fec3cc202c462484b64736f6c634300081e0033",
					"opcodes": "PUSH1 0x80 PUSH1 0x40 MSTORE CALLVALUE DUP1 ISZERO PUSH1 0xE JUMPI PUSH0 PUSH0 REVERT JUMPDEST POP TIMESTAMP PUSH1 0x2 DUP2 SWAP1 SSTORE POP PUSH3 0x93A80 PUSH1 0x2 SLOAD PUSH1 0x25 SWAP2 SWAP1 PUSH1 0xA5 JUMP JUMPDEST PUSH1 0x3 DUP2 SWAP1 SSTORE POP CALLER PUSH1 0x4 PUSH0 PUSH2 0x100 EXP DUP2 SLOAD DUP2 PUSH20 0xFFFFFFFFFFFFFFFFFFFFFFFFFFFFFFFFFFFFFFFF MUL NOT AND SWAP1 DUP4 PUSH20 0xFFFFFFFFFFFFFFFFFFFFFFFFFFFFFFFFFFFFFFFF AND MUL OR SWAP1 SSTORE POP PUSH1 0xD1 JUMP JUMPDEST PUSH0 DUP2 SWAP1 POP SWAP2 SWAP1 POP JUMP JUMPDEST PUSH32 0x4E487B7100000000000000000000000000000000000000000000000000000000 PUSH0 MSTORE PUSH1 0x11 PUSH1 0x4 MSTORE PUSH1 0x24 PUSH0 REVERT JUMPDEST PUSH0 PUSH1 0xAD DUP3 PUSH1 0x6F JUMP JUMPDEST SWAP2 POP PUSH1 0xB6 DUP4 PUSH1 0x6F JUMP JUMPDEST SWAP3 POP DUP3 DUP3 ADD SWAP1 POP DUP1 DUP3 GT ISZERO PUSH1 0xCB JUMPI PUSH1 0xCA PUSH1 0x78 JUMP JUMPDEST JUMPDEST SWAP3 SWAP2 POP POP JUMP JUMPDEST PUSH2 0x10F3 DUP1 PUSH2 0xDE PUSH0 CODECOPY PUSH0 RETURN INVALID PUSH1 0x80 PUSH1 0x40 MSTORE PUSH1 0x4 CALLDATASIZE LT PUSH2 0x9B JUMPI PUSH0 CALLDATALOAD PUSH1 0xE0 SHR DUP1 PUSH4 0x534823BF GT PUSH2 0x63 JUMPI DUP1 PUSH4 0x534823BF EQ PUSH2 0x144 JUMPI DUP1 PUSH4 0x78E97925 EQ PUSH2 0x16E JUMPI DUP1 PUSH4 0x91F90157 EQ PUSH2 0x198 JUMPI DUP1 PUSH4 0xD46DD5BB EQ PUSH2 0x1C2 JUMPI DUP1 PUSH4 0xD57BDE79 EQ PUSH2 0x1ED JUMPI DUP1 PUSH4 0xECDE973D EQ PUSH2 0x217 JUMPI PUSH2 0x9B JUMP JUMPDEST DUP1 PUSH4 0x3FF5E73 EQ PUSH2 0x9F JUMPI DUP1 PUSH4 0x4D42901 EQ PUSH2 0xC9 JUMPI DUP1 PUSH4 0x1998AEEF EQ PUSH2 0x105 JUMPI DUP1 PUSH4 0x38E771AB EQ PUSH2 0x10F JUMPI DUP1 PUSH4 0x41B0CFA8 EQ PUSH2 0x119 JUMPI JUMPDEST PUSH0 PUSH0 REVERT JUMPDEST CALLVALUE DUP1 ISZERO PUSH2 0xAA JUMPI PUSH0 PUSH0 REVERT JUMPDEST POP PUSH2 0xB3 PUSH2 0x254 JUMP JUMPDEST PUSH1 0x40 MLOAD PUSH2 0xC0 SWAP2 SWAP1 PUSH2 0xA1F JUMP JUMPDEST PUSH1 0x40 MLOAD DUP1 SWAP2 SUB SWAP1 RETURN JUMPDEST CALLVALUE DUP1 ISZERO PUSH2 0xD4 JUMPI PUSH0 PUSH0 REVERT JUMPDEST POP PUSH2 0xEF PUSH1 0x4 DUP1 CALLDATASIZE SUB DUP2 ADD SWAP1 PUSH2 0xEA SWAP2 SWAP1 PUSH2 0xA96 JUMP JUMPDEST PUSH2 0x25A JUMP JUMPDEST PUSH1 0x40 MLOAD PUSH2 0xFC SWAP2 SWAP1 PUSH2 0xA1F JUMP JUMPDEST PUSH1 0x40 MLOAD DUP1 SWAP2 SUB SWAP1 RETURN JUMPDEST PUSH2 0x10D PUSH2 0x2A0 JUMP JUMPDEST STOP JUMPDEST PUSH2 0x117 PUSH2 0x54E JUMP JUMPDEST STOP JUMPDEST CALLVALUE DUP1 ISZERO PUSH2 0x124 JUMPI PUSH0 PUSH0 REVERT JUMPDEST POP PUSH2 0x12D PUSH2 0x82E JUMP JUMPDEST PUSH1 0x40 MLOAD PUSH2 0x13B SWAP3 SWAP2 SWAP1 PUSH2 0xAD0 JUMP JUMPDEST PUSH1 0x40 MLOAD DUP1 SWAP2 SUB SWAP1 RETURN JUMPDEST CALLVALUE DUP1 ISZERO PUSH2 0x14F JUMPI PUSH0 PUSH0 REVERT JUMPDEST POP PUSH2 0x158 PUSH2 0x8A1 JUMP JUMPDEST PUSH1 0x40 MLOAD PUSH2 0x165 SWAP2 SWAP1 PUSH2 0xBEA JUMP JUMPDEST PUSH1 0x40 MLOAD DUP1 SWAP2 SUB SWAP1 RETURN JUMPDEST CALLVALUE DUP1 ISZERO PUSH2 0x179 JUMPI PUSH0 PUSH0 REVERT JUMPDEST POP PUSH2 0x182 PUSH2 0x95B JUMP JUMPDEST PUSH1 0x40 MLOAD PUSH2 0x18F SWAP2 SWAP1 PUSH2 0xA1F JUMP JUMPDEST PUSH1 0x40 MLOAD DUP1 SWAP2 SUB SWAP1 RETURN JUMPDEST CALLVALUE DUP1 ISZERO PUSH2 0x1A3 JUMPI PUSH0 PUSH0 REVERT JUMPDEST POP PUSH2 0x1AC PUSH2 0x961 JUMP JUMPDEST PUSH1 0x40 MLOAD PUSH2 0x1B9 SWAP2 SWAP1 PUSH2 0xC0A JUMP JUMPDEST PUSH1 0x40 MLOAD DUP1 SWAP2 SUB SWAP1 RETURN JUMPDEST CALLVALUE DUP1 ISZERO PUSH2 0x1CD JUMPI PUSH0 PUSH0 REVERT JUMPDEST POP PUSH2 0x1D6 PUSH2 0x986 JUMP JUMPDEST PUSH1 0x40 MLOAD PUSH2 0x1E4 SWAP3 SWAP2 SWAP1 PUSH2 0xAD0 JUMP JUMPDEST PUSH1 0x40 MLOAD DUP1 SWAP2 SUB SWAP1 RETURN JUMPDEST CALLVALUE DUP1 ISZERO PUSH2 0x1F8 JUMPI PUSH0 PUSH0 REVERT JUMPDEST POP PUSH2 0x201 PUSH2 0x9B4 JUMP JUMPDEST PUSH1 0x40 MLOAD PUSH2 0x20E SWAP2 SWAP1 PUSH2 0xA1F JUMP JUMPDEST PUSH1 0x40 MLOAD DUP1 SWAP2 SUB SWAP1 RETURN JUMPDEST CALLVALUE DUP1 ISZERO PUSH2 0x222 JUMPI PUSH0 PUSH0 REVERT JUMPDEST POP PUSH2 0x23D PUSH1 0x4 DUP1 CALLDATASIZE SUB DUP2 ADD SWAP1 PUSH2 0x238 SWAP2 SWAP1 PUSH2 0xC4D JUMP JUMPDEST PUSH2 0x9B9 JUMP JUMPDEST PUSH1 0x40 MLOAD PUSH2 0x24B SWAP3 SWAP2 SWAP1 PUSH2 0xAD0 JUMP JUMPDEST PUSH1 0x40 MLOAD DUP1 SWAP2 SUB SWAP1 RETURN JUMPDEST PUSH1 0x3 SLOAD DUP2 JUMP JUMPDEST PUSH0 PUSH1 0x5 PUSH0 DUP4 PUSH20 0xFFFFFFFFFFFFFFFFFFFFFFFFFFFFFFFFFFFFFFFF AND PUSH20 0xFFFFFFFFFFFFFFFFFFFFFFFFFFFFFFFFFFFFFFFF AND DUP2 MSTORE PUSH1 0x20 ADD SWAP1 DUP2 MSTORE PUSH1 0x20 ADD PUSH0 KECCAK256 SLOAD SWAP1 POP SWAP2 SWAP1 POP JUMP JUMPDEST PUSH1 0x2 SLOAD TIMESTAMP LT ISZERO DUP1 ISZERO PUSH2 0x2B4 JUMPI POP PUSH1 0x3 SLOAD TIMESTAMP GT ISZERO JUMPDEST PUSH2 0x2F3 JUMPI PUSH1 0x40 MLOAD PUSH32 0x8C379A000000000000000000000000000000000000000000000000000000000 DUP2 MSTORE PUSH1 0x4 ADD PUSH2 0x2EA SWAP1 PUSH2 0xCD2 JUMP JUMPDEST PUSH1 0x40 MLOAD DUP1 SWAP2 SUB SWAP1 REVERT JUMPDEST PUSH0 CALLVALUE GT PUSH2 0x335 JUMPI PUSH1 0x40 MLOAD PUSH32 0x8C379A000000000000000000000000000000000000000000000000000000000 DUP2 MSTORE PUSH1 0x4 ADD PUSH2 0x32C SWAP1 PUSH2 0xD3A JUMP JUMPDEST PUSH1 0x40 MLOAD DUP1 SWAP2 SUB SWAP1 REVERT JUMPDEST PUSH1 0x69 PUSH0 SLOAD PUSH2 0x343 SWAP2 SWAP1 PUSH2 0xD85 JUMP JUMPDEST PUSH1 0x64 CALLVALUE PUSH2 0x350 SWAP2 SWAP1 PUSH2 0xD85 JUMP JUMPDEST LT ISZERO PUSH2 0x391 JUMPI PUSH1 0x40 MLOAD PUSH32 0x8C379A000000000000000000000000000000000000000000000000000000000 DUP2 MSTORE PUSH1 0x4 ADD PUSH2 0x388 SWAP1 PUSH2 0xE10 JUMP JUMPDEST PUSH1 0x40 MLOAD DUP1 SWAP2 SUB SWAP1 REVERT JUMPDEST PUSH2 0x258 TIMESTAMP PUSH1 0x3 SLOAD PUSH2 0x3A2 SWAP2 SWAP1 PUSH2 0xE2E JUMP JUMPDEST GT PUSH2 0x3C2 JUMPI PUSH2 0x258 PUSH1 0x3 PUSH0 DUP3 DUP3 SLOAD PUSH2 0x3BA SWAP2 SWAP1 PUSH2 0xE61 JUMP JUMPDEST SWAP3 POP POP DUP2 SWAP1 SSTORE POP JUMPDEST CALLER PUSH20 0xFFFFFFFFFFFFFFFFFFFFFFFFFFFFFFFFFFFFFFFF AND PUSH32 0xDD0B6C6A77960E2066C96171B4D7AC9E8B4C184011F38544AFA36A5BB63EC59F CALLVALUE PUSH1 0x40 MLOAD PUSH2 0x408 SWAP2 SWAP1 PUSH2 0xA1F JUMP JUMPDEST PUSH1 0x40 MLOAD DUP1 SWAP2 SUB SWAP1 LOG2 CALLVALUE PUSH1 0x5 PUSH0 CALLER PUSH20 0xFFFFFFFFFFFFFFFFFFFFFFFFFFFFFFFFFFFFFFFF AND PUSH20 0xFFFFFFFFFFFFFFFFFFFFFFFFFFFFFFFFFFFFFFFF AND DUP2 MSTORE PUSH1 0x20 ADD SWAP1 DUP2 MSTORE PUSH1 0x20 ADD PUSH0 KECCAK256 PUSH0 DUP3 DUP3 SLOAD PUSH2 0x45C SWAP2 SWAP1 PUSH2 0xE61 JUMP JUMPDEST SWAP3 POP POP DUP2 SWAP1 SSTORE POP CALLVALUE PUSH0 DUP2 SWAP1 SSTORE POP CALLER PUSH1 0x1 PUSH0 PUSH2 0x100 EXP DUP2 SLOAD DUP2 PUSH20 0xFFFFFFFFFFFFFFFFFFFFFFFFFFFFFFFFFFFFFFFF MUL NOT AND SWAP1 DUP4 PUSH20 0xFFFFFFFFFFFFFFFFFFFFFFFFFFFFFFFFFFFFFFFF AND MUL OR SWAP1 SSTORE POP PUSH1 0x6 PUSH1 0x40 MLOAD DUP1 PUSH1 0x40 ADD PUSH1 0x40 MSTORE DUP1 CALLER PUSH20 0xFFFFFFFFFFFFFFFFFFFFFFFFFFFFFFFFFFFFFFFF AND DUP2 MSTORE PUSH1 0x20 ADD CALLVALUE DUP2 MSTORE POP SWAP1 DUP1 PUSH1 0x1 DUP2 SLOAD ADD DUP1 DUP3 SSTORE DUP1 SWAP2 POP POP PUSH1 0x1 SWAP1 SUB SWAP1 PUSH0 MSTORE PUSH1 0x20 PUSH0 KECCAK256 SWAP1 PUSH1 0x2 MUL ADD PUSH0 SWAP1 SWAP2 SWAP1 SWAP2 SWAP1 SWAP2 POP PUSH0 DUP3 ADD MLOAD DUP2 PUSH0 ADD PUSH0 PUSH2 0x100 EXP DUP2 SLOAD DUP2 PUSH20 0xFFFFFFFFFFFFFFFFFFFFFFFFFFFFFFFFFFFFFFFF MUL NOT AND SWAP1 DUP4 PUSH20 0xFFFFFFFFFFFFFFFFFFFFFFFFFFFFFFFFFFFFFFFF AND MUL OR SWAP1 SSTORE POP PUSH1 0x20 DUP3 ADD MLOAD DUP2 PUSH1 0x1 ADD SSTORE POP POP JUMP JUMPDEST PUSH1 0x4 PUSH0 SWAP1 SLOAD SWAP1 PUSH2 0x100 EXP SWAP1 DIV PUSH20 0xFFFFFFFFFFFFFFFFFFFFFFFFFFFFFFFFFFFFFFFF AND PUSH20 0xFFFFFFFFFFFFFFFFFFFFFFFFFFFFFFFFFFFFFFFF AND CALLER PUSH20 0xFFFFFFFFFFFFFFFFFFFFFFFFFFFFFFFFFFFFFFFF AND EQ PUSH2 0x5DD JUMPI PUSH1 0x40 MLOAD PUSH32 0x8C379A000000000000000000000000000000000000000000000000000000000 DUP2 MSTORE PUSH1 0x4 ADD PUSH2 0x5D4 SWAP1 PUSH2 0xF04 JUMP JUMPDEST PUSH1 0x40 MLOAD DUP1 SWAP2 SUB SWAP1 REVERT JUMPDEST PUSH1 0x3 SLOAD TIMESTAMP LT ISZERO PUSH2 0x622 JUMPI PUSH1 0x40 MLOAD PUSH32 0x8C379A000000000000000000000000000000000000000000000000000000000 DUP2 MSTORE PUSH1 0x4 ADD PUSH2 0x619 SWAP1 PUSH2 0xF6C JUMP JUMPDEST PUSH1 0x40 MLOAD DUP1 SWAP2 SUB SWAP1 REVERT JUMPDEST PUSH0 PUSH0 SWAP1 POP JUMPDEST PUSH1 0x6 DUP1 SLOAD SWAP1 POP DUP2 LT ISZERO PUSH2 0x7FF JUMPI PUSH1 0x1 PUSH0 SWAP1 SLOAD SWAP1 PUSH2 0x100 EXP SWAP1 DIV PUSH20 0xFFFFFFFFFFFFFFFFFFFFFFFFFFFFFFFFFFFFFFFF AND PUSH20 0xFFFFFFFFFFFFFFFFFFFFFFFFFFFFFFFFFFFFFFFF AND PUSH1 0x6 DUP3 DUP2 SLOAD DUP2 LT PUSH2 0x680 JUMPI PUSH2 0x67F PUSH2 0xF8A JUMP JUMPDEST JUMPDEST SWAP1 PUSH0 MSTORE PUSH1 0x20 PUSH0 KECCAK256 SWAP1 PUSH1 0x2 MUL ADD PUSH0 ADD PUSH0 SWAP1 SLOAD SWAP1 PUSH2 0x100 EXP SWAP1 DIV PUSH20 0xFFFFFFFFFFFFFFFFFFFFFFFFFFFFFFFFFFFFFFFF AND PUSH20 0xFFFFFFFFFFFFFFFFFFFFFFFFFFFFFFFFFFFFFFFF AND EQ PUSH2 0x7F4 JUMPI PUSH0 PUSH1 0x64 PUSH1 0x62 PUSH1 0x6 DUP5 DUP2 SLOAD DUP2 LT PUSH2 0x6E2 JUMPI PUSH2 0x6E1 PUSH2 0xF8A JUMP JUMPDEST JUMPDEST SWAP1 PUSH0 MSTORE PUSH1 0x20 PUSH0 KECCAK256 SWAP1 PUSH1 0x2 MUL ADD PUSH1 0x1 ADD SLOAD PUSH2 0x6FC SWAP2 SWAP1 PUSH2 0xD85 JUMP JUMPDEST PUSH2 0x706 SWAP2 SWAP1 PUSH2 0xFE4 JUMP JUMPDEST SWAP1 POP PUSH0 PUSH1 0x6 DUP4 DUP2 SLOAD DUP2 LT PUSH2 0x71D JUMPI PUSH2 0x71C PUSH2 0xF8A JUMP JUMPDEST JUMPDEST SWAP1 PUSH0 MSTORE PUSH1 0x20 PUSH0 KECCAK256 SWAP1 PUSH1 0x2 MUL ADD PUSH0 ADD PUSH0 SWAP1 SLOAD SWAP1 PUSH2 0x100 EXP SWAP1 DIV PUSH20 0xFFFFFFFFFFFFFFFFFFFFFFFFFFFFFFFFFFFFFFFF AND PUSH20 0xFFFFFFFFFFFFFFFFFFFFFFFFFFFFFFFFFFFFFFFF AND DUP3 PUSH1 0x40 MLOAD PUSH2 0x76E SWAP1 PUSH2 0x1041 JUMP JUMPDEST PUSH0 PUSH1 0x40 MLOAD DUP1 DUP4 SUB DUP2 DUP6 DUP8 GAS CALL SWAP3 POP POP POP RETURNDATASIZE DUP1 PUSH0 DUP2 EQ PUSH2 0x7A8 JUMPI PUSH1 0x40 MLOAD SWAP2 POP PUSH1 0x1F NOT PUSH1 0x3F RETURNDATASIZE ADD AND DUP3 ADD PUSH1 0x40 MSTORE RETURNDATASIZE DUP3 MSTORE RETURNDATASIZE PUSH0 PUSH1 0x20 DUP5 ADD RETURNDATACOPY PUSH2 0x7AD JUMP JUMPDEST PUSH1 0x60 SWAP2 POP JUMPDEST POP POP SWAP1 POP DUP1 PUSH2 0x7F1 JUMPI PUSH1 0x40 MLOAD PUSH32 0x8C379A000000000000000000000000000000000000000000000000000000000 DUP2 MSTORE PUSH1 0x4 ADD PUSH2 0x7E8 SWAP1 PUSH2 0x109F JUMP JUMPDEST PUSH1 0x40 MLOAD DUP1 SWAP2 SUB SWAP1 REVERT JUMPDEST POP POP JUMPDEST DUP1 PUSH1 0x1 ADD SWAP1 POP PUSH2 0x627 JUMP JUMPDEST POP PUSH32 0xA0E92984607195C326795751263414EE1074526323552E694C90EF2B99AE3F29 PUSH1 0x40 MLOAD PUSH1 0x40 MLOAD DUP1 SWAP2 SUB SWAP1 LOG1 JUMP JUMPDEST PUSH0 PUSH0 PUSH1 0x3 SLOAD TIMESTAMP LT ISZERO PUSH2 0x875 JUMPI PUSH1 0x40 MLOAD PUSH32 0x8C379A000000000000000000000000000000000000000000000000000000000 DUP2 MSTORE PUSH1 0x4 ADD PUSH2 0x86C SWAP1 PUSH2 0xF6C JUMP JUMPDEST PUSH1 0x40 MLOAD DUP1 SWAP2 SUB SWAP1 REVERT JUMPDEST PUSH1 0x1 PUSH0 SWAP1 SLOAD SWAP1 PUSH2 0x100 EXP SWAP1 DIV PUSH20 0xFFFFFFFFFFFFFFFFFFFFFFFFFFFFFFFFFFFFFFFF AND PUSH0 SLOAD SWAP2 POP SWAP2 POP SWAP1 SWAP2 JUMP JUMPDEST PUSH1 0x60 PUSH1 0x6 DUP1 SLOAD DUP1 PUSH1 0x20 MUL PUSH1 0x20 ADD PUSH1 0x40 MLOAD SWAP1 DUP2 ADD PUSH1 0x40 MSTORE DUP1 SWAP3 SWAP2 SWAP1 DUP2 DUP2 MSTORE PUSH1 0x20 ADD PUSH0 SWAP1 JUMPDEST DUP3 DUP3 LT ISZERO PUSH2 0x952 JUMPI DUP4 DUP3 SWAP1 PUSH0 MSTORE PUSH1 0x20 PUSH0 KECCAK256 SWAP1 PUSH1 0x2 MUL ADD PUSH1 0x40 MLOAD DUP1 PUSH1 0x40 ADD PUSH1 0x40 MSTORE SWAP1 DUP2 PUSH0 DUP3 ADD PUSH0 SWAP1 SLOAD SWAP1 PUSH2 0x100 EXP SWAP1 DIV PUSH20 0xFFFFFFFFFFFFFFFFFFFFFFFFFFFFFFFFFFFFFFFF AND PUSH20 0xFFFFFFFFFFFFFFFFFFFFFFFFFFFFFFFFFFFFFFFF AND PUSH20 0xFFFFFFFFFFFFFFFFFFFFFFFFFFFFFFFFFFFFFFFF AND DUP2 MSTORE PUSH1 0x20 ADD PUSH1 0x1 DUP3 ADD SLOAD DUP2 MSTORE POP POP DUP2 MSTORE PUSH1 0x20 ADD SWAP1 PUSH1 0x1 ADD SWAP1 PUSH2 0x8C4 JUMP JUMPDEST POP POP POP POP SWAP1 POP SWAP1 JUMP JUMPDEST PUSH1 0x2 SLOAD DUP2 JUMP JUMPDEST PUSH1 0x1 PUSH0 SWAP1 SLOAD SWAP1 PUSH2 0x100 EXP SWAP1 DIV PUSH20 0xFFFFFFFFFFFFFFFFFFFFFFFFFFFFFFFFFFFFFFFF AND DUP2 JUMP JUMPDEST PUSH0 PUSH0 PUSH1 0x1 PUSH0 SWAP1 SLOAD SWAP1 PUSH2 0x100 EXP SWAP1 DIV PUSH20 0xFFFFFFFFFFFFFFFFFFFFFFFFFFFFFFFFFFFFFFFF AND PUSH0 SLOAD SWAP2 POP SWAP2 POP SWAP1 SWAP2 JUMP JUMPDEST PUSH0 SLOAD DUP2 JUMP JUMPDEST PUSH1 0x6 DUP2 DUP2 SLOAD DUP2 LT PUSH2 0x9C8 JUMPI PUSH0 DUP1 REVERT JUMPDEST SWAP1 PUSH0 MSTORE PUSH1 0x20 PUSH0 KECCAK256 SWAP1 PUSH1 0x2 MUL ADD PUSH0 SWAP2 POP SWAP1 POP DUP1 PUSH0 ADD PUSH0 SWAP1 SLOAD SWAP1 PUSH2 0x100 EXP SWAP1 DIV PUSH20 0xFFFFFFFFFFFFFFFFFFFFFFFFFFFFFFFFFFFFFFFF AND SWAP1 DUP1 PUSH1 0x1 ADD SLOAD SWAP1 POP DUP3 JUMP JUMPDEST PUSH0 DUP2 SWAP1 POP SWAP2 SWAP1 POP JUMP JUMPDEST PUSH2 0xA19 DUP2 PUSH2 0xA07 JUMP JUMPDEST DUP3 MSTORE POP POP JUMP JUMPDEST PUSH0 PUSH1 0x20 DUP3 ADD SWAP1 POP PUSH2 0xA32 PUSH0 DUP4 ADD DUP5 PUSH2 0xA10 JUMP JUMPDEST SWAP3 SWAP2 POP POP JUMP JUMPDEST PUSH0 PUSH0 REVERT JUMPDEST PUSH0 PUSH20 0xFFFFFFFFFFFFFFFFFFFFFFFFFFFFFFFFFFFFFFFF DUP3 AND SWAP1 POP SWAP2 SWAP1 POP JUMP JUMPDEST PUSH0 PUSH2 0xA65 DUP3 PUSH2 0xA3C JUMP JUMPDEST SWAP1 POP SWAP2 SWAP1 POP JUMP JUMPDEST PUSH2 0xA75 DUP2 PUSH2 0xA5B JUMP JUMPDEST DUP2 EQ PUSH2 0xA7F JUMPI PUSH0 PUSH0 REVERT JUMPDEST POP JUMP JUMPDEST PUSH0 DUP2 CALLDATALOAD SWAP1 POP PUSH2 0xA90 DUP2 PUSH2 0xA6C JUMP JUMPDEST SWAP3 SWAP2 POP POP JUMP JUMPDEST PUSH0 PUSH1 0x20 DUP3 DUP5 SUB SLT ISZERO PUSH2 0xAAB JUMPI PUSH2 0xAAA PUSH2 0xA38 JUMP JUMPDEST JUMPDEST PUSH0 PUSH2 0xAB8 DUP5 DUP3 DUP6 ADD PUSH2 0xA82 JUMP JUMPDEST SWAP2 POP POP SWAP3 SWAP2 POP POP JUMP JUMPDEST PUSH2 0xACA DUP2 PUSH2 0xA5B JUMP JUMPDEST DUP3 MSTORE POP POP JUMP JUMPDEST PUSH0 PUSH1 0x40 DUP3 ADD SWAP1 POP PUSH2 0xAE3 PUSH0 DUP4 ADD DUP6 PUSH2 0xAC1 JUMP JUMPDEST PUSH2 0xAF0 PUSH1 0x20 DUP4 ADD DUP5 PUSH2 0xA10 JUMP JUMPDEST SWAP4 SWAP3 POP POP POP JUMP JUMPDEST PUSH0 DUP2 MLOAD SWAP1 POP SWAP2 SWAP1 POP JUMP JUMPDEST PUSH0 DUP3 DUP3 MSTORE PUSH1 0x20 DUP3 ADD SWAP1 POP SWAP3 SWAP2 POP POP JUMP JUMPDEST PUSH0 DUP2 SWAP1 POP PUSH1 0x20 DUP3 ADD SWAP1 POP SWAP2 SWAP1 POP JUMP JUMPDEST PUSH2 0xB29 DUP2 PUSH2 0xA5B JUMP JUMPDEST DUP3 MSTORE POP POP JUMP JUMPDEST PUSH2 0xB38 DUP2 PUSH2 0xA07 JUMP JUMPDEST DUP3 MSTORE POP POP JUMP JUMPDEST PUSH1 0x40 DUP3 ADD PUSH0 DUP3 ADD MLOAD PUSH2 0xB52 PUSH0 DUP6 ADD DUP3 PUSH2 0xB20 JUMP JUMPDEST POP PUSH1 0x20 DUP3 ADD MLOAD PUSH2 0xB65 PUSH1 0x20 DUP6 ADD DUP3 PUSH2 0xB2F JUMP JUMPDEST POP POP POP POP JUMP JUMPDEST PUSH0 PUSH2 0xB76 DUP4 DUP4 PUSH2 0xB3E JUMP JUMPDEST PUSH1 0x40 DUP4 ADD SWAP1 POP SWAP3 SWAP2 POP POP JUMP JUMPDEST PUSH0 PUSH1 0x20 DUP3 ADD SWAP1 POP SWAP2 SWAP1 POP JUMP JUMPDEST PUSH0 PUSH2 0xB98 DUP3 PUSH2 0xAF7 JUMP JUMPDEST PUSH2 0xBA2 DUP2 DUP6 PUSH2 0xB01 JUMP JUMPDEST SWAP4 POP PUSH2 0xBAD DUP4 PUSH2 0xB11 JUMP JUMPDEST DUP1 PUSH0 JUMPDEST DUP4 DUP2 LT ISZERO PUSH2 0xBDD JUMPI DUP2 MLOAD PUSH2 0xBC4 DUP9 DUP3 PUSH2 0xB6B JUMP JUMPDEST SWAP8 POP PUSH2 0xBCF DUP4 PUSH2 0xB82 JUMP JUMPDEST SWAP3 POP POP PUSH1 0x1 DUP2 ADD SWAP1 POP PUSH2 0xBB0 JUMP JUMPDEST POP DUP6 SWAP4 POP POP POP POP SWAP3 SWAP2 POP POP JUMP JUMPDEST PUSH0 PUSH1 0x20 DUP3 ADD SWAP1 POP DUP2 DUP2 SUB PUSH0 DUP4 ADD MSTORE PUSH2 0xC02 DUP2 DUP5 PUSH2 0xB8E JUMP JUMPDEST SWAP1 POP SWAP3 SWAP2 POP POP JUMP JUMPDEST PUSH0 PUSH1 0x20 DUP3 ADD SWAP1 POP PUSH2 0xC1D PUSH0 DUP4 ADD DUP5 PUSH2 0xAC1 JUMP JUMPDEST SWAP3 SWAP2 POP POP JUMP JUMPDEST PUSH2 0xC2C DUP2 PUSH2 0xA07 JUMP JUMPDEST DUP2 EQ PUSH2 0xC36 JUMPI PUSH0 PUSH0 REVERT JUMPDEST POP JUMP JUMPDEST PUSH0 DUP2 CALLDATALOAD SWAP1 POP PUSH2 0xC47 DUP2 PUSH2 0xC23 JUMP JUMPDEST SWAP3 SWAP2 POP POP JUMP JUMPDEST PUSH0 PUSH1 0x20 DUP3 DUP5 SUB SLT ISZERO PUSH2 0xC62 JUMPI PUSH2 0xC61 PUSH2 0xA38 JUMP JUMPDEST JUMPDEST PUSH0 PUSH2 0xC6F DUP5 DUP3 DUP6 ADD PUSH2 0xC39 JUMP JUMPDEST SWAP2 POP POP SWAP3 SWAP2 POP POP JUMP JUMPDEST PUSH0 DUP3 DUP3 MSTORE PUSH1 0x20 DUP3 ADD SWAP1 POP SWAP3 SWAP2 POP POP JUMP JUMPDEST PUSH32 0x426964206973206E6F7420616374697665000000000000000000000000000000 PUSH0 DUP3 ADD MSTORE POP JUMP JUMPDEST PUSH0 PUSH2 0xCBC PUSH1 0x11 DUP4 PUSH2 0xC78 JUMP JUMPDEST SWAP2 POP PUSH2 0xCC7 DUP3 PUSH2 0xC88 JUMP JUMPDEST PUSH1 0x20 DUP3 ADD SWAP1 POP SWAP2 SWAP1 POP JUMP JUMPDEST PUSH0 PUSH1 0x20 DUP3 ADD SWAP1 POP DUP2 DUP2 SUB PUSH0 DUP4 ADD MSTORE PUSH2 0xCE9 DUP2 PUSH2 0xCB0 JUMP JUMPDEST SWAP1 POP SWAP2 SWAP1 POP JUMP JUMPDEST PUSH32 0x596F75206D7573742073656E6420736F6D652045544800000000000000000000 PUSH0 DUP3 ADD MSTORE POP JUMP JUMPDEST PUSH0 PUSH2 0xD24 PUSH1 0x16 DUP4 PUSH2 0xC78 JUMP JUMPDEST SWAP2 POP PUSH2 0xD2F DUP3 PUSH2 0xCF0 JUMP JUMPDEST PUSH1 0x20 DUP3 ADD SWAP1 POP SWAP2 SWAP1 POP JUMP JUMPDEST PUSH0 PUSH1 0x20 DUP3 ADD SWAP1 POP DUP2 DUP2 SUB PUSH0 DUP4 ADD MSTORE PUSH2 0xD51 DUP2 PUSH2 0xD18 JUMP JUMPDEST SWAP1 POP SWAP2 SWAP1 POP JUMP JUMPDEST PUSH32 0x4E487B7100000000000000000000000000000000000000000000000000000000 PUSH0 MSTORE PUSH1 0x11 PUSH1 0x4 MSTORE PUSH1 0x24 PUSH0 REVERT JUMPDEST PUSH0 PUSH2 0xD8F DUP3 PUSH2 0xA07 JUMP JUMPDEST SWAP2 POP PUSH2 0xD9A DUP4 PUSH2 0xA07 JUMP JUMPDEST SWAP3 POP DUP3 DUP3 MUL PUSH2 0xDA8 DUP2 PUSH2 0xA07 JUMP JUMPDEST SWAP2 POP DUP3 DUP3 DIV DUP5 EQ DUP4 ISZERO OR PUSH2 0xDBF JUMPI PUSH2 0xDBE PUSH2 0xD58 JUMP JUMPDEST JUMPDEST POP SWAP3 SWAP2 POP POP JUMP JUMPDEST PUSH32 0x426964206D757374206265206174206C65617374203525206869676865720000 PUSH0 DUP3 ADD MSTORE POP JUMP JUMPDEST PUSH0 PUSH2 0xDFA PUSH1 0x1E DUP4 PUSH2 0xC78 JUMP JUMPDEST SWAP2 POP PUSH2 0xE05 DUP3 PUSH2 0xDC6 JUMP JUMPDEST PUSH1 0x20 DUP3 ADD SWAP1 POP SWAP2 SWAP1 POP JUMP JUMPDEST PUSH0 PUSH1 0x20 DUP3 ADD SWAP1 POP DUP2 DUP2 SUB PUSH0 DUP4 ADD MSTORE PUSH2 0xE27 DUP2 PUSH2 0xDEE JUMP JUMPDEST SWAP1 POP SWAP2 SWAP1 POP JUMP JUMPDEST PUSH0 PUSH2 0xE38 DUP3 PUSH2 0xA07 JUMP JUMPDEST SWAP2 POP PUSH2 0xE43 DUP4 PUSH2 0xA07 JUMP JUMPDEST SWAP3 POP DUP3 DUP3 SUB SWAP1 POP DUP2 DUP2 GT ISZERO PUSH2 0xE5B JUMPI PUSH2 0xE5A PUSH2 0xD58 JUMP JUMPDEST JUMPDEST SWAP3 SWAP2 POP POP JUMP JUMPDEST PUSH0 PUSH2 0xE6B DUP3 PUSH2 0xA07 JUMP JUMPDEST SWAP2 POP PUSH2 0xE76 DUP4 PUSH2 0xA07 JUMP JUMPDEST SWAP3 POP DUP3 DUP3 ADD SWAP1 POP DUP1 DUP3 GT ISZERO PUSH2 0xE8E JUMPI PUSH2 0xE8D PUSH2 0xD58 JUMP JUMPDEST JUMPDEST SWAP3 SWAP2 POP POP JUMP JUMPDEST PUSH32 0x4F6E6C7920746865206F776E65722063616E2063616C6C20746869732066756E PUSH0 DUP3 ADD MSTORE PUSH32 0x6374696F6E2E0000000000000000000000000000000000000000000000000000 PUSH1 0x20 DUP3 ADD MSTORE POP JUMP JUMPDEST PUSH0 PUSH2 0xEEE PUSH1 0x26 DUP4 PUSH2 0xC78 JUMP JUMPDEST SWAP2 POP PUSH2 0xEF9 DUP3 PUSH2 0xE94 JUMP JUMPDEST PUSH1 0x40 DUP3 ADD SWAP1 POP SWAP2 SWAP1 POP JUMP JUMPDEST PUSH0 PUSH1 0x20 DUP3 ADD SWAP1 POP DUP2 DUP2 SUB PUSH0 DUP4 ADD MSTORE PUSH2 0xF1B DUP2 PUSH2 0xEE2 JUMP JUMPDEST SWAP1 POP SWAP2 SWAP1 POP JUMP JUMPDEST PUSH32 0x5468652061756374696F6E206973206E6F74206F766572207965740000000000 PUSH0 DUP3 ADD MSTORE POP JUMP JUMPDEST PUSH0 PUSH2 0xF56 PUSH1 0x1B DUP4 PUSH2 0xC78 JUMP JUMPDEST SWAP2 POP PUSH2 0xF61 DUP3 PUSH2 0xF22 JUMP JUMPDEST PUSH1 0x20 DUP3 ADD SWAP1 POP SWAP2 SWAP1 POP JUMP JUMPDEST PUSH0 PUSH1 0x20 DUP3 ADD SWAP1 POP DUP2 DUP2 SUB PUSH0 DUP4 ADD MSTORE PUSH2 0xF83 DUP2 PUSH2 0xF4A JUMP JUMPDEST SWAP1 POP SWAP2 SWAP1 POP JUMP JUMPDEST PUSH32 0x4E487B7100000000000000000000000000000000000000000000000000000000 PUSH0 MSTORE PUSH1 0x32 PUSH1 0x4 MSTORE PUSH1 0x24 PUSH0 REVERT JUMPDEST PUSH32 0x4E487B7100000000000000000000000000000000000000000000000000000000 PUSH0 MSTORE PUSH1 0x12 PUSH1 0x4 MSTORE PUSH1 0x24 PUSH0 REVERT JUMPDEST PUSH0 PUSH2 0xFEE DUP3 PUSH2 0xA07 JUMP JUMPDEST SWAP2 POP PUSH2 0xFF9 DUP4 PUSH2 0xA07 JUMP JUMPDEST SWAP3 POP DUP3 PUSH2 0x1009 JUMPI PUSH2 0x1008 PUSH2 0xFB7 JUMP JUMPDEST JUMPDEST DUP3 DUP3 DIV SWAP1 POP SWAP3 SWAP2 POP POP JUMP JUMPDEST PUSH0 DUP2 SWAP1 POP SWAP3 SWAP2 POP POP JUMP JUMPDEST POP JUMP JUMPDEST PUSH0 PUSH2 0x102C PUSH0 DUP4 PUSH2 0x1014 JUMP JUMPDEST SWAP2 POP PUSH2 0x1037 DUP3 PUSH2 0x101E JUMP JUMPDEST PUSH0 DUP3 ADD SWAP1 POP SWAP2 SWAP1 POP JUMP JUMPDEST PUSH0 PUSH2 0x104B DUP3 PUSH2 0x1021 JUMP JUMPDEST SWAP2 POP DUP2 SWAP1 POP SWAP2 SWAP1 POP JUMP JUMPDEST PUSH32 0x526566756E64206661696C656400000000000000000000000000000000000000 PUSH0 DUP3 ADD MSTORE POP JUMP JUMPDEST PUSH0 PUSH2 0x1089 PUSH1 0xD DUP4 PUSH2 0xC78 JUMP JUMPDEST SWAP2 POP PUSH2 0x1094 DUP3 PUSH2 0x1055 JUMP JUMPDEST PUSH1 0x20 DUP3 ADD SWAP1 POP SWAP2 SWAP1 POP JUMP JUMPDEST PUSH0 PUSH1 0x20 DUP3 ADD SWAP1 POP DUP2 DUP2 SUB PUSH0 DUP4 ADD MSTORE PUSH2 0x10B6 DUP2 PUSH2 0x107D JUMP JUMPDEST SWAP1 POP SWAP2 SWAP1 POP JUMP INVALID LOG2 PUSH5 0x6970667358 0x22 SLT KECCAK256 PUSH1 0x39 0xCF 0xF6 0xC8 0xBC 0xD6 TLOAD 0xBF 0xDB 0x4B RJUMP 0x3DAA GT CREATE PUSH5 0xED25533435 SWAP2 DUP16 EOFCREATE 0x3C 0xC2 MUL 0xC4 PUSH3 0x484B64 PUSH20 0x6F6C634300081E00330000000000000000000000 "
				},
				"gasEstimates": {
					"creation": {
						"codeDepositCost": "867800",
						"executionCost": "infinite",
						"totalCost": "infinite"
					},
					"external": {
						"bid()": "infinite",
						"bidHistory(uint256)": "infinite",
						"getBidOf(address)": "2852",
						"highestBid()": "2512",
						"highestBidder()": "2552",
						"refundAll()": "infinite",
						"showCurrentWinner()": "4792",
						"showFinalWinner()": "6940",
						"showOffers()": "infinite",
						"startTime()": "2447",
						"stopTime()": "2426"
					}
				},
				"methodIdentifiers": {
					"bid()": "1998aeef",
					"bidHistory(uint256)": "ecde973d",
					"getBidOf(address)": "04d42901",
					"highestBid()": "d57bde79",
					"highestBidder()": "91f90157",
					"refundAll()": "38e771ab",
					"showCurrentWinner()": "d46dd5bb",
					"showFinalWinner()": "41b0cfa8",
					"showOffers()": "534823bf",
					"startTime()": "78e97925",
					"stopTime()": "03ff5e73"
				}
			},
			"storageLayout": {
				"storage": [
					{
						"astId": 3,
						"contract": "Subasta.sol:Subasta",
						"label": "highestBid",
						"offset": 0,
						"slot": "0",
						"type": "t_uint256"
					},
					{
						"astId": 5,
						"contract": "Subasta.sol:Subasta",
						"label": "highestBidder",
						"offset": 0,
						"slot": "1",
						"type": "t_address"
					},
					{
						"astId": 7,
						"contract": "Subasta.sol:Subasta",
						"label": "startTime",
						"offset": 0,
						"slot": "2",
						"type": "t_uint256"
					},
					{
						"astId": 9,
						"contract": "Subasta.sol:Subasta",
						"label": "stopTime",
						"offset": 0,
						"slot": "3",
						"type": "t_uint256"
					},
					{
						"astId": 11,
						"contract": "Subasta.sol:Subasta",
						"label": "owner",
						"offset": 0,
						"slot": "4",
						"type": "t_address_payable"
					},
					{
						"astId": 15,
						"contract": "Subasta.sol:Subasta",
						"label": "bids",
						"offset": 0,
						"slot": "5",
						"type": "t_mapping(t_address,t_uint256)"
					},
					{
						"astId": 32,
						"contract": "Subasta.sol:Subasta",
						"label": "bidHistory",
						"offset": 0,
						"slot": "6",
						"type": "t_array(t_struct(BidInfo)20_storage)dyn_storage"
					}
				],
				"types": {
					"t_address": {
						"encoding": "inplace",
						"label": "address",
						"numberOfBytes": "20"
					},
					"t_address_payable": {
						"encoding": "inplace",
						"label": "address payable",
						"numberOfBytes": "20"
					},
					"t_array(t_struct(BidInfo)20_storage)dyn_storage": {
						"base": "t_struct(BidInfo)20_storage",
						"encoding": "dynamic_array",
						"label": "struct Subasta.BidInfo[]",
						"numberOfBytes": "32"
					},
					"t_mapping(t_address,t_uint256)": {
						"encoding": "mapping",
						"key": "t_address",
						"label": "mapping(address => uint256)",
						"numberOfBytes": "32",
						"value": "t_uint256"
					},
					"t_struct(BidInfo)20_storage": {
						"encoding": "inplace",
						"label": "struct Subasta.BidInfo",
						"members": [
							{
								"astId": 17,
								"contract": "Subasta.sol:Subasta",
								"label": "bidder",
								"offset": 0,
								"slot": "0",
								"type": "t_address"
							},
							{
								"astId": 19,
								"contract": "Subasta.sol:Subasta",
								"label": "amount",
								"offset": 0,
								"slot": "1",
								"type": "t_uint256"
							}
						],
						"numberOfBytes": "64"
					},
					"t_uint256": {
						"encoding": "inplace",
						"label": "uint256",
						"numberOfBytes": "32"
					}
				}
			},
			"userdoc": {
				"kind": "user",
				"methods": {},
				"version": 1
			}
		}
	}
}