{
	"Subasta.sol": {
		"Subasta": {
			"abi": [
				{
					"inputs": [],
					"stateMutability": "nonpayable",
					"type": "constructor"
				},
				{
					"anonymous": false,
					"inputs": [],
					"name": "AuctionEnded",
					"type": "event"
				},
				{
					"anonymous": false,
					"inputs": [
						{
							"indexed": true,
							"internalType": "address",
							"name": "bidder",
							"type": "address"
						},
						{
							"indexed": false,
							"internalType": "uint256",
							"name": "amount",
							"type": "uint256"
						}
					],
					"name": "NewBid",
					"type": "event"
				},
				{
					"inputs": [],
					"name": "bid",
					"outputs": [],
					"stateMutability": "payable",
					"type": "function"
				},
				{
					"inputs": [
						{
							"internalType": "uint256",
							"name": "",
							"type": "uint256"
						}
					],
					"name": "bidHistory",
					"outputs": [
						{
							"internalType": "address",
							"name": "bidder",
							"type": "address"
						},
						{
							"internalType": "uint256",
							"name": "amount",
							"type": "uint256"
						},
						{
							"internalType": "uint256",
							"name": "time",
							"type": "uint256"
						},
						{
							"internalType": "bool",
							"name": "refunded",
							"type": "bool"
						}
					],
					"stateMutability": "view",
					"type": "function"
				},
				{
					"inputs": [],
					"name": "emergencyWithdraw",
					"outputs": [],
					"stateMutability": "nonpayable",
					"type": "function"
				},
				{
					"inputs": [
						{
							"internalType": "address",
							"name": "bidder",
							"type": "address"
						}
					],
					"name": "getBidOf",
					"outputs": [
						{
							"internalType": "uint256",
							"name": "",
							"type": "uint256"
						}
					],
					"stateMutability": "view",
					"type": "function"
				},
				{
					"inputs": [],
					"name": "getTimeNow",
					"outputs": [
						{
							"internalType": "uint256",
							"name": "",
							"type": "uint256"
						}
					],
					"stateMutability": "view",
					"type": "function"
				},
				{
					"inputs": [],
					"name": "highestBid",
					"outputs": [
						{
							"internalType": "uint256",
							"name": "",
							"type": "uint256"
						}
					],
					"stateMutability": "view",
					"type": "function"
				},
				{
					"inputs": [],
					"name": "highestBidder",
					"outputs": [
						{
							"internalType": "address",
							"name": "",
							"type": "address"
						}
					],
					"stateMutability": "view",
					"type": "function"
				},
				{
					"inputs": [],
					"name": "owner",
					"outputs": [
						{
							"internalType": "address payable",
							"name": "",
							"type": "address"
						}
					],
					"stateMutability": "view",
					"type": "function"
				},
				{
					"inputs": [],
					"name": "partialRefund",
					"outputs": [],
					"stateMutability": "nonpayable",
					"type": "function"
				},
				{
					"inputs": [],
					"name": "paused",
					"outputs": [
						{
							"internalType": "bool",
							"name": "",
							"type": "bool"
						}
					],
					"stateMutability": "view",
					"type": "function"
				},
				{
					"inputs": [],
					"name": "refundAll",
					"outputs": [],
					"stateMutability": "payable",
					"type": "function"
				},
				{
					"inputs": [
						{
							"internalType": "bool",
							"name": "_status",
							"type": "bool"
						}
					],
					"name": "setPaused",
					"outputs": [],
					"stateMutability": "nonpayable",
					"type": "function"
				},
				{
					"inputs": [],
					"name": "showBids",
					"outputs": [
						{
							"components": [
								{
									"internalType": "address",
									"name": "bidder",
									"type": "address"
								},
								{
									"internalType": "uint256",
									"name": "amount",
									"type": "uint256"
								},
								{
									"internalType": "uint256",
									"name": "time",
									"type": "uint256"
								},
								{
									"internalType": "bool",
									"name": "refunded",
									"type": "bool"
								}
							],
							"internalType": "struct Subasta.BidInfo[]",
							"name": "",
							"type": "tuple[]"
						}
					],
					"stateMutability": "view",
					"type": "function"
				},
				{
					"inputs": [],
					"name": "showCurrentWinner",
					"outputs": [
						{
							"internalType": "address",
							"name": "",
							"type": "address"
						},
						{
							"internalType": "uint256",
							"name": "",
							"type": "uint256"
						}
					],
					"stateMutability": "view",
					"type": "function"
				},
				{
					"inputs": [],
					"name": "showFinalWinner",
					"outputs": [
						{
							"internalType": "address",
							"name": "",
							"type": "address"
						},
						{
							"internalType": "uint256",
							"name": "",
							"type": "uint256"
						}
					],
					"stateMutability": "view",
					"type": "function"
				},
				{
					"inputs": [],
					"name": "startTime",
					"outputs": [
						{
							"internalType": "uint256",
							"name": "",
							"type": "uint256"
						}
					],
					"stateMutability": "view",
					"type": "function"
				},
				{
					"inputs": [],
					"name": "stopTime",
					"outputs": [
						{
							"internalType": "uint256",
							"name": "",
							"type": "uint256"
						}
					],
					"stateMutability": "view",
					"type": "function"
				}
			],
			"devdoc": {
				"events": {
					"NewBid(address,uint256)": {
						"params": {
							"amount": "Amount of the bid",
							"bidder": "Address of the bidder"
						}
					}
				},
				"kind": "dev",
				"methods": {
					"bid()": {
						"details": "Extends the auction by 10 minutes if the bid is made within the last 10 minutes. Requirements: - The contract must not be paused. - The bid must be at least 5% higher than the current highest bid. - The value sent must be greater than 0."
					},
					"emergencyWithdraw()": {
						"details": "Only callable by the owner and only when the contract is paused. Reverts if there is no ETH balance to withdraw."
					},
					"getBidOf(address)": {
						"params": {
							"bidder": "The address of the bidder."
						},
						"returns": {
							"_0": "The total amount bid by the specified address."
						}
					},
					"getTimeNow()": {
						"details": "Used for testing purposes only.",
						"returns": {
							"_0": "The current block timestamp in seconds."
						}
					},
					"partialRefund()": {
						"details": "Only available during the active auction and if the contract is not paused. Iterates over bid history, marks refunded bids, and sends accumulated refund."
					},
					"refundAll()": {
						"details": "Only callable by the owner, and only after the auction has finalized. The contract must not be paused. Iterates through bid history, sends refund to eligible bidders, and marks bids as refunded."
					},
					"setPaused(bool)": {
						"details": "Only callable by the owner.",
						"params": {
							"_status": "Set to true to pause the contract, or false to resume."
						}
					},
					"showBids()": {
						"returns": {
							"_0": "An array of BidInfo structs containing details of each bid."
						}
					},
					"showCurrentWinner()": {
						"returns": {
							"_0": "The highest bidder's address and their bid amount."
						}
					},
					"showFinalWinner()": {
						"details": "Can only be called after the auction period has finished.",
						"returns": {
							"_0": "The address of the highest bidder and the final bid amount."
						}
					}
				},
				"version": 1
			},
			"evm": {
				"assembly": "    /* \"Subasta.sol\":57:8095  contract Subasta {... */\n  mstore(0x40, 0x80)\n    /* \"Subasta.sol\":525:530  false */\n  0x00\n    /* \"Subasta.sol\":504:530  bool public paused = false */\n  0x04\n  exp(0x0100, 0x14)\n  dup2\n  sload\n  dup2\n  0xff\n  mul\n  not\n  and\n  swap1\n  dup4\n  iszero\n  iszero\n  mul\n  or\n  swap1\n  sstore\n  pop\n    /* \"Subasta.sol\":1581:1702  constructor() {... */\n  callvalue\n  dup1\n  iszero\n  tag_1\n  jumpi\n  revert(0x00, 0x00)\ntag_1:\n  pop\n    /* \"Subasta.sol\":1613:1628  block.timestamp */\n  timestamp\n    /* \"Subasta.sol\":1601:1610  startTime */\n  0x02\n    /* \"Subasta.sol\":1601:1628  startTime = block.timestamp */\n  dup2\n  swap1\n  sstore\n  pop\n    /* \"Subasta.sol\":1657:1666  5 minutes */\n  0x012c\n    /* \"Subasta.sol\":1645:1654  startTime */\n  sload(0x02)\n    /* \"Subasta.sol\":1645:1666  startTime + 5 minutes */\n  tag_4\n  swap2\n  swap1\n  tag_5\n  jump\t// in\ntag_4:\n    /* \"Subasta.sol\":1634:1642  stopTime */\n  0x03\n    /* \"Subasta.sol\":1634:1666  stopTime = startTime + 5 minutes */\n  dup2\n  swap1\n  sstore\n  pop\n    /* \"Subasta.sol\":1688:1698  msg.sender */\n  caller\n    /* \"Subasta.sol\":1672:1677  owner */\n  0x04\n  0x00\n    /* \"Subasta.sol\":1672:1699  owner = payable(msg.sender) */\n  0x0100\n  exp\n  dup2\n  sload\n  dup2\n  0xffffffffffffffffffffffffffffffffffffffff\n  mul\n  not\n  and\n  swap1\n  dup4\n  0xffffffffffffffffffffffffffffffffffffffff\n  and\n  mul\n  or\n  swap1\n  sstore\n  pop\n    /* \"Subasta.sol\":57:8095  contract Subasta {... */\n  jump(tag_6)\n    /* \"#utility.yul\":7:84   */\ntag_7:\n    /* \"#utility.yul\":44:51   */\n  0x00\n    /* \"#utility.yul\":73:78   */\n  dup2\n    /* \"#utility.yul\":62:78   */\n  swap1\n  pop\n    /* \"#utility.yul\":7:84   */\n  swap2\n  swap1\n  pop\n  jump\t// out\n    /* \"#utility.yul\":90:270   */\ntag_8:\n    /* \"#utility.yul\":138:215   */\n  0x4e487b7100000000000000000000000000000000000000000000000000000000\n    /* \"#utility.yul\":135:136   */\n  0x00\n    /* \"#utility.yul\":128:216   */\n  mstore\n    /* \"#utility.yul\":235:239   */\n  0x11\n    /* \"#utility.yul\":232:233   */\n  0x04\n    /* \"#utility.yul\":225:240   */\n  mstore\n    /* \"#utility.yul\":259:263   */\n  0x24\n    /* \"#utility.yul\":256:257   */\n  0x00\n    /* \"#utility.yul\":249:264   */\n  revert\n    /* \"#utility.yul\":276:467   */\ntag_5:\n    /* \"#utility.yul\":316:319   */\n  0x00\n    /* \"#utility.yul\":335:355   */\n  tag_13\n    /* \"#utility.yul\":353:354   */\n  dup3\n    /* \"#utility.yul\":335:355   */\n  tag_7\n  jump\t// in\ntag_13:\n    /* \"#utility.yul\":330:355   */\n  swap2\n  pop\n    /* \"#utility.yul\":369:389   */\n  tag_14\n    /* \"#utility.yul\":387:388   */\n  dup4\n    /* \"#utility.yul\":369:389   */\n  tag_7\n  jump\t// in\ntag_14:\n    /* \"#utility.yul\":364:389   */\n  swap3\n  pop\n    /* \"#utility.yul\":412:413   */\n  dup3\n    /* \"#utility.yul\":409:410   */\n  dup3\n    /* \"#utility.yul\":405:414   */\n  add\n    /* \"#utility.yul\":398:414   */\n  swap1\n  pop\n    /* \"#utility.yul\":433:436   */\n  dup1\n    /* \"#utility.yul\":430:431   */\n  dup3\n    /* \"#utility.yul\":427:437   */\n  gt\n    /* \"#utility.yul\":424:460   */\n  iszero\n  tag_15\n  jumpi\n    /* \"#utility.yul\":440:458   */\n  tag_16\n  tag_8\n  jump\t// in\ntag_16:\n    /* \"#utility.yul\":424:460   */\ntag_15:\n    /* \"#utility.yul\":276:467   */\n  swap3\n  swap2\n  pop\n  pop\n  jump\t// out\n    /* \"Subasta.sol\":57:8095  contract Subasta {... */\ntag_6:\n  dataSize(sub_0)\n  dup1\n  dataOffset(sub_0)\n  0x00\n  codecopy\n  0x00\n  return\nstop\n\nsub_0: assembly {\n        /* \"Subasta.sol\":57:8095  contract Subasta {... */\n      mstore(0x40, 0x80)\n      jumpi(tag_1, lt(calldatasize, 0x04))\n      shr(0xe0, calldataload(0x00))\n      dup1\n      0x5c975abb\n      gt\n      tag_19\n      jumpi\n      dup1\n      0xba9b5ae6\n      gt\n      tag_20\n      jumpi\n      dup1\n      0xba9b5ae6\n      eq\n      tag_14\n      jumpi\n      dup1\n      0xd46dd5bb\n      eq\n      tag_15\n      jumpi\n      dup1\n      0xd57bde79\n      eq\n      tag_16\n      jumpi\n      dup1\n      0xdb2e21bc\n      eq\n      tag_17\n      jumpi\n      dup1\n      0xecde973d\n      eq\n      tag_18\n      jumpi\n      jump(tag_1)\n    tag_20:\n      dup1\n      0x5c975abb\n      eq\n      tag_10\n      jumpi\n      dup1\n      0x78e97925\n      eq\n      tag_11\n      jumpi\n      dup1\n      0x8da5cb5b\n      eq\n      tag_12\n      jumpi\n      dup1\n      0x91f90157\n      eq\n      tag_13\n      jumpi\n      jump(tag_1)\n    tag_19:\n      dup1\n      0x1998aeef\n      gt\n      tag_21\n      jumpi\n      dup1\n      0x1998aeef\n      eq\n      tag_6\n      jumpi\n      dup1\n      0x1ce2bcf5\n      eq\n      tag_7\n      jumpi\n      dup1\n      0x38e771ab\n      eq\n      tag_8\n      jumpi\n      dup1\n      0x41b0cfa8\n      eq\n      tag_9\n      jumpi\n      jump(tag_1)\n    tag_21:\n      dup1\n      0x03ff5e73\n      eq\n      tag_2\n      jumpi\n      dup1\n      0x04d42901\n      eq\n      tag_3\n      jumpi\n      dup1\n      0x14d2687c\n      eq\n      tag_4\n      jumpi\n      dup1\n      0x16c38b3c\n      eq\n      tag_5\n      jumpi\n    tag_1:\n      revert(0x00, 0x00)\n        /* \"Subasta.sol\":344:367  uint256 public stopTime */\n    tag_2:\n      callvalue\n      dup1\n      iszero\n      tag_22\n      jumpi\n      revert(0x00, 0x00)\n    tag_22:\n      pop\n      tag_23\n      tag_24\n      jump\t// in\n    tag_23:\n      mload(0x40)\n      tag_25\n      swap2\n      swap1\n      tag_26\n      jump\t// in\n    tag_25:\n      mload(0x40)\n      dup1\n      swap2\n      sub\n      swap1\n      return\n        /* \"Subasta.sol\":3694:3785  function getBidOf(address bidder) external view returns (uint) {... */\n    tag_3:\n      callvalue\n      dup1\n      iszero\n      tag_27\n      jumpi\n      revert(0x00, 0x00)\n    tag_27:\n      pop\n      tag_28\n      0x04\n      dup1\n      calldatasize\n      sub\n      dup2\n      add\n      swap1\n      tag_29\n      swap2\n      swap1\n      tag_30\n      jump\t// in\n    tag_29:\n      tag_31\n      jump\t// in\n    tag_28:\n      mload(0x40)\n      tag_32\n      swap2\n      swap1\n      tag_26\n      jump\t// in\n    tag_32:\n      mload(0x40)\n      dup1\n      swap2\n      sub\n      swap1\n      return\n        /* \"Subasta.sol\":4182:4269  function showBids() external view returns (BidInfo[] memory) {... */\n    tag_4:\n      callvalue\n      dup1\n      iszero\n      tag_33\n      jumpi\n      revert(0x00, 0x00)\n    tag_33:\n      pop\n      tag_34\n      tag_35\n      jump\t// in\n    tag_34:\n      mload(0x40)\n      tag_36\n      swap2\n      swap1\n      tag_37\n      jump\t// in\n    tag_36:\n      mload(0x40)\n      dup1\n      swap2\n      sub\n      swap1\n      return\n        /* \"Subasta.sol\":7347:7424  function setPaused(bool _status) external onlyOwner {... */\n    tag_5:\n      callvalue\n      dup1\n      iszero\n      tag_38\n      jumpi\n      revert(0x00, 0x00)\n    tag_38:\n      pop\n      tag_39\n      0x04\n      dup1\n      calldatasize\n      sub\n      dup2\n      add\n      swap1\n      tag_40\n      swap2\n      swap1\n      tag_41\n      jump\t// in\n    tag_40:\n      tag_42\n      jump\t// in\n    tag_39:\n      stop\n        /* \"Subasta.sol\":2816:3526  function bid() external payable auctionActive whenNotPaused {... */\n    tag_6:\n      tag_43\n      tag_44\n      jump\t// in\n    tag_43:\n      stop\n        /* \"Subasta.sol\":4530:5664  function partialRefund() external auctionActive whenNotPaused {... */\n    tag_7:\n      callvalue\n      dup1\n      iszero\n      tag_45\n      jumpi\n      revert(0x00, 0x00)\n    tag_45:\n      pop\n      tag_46\n      tag_47\n      jump\t// in\n    tag_46:\n      stop\n        /* \"Subasta.sol\":6301:7167  function refundAll() external payable onlyOwner auctionFinalized whenNotPaused { ... */\n    tag_8:\n      tag_48\n      tag_49\n      jump\t// in\n    tag_48:\n      stop\n        /* \"Subasta.sol\":5879:6004  function showFinalWinner() external view auctionFinalized returns (address, uint) {... */\n    tag_9:\n      callvalue\n      dup1\n      iszero\n      tag_50\n      jumpi\n      revert(0x00, 0x00)\n    tag_50:\n      pop\n      tag_51\n      tag_52\n      jump\t// in\n    tag_51:\n      mload(0x40)\n      tag_53\n      swap3\n      swap2\n      swap1\n      tag_54\n      jump\t// in\n    tag_53:\n      mload(0x40)\n      dup1\n      swap2\n      sub\n      swap1\n      return\n        /* \"Subasta.sol\":504:530  bool public paused = false */\n    tag_10:\n      callvalue\n      dup1\n      iszero\n      tag_55\n      jumpi\n      revert(0x00, 0x00)\n    tag_55:\n      pop\n      tag_56\n      tag_57\n      jump\t// in\n    tag_56:\n      mload(0x40)\n      tag_58\n      swap2\n      swap1\n      tag_59\n      jump\t// in\n    tag_58:\n      mload(0x40)\n      dup1\n      swap2\n      sub\n      swap1\n      return\n        /* \"Subasta.sol\":261:285  uint256 public startTime */\n    tag_11:\n      callvalue\n      dup1\n      iszero\n      tag_60\n      jumpi\n      revert(0x00, 0x00)\n    tag_60:\n      pop\n      tag_61\n      tag_62\n      jump\t// in\n    tag_61:\n      mload(0x40)\n      tag_63\n      swap2\n      swap1\n      tag_26\n      jump\t// in\n    tag_63:\n      mload(0x40)\n      dup1\n      swap2\n      sub\n      swap1\n      return\n        /* \"Subasta.sol\":425:453  address payable public owner */\n    tag_12:\n      callvalue\n      dup1\n      iszero\n      tag_64\n      jumpi\n      revert(0x00, 0x00)\n    tag_64:\n      pop\n      tag_65\n      tag_66\n      jump\t// in\n    tag_65:\n      mload(0x40)\n      tag_67\n      swap2\n      swap1\n      tag_68\n      jump\t// in\n    tag_67:\n      mload(0x40)\n      dup1\n      swap2\n      sub\n      swap1\n      return\n        /* \"Subasta.sol\":174:202  address public highestBidder */\n    tag_13:\n      callvalue\n      dup1\n      iszero\n      tag_69\n      jumpi\n      revert(0x00, 0x00)\n    tag_69:\n      pop\n      tag_70\n      tag_71\n      jump\t// in\n    tag_70:\n      mload(0x40)\n      tag_72\n      swap2\n      swap1\n      tag_73\n      jump\t// in\n    tag_72:\n      mload(0x40)\n      dup1\n      swap2\n      sub\n      swap1\n      return\n        /* \"Subasta.sol\":8010:8092  function getTimeNow() external view returns (uint) {... */\n    tag_14:\n      callvalue\n      dup1\n      iszero\n      tag_74\n      jumpi\n      revert(0x00, 0x00)\n    tag_74:\n      pop\n      tag_75\n      tag_76\n      jump\t// in\n    tag_75:\n      mload(0x40)\n      tag_77\n      swap2\n      swap1\n      tag_26\n      jump\t// in\n    tag_77:\n      mload(0x40)\n      dup1\n      swap2\n      sub\n      swap1\n      return\n        /* \"Subasta.sol\":3925:4035  function showCurrentWinner() external view returns (address, uint) {... */\n    tag_15:\n      callvalue\n      dup1\n      iszero\n      tag_78\n      jumpi\n      revert(0x00, 0x00)\n    tag_78:\n      pop\n      tag_79\n      tag_80\n      jump\t// in\n    tag_79:\n      mload(0x40)\n      tag_81\n      swap3\n      swap2\n      swap1\n      tag_54\n      jump\t// in\n    tag_81:\n      mload(0x40)\n      dup1\n      swap2\n      sub\n      swap1\n      return\n        /* \"Subasta.sol\":97:119  uint public highestBid */\n    tag_16:\n      callvalue\n      dup1\n      iszero\n      tag_82\n      jumpi\n      revert(0x00, 0x00)\n    tag_82:\n      pop\n      tag_83\n      tag_84\n      jump\t// in\n    tag_83:\n      mload(0x40)\n      tag_85\n      swap2\n      swap1\n      tag_26\n      jump\t// in\n    tag_85:\n      mload(0x40)\n      dup1\n      swap2\n      sub\n      swap1\n      return\n        /* \"Subasta.sol\":7623:7866  function emergencyWithdraw() external onlyOwner whenPaused {... */\n    tag_17:\n      callvalue\n      dup1\n      iszero\n      tag_86\n      jumpi\n      revert(0x00, 0x00)\n    tag_86:\n      pop\n      tag_87\n      tag_88\n      jump\t// in\n    tag_87:\n      stop\n        /* \"Subasta.sol\":1356:1383  BidInfo[] public bidHistory */\n    tag_18:\n      callvalue\n      dup1\n      iszero\n      tag_89\n      jumpi\n      revert(0x00, 0x00)\n    tag_89:\n      pop\n      tag_90\n      0x04\n      dup1\n      calldatasize\n      sub\n      dup2\n      add\n      swap1\n      tag_91\n      swap2\n      swap1\n      tag_92\n      jump\t// in\n    tag_91:\n      tag_93\n      jump\t// in\n    tag_90:\n      mload(0x40)\n      tag_94\n      swap5\n      swap4\n      swap3\n      swap2\n      swap1\n      tag_95\n      jump\t// in\n    tag_94:\n      mload(0x40)\n      dup1\n      swap2\n      sub\n      swap1\n      return\n        /* \"Subasta.sol\":344:367  uint256 public stopTime */\n    tag_24:\n      sload(0x03)\n      dup2\n      jump\t// out\n        /* \"Subasta.sol\":3694:3785  function getBidOf(address bidder) external view returns (uint) {... */\n    tag_31:\n        /* \"Subasta.sol\":3751:3755  uint */\n      0x00\n        /* \"Subasta.sol\":3770:3774  bids */\n      0x05\n        /* \"Subasta.sol\":3770:3782  bids[bidder] */\n      0x00\n        /* \"Subasta.sol\":3775:3781  bidder */\n      dup4\n        /* \"Subasta.sol\":3770:3782  bids[bidder] */\n      0xffffffffffffffffffffffffffffffffffffffff\n      and\n      0xffffffffffffffffffffffffffffffffffffffff\n      and\n      dup2\n      mstore\n      0x20\n      add\n      swap1\n      dup2\n      mstore\n      0x20\n      add\n      0x00\n      keccak256\n      sload\n        /* \"Subasta.sol\":3763:3782  return bids[bidder] */\n      swap1\n      pop\n        /* \"Subasta.sol\":3694:3785  function getBidOf(address bidder) external view returns (uint) {... */\n      swap2\n      swap1\n      pop\n      jump\t// out\n        /* \"Subasta.sol\":4182:4269  function showBids() external view returns (BidInfo[] memory) {... */\n    tag_35:\n        /* \"Subasta.sol\":4225:4241  BidInfo[] memory */\n      0x60\n        /* \"Subasta.sol\":4256:4266  bidHistory */\n      0x06\n        /* \"Subasta.sol\":4249:4266  return bidHistory */\n      dup1\n      sload\n      dup1\n      0x20\n      mul\n      0x20\n      add\n      mload(0x40)\n      swap1\n      dup2\n      add\n      0x40\n      mstore\n      dup1\n      swap3\n      swap2\n      swap1\n      dup2\n      dup2\n      mstore\n      0x20\n      add\n      0x00\n      swap1\n    tag_98:\n      dup3\n      dup3\n      lt\n      iszero\n      tag_99\n      jumpi\n      dup4\n      dup3\n      swap1\n      0x00\n      mstore\n      keccak256(0x00, 0x20)\n      swap1\n      0x04\n      mul\n      add\n      mload(0x40)\n      dup1\n      0x80\n      add\n      0x40\n      mstore\n      swap1\n      dup2\n      0x00\n      dup3\n      add\n      0x00\n      swap1\n      sload\n      swap1\n      0x0100\n      exp\n      swap1\n      div\n      0xffffffffffffffffffffffffffffffffffffffff\n      and\n      0xffffffffffffffffffffffffffffffffffffffff\n      and\n      0xffffffffffffffffffffffffffffffffffffffff\n      and\n      dup2\n      mstore\n      0x20\n      add\n      0x01\n      dup3\n      add\n      sload\n      dup2\n      mstore\n      0x20\n      add\n      0x02\n      dup3\n      add\n      sload\n      dup2\n      mstore\n      0x20\n      add\n      0x03\n      dup3\n      add\n      0x00\n      swap1\n      sload\n      swap1\n      0x0100\n      exp\n      swap1\n      div\n      0xff\n      and\n      iszero\n      iszero\n      iszero\n      iszero\n      dup2\n      mstore\n      pop\n      pop\n      dup2\n      mstore\n      0x20\n      add\n      swap1\n      0x01\n      add\n      swap1\n      jump(tag_98)\n    tag_99:\n      pop\n      pop\n      pop\n      pop\n      swap1\n      pop\n        /* \"Subasta.sol\":4182:4269  function showBids() external view returns (BidInfo[] memory) {... */\n      swap1\n      jump\t// out\n        /* \"Subasta.sol\":7347:7424  function setPaused(bool _status) external onlyOwner {... */\n    tag_42:\n        /* \"Subasta.sol\":1823:1828  owner */\n      0x04\n      0x00\n      swap1\n      sload\n      swap1\n      0x0100\n      exp\n      swap1\n      div\n      0xffffffffffffffffffffffffffffffffffffffff\n      and\n        /* \"Subasta.sol\":1809:1828  msg.sender == owner */\n      0xffffffffffffffffffffffffffffffffffffffff\n      and\n        /* \"Subasta.sol\":1809:1819  msg.sender */\n      caller\n        /* \"Subasta.sol\":1809:1828  msg.sender == owner */\n      0xffffffffffffffffffffffffffffffffffffffff\n      and\n      eq\n        /* \"Subasta.sol\":1801:1843  require(msg.sender == owner, \"Owner only\") */\n      tag_102\n      jumpi\n      mload(0x40)\n      0x08c379a000000000000000000000000000000000000000000000000000000000\n      dup2\n      mstore\n      0x04\n      add\n      tag_103\n      swap1\n      tag_104\n      jump\t// in\n    tag_103:\n      mload(0x40)\n      dup1\n      swap2\n      sub\n      swap1\n      revert\n    tag_102:\n        /* \"Subasta.sol\":7414:7421  _status */\n      dup1\n        /* \"Subasta.sol\":7405:7411  paused */\n      0x04\n      0x14\n        /* \"Subasta.sol\":7405:7421  paused = _status */\n      0x0100\n      exp\n      dup2\n      sload\n      dup2\n      0xff\n      mul\n      not\n      and\n      swap1\n      dup4\n      iszero\n      iszero\n      mul\n      or\n      swap1\n      sstore\n      pop\n        /* \"Subasta.sol\":7347:7424  function setPaused(bool _status) external onlyOwner {... */\n      pop\n      jump\t// out\n        /* \"Subasta.sol\":2816:3526  function bid() external payable auctionActive whenNotPaused {... */\n    tag_44:\n        /* \"Subasta.sol\":1965:1974  startTime */\n      sload(0x02)\n        /* \"Subasta.sol\":1946:1961  block.timestamp */\n      timestamp\n        /* \"Subasta.sol\":1946:1974  block.timestamp >= startTime */\n      lt\n      iszero\n        /* \"Subasta.sol\":1946:2005  block.timestamp >= startTime && block.timestamp <= stopTime */\n      dup1\n      iszero\n      tag_107\n      jumpi\n      pop\n        /* \"Subasta.sol\":1997:2005  stopTime */\n      sload(0x03)\n        /* \"Subasta.sol\":1978:1993  block.timestamp */\n      timestamp\n        /* \"Subasta.sol\":1978:2005  block.timestamp <= stopTime */\n      gt\n      iszero\n        /* \"Subasta.sol\":1946:2005  block.timestamp >= startTime && block.timestamp <= stopTime */\n    tag_107:\n        /* \"Subasta.sol\":1938:2031  require(block.timestamp >= startTime && block.timestamp <= stopTime, \"Auction is not active\") */\n      tag_108\n      jumpi\n      mload(0x40)\n      0x08c379a000000000000000000000000000000000000000000000000000000000\n      dup2\n      mstore\n      0x04\n      add\n      tag_109\n      swap1\n      tag_110\n      jump\t// in\n    tag_109:\n      mload(0x40)\n      dup1\n      swap2\n      sub\n      swap1\n      revert\n    tag_108:\n        /* \"Subasta.sol\":2438:2444  paused */\n      0x04\n      0x14\n      swap1\n      sload\n      swap1\n      0x0100\n      exp\n      swap1\n      div\n      0xff\n      and\n        /* \"Subasta.sol\":2437:2444  !paused */\n      iszero\n        /* \"Subasta.sol\":2429:2463  require(!paused, \"Paused == true\") */\n      tag_112\n      jumpi\n      mload(0x40)\n      0x08c379a000000000000000000000000000000000000000000000000000000000\n      dup2\n      mstore\n      0x04\n      add\n      tag_113\n      swap1\n      tag_114\n      jump\t// in\n    tag_113:\n      mload(0x40)\n      dup1\n      swap2\n      sub\n      swap1\n      revert\n    tag_112:\n        /* \"Subasta.sol\":2902:2903  0 */\n      0x00\n        /* \"Subasta.sol\":2890:2899  msg.value */\n      callvalue\n        /* \"Subasta.sol\":2890:2903  msg.value > 0 */\n      gt\n        /* \"Subasta.sol\":2882:2914  require(msg.value > 0, \"No ETH\") */\n      tag_116\n      jumpi\n      mload(0x40)\n      0x08c379a000000000000000000000000000000000000000000000000000000000\n      dup2\n      mstore\n      0x04\n      add\n      tag_117\n      swap1\n      tag_118\n      jump\t// in\n    tag_117:\n      mload(0x40)\n      dup1\n      swap2\n      sub\n      swap1\n      revert\n    tag_116:\n        /* \"Subasta.sol\":2960:2963  105 */\n      0x69\n        /* \"Subasta.sol\":2947:2957  highestBid */\n      sload(0x00)\n        /* \"Subasta.sol\":2947:2963  highestBid * 105 */\n      tag_119\n      swap2\n      swap1\n      tag_120\n      jump\t// in\n    tag_119:\n        /* \"Subasta.sol\":2940:2943  100 */\n      0x64\n        /* \"Subasta.sol\":2928:2937  msg.value */\n      callvalue\n        /* \"Subasta.sol\":2928:2943  msg.value * 100 */\n      tag_121\n      swap2\n      swap1\n      tag_120\n      jump\t// in\n    tag_121:\n        /* \"Subasta.sol\":2928:2963  msg.value * 100 >= highestBid * 105 */\n      lt\n      iszero\n        /* \"Subasta.sol\":2920:2976  require(msg.value * 100 >= highestBid * 105, \"Bid < 5%\") */\n      tag_122\n      jumpi\n      mload(0x40)\n      0x08c379a000000000000000000000000000000000000000000000000000000000\n      dup2\n      mstore\n      0x04\n      add\n      tag_123\n      swap1\n      tag_124\n      jump\t// in\n    tag_123:\n      mload(0x40)\n      dup1\n      swap2\n      sub\n      swap1\n      revert\n    tag_122:\n        /* \"Subasta.sol\":3084:3094  10 minutes */\n      0x0258\n        /* \"Subasta.sol\":3065:3080  block.timestamp */\n      timestamp\n        /* \"Subasta.sol\":3054:3062  stopTime */\n      sload(0x03)\n        /* \"Subasta.sol\":3054:3080  stopTime - block.timestamp */\n      tag_125\n      swap2\n      swap1\n      tag_126\n      jump\t// in\n    tag_125:\n        /* \"Subasta.sol\":3054:3094  stopTime - block.timestamp <= 10 minutes */\n      gt\n        /* \"Subasta.sol\":3050:3131  if (stopTime - block.timestamp <= 10 minutes) {... */\n      tag_127\n      jumpi\n        /* \"Subasta.sol\":3114:3124  10 minutes */\n      0x0258\n        /* \"Subasta.sol\":3102:3110  stopTime */\n      0x03\n      0x00\n        /* \"Subasta.sol\":3102:3124  stopTime += 10 minutes */\n      dup3\n      dup3\n      sload\n      tag_128\n      swap2\n      swap1\n      tag_129\n      jump\t// in\n    tag_128:\n      swap3\n      pop\n      pop\n      dup2\n      swap1\n      sstore\n      pop\n        /* \"Subasta.sol\":3050:3131  if (stopTime - block.timestamp <= 10 minutes) {... */\n    tag_127:\n        /* \"Subasta.sol\":3184:3194  msg.sender */\n      caller\n        /* \"Subasta.sol\":3177:3206  NewBid(msg.sender, msg.value) */\n      0xffffffffffffffffffffffffffffffffffffffff\n      and\n      0xdd0b6c6a77960e2066c96171b4d7ac9e8b4c184011f38544afa36a5bb63ec59f\n        /* \"Subasta.sol\":3196:3205  msg.value */\n      callvalue\n        /* \"Subasta.sol\":3177:3206  NewBid(msg.sender, msg.value) */\n      mload(0x40)\n      tag_130\n      swap2\n      swap1\n      tag_26\n      jump\t// in\n    tag_130:\n      mload(0x40)\n      dup1\n      swap2\n      sub\n      swap1\n      log2\n        /* \"Subasta.sol\":3269:3278  msg.value */\n      callvalue\n        /* \"Subasta.sol\":3249:3253  bids */\n      0x05\n        /* \"Subasta.sol\":3249:3265  bids[msg.sender] */\n      0x00\n        /* \"Subasta.sol\":3254:3264  msg.sender */\n      caller\n        /* \"Subasta.sol\":3249:3265  bids[msg.sender] */\n      0xffffffffffffffffffffffffffffffffffffffff\n      and\n      0xffffffffffffffffffffffffffffffffffffffff\n      and\n      dup2\n      mstore\n      0x20\n      add\n      swap1\n      dup2\n      mstore\n      0x20\n      add\n      0x00\n      keccak256\n      0x00\n        /* \"Subasta.sol\":3249:3278  bids[msg.sender] += msg.value */\n      dup3\n      dup3\n      sload\n      tag_131\n      swap2\n      swap1\n      tag_129\n      jump\t// in\n    tag_131:\n      swap3\n      pop\n      pop\n      dup2\n      swap1\n      sstore\n      pop\n        /* \"Subasta.sol\":3344:3353  msg.value */\n      callvalue\n        /* \"Subasta.sol\":3331:3341  highestBid */\n      0x00\n        /* \"Subasta.sol\":3331:3353  highestBid = msg.value */\n      dup2\n      swap1\n      sstore\n      pop\n        /* \"Subasta.sol\":3375:3385  msg.sender */\n      caller\n        /* \"Subasta.sol\":3359:3372  highestBidder */\n      0x01\n      0x00\n        /* \"Subasta.sol\":3359:3385  highestBidder = msg.sender */\n      0x0100\n      exp\n      dup2\n      sload\n      dup2\n      0xffffffffffffffffffffffffffffffffffffffff\n      mul\n      not\n      and\n      swap1\n      dup4\n      0xffffffffffffffffffffffffffffffffffffffff\n      and\n      mul\n      or\n      swap1\n      sstore\n      pop\n        /* \"Subasta.sol\":3452:3462  bidHistory */\n      0x06\n        /* \"Subasta.sol\":3468:3522  BidInfo(msg.sender, msg.value, block.timestamp, false) */\n      mload(0x40)\n      dup1\n      0x80\n      add\n      0x40\n      mstore\n      dup1\n        /* \"Subasta.sol\":3476:3486  msg.sender */\n      caller\n        /* \"Subasta.sol\":3468:3522  BidInfo(msg.sender, msg.value, block.timestamp, false) */\n      0xffffffffffffffffffffffffffffffffffffffff\n      and\n      dup2\n      mstore\n      0x20\n      add\n        /* \"Subasta.sol\":3488:3497  msg.value */\n      callvalue\n        /* \"Subasta.sol\":3468:3522  BidInfo(msg.sender, msg.value, block.timestamp, false) */\n      dup2\n      mstore\n      0x20\n      add\n        /* \"Subasta.sol\":3499:3514  block.timestamp */\n      timestamp\n        /* \"Subasta.sol\":3468:3522  BidInfo(msg.sender, msg.value, block.timestamp, false) */\n      dup2\n      mstore\n      0x20\n      add\n        /* \"Subasta.sol\":3516:3521  false */\n      0x00\n        /* \"Subasta.sol\":3468:3522  BidInfo(msg.sender, msg.value, block.timestamp, false) */\n      iszero\n      iszero\n      dup2\n      mstore\n      pop\n        /* \"Subasta.sol\":3452:3523  bidHistory.push(BidInfo(msg.sender, msg.value, block.timestamp, false)) */\n      swap1\n      dup1\n      0x01\n      dup2\n      sload\n      add\n      dup1\n      dup3\n      sstore\n      dup1\n      swap2\n      pop\n      pop\n      0x01\n      swap1\n      sub\n      swap1\n      0x00\n      mstore\n      keccak256(0x00, 0x20)\n      swap1\n      0x04\n      mul\n      add\n      0x00\n      swap1\n      swap2\n      swap1\n      swap2\n      swap1\n      swap2\n      pop\n      0x00\n      dup3\n      add\n      mload\n      dup2\n      0x00\n      add\n      exp(0x0100, 0x00)\n      dup2\n      sload\n      dup2\n      0xffffffffffffffffffffffffffffffffffffffff\n      mul\n      not\n      and\n      swap1\n      dup4\n      0xffffffffffffffffffffffffffffffffffffffff\n      and\n      mul\n      or\n      swap1\n      sstore\n      pop\n      0x20\n      dup3\n      add\n      mload\n      dup2\n      0x01\n      add\n      sstore\n      0x40\n      dup3\n      add\n      mload\n      dup2\n      0x02\n      add\n      sstore\n      0x60\n      dup3\n      add\n      mload\n      dup2\n      0x03\n      add\n      exp(0x0100, 0x00)\n      dup2\n      sload\n      dup2\n      0xff\n      mul\n      not\n      and\n      swap1\n      dup4\n      iszero\n      iszero\n      mul\n      or\n      swap1\n      sstore\n      pop\n      pop\n      pop\n        /* \"Subasta.sol\":2816:3526  function bid() external payable auctionActive whenNotPaused {... */\n      jump\t// out\n        /* \"Subasta.sol\":4530:5664  function partialRefund() external auctionActive whenNotPaused {... */\n    tag_47:\n        /* \"Subasta.sol\":1965:1974  startTime */\n      sload(0x02)\n        /* \"Subasta.sol\":1946:1961  block.timestamp */\n      timestamp\n        /* \"Subasta.sol\":1946:1974  block.timestamp >= startTime */\n      lt\n      iszero\n        /* \"Subasta.sol\":1946:2005  block.timestamp >= startTime && block.timestamp <= stopTime */\n      dup1\n      iszero\n      tag_134\n      jumpi\n      pop\n        /* \"Subasta.sol\":1997:2005  stopTime */\n      sload(0x03)\n        /* \"Subasta.sol\":1978:1993  block.timestamp */\n      timestamp\n        /* \"Subasta.sol\":1978:2005  block.timestamp <= stopTime */\n      gt\n      iszero\n        /* \"Subasta.sol\":1946:2005  block.timestamp >= startTime && block.timestamp <= stopTime */\n    tag_134:\n        /* \"Subasta.sol\":1938:2031  require(block.timestamp >= startTime && block.timestamp <= stopTime, \"Auction is not active\") */\n      tag_135\n      jumpi\n      mload(0x40)\n      0x08c379a000000000000000000000000000000000000000000000000000000000\n      dup2\n      mstore\n      0x04\n      add\n      tag_136\n      swap1\n      tag_110\n      jump\t// in\n    tag_136:\n      mload(0x40)\n      dup1\n      swap2\n      sub\n      swap1\n      revert\n    tag_135:\n        /* \"Subasta.sol\":2438:2444  paused */\n      0x04\n      0x14\n      swap1\n      sload\n      swap1\n      0x0100\n      exp\n      swap1\n      div\n      0xff\n      and\n        /* \"Subasta.sol\":2437:2444  !paused */\n      iszero\n        /* \"Subasta.sol\":2429:2463  require(!paused, \"Paused == true\") */\n      tag_138\n      jumpi\n      mload(0x40)\n      0x08c379a000000000000000000000000000000000000000000000000000000000\n      dup2\n      mstore\n      0x04\n      add\n      tag_139\n      swap1\n      tag_114\n      jump\t// in\n    tag_139:\n      mload(0x40)\n      dup1\n      swap2\n      sub\n      swap1\n      revert\n    tag_138:\n        /* \"Subasta.sol\":4598:4611  uint256 count */\n      0x00\n        /* \"Subasta.sol\":4614:4615  0 */\n      0x00\n        /* \"Subasta.sol\":4598:4615  uint256 count = 0 */\n      swap1\n      pop\n        /* \"Subasta.sol\":4621:4632  uint256 len */\n      0x00\n        /* \"Subasta.sol\":4635:4645  bidHistory */\n      0x06\n        /* \"Subasta.sol\":4635:4652  bidHistory.length */\n      dup1\n      sload\n      swap1\n      pop\n        /* \"Subasta.sol\":4621:4652  uint256 len = bidHistory.length */\n      swap1\n      pop\n        /* \"Subasta.sol\":4720:4726  uint i */\n      0x00\n        /* \"Subasta.sol\":4729:4730  0 */\n      0x00\n        /* \"Subasta.sol\":4720:4730  uint i = 0 */\n      swap1\n      pop\n        /* \"Subasta.sol\":4715:4861  for (uint i = 0; i < len; i++) {... */\n    tag_141:\n        /* \"Subasta.sol\":4736:4739  len */\n      dup2\n        /* \"Subasta.sol\":4732:4733  i */\n      dup2\n        /* \"Subasta.sol\":4732:4739  i < len */\n      lt\n        /* \"Subasta.sol\":4715:4861  for (uint i = 0; i < len; i++) {... */\n      iszero\n      tag_142\n      jumpi\n        /* \"Subasta.sol\":4784:4794  msg.sender */\n      caller\n        /* \"Subasta.sol\":4760:4794  bidHistory[i].bidder == msg.sender */\n      0xffffffffffffffffffffffffffffffffffffffff\n      and\n        /* \"Subasta.sol\":4760:4770  bidHistory */\n      0x06\n        /* \"Subasta.sol\":4771:4772  i */\n      dup3\n        /* \"Subasta.sol\":4760:4773  bidHistory[i] */\n      dup2\n      sload\n      dup2\n      lt\n      tag_144\n      jumpi\n      tag_145\n      tag_146\n      jump\t// in\n    tag_145:\n    tag_144:\n      swap1\n      0x00\n      mstore\n      keccak256(0x00, 0x20)\n      swap1\n      0x04\n      mul\n      add\n        /* \"Subasta.sol\":4760:4780  bidHistory[i].bidder */\n      0x00\n      add\n      0x00\n      swap1\n      sload\n      swap1\n      0x0100\n      exp\n      swap1\n      div\n      0xffffffffffffffffffffffffffffffffffffffff\n      and\n        /* \"Subasta.sol\":4760:4794  bidHistory[i].bidder == msg.sender */\n      0xffffffffffffffffffffffffffffffffffffffff\n      and\n      eq\n        /* \"Subasta.sol\":4760:4821  bidHistory[i].bidder == msg.sender && !bidHistory[i].refunded */\n      dup1\n      iszero\n      tag_148\n      jumpi\n      pop\n        /* \"Subasta.sol\":4799:4809  bidHistory */\n      0x06\n        /* \"Subasta.sol\":4810:4811  i */\n      dup2\n        /* \"Subasta.sol\":4799:4812  bidHistory[i] */\n      dup2\n      sload\n      dup2\n      lt\n      tag_149\n      jumpi\n      tag_150\n      tag_146\n      jump\t// in\n    tag_150:\n    tag_149:\n      swap1\n      0x00\n      mstore\n      keccak256(0x00, 0x20)\n      swap1\n      0x04\n      mul\n      add\n        /* \"Subasta.sol\":4799:4821  bidHistory[i].refunded */\n      0x03\n      add\n      0x00\n      swap1\n      sload\n      swap1\n      0x0100\n      exp\n      swap1\n      div\n      0xff\n      and\n        /* \"Subasta.sol\":4798:4821  !bidHistory[i].refunded */\n      iszero\n        /* \"Subasta.sol\":4760:4821  bidHistory[i].bidder == msg.sender && !bidHistory[i].refunded */\n    tag_148:\n        /* \"Subasta.sol\":4756:4855  if (bidHistory[i].bidder == msg.sender && !bidHistory[i].refunded) {... */\n      iszero\n      tag_152\n      jumpi\n        /* \"Subasta.sol\":4837:4844  count++ */\n      dup3\n      dup1\n      tag_153\n      swap1\n      tag_154\n      jump\t// in\n    tag_153:\n      swap4\n      pop\n      pop\n        /* \"Subasta.sol\":4756:4855  if (bidHistory[i].bidder == msg.sender && !bidHistory[i].refunded) {... */\n    tag_152:\n        /* \"Subasta.sol\":4741:4744  i++ */\n      dup1\n      dup1\n      0x01\n      add\n      swap2\n      pop\n      pop\n        /* \"Subasta.sol\":4715:4861  for (uint i = 0; i < len; i++) {... */\n      jump(tag_141)\n    tag_142:\n      pop\n        /* \"Subasta.sol\":4883:4884  1 */\n      0x01\n        /* \"Subasta.sol\":4875:4880  count */\n      dup3\n        /* \"Subasta.sol\":4875:4884  count > 1 */\n      gt\n        /* \"Subasta.sol\":4867:4907  require(count > 1, \"No refundable bids\") */\n      tag_155\n      jumpi\n      mload(0x40)\n      0x08c379a000000000000000000000000000000000000000000000000000000000\n      dup2\n      mstore\n      0x04\n      add\n      tag_156\n      swap1\n      tag_157\n      jump\t// in\n    tag_156:\n      mload(0x40)\n      dup1\n      swap2\n      sub\n      swap1\n      revert\n    tag_155:\n        /* \"Subasta.sol\":4914:4929  uint256 counter */\n      0x00\n        /* \"Subasta.sol\":4932:4933  0 */\n      0x00\n        /* \"Subasta.sol\":4914:4933  uint256 counter = 0 */\n      swap1\n      pop\n        /* \"Subasta.sol\":4939:4959  uint256 refundAmount */\n      0x00\n        /* \"Subasta.sol\":4962:4963  0 */\n      0x00\n        /* \"Subasta.sol\":4939:4963  uint256 refundAmount = 0 */\n      swap1\n      pop\n        /* \"Subasta.sol\":5058:5064  uint i */\n      0x00\n        /* \"Subasta.sol\":5067:5068  0 */\n      0x00\n        /* \"Subasta.sol\":5058:5068  uint i = 0 */\n      swap1\n      pop\n        /* \"Subasta.sol\":5053:5364  for (uint i = 0; i < len; i++) {... */\n    tag_158:\n        /* \"Subasta.sol\":5074:5077  len */\n      dup4\n        /* \"Subasta.sol\":5070:5071  i */\n      dup2\n        /* \"Subasta.sol\":5070:5077  i < len */\n      lt\n        /* \"Subasta.sol\":5053:5364  for (uint i = 0; i < len; i++) {... */\n      iszero\n      tag_159\n      jumpi\n        /* \"Subasta.sol\":5122:5132  msg.sender */\n      caller\n        /* \"Subasta.sol\":5098:5132  bidHistory[i].bidder == msg.sender */\n      0xffffffffffffffffffffffffffffffffffffffff\n      and\n        /* \"Subasta.sol\":5098:5108  bidHistory */\n      0x06\n        /* \"Subasta.sol\":5109:5110  i */\n      dup3\n        /* \"Subasta.sol\":5098:5111  bidHistory[i] */\n      dup2\n      sload\n      dup2\n      lt\n      tag_161\n      jumpi\n      tag_162\n      tag_146\n      jump\t// in\n    tag_162:\n    tag_161:\n      swap1\n      0x00\n      mstore\n      keccak256(0x00, 0x20)\n      swap1\n      0x04\n      mul\n      add\n        /* \"Subasta.sol\":5098:5118  bidHistory[i].bidder */\n      0x00\n      add\n      0x00\n      swap1\n      sload\n      swap1\n      0x0100\n      exp\n      swap1\n      div\n      0xffffffffffffffffffffffffffffffffffffffff\n      and\n        /* \"Subasta.sol\":5098:5132  bidHistory[i].bidder == msg.sender */\n      0xffffffffffffffffffffffffffffffffffffffff\n      and\n      eq\n        /* \"Subasta.sol\":5098:5159  bidHistory[i].bidder == msg.sender && !bidHistory[i].refunded */\n      dup1\n      iszero\n      tag_164\n      jumpi\n      pop\n        /* \"Subasta.sol\":5137:5147  bidHistory */\n      0x06\n        /* \"Subasta.sol\":5148:5149  i */\n      dup2\n        /* \"Subasta.sol\":5137:5150  bidHistory[i] */\n      dup2\n      sload\n      dup2\n      lt\n      tag_165\n      jumpi\n      tag_166\n      tag_146\n      jump\t// in\n    tag_166:\n    tag_165:\n      swap1\n      0x00\n      mstore\n      keccak256(0x00, 0x20)\n      swap1\n      0x04\n      mul\n      add\n        /* \"Subasta.sol\":5137:5159  bidHistory[i].refunded */\n      0x03\n      add\n      0x00\n      swap1\n      sload\n      swap1\n      0x0100\n      exp\n      swap1\n      div\n      0xff\n      and\n        /* \"Subasta.sol\":5136:5159  !bidHistory[i].refunded */\n      iszero\n        /* \"Subasta.sol\":5098:5159  bidHistory[i].bidder == msg.sender && !bidHistory[i].refunded */\n    tag_164:\n        /* \"Subasta.sol\":5094:5358  if (bidHistory[i].bidder == msg.sender && !bidHistory[i].refunded) {... */\n      iszero\n      tag_168\n      jumpi\n        /* \"Subasta.sol\":5175:5184  counter++ */\n      dup3\n      dup1\n      tag_169\n      swap1\n      tag_154\n      jump\t// in\n    tag_169:\n      swap4\n      pop\n      pop\n        /* \"Subasta.sol\":5212:5217  count */\n      dup5\n        /* \"Subasta.sol\":5202:5209  counter */\n      dup4\n        /* \"Subasta.sol\":5202:5217  counter < count */\n      lt\n        /* \"Subasta.sol\":5198:5348  if (counter < count) {... */\n      iszero\n      tag_170\n      jumpi\n        /* \"Subasta.sol\":5283:5286  100 */\n      0x64\n        /* \"Subasta.sol\":5277:5279  98 */\n      0x62\n        /* \"Subasta.sol\":5254:5264  bidHistory */\n      0x06\n        /* \"Subasta.sol\":5265:5266  i */\n      dup4\n        /* \"Subasta.sol\":5254:5267  bidHistory[i] */\n      dup2\n      sload\n      dup2\n      lt\n      tag_171\n      jumpi\n      tag_172\n      tag_146\n      jump\t// in\n    tag_172:\n    tag_171:\n      swap1\n      0x00\n      mstore\n      keccak256(0x00, 0x20)\n      swap1\n      0x04\n      mul\n      add\n        /* \"Subasta.sol\":5254:5274  bidHistory[i].amount */\n      0x01\n      add\n      sload\n        /* \"Subasta.sol\":5254:5279  bidHistory[i].amount * 98 */\n      tag_174\n      swap2\n      swap1\n      tag_120\n      jump\t// in\n    tag_174:\n        /* \"Subasta.sol\":5253:5286  (bidHistory[i].amount * 98) / 100 */\n      tag_175\n      swap2\n      swap1\n      tag_176\n      jump\t// in\n    tag_175:\n        /* \"Subasta.sol\":5237:5286  refundAmount += (bidHistory[i].amount * 98) / 100 */\n      dup3\n      tag_177\n      swap2\n      swap1\n      tag_129\n      jump\t// in\n    tag_177:\n      swap2\n      pop\n        /* \"Subasta.sol\":5329:5333  true */\n      0x01\n        /* \"Subasta.sol\":5304:5314  bidHistory */\n      0x06\n        /* \"Subasta.sol\":5315:5316  i */\n      dup3\n        /* \"Subasta.sol\":5304:5317  bidHistory[i] */\n      dup2\n      sload\n      dup2\n      lt\n      tag_178\n      jumpi\n      tag_179\n      tag_146\n      jump\t// in\n    tag_179:\n    tag_178:\n      swap1\n      0x00\n      mstore\n      keccak256(0x00, 0x20)\n      swap1\n      0x04\n      mul\n      add\n        /* \"Subasta.sol\":5304:5326  bidHistory[i].refunded */\n      0x03\n      add\n      0x00\n        /* \"Subasta.sol\":5304:5333  bidHistory[i].refunded = true */\n      0x0100\n      exp\n      dup2\n      sload\n      dup2\n      0xff\n      mul\n      not\n      and\n      swap1\n      dup4\n      iszero\n      iszero\n      mul\n      or\n      swap1\n      sstore\n      pop\n        /* \"Subasta.sol\":5198:5348  if (counter < count) {... */\n    tag_170:\n        /* \"Subasta.sol\":5094:5358  if (bidHistory[i].bidder == msg.sender && !bidHistory[i].refunded) {... */\n    tag_168:\n        /* \"Subasta.sol\":5079:5082  i++ */\n      dup1\n      dup1\n      0x01\n      add\n      swap2\n      pop\n      pop\n        /* \"Subasta.sol\":5053:5364  for (uint i = 0; i < len; i++) {... */\n      jump(tag_158)\n    tag_159:\n      pop\n        /* \"Subasta.sol\":5393:5394  0 */\n      0x00\n        /* \"Subasta.sol\":5378:5390  refundAmount */\n      dup2\n        /* \"Subasta.sol\":5378:5394  refundAmount > 0 */\n      gt\n        /* \"Subasta.sol\":5370:5416  require(refundAmount > 0, \"Nothing to refund\") */\n      tag_181\n      jumpi\n      mload(0x40)\n      0x08c379a000000000000000000000000000000000000000000000000000000000\n      dup2\n      mstore\n      0x04\n      add\n      tag_182\n      swap1\n      tag_183\n      jump\t// in\n    tag_182:\n      mload(0x40)\n      dup1\n      swap2\n      sub\n      swap1\n      revert\n    tag_181:\n        /* \"Subasta.sol\":5461:5470  bool sent */\n      0x00\n        /* \"Subasta.sol\":5484:5494  msg.sender */\n      caller\n        /* \"Subasta.sol\":5476:5500  payable(msg.sender).call */\n      0xffffffffffffffffffffffffffffffffffffffff\n      and\n        /* \"Subasta.sol\":5508:5520  refundAmount */\n      dup3\n        /* \"Subasta.sol\":5476:5525  payable(msg.sender).call{value: refundAmount}(\"\") */\n      mload(0x40)\n      tag_184\n      swap1\n      tag_185\n      jump\t// in\n    tag_184:\n      0x00\n      mload(0x40)\n      dup1\n      dup4\n      sub\n      dup2\n      dup6\n      dup8\n      gas\n      call\n      swap3\n      pop\n      pop\n      pop\n      returndatasize\n      dup1\n      0x00\n      dup2\n      eq\n      tag_188\n      jumpi\n      mload(0x40)\n      swap2\n      pop\n      and(add(returndatasize, 0x3f), not(0x1f))\n      dup3\n      add\n      0x40\n      mstore\n      returndatasize\n      dup3\n      mstore\n      returndatasize\n      0x00\n      0x20\n      dup5\n      add\n      returndatacopy\n      jump(tag_187)\n    tag_188:\n      0x60\n      swap2\n      pop\n    tag_187:\n      pop\n        /* \"Subasta.sol\":5460:5525  (bool sent, ) = payable(msg.sender).call{value: refundAmount}(\"\") */\n      pop\n      swap1\n      pop\n        /* \"Subasta.sol\":5539:5543  sent */\n      dup1\n        /* \"Subasta.sol\":5531:5561  require(sent, \"Refund failed\") */\n      tag_189\n      jumpi\n      mload(0x40)\n      0x08c379a000000000000000000000000000000000000000000000000000000000\n      dup2\n      mstore\n      0x04\n      add\n      tag_190\n      swap1\n      tag_191\n      jump\t// in\n    tag_190:\n      mload(0x40)\n      dup1\n      swap2\n      sub\n      swap1\n      revert\n    tag_189:\n        /* \"Subasta.sol\":5649:5661  refundAmount */\n      dup2\n        /* \"Subasta.sol\":5629:5633  bids */\n      0x05\n        /* \"Subasta.sol\":5629:5645  bids[msg.sender] */\n      0x00\n        /* \"Subasta.sol\":5634:5644  msg.sender */\n      caller\n        /* \"Subasta.sol\":5629:5645  bids[msg.sender] */\n      0xffffffffffffffffffffffffffffffffffffffff\n      and\n      0xffffffffffffffffffffffffffffffffffffffff\n      and\n      dup2\n      mstore\n      0x20\n      add\n      swap1\n      dup2\n      mstore\n      0x20\n      add\n      0x00\n      keccak256\n      0x00\n        /* \"Subasta.sol\":5629:5661  bids[msg.sender] -= refundAmount */\n      dup3\n      dup3\n      sload\n      tag_192\n      swap2\n      swap1\n      tag_126\n      jump\t// in\n    tag_192:\n      swap3\n      pop\n      pop\n      dup2\n      swap1\n      sstore\n      pop\n        /* \"Subasta.sol\":4592:5664  {... */\n      pop\n      pop\n      pop\n      pop\n      pop\n        /* \"Subasta.sol\":4530:5664  function partialRefund() external auctionActive whenNotPaused {... */\n      jump\t// out\n        /* \"Subasta.sol\":6301:7167  function refundAll() external payable onlyOwner auctionFinalized whenNotPaused { ... */\n    tag_49:\n        /* \"Subasta.sol\":1823:1828  owner */\n      0x04\n      0x00\n      swap1\n      sload\n      swap1\n      0x0100\n      exp\n      swap1\n      div\n      0xffffffffffffffffffffffffffffffffffffffff\n      and\n        /* \"Subasta.sol\":1809:1828  msg.sender == owner */\n      0xffffffffffffffffffffffffffffffffffffffff\n      and\n        /* \"Subasta.sol\":1809:1819  msg.sender */\n      caller\n        /* \"Subasta.sol\":1809:1828  msg.sender == owner */\n      0xffffffffffffffffffffffffffffffffffffffff\n      and\n      eq\n        /* \"Subasta.sol\":1801:1843  require(msg.sender == owner, \"Owner only\") */\n      tag_194\n      jumpi\n      mload(0x40)\n      0x08c379a000000000000000000000000000000000000000000000000000000000\n      dup2\n      mstore\n      0x04\n      add\n      tag_195\n      swap1\n      tag_104\n      jump\t// in\n    tag_195:\n      mload(0x40)\n      dup1\n      swap2\n      sub\n      swap1\n      revert\n    tag_194:\n        /* \"Subasta.sol\":2154:2162  stopTime */\n      sload(0x03)\n        /* \"Subasta.sol\":2135:2150  block.timestamp */\n      timestamp\n        /* \"Subasta.sol\":2135:2162  block.timestamp >= stopTime */\n      lt\n      iszero\n        /* \"Subasta.sol\":2127:2184  require(block.timestamp >= stopTime, \"Auction is active\") */\n      tag_197\n      jumpi\n      mload(0x40)\n      0x08c379a000000000000000000000000000000000000000000000000000000000\n      dup2\n      mstore\n      0x04\n      add\n      tag_198\n      swap1\n      tag_199\n      jump\t// in\n    tag_198:\n      mload(0x40)\n      dup1\n      swap2\n      sub\n      swap1\n      revert\n    tag_197:\n        /* \"Subasta.sol\":2438:2444  paused */\n      0x04\n      0x14\n      swap1\n      sload\n      swap1\n      0x0100\n      exp\n      swap1\n      div\n      0xff\n      and\n        /* \"Subasta.sol\":2437:2444  !paused */\n      iszero\n        /* \"Subasta.sol\":2429:2463  require(!paused, \"Paused == true\") */\n      tag_201\n      jumpi\n      mload(0x40)\n      0x08c379a000000000000000000000000000000000000000000000000000000000\n      dup2\n      mstore\n      0x04\n      add\n      tag_202\n      swap1\n      tag_114\n      jump\t// in\n    tag_202:\n      mload(0x40)\n      dup1\n      swap2\n      sub\n      swap1\n      revert\n    tag_201:\n        /* \"Subasta.sol\":6391:6402  uint256 len */\n      0x00\n        /* \"Subasta.sol\":6405:6415  bidHistory */\n      0x06\n        /* \"Subasta.sol\":6405:6422  bidHistory.length */\n      dup1\n      sload\n      swap1\n      pop\n        /* \"Subasta.sol\":6391:6422  uint256 len = bidHistory.length */\n      swap1\n      pop\n        /* \"Subasta.sol\":6432:6452  uint256 refundAmount */\n      0x00\n        /* \"Subasta.sol\":6464:6470  uint i */\n      0x00\n        /* \"Subasta.sol\":6473:6474  0 */\n      0x00\n        /* \"Subasta.sol\":6464:6474  uint i = 0 */\n      swap1\n      pop\n        /* \"Subasta.sol\":6460:7109  for(uint i = 0; i < len; ++i) {... */\n    tag_204:\n        /* \"Subasta.sol\":6480:6483  len */\n      dup3\n        /* \"Subasta.sol\":6476:6477  i */\n      dup2\n        /* \"Subasta.sol\":6476:6483  i < len */\n      lt\n        /* \"Subasta.sol\":6460:7109  for(uint i = 0; i < len; ++i) {... */\n      iszero\n      tag_205\n      jumpi\n        /* \"Subasta.sol\":6584:6594  highestBid */\n      sload(0x00)\n        /* \"Subasta.sol\":6560:6570  bidHistory */\n      0x06\n        /* \"Subasta.sol\":6571:6572  i */\n      dup3\n        /* \"Subasta.sol\":6560:6573  bidHistory[i] */\n      dup2\n      sload\n      dup2\n      lt\n      tag_207\n      jumpi\n      tag_208\n      tag_146\n      jump\t// in\n    tag_208:\n    tag_207:\n      swap1\n      0x00\n      mstore\n      keccak256(0x00, 0x20)\n      swap1\n      0x04\n      mul\n      add\n        /* \"Subasta.sol\":6560:6580  bidHistory[i].amount */\n      0x01\n      add\n      sload\n        /* \"Subasta.sol\":6560:6594  bidHistory[i].amount != highestBid */\n      eq\n      iszero\n        /* \"Subasta.sol\":6560:6629  bidHistory[i].amount != highestBid && bidHistory[i].refunded == false */\n      dup1\n      iszero\n      tag_210\n      jumpi\n      pop\n        /* \"Subasta.sol\":6624:6629  false */\n      0x00\n        /* \"Subasta.sol\":6598:6629  bidHistory[i].refunded == false */\n      iszero\n      iszero\n        /* \"Subasta.sol\":6598:6608  bidHistory */\n      0x06\n        /* \"Subasta.sol\":6609:6610  i */\n      dup3\n        /* \"Subasta.sol\":6598:6611  bidHistory[i] */\n      dup2\n      sload\n      dup2\n      lt\n      tag_211\n      jumpi\n      tag_212\n      tag_146\n      jump\t// in\n    tag_212:\n    tag_211:\n      swap1\n      0x00\n      mstore\n      keccak256(0x00, 0x20)\n      swap1\n      0x04\n      mul\n      add\n        /* \"Subasta.sol\":6598:6620  bidHistory[i].refunded */\n      0x03\n      add\n      0x00\n      swap1\n      sload\n      swap1\n      0x0100\n      exp\n      swap1\n      div\n      0xff\n      and\n        /* \"Subasta.sol\":6598:6629  bidHistory[i].refunded == false */\n      iszero\n      iszero\n      eq\n        /* \"Subasta.sol\":6560:6629  bidHistory[i].amount != highestBid && bidHistory[i].refunded == false */\n    tag_210:\n        /* \"Subasta.sol\":6557:7103  if(bidHistory[i].amount != highestBid && bidHistory[i].refunded == false) { ... */\n      iszero\n      tag_214\n      jumpi\n        /* \"Subasta.sol\":6744:6747  100 */\n      0x64\n        /* \"Subasta.sol\":6739:6741  98 */\n      0x62\n        /* \"Subasta.sol\":6715:6725  bidHistory */\n      0x06\n        /* \"Subasta.sol\":6726:6727  i */\n      dup4\n        /* \"Subasta.sol\":6715:6728  bidHistory[i] */\n      dup2\n      sload\n      dup2\n      lt\n      tag_215\n      jumpi\n      tag_216\n      tag_146\n      jump\t// in\n    tag_216:\n    tag_215:\n      swap1\n      0x00\n      mstore\n      keccak256(0x00, 0x20)\n      swap1\n      0x04\n      mul\n      add\n        /* \"Subasta.sol\":6715:6735  bidHistory[i].amount */\n      0x01\n      add\n      sload\n        /* \"Subasta.sol\":6714:6741  (bidHistory[i].amount) * 98 */\n      tag_218\n      swap2\n      swap1\n      tag_120\n      jump\t// in\n    tag_218:\n        /* \"Subasta.sol\":6714:6747  (bidHistory[i].amount) * 98 / 100 */\n      tag_219\n      swap2\n      swap1\n      tag_176\n      jump\t// in\n    tag_219:\n        /* \"Subasta.sol\":6699:6747  refundAmount = (bidHistory[i].amount) * 98 / 100 */\n      swap2\n      pop\n        /* \"Subasta.sol\":6801:6810  bool sent */\n      0x00\n        /* \"Subasta.sol\":6824:6834  bidHistory */\n      0x06\n        /* \"Subasta.sol\":6835:6836  i */\n      dup3\n        /* \"Subasta.sol\":6824:6837  bidHistory[i] */\n      dup2\n      sload\n      dup2\n      lt\n      tag_220\n      jumpi\n      tag_221\n      tag_146\n      jump\t// in\n    tag_221:\n    tag_220:\n      swap1\n      0x00\n      mstore\n      keccak256(0x00, 0x20)\n      swap1\n      0x04\n      mul\n      add\n        /* \"Subasta.sol\":6824:6844  bidHistory[i].bidder */\n      0x00\n      add\n      0x00\n      swap1\n      sload\n      swap1\n      0x0100\n      exp\n      swap1\n      div\n      0xffffffffffffffffffffffffffffffffffffffff\n      and\n        /* \"Subasta.sol\":6816:6850  payable(bidHistory[i].bidder).call */\n      0xffffffffffffffffffffffffffffffffffffffff\n      and\n        /* \"Subasta.sol\":6858:6870  refundAmount */\n      dup4\n        /* \"Subasta.sol\":6816:6875  payable(bidHistory[i].bidder).call{value: refundAmount}(\"\") */\n      mload(0x40)\n      tag_223\n      swap1\n      tag_185\n      jump\t// in\n    tag_223:\n      0x00\n      mload(0x40)\n      dup1\n      dup4\n      sub\n      dup2\n      dup6\n      dup8\n      gas\n      call\n      swap3\n      pop\n      pop\n      pop\n      returndatasize\n      dup1\n      0x00\n      dup2\n      eq\n      tag_226\n      jumpi\n      mload(0x40)\n      swap2\n      pop\n      and(add(returndatasize, 0x3f), not(0x1f))\n      dup3\n      add\n      0x40\n      mstore\n      returndatasize\n      dup3\n      mstore\n      returndatasize\n      0x00\n      0x20\n      dup5\n      add\n      returndatacopy\n      jump(tag_225)\n    tag_226:\n      0x60\n      swap2\n      pop\n    tag_225:\n      pop\n        /* \"Subasta.sol\":6800:6875  (bool sent, ) = payable(bidHistory[i].bidder).call{value: refundAmount}(\"\") */\n      pop\n      swap1\n      pop\n        /* \"Subasta.sol\":6898:6902  sent */\n      dup1\n        /* \"Subasta.sol\":6890:6920  require(sent, \"Refund failed\") */\n      tag_227\n      jumpi\n      mload(0x40)\n      0x08c379a000000000000000000000000000000000000000000000000000000000\n      dup2\n      mstore\n      0x04\n      add\n      tag_228\n      swap1\n      tag_191\n      jump\t// in\n    tag_228:\n      mload(0x40)\n      dup1\n      swap2\n      sub\n      swap1\n      revert\n    tag_227:\n        /* \"Subasta.sol\":6996:7000  true */\n      0x01\n        /* \"Subasta.sol\":6971:6981  bidHistory */\n      0x06\n        /* \"Subasta.sol\":6982:6983  i */\n      dup4\n        /* \"Subasta.sol\":6971:6984  bidHistory[i] */\n      dup2\n      sload\n      dup2\n      lt\n      tag_229\n      jumpi\n      tag_230\n      tag_146\n      jump\t// in\n    tag_230:\n    tag_229:\n      swap1\n      0x00\n      mstore\n      keccak256(0x00, 0x20)\n      swap1\n      0x04\n      mul\n      add\n        /* \"Subasta.sol\":6971:6993  bidHistory[i].refunded */\n      0x03\n      add\n      0x00\n        /* \"Subasta.sol\":6971:7000  bidHistory[i].refunded = true */\n      0x0100\n      exp\n      dup2\n      sload\n      dup2\n      0xff\n      mul\n      not\n      and\n      swap1\n      dup4\n      iszero\n      iszero\n      mul\n      or\n      swap1\n      sstore\n      pop\n        /* \"Subasta.sol\":7080:7092  refundAmount */\n      dup3\n        /* \"Subasta.sol\":7050:7054  bids */\n      0x05\n        /* \"Subasta.sol\":7050:7076  bids[bidHistory[i].bidder] */\n      0x00\n        /* \"Subasta.sol\":7055:7065  bidHistory */\n      0x06\n        /* \"Subasta.sol\":7066:7067  i */\n      dup6\n        /* \"Subasta.sol\":7055:7068  bidHistory[i] */\n      dup2\n      sload\n      dup2\n      lt\n      tag_232\n      jumpi\n      tag_233\n      tag_146\n      jump\t// in\n    tag_233:\n    tag_232:\n      swap1\n      0x00\n      mstore\n      keccak256(0x00, 0x20)\n      swap1\n      0x04\n      mul\n      add\n        /* \"Subasta.sol\":7055:7075  bidHistory[i].bidder */\n      0x00\n      add\n      0x00\n      swap1\n      sload\n      swap1\n      0x0100\n      exp\n      swap1\n      div\n      0xffffffffffffffffffffffffffffffffffffffff\n      and\n        /* \"Subasta.sol\":7050:7076  bids[bidHistory[i].bidder] */\n      0xffffffffffffffffffffffffffffffffffffffff\n      and\n      0xffffffffffffffffffffffffffffffffffffffff\n      and\n      dup2\n      mstore\n      0x20\n      add\n      swap1\n      dup2\n      mstore\n      0x20\n      add\n      0x00\n      keccak256\n      0x00\n        /* \"Subasta.sol\":7050:7092  bids[bidHistory[i].bidder] -= refundAmount */\n      dup3\n      dup3\n      sload\n      tag_235\n      swap2\n      swap1\n      tag_126\n      jump\t// in\n    tag_235:\n      swap3\n      pop\n      pop\n      dup2\n      swap1\n      sstore\n      pop\n        /* \"Subasta.sol\":6631:7103  { ... */\n      pop\n        /* \"Subasta.sol\":6557:7103  if(bidHistory[i].amount != highestBid && bidHistory[i].refunded == false) { ... */\n    tag_214:\n        /* \"Subasta.sol\":6485:6488  ++i */\n      dup1\n      0x01\n      add\n      swap1\n      pop\n        /* \"Subasta.sol\":6460:7109  for(uint i = 0; i < len; ++i) {... */\n      jump(tag_204)\n    tag_205:\n      pop\n        /* \"Subasta.sol\":7150:7164  AuctionEnded() */\n      0xa0e92984607195c326795751263414ee1074526323552e694c90ef2b99ae3f29\n      mload(0x40)\n      mload(0x40)\n      dup1\n      swap2\n      sub\n      swap1\n      log1\n        /* \"Subasta.sol\":6380:7167  { ... */\n      pop\n      pop\n        /* \"Subasta.sol\":6301:7167  function refundAll() external payable onlyOwner auctionFinalized whenNotPaused { ... */\n      jump\t// out\n        /* \"Subasta.sol\":5879:6004  function showFinalWinner() external view auctionFinalized returns (address, uint) {... */\n    tag_52:\n        /* \"Subasta.sol\":5946:5953  address */\n      0x00\n        /* \"Subasta.sol\":5955:5959  uint */\n      0x00\n        /* \"Subasta.sol\":2154:2162  stopTime */\n      sload(0x03)\n        /* \"Subasta.sol\":2135:2150  block.timestamp */\n      timestamp\n        /* \"Subasta.sol\":2135:2162  block.timestamp >= stopTime */\n      lt\n      iszero\n        /* \"Subasta.sol\":2127:2184  require(block.timestamp >= stopTime, \"Auction is active\") */\n      tag_237\n      jumpi\n      mload(0x40)\n      0x08c379a000000000000000000000000000000000000000000000000000000000\n      dup2\n      mstore\n      0x04\n      add\n      tag_238\n      swap1\n      tag_199\n      jump\t// in\n    tag_238:\n      mload(0x40)\n      dup1\n      swap2\n      sub\n      swap1\n      revert\n    tag_237:\n        /* \"Subasta.sol\":5975:5988  highestBidder */\n      0x01\n      0x00\n      swap1\n      sload\n      swap1\n      0x0100\n      exp\n      swap1\n      div\n      0xffffffffffffffffffffffffffffffffffffffff\n      and\n        /* \"Subasta.sol\":5990:6000  highestBid */\n      sload(0x00)\n        /* \"Subasta.sol\":5967:6001  return (highestBidder, highestBid) */\n      swap2\n      pop\n      swap2\n      pop\n        /* \"Subasta.sol\":5879:6004  function showFinalWinner() external view auctionFinalized returns (address, uint) {... */\n      swap1\n      swap2\n      jump\t// out\n        /* \"Subasta.sol\":504:530  bool public paused = false */\n    tag_57:\n      0x04\n      0x14\n      swap1\n      sload\n      swap1\n      0x0100\n      exp\n      swap1\n      div\n      0xff\n      and\n      dup2\n      jump\t// out\n        /* \"Subasta.sol\":261:285  uint256 public startTime */\n    tag_62:\n      sload(0x02)\n      dup2\n      jump\t// out\n        /* \"Subasta.sol\":425:453  address payable public owner */\n    tag_66:\n      0x04\n      0x00\n      swap1\n      sload\n      swap1\n      0x0100\n      exp\n      swap1\n      div\n      0xffffffffffffffffffffffffffffffffffffffff\n      and\n      dup2\n      jump\t// out\n        /* \"Subasta.sol\":174:202  address public highestBidder */\n    tag_71:\n      0x01\n      0x00\n      swap1\n      sload\n      swap1\n      0x0100\n      exp\n      swap1\n      div\n      0xffffffffffffffffffffffffffffffffffffffff\n      and\n      dup2\n      jump\t// out\n        /* \"Subasta.sol\":8010:8092  function getTimeNow() external view returns (uint) {... */\n    tag_76:\n        /* \"Subasta.sol\":8055:8059  uint */\n      0x00\n        /* \"Subasta.sol\":8074:8089  block.timestamp */\n      timestamp\n        /* \"Subasta.sol\":8067:8089  return block.timestamp */\n      swap1\n      pop\n        /* \"Subasta.sol\":8010:8092  function getTimeNow() external view returns (uint) {... */\n      swap1\n      jump\t// out\n        /* \"Subasta.sol\":3925:4035  function showCurrentWinner() external view returns (address, uint) {... */\n    tag_80:\n        /* \"Subasta.sol\":3977:3984  address */\n      0x00\n        /* \"Subasta.sol\":3986:3990  uint */\n      0x00\n        /* \"Subasta.sol\":4006:4019  highestBidder */\n      0x01\n      0x00\n      swap1\n      sload\n      swap1\n      0x0100\n      exp\n      swap1\n      div\n      0xffffffffffffffffffffffffffffffffffffffff\n      and\n        /* \"Subasta.sol\":4021:4031  highestBid */\n      sload(0x00)\n        /* \"Subasta.sol\":3998:4032  return (highestBidder, highestBid) */\n      swap2\n      pop\n      swap2\n      pop\n        /* \"Subasta.sol\":3925:4035  function showCurrentWinner() external view returns (address, uint) {... */\n      swap1\n      swap2\n      jump\t// out\n        /* \"Subasta.sol\":97:119  uint public highestBid */\n    tag_84:\n      sload(0x00)\n      dup2\n      jump\t// out\n        /* \"Subasta.sol\":7623:7866  function emergencyWithdraw() external onlyOwner whenPaused {... */\n    tag_88:\n        /* \"Subasta.sol\":1823:1828  owner */\n      0x04\n      0x00\n      swap1\n      sload\n      swap1\n      0x0100\n      exp\n      swap1\n      div\n      0xffffffffffffffffffffffffffffffffffffffff\n      and\n        /* \"Subasta.sol\":1809:1828  msg.sender == owner */\n      0xffffffffffffffffffffffffffffffffffffffff\n      and\n        /* \"Subasta.sol\":1809:1819  msg.sender */\n      caller\n        /* \"Subasta.sol\":1809:1828  msg.sender == owner */\n      0xffffffffffffffffffffffffffffffffffffffff\n      and\n      eq\n        /* \"Subasta.sol\":1801:1843  require(msg.sender == owner, \"Owner only\") */\n      tag_243\n      jumpi\n      mload(0x40)\n      0x08c379a000000000000000000000000000000000000000000000000000000000\n      dup2\n      mstore\n      0x04\n      add\n      tag_244\n      swap1\n      tag_104\n      jump\t// in\n    tag_244:\n      mload(0x40)\n      dup1\n      swap2\n      sub\n      swap1\n      revert\n    tag_243:\n        /* \"Subasta.sol\":2294:2300  paused */\n      0x04\n      0x14\n      swap1\n      sload\n      swap1\n      0x0100\n      exp\n      swap1\n      div\n      0xff\n      and\n        /* \"Subasta.sol\":2286:2320  require(paused, \"Paused == false\") */\n      tag_246\n      jumpi\n      mload(0x40)\n      0x08c379a000000000000000000000000000000000000000000000000000000000\n      dup2\n      mstore\n      0x04\n      add\n      tag_247\n      swap1\n      tag_248\n      jump\t// in\n    tag_247:\n      mload(0x40)\n      dup1\n      swap2\n      sub\n      swap1\n      revert\n    tag_246:\n        /* \"Subasta.sol\":7688:7700  uint balance */\n      0x00\n        /* \"Subasta.sol\":7703:7724  address(this).balance */\n      selfbalance\n        /* \"Subasta.sol\":7688:7724  uint balance = address(this).balance */\n      swap1\n      pop\n        /* \"Subasta.sol\":7748:7749  0 */\n      0x00\n        /* \"Subasta.sol\":7738:7745  balance */\n      dup2\n        /* \"Subasta.sol\":7738:7749  balance > 0 */\n      gt\n        /* \"Subasta.sol\":7730:7772  require(balance > 0, \"No ETH to withdraw\") */\n      tag_250\n      jumpi\n      mload(0x40)\n      0x08c379a000000000000000000000000000000000000000000000000000000000\n      dup2\n      mstore\n      0x04\n      add\n      tag_251\n      swap1\n      tag_252\n      jump\t// in\n    tag_251:\n      mload(0x40)\n      dup1\n      swap2\n      sub\n      swap1\n      revert\n    tag_250:\n        /* \"Subasta.sol\":7780:7789  bool sent */\n      0x00\n        /* \"Subasta.sol\":7795:7800  owner */\n      0x04\n      0x00\n      swap1\n      sload\n      swap1\n      0x0100\n      exp\n      swap1\n      div\n      0xffffffffffffffffffffffffffffffffffffffff\n      and\n        /* \"Subasta.sol\":7795:7805  owner.call */\n      0xffffffffffffffffffffffffffffffffffffffff\n      and\n        /* \"Subasta.sol\":7813:7820  balance */\n      dup3\n        /* \"Subasta.sol\":7795:7825  owner.call{value: balance}(\"\") */\n      mload(0x40)\n      tag_253\n      swap1\n      tag_185\n      jump\t// in\n    tag_253:\n      0x00\n      mload(0x40)\n      dup1\n      dup4\n      sub\n      dup2\n      dup6\n      dup8\n      gas\n      call\n      swap3\n      pop\n      pop\n      pop\n      returndatasize\n      dup1\n      0x00\n      dup2\n      eq\n      tag_256\n      jumpi\n      mload(0x40)\n      swap2\n      pop\n      and(add(returndatasize, 0x3f), not(0x1f))\n      dup3\n      add\n      0x40\n      mstore\n      returndatasize\n      dup3\n      mstore\n      returndatasize\n      0x00\n      0x20\n      dup5\n      add\n      returndatacopy\n      jump(tag_255)\n    tag_256:\n      0x60\n      swap2\n      pop\n    tag_255:\n      pop\n        /* \"Subasta.sol\":7779:7825  (bool sent, ) = owner.call{value: balance}(\"\") */\n      pop\n      swap1\n      pop\n        /* \"Subasta.sol\":7839:7843  sent */\n      dup1\n        /* \"Subasta.sol\":7831:7863  require(sent, \"Withdraw failed\") */\n      tag_257\n      jumpi\n      mload(0x40)\n      0x08c379a000000000000000000000000000000000000000000000000000000000\n      dup2\n      mstore\n      0x04\n      add\n      tag_258\n      swap1\n      tag_259\n      jump\t// in\n    tag_258:\n      mload(0x40)\n      dup1\n      swap2\n      sub\n      swap1\n      revert\n    tag_257:\n        /* \"Subasta.sol\":7682:7866  {... */\n      pop\n      pop\n        /* \"Subasta.sol\":7623:7866  function emergencyWithdraw() external onlyOwner whenPaused {... */\n      jump\t// out\n        /* \"Subasta.sol\":1356:1383  BidInfo[] public bidHistory */\n    tag_93:\n      0x06\n      dup2\n      dup2\n      sload\n      dup2\n      lt\n      tag_260\n      jumpi\n      0x00\n      dup1\n      revert\n    tag_260:\n      swap1\n      0x00\n      mstore\n      keccak256(0x00, 0x20)\n      swap1\n      0x04\n      mul\n      add\n      0x00\n      swap2\n      pop\n      swap1\n      pop\n      dup1\n      0x00\n      add\n      0x00\n      swap1\n      sload\n      swap1\n      0x0100\n      exp\n      swap1\n      div\n      0xffffffffffffffffffffffffffffffffffffffff\n      and\n      swap1\n      dup1\n      0x01\n      add\n      sload\n      swap1\n      dup1\n      0x02\n      add\n      sload\n      swap1\n      dup1\n      0x03\n      add\n      0x00\n      swap1\n      sload\n      swap1\n      0x0100\n      exp\n      swap1\n      div\n      0xff\n      and\n      swap1\n      pop\n      dup5\n      jump\t// out\n        /* \"#utility.yul\":7:84   */\n    tag_262:\n        /* \"#utility.yul\":44:51   */\n      0x00\n        /* \"#utility.yul\":73:78   */\n      dup2\n        /* \"#utility.yul\":62:78   */\n      swap1\n      pop\n        /* \"#utility.yul\":7:84   */\n      swap2\n      swap1\n      pop\n      jump\t// out\n        /* \"#utility.yul\":90:208   */\n    tag_263:\n        /* \"#utility.yul\":177:201   */\n      tag_323\n        /* \"#utility.yul\":195:200   */\n      dup2\n        /* \"#utility.yul\":177:201   */\n      tag_262\n      jump\t// in\n    tag_323:\n        /* \"#utility.yul\":172:175   */\n      dup3\n        /* \"#utility.yul\":165:202   */\n      mstore\n        /* \"#utility.yul\":90:208   */\n      pop\n      pop\n      jump\t// out\n        /* \"#utility.yul\":214:436   */\n    tag_26:\n        /* \"#utility.yul\":307:311   */\n      0x00\n        /* \"#utility.yul\":345:347   */\n      0x20\n        /* \"#utility.yul\":334:343   */\n      dup3\n        /* \"#utility.yul\":330:348   */\n      add\n        /* \"#utility.yul\":322:348   */\n      swap1\n      pop\n        /* \"#utility.yul\":358:429   */\n      tag_325\n        /* \"#utility.yul\":426:427   */\n      0x00\n        /* \"#utility.yul\":415:424   */\n      dup4\n        /* \"#utility.yul\":411:428   */\n      add\n        /* \"#utility.yul\":402:408   */\n      dup5\n        /* \"#utility.yul\":358:429   */\n      tag_263\n      jump\t// in\n    tag_325:\n        /* \"#utility.yul\":214:436   */\n      swap3\n      swap2\n      pop\n      pop\n      jump\t// out\n        /* \"#utility.yul\":523:640   */\n    tag_265:\n        /* \"#utility.yul\":632:633   */\n      0x00\n        /* \"#utility.yul\":629:630   */\n      0x00\n        /* \"#utility.yul\":622:634   */\n      revert\n        /* \"#utility.yul\":769:895   */\n    tag_267:\n        /* \"#utility.yul\":806:813   */\n      0x00\n        /* \"#utility.yul\":846:888   */\n      0xffffffffffffffffffffffffffffffffffffffff\n        /* \"#utility.yul\":839:844   */\n      dup3\n        /* \"#utility.yul\":835:889   */\n      and\n        /* \"#utility.yul\":824:889   */\n      swap1\n      pop\n        /* \"#utility.yul\":769:895   */\n      swap2\n      swap1\n      pop\n      jump\t// out\n        /* \"#utility.yul\":901:997   */\n    tag_268:\n        /* \"#utility.yul\":938:945   */\n      0x00\n        /* \"#utility.yul\":967:991   */\n      tag_331\n        /* \"#utility.yul\":985:990   */\n      dup3\n        /* \"#utility.yul\":967:991   */\n      tag_267\n      jump\t// in\n    tag_331:\n        /* \"#utility.yul\":956:991   */\n      swap1\n      pop\n        /* \"#utility.yul\":901:997   */\n      swap2\n      swap1\n      pop\n      jump\t// out\n        /* \"#utility.yul\":1003:1125   */\n    tag_269:\n        /* \"#utility.yul\":1076:1100   */\n      tag_333\n        /* \"#utility.yul\":1094:1099   */\n      dup2\n        /* \"#utility.yul\":1076:1100   */\n      tag_268\n      jump\t// in\n    tag_333:\n        /* \"#utility.yul\":1069:1074   */\n      dup2\n        /* \"#utility.yul\":1066:1101   */\n      eq\n        /* \"#utility.yul\":1056:1119   */\n      tag_334\n      jumpi\n        /* \"#utility.yul\":1115:1116   */\n      0x00\n        /* \"#utility.yul\":1112:1113   */\n      0x00\n        /* \"#utility.yul\":1105:1117   */\n      revert\n        /* \"#utility.yul\":1056:1119   */\n    tag_334:\n        /* \"#utility.yul\":1003:1125   */\n      pop\n      jump\t// out\n        /* \"#utility.yul\":1131:1270   */\n    tag_270:\n        /* \"#utility.yul\":1177:1182   */\n      0x00\n        /* \"#utility.yul\":1215:1221   */\n      dup2\n        /* \"#utility.yul\":1202:1222   */\n      calldataload\n        /* \"#utility.yul\":1193:1222   */\n      swap1\n      pop\n        /* \"#utility.yul\":1231:1264   */\n      tag_336\n        /* \"#utility.yul\":1258:1263   */\n      dup2\n        /* \"#utility.yul\":1231:1264   */\n      tag_269\n      jump\t// in\n    tag_336:\n        /* \"#utility.yul\":1131:1270   */\n      swap3\n      swap2\n      pop\n      pop\n      jump\t// out\n        /* \"#utility.yul\":1276:1605   */\n    tag_30:\n        /* \"#utility.yul\":1335:1341   */\n      0x00\n        /* \"#utility.yul\":1384:1386   */\n      0x20\n        /* \"#utility.yul\":1372:1381   */\n      dup3\n        /* \"#utility.yul\":1363:1370   */\n      dup5\n        /* \"#utility.yul\":1359:1382   */\n      sub\n        /* \"#utility.yul\":1355:1387   */\n      slt\n        /* \"#utility.yul\":1352:1471   */\n      iszero\n      tag_338\n      jumpi\n        /* \"#utility.yul\":1390:1469   */\n      tag_339\n      tag_265\n      jump\t// in\n    tag_339:\n        /* \"#utility.yul\":1352:1471   */\n    tag_338:\n        /* \"#utility.yul\":1510:1511   */\n      0x00\n        /* \"#utility.yul\":1535:1588   */\n      tag_340\n        /* \"#utility.yul\":1580:1587   */\n      dup5\n        /* \"#utility.yul\":1571:1577   */\n      dup3\n        /* \"#utility.yul\":1560:1569   */\n      dup6\n        /* \"#utility.yul\":1556:1578   */\n      add\n        /* \"#utility.yul\":1535:1588   */\n      tag_270\n      jump\t// in\n    tag_340:\n        /* \"#utility.yul\":1525:1588   */\n      swap2\n      pop\n        /* \"#utility.yul\":1481:1598   */\n      pop\n        /* \"#utility.yul\":1276:1605   */\n      swap3\n      swap2\n      pop\n      pop\n      jump\t// out\n        /* \"#utility.yul\":1611:1748   */\n    tag_271:\n        /* \"#utility.yul\":1701:1707   */\n      0x00\n        /* \"#utility.yul\":1735:1740   */\n      dup2\n        /* \"#utility.yul\":1729:1741   */\n      mload\n        /* \"#utility.yul\":1719:1741   */\n      swap1\n      pop\n        /* \"#utility.yul\":1611:1748   */\n      swap2\n      swap1\n      pop\n      jump\t// out\n        /* \"#utility.yul\":1754:1961   */\n    tag_272:\n        /* \"#utility.yul\":1876:1887   */\n      0x00\n        /* \"#utility.yul\":1910:1916   */\n      dup3\n        /* \"#utility.yul\":1905:1908   */\n      dup3\n        /* \"#utility.yul\":1898:1917   */\n      mstore\n        /* \"#utility.yul\":1950:1954   */\n      0x20\n        /* \"#utility.yul\":1945:1948   */\n      dup3\n        /* \"#utility.yul\":1941:1955   */\n      add\n        /* \"#utility.yul\":1926:1955   */\n      swap1\n      pop\n        /* \"#utility.yul\":1754:1961   */\n      swap3\n      swap2\n      pop\n      pop\n      jump\t// out\n        /* \"#utility.yul\":1967:2122   */\n    tag_273:\n        /* \"#utility.yul\":2057:2061   */\n      0x00\n        /* \"#utility.yul\":2080:2083   */\n      dup2\n        /* \"#utility.yul\":2072:2083   */\n      swap1\n      pop\n        /* \"#utility.yul\":2110:2114   */\n      0x20\n        /* \"#utility.yul\":2105:2108   */\n      dup3\n        /* \"#utility.yul\":2101:2115   */\n      add\n        /* \"#utility.yul\":2093:2115   */\n      swap1\n      pop\n        /* \"#utility.yul\":1967:2122   */\n      swap2\n      swap1\n      pop\n      jump\t// out\n        /* \"#utility.yul\":2128:2236   */\n    tag_274:\n        /* \"#utility.yul\":2205:2229   */\n      tag_345\n        /* \"#utility.yul\":2223:2228   */\n      dup2\n        /* \"#utility.yul\":2205:2229   */\n      tag_268\n      jump\t// in\n    tag_345:\n        /* \"#utility.yul\":2200:2203   */\n      dup3\n        /* \"#utility.yul\":2193:2230   */\n      mstore\n        /* \"#utility.yul\":2128:2236   */\n      pop\n      pop\n      jump\t// out\n        /* \"#utility.yul\":2242:2350   */\n    tag_275:\n        /* \"#utility.yul\":2319:2343   */\n      tag_347\n        /* \"#utility.yul\":2337:2342   */\n      dup2\n        /* \"#utility.yul\":2319:2343   */\n      tag_262\n      jump\t// in\n    tag_347:\n        /* \"#utility.yul\":2314:2317   */\n      dup3\n        /* \"#utility.yul\":2307:2344   */\n      mstore\n        /* \"#utility.yul\":2242:2350   */\n      pop\n      pop\n      jump\t// out\n        /* \"#utility.yul\":2356:2446   */\n    tag_276:\n        /* \"#utility.yul\":2390:2397   */\n      0x00\n        /* \"#utility.yul\":2433:2438   */\n      dup2\n        /* \"#utility.yul\":2426:2439   */\n      iszero\n        /* \"#utility.yul\":2419:2440   */\n      iszero\n        /* \"#utility.yul\":2408:2440   */\n      swap1\n      pop\n        /* \"#utility.yul\":2356:2446   */\n      swap2\n      swap1\n      pop\n      jump\t// out\n        /* \"#utility.yul\":2452:2551   */\n    tag_277:\n        /* \"#utility.yul\":2523:2544   */\n      tag_350\n        /* \"#utility.yul\":2538:2543   */\n      dup2\n        /* \"#utility.yul\":2523:2544   */\n      tag_276\n      jump\t// in\n    tag_350:\n        /* \"#utility.yul\":2518:2521   */\n      dup3\n        /* \"#utility.yul\":2511:2545   */\n      mstore\n        /* \"#utility.yul\":2452:2551   */\n      pop\n      pop\n      jump\t// out\n        /* \"#utility.yul\":2613:3456   */\n    tag_278:\n        /* \"#utility.yul\":2746:2750   */\n      0x80\n        /* \"#utility.yul\":2741:2744   */\n      dup3\n        /* \"#utility.yul\":2737:2751   */\n      add\n        /* \"#utility.yul\":2835:2839   */\n      0x00\n        /* \"#utility.yul\":2828:2833   */\n      dup3\n        /* \"#utility.yul\":2824:2840   */\n      add\n        /* \"#utility.yul\":2818:2841   */\n      mload\n        /* \"#utility.yul\":2854:2917   */\n      tag_352\n        /* \"#utility.yul\":2911:2915   */\n      0x00\n        /* \"#utility.yul\":2906:2909   */\n      dup6\n        /* \"#utility.yul\":2902:2916   */\n      add\n        /* \"#utility.yul\":2888:2900   */\n      dup3\n        /* \"#utility.yul\":2854:2917   */\n      tag_274\n      jump\t// in\n    tag_352:\n        /* \"#utility.yul\":2761:2927   */\n      pop\n        /* \"#utility.yul\":3011:3015   */\n      0x20\n        /* \"#utility.yul\":3004:3009   */\n      dup3\n        /* \"#utility.yul\":3000:3016   */\n      add\n        /* \"#utility.yul\":2994:3017   */\n      mload\n        /* \"#utility.yul\":3030:3093   */\n      tag_353\n        /* \"#utility.yul\":3087:3091   */\n      0x20\n        /* \"#utility.yul\":3082:3085   */\n      dup6\n        /* \"#utility.yul\":3078:3092   */\n      add\n        /* \"#utility.yul\":3064:3076   */\n      dup3\n        /* \"#utility.yul\":3030:3093   */\n      tag_275\n      jump\t// in\n    tag_353:\n        /* \"#utility.yul\":2937:3103   */\n      pop\n        /* \"#utility.yul\":3185:3189   */\n      0x40\n        /* \"#utility.yul\":3178:3183   */\n      dup3\n        /* \"#utility.yul\":3174:3190   */\n      add\n        /* \"#utility.yul\":3168:3191   */\n      mload\n        /* \"#utility.yul\":3204:3267   */\n      tag_354\n        /* \"#utility.yul\":3261:3265   */\n      0x40\n        /* \"#utility.yul\":3256:3259   */\n      dup6\n        /* \"#utility.yul\":3252:3266   */\n      add\n        /* \"#utility.yul\":3238:3250   */\n      dup3\n        /* \"#utility.yul\":3204:3267   */\n      tag_275\n      jump\t// in\n    tag_354:\n        /* \"#utility.yul\":3113:3277   */\n      pop\n        /* \"#utility.yul\":3363:3367   */\n      0x60\n        /* \"#utility.yul\":3356:3361   */\n      dup3\n        /* \"#utility.yul\":3352:3368   */\n      add\n        /* \"#utility.yul\":3346:3369   */\n      mload\n        /* \"#utility.yul\":3382:3439   */\n      tag_355\n        /* \"#utility.yul\":3433:3437   */\n      0x60\n        /* \"#utility.yul\":3428:3431   */\n      dup6\n        /* \"#utility.yul\":3424:3438   */\n      add\n        /* \"#utility.yul\":3410:3422   */\n      dup3\n        /* \"#utility.yul\":3382:3439   */\n      tag_277\n      jump\t// in\n    tag_355:\n        /* \"#utility.yul\":3287:3449   */\n      pop\n        /* \"#utility.yul\":2715:3456   */\n      pop\n        /* \"#utility.yul\":2613:3456   */\n      pop\n      pop\n      jump\t// out\n        /* \"#utility.yul\":3462:3733   */\n    tag_279:\n        /* \"#utility.yul\":3577:3587   */\n      0x00\n        /* \"#utility.yul\":3598:3690   */\n      tag_357\n        /* \"#utility.yul\":3686:3689   */\n      dup4\n        /* \"#utility.yul\":3678:3684   */\n      dup4\n        /* \"#utility.yul\":3598:3690   */\n      tag_278\n      jump\t// in\n    tag_357:\n        /* \"#utility.yul\":3722:3726   */\n      0x80\n        /* \"#utility.yul\":3717:3720   */\n      dup4\n        /* \"#utility.yul\":3713:3727   */\n      add\n        /* \"#utility.yul\":3699:3727   */\n      swap1\n      pop\n        /* \"#utility.yul\":3462:3733   */\n      swap3\n      swap2\n      pop\n      pop\n      jump\t// out\n        /* \"#utility.yul\":3739:3875   */\n    tag_280:\n        /* \"#utility.yul\":3832:3836   */\n      0x00\n        /* \"#utility.yul\":3864:3868   */\n      0x20\n        /* \"#utility.yul\":3859:3862   */\n      dup3\n        /* \"#utility.yul\":3855:3869   */\n      add\n        /* \"#utility.yul\":3847:3869   */\n      swap1\n      pop\n        /* \"#utility.yul\":3739:3875   */\n      swap2\n      swap1\n      pop\n      jump\t// out\n        /* \"#utility.yul\":3941:4857   */\n    tag_281:\n        /* \"#utility.yul\":4106:4109   */\n      0x00\n        /* \"#utility.yul\":4135:4212   */\n      tag_360\n        /* \"#utility.yul\":4206:4211   */\n      dup3\n        /* \"#utility.yul\":4135:4212   */\n      tag_271\n      jump\t// in\n    tag_360:\n        /* \"#utility.yul\":4228:4337   */\n      tag_361\n        /* \"#utility.yul\":4330:4336   */\n      dup2\n        /* \"#utility.yul\":4325:4328   */\n      dup6\n        /* \"#utility.yul\":4228:4337   */\n      tag_272\n      jump\t// in\n    tag_361:\n        /* \"#utility.yul\":4221:4337   */\n      swap4\n      pop\n        /* \"#utility.yul\":4361:4440   */\n      tag_362\n        /* \"#utility.yul\":4434:4439   */\n      dup4\n        /* \"#utility.yul\":4361:4440   */\n      tag_273\n      jump\t// in\n    tag_362:\n        /* \"#utility.yul\":4463:4470   */\n      dup1\n        /* \"#utility.yul\":4494:4495   */\n      0x00\n        /* \"#utility.yul\":4479:4832   */\n    tag_363:\n        /* \"#utility.yul\":4504:4510   */\n      dup4\n        /* \"#utility.yul\":4501:4502   */\n      dup2\n        /* \"#utility.yul\":4498:4511   */\n      lt\n        /* \"#utility.yul\":4479:4832   */\n      iszero\n      tag_365\n      jumpi\n        /* \"#utility.yul\":4580:4586   */\n      dup2\n        /* \"#utility.yul\":4574:4587   */\n      mload\n        /* \"#utility.yul\":4607:4716   */\n      tag_366\n        /* \"#utility.yul\":4712:4715   */\n      dup9\n        /* \"#utility.yul\":4697:4710   */\n      dup3\n        /* \"#utility.yul\":4607:4716   */\n      tag_279\n      jump\t// in\n    tag_366:\n        /* \"#utility.yul\":4600:4716   */\n      swap8\n      pop\n        /* \"#utility.yul\":4739:4822   */\n      tag_367\n        /* \"#utility.yul\":4815:4821   */\n      dup4\n        /* \"#utility.yul\":4739:4822   */\n      tag_280\n      jump\t// in\n    tag_367:\n        /* \"#utility.yul\":4729:4822   */\n      swap3\n      pop\n        /* \"#utility.yul\":4539:4832   */\n      pop\n        /* \"#utility.yul\":4526:4527   */\n      0x01\n        /* \"#utility.yul\":4523:4524   */\n      dup2\n        /* \"#utility.yul\":4519:4528   */\n      add\n        /* \"#utility.yul\":4514:4528   */\n      swap1\n      pop\n        /* \"#utility.yul\":4479:4832   */\n      jump(tag_363)\n    tag_365:\n        /* \"#utility.yul\":4483:4497   */\n      pop\n        /* \"#utility.yul\":4848:4851   */\n      dup6\n        /* \"#utility.yul\":4841:4851   */\n      swap4\n      pop\n        /* \"#utility.yul\":4111:4857   */\n      pop\n      pop\n      pop\n        /* \"#utility.yul\":3941:4857   */\n      swap3\n      swap2\n      pop\n      pop\n      jump\t// out\n        /* \"#utility.yul\":4863:5328   */\n    tag_37:\n        /* \"#utility.yul\":5052:5056   */\n      0x00\n        /* \"#utility.yul\":5090:5092   */\n      0x20\n        /* \"#utility.yul\":5079:5088   */\n      dup3\n        /* \"#utility.yul\":5075:5093   */\n      add\n        /* \"#utility.yul\":5067:5093   */\n      swap1\n      pop\n        /* \"#utility.yul\":5139:5148   */\n      dup2\n        /* \"#utility.yul\":5133:5137   */\n      dup2\n        /* \"#utility.yul\":5129:5149   */\n      sub\n        /* \"#utility.yul\":5125:5126   */\n      0x00\n        /* \"#utility.yul\":5114:5123   */\n      dup4\n        /* \"#utility.yul\":5110:5127   */\n      add\n        /* \"#utility.yul\":5103:5150   */\n      mstore\n        /* \"#utility.yul\":5167:5321   */\n      tag_369\n        /* \"#utility.yul\":5316:5320   */\n      dup2\n        /* \"#utility.yul\":5307:5313   */\n      dup5\n        /* \"#utility.yul\":5167:5321   */\n      tag_281\n      jump\t// in\n    tag_369:\n        /* \"#utility.yul\":5159:5321   */\n      swap1\n      pop\n        /* \"#utility.yul\":4863:5328   */\n      swap3\n      swap2\n      pop\n      pop\n      jump\t// out\n        /* \"#utility.yul\":5334:5450   */\n    tag_282:\n        /* \"#utility.yul\":5404:5425   */\n      tag_371\n        /* \"#utility.yul\":5419:5424   */\n      dup2\n        /* \"#utility.yul\":5404:5425   */\n      tag_276\n      jump\t// in\n    tag_371:\n        /* \"#utility.yul\":5397:5402   */\n      dup2\n        /* \"#utility.yul\":5394:5426   */\n      eq\n        /* \"#utility.yul\":5384:5444   */\n      tag_372\n      jumpi\n        /* \"#utility.yul\":5440:5441   */\n      0x00\n        /* \"#utility.yul\":5437:5438   */\n      0x00\n        /* \"#utility.yul\":5430:5442   */\n      revert\n        /* \"#utility.yul\":5384:5444   */\n    tag_372:\n        /* \"#utility.yul\":5334:5450   */\n      pop\n      jump\t// out\n        /* \"#utility.yul\":5456:5589   */\n    tag_283:\n        /* \"#utility.yul\":5499:5504   */\n      0x00\n        /* \"#utility.yul\":5537:5543   */\n      dup2\n        /* \"#utility.yul\":5524:5544   */\n      calldataload\n        /* \"#utility.yul\":5515:5544   */\n      swap1\n      pop\n        /* \"#utility.yul\":5553:5583   */\n      tag_374\n        /* \"#utility.yul\":5577:5582   */\n      dup2\n        /* \"#utility.yul\":5553:5583   */\n      tag_282\n      jump\t// in\n    tag_374:\n        /* \"#utility.yul\":5456:5589   */\n      swap3\n      swap2\n      pop\n      pop\n      jump\t// out\n        /* \"#utility.yul\":5595:5918   */\n    tag_41:\n        /* \"#utility.yul\":5651:5657   */\n      0x00\n        /* \"#utility.yul\":5700:5702   */\n      0x20\n        /* \"#utility.yul\":5688:5697   */\n      dup3\n        /* \"#utility.yul\":5679:5686   */\n      dup5\n        /* \"#utility.yul\":5675:5698   */\n      sub\n        /* \"#utility.yul\":5671:5703   */\n      slt\n        /* \"#utility.yul\":5668:5787   */\n      iszero\n      tag_376\n      jumpi\n        /* \"#utility.yul\":5706:5785   */\n      tag_377\n      tag_265\n      jump\t// in\n    tag_377:\n        /* \"#utility.yul\":5668:5787   */\n    tag_376:\n        /* \"#utility.yul\":5826:5827   */\n      0x00\n        /* \"#utility.yul\":5851:5901   */\n      tag_378\n        /* \"#utility.yul\":5893:5900   */\n      dup5\n        /* \"#utility.yul\":5884:5890   */\n      dup3\n        /* \"#utility.yul\":5873:5882   */\n      dup6\n        /* \"#utility.yul\":5869:5891   */\n      add\n        /* \"#utility.yul\":5851:5901   */\n      tag_283\n      jump\t// in\n    tag_378:\n        /* \"#utility.yul\":5841:5901   */\n      swap2\n      pop\n        /* \"#utility.yul\":5797:5911   */\n      pop\n        /* \"#utility.yul\":5595:5918   */\n      swap3\n      swap2\n      pop\n      pop\n      jump\t// out\n        /* \"#utility.yul\":5924:6042   */\n    tag_284:\n        /* \"#utility.yul\":6011:6035   */\n      tag_380\n        /* \"#utility.yul\":6029:6034   */\n      dup2\n        /* \"#utility.yul\":6011:6035   */\n      tag_268\n      jump\t// in\n    tag_380:\n        /* \"#utility.yul\":6006:6009   */\n      dup3\n        /* \"#utility.yul\":5999:6036   */\n      mstore\n        /* \"#utility.yul\":5924:6042   */\n      pop\n      pop\n      jump\t// out\n        /* \"#utility.yul\":6048:6380   */\n    tag_54:\n        /* \"#utility.yul\":6169:6173   */\n      0x00\n        /* \"#utility.yul\":6207:6209   */\n      0x40\n        /* \"#utility.yul\":6196:6205   */\n      dup3\n        /* \"#utility.yul\":6192:6210   */\n      add\n        /* \"#utility.yul\":6184:6210   */\n      swap1\n      pop\n        /* \"#utility.yul\":6220:6291   */\n      tag_382\n        /* \"#utility.yul\":6288:6289   */\n      0x00\n        /* \"#utility.yul\":6277:6286   */\n      dup4\n        /* \"#utility.yul\":6273:6290   */\n      add\n        /* \"#utility.yul\":6264:6270   */\n      dup6\n        /* \"#utility.yul\":6220:6291   */\n      tag_284\n      jump\t// in\n    tag_382:\n        /* \"#utility.yul\":6301:6373   */\n      tag_383\n        /* \"#utility.yul\":6369:6371   */\n      0x20\n        /* \"#utility.yul\":6358:6367   */\n      dup4\n        /* \"#utility.yul\":6354:6372   */\n      add\n        /* \"#utility.yul\":6345:6351   */\n      dup5\n        /* \"#utility.yul\":6301:6373   */\n      tag_263\n      jump\t// in\n    tag_383:\n        /* \"#utility.yul\":6048:6380   */\n      swap4\n      swap3\n      pop\n      pop\n      pop\n      jump\t// out\n        /* \"#utility.yul\":6386:6495   */\n    tag_285:\n        /* \"#utility.yul\":6467:6488   */\n      tag_385\n        /* \"#utility.yul\":6482:6487   */\n      dup2\n        /* \"#utility.yul\":6467:6488   */\n      tag_276\n      jump\t// in\n    tag_385:\n        /* \"#utility.yul\":6462:6465   */\n      dup3\n        /* \"#utility.yul\":6455:6489   */\n      mstore\n        /* \"#utility.yul\":6386:6495   */\n      pop\n      pop\n      jump\t// out\n        /* \"#utility.yul\":6501:6711   */\n    tag_59:\n        /* \"#utility.yul\":6588:6592   */\n      0x00\n        /* \"#utility.yul\":6626:6628   */\n      0x20\n        /* \"#utility.yul\":6615:6624   */\n      dup3\n        /* \"#utility.yul\":6611:6629   */\n      add\n        /* \"#utility.yul\":6603:6629   */\n      swap1\n      pop\n        /* \"#utility.yul\":6639:6704   */\n      tag_387\n        /* \"#utility.yul\":6701:6702   */\n      0x00\n        /* \"#utility.yul\":6690:6699   */\n      dup4\n        /* \"#utility.yul\":6686:6703   */\n      add\n        /* \"#utility.yul\":6677:6683   */\n      dup5\n        /* \"#utility.yul\":6639:6704   */\n      tag_285\n      jump\t// in\n    tag_387:\n        /* \"#utility.yul\":6501:6711   */\n      swap3\n      swap2\n      pop\n      pop\n      jump\t// out\n        /* \"#utility.yul\":6717:6821   */\n    tag_286:\n        /* \"#utility.yul\":6762:6769   */\n      0x00\n        /* \"#utility.yul\":6791:6815   */\n      tag_389\n        /* \"#utility.yul\":6809:6814   */\n      dup3\n        /* \"#utility.yul\":6791:6815   */\n      tag_267\n      jump\t// in\n    tag_389:\n        /* \"#utility.yul\":6780:6815   */\n      swap1\n      pop\n        /* \"#utility.yul\":6717:6821   */\n      swap2\n      swap1\n      pop\n      jump\t// out\n        /* \"#utility.yul\":6827:6969   */\n    tag_287:\n        /* \"#utility.yul\":6930:6962   */\n      tag_391\n        /* \"#utility.yul\":6956:6961   */\n      dup2\n        /* \"#utility.yul\":6930:6962   */\n      tag_286\n      jump\t// in\n    tag_391:\n        /* \"#utility.yul\":6925:6928   */\n      dup3\n        /* \"#utility.yul\":6918:6963   */\n      mstore\n        /* \"#utility.yul\":6827:6969   */\n      pop\n      pop\n      jump\t// out\n        /* \"#utility.yul\":6975:7229   */\n    tag_68:\n        /* \"#utility.yul\":7084:7088   */\n      0x00\n        /* \"#utility.yul\":7122:7124   */\n      0x20\n        /* \"#utility.yul\":7111:7120   */\n      dup3\n        /* \"#utility.yul\":7107:7125   */\n      add\n        /* \"#utility.yul\":7099:7125   */\n      swap1\n      pop\n        /* \"#utility.yul\":7135:7222   */\n      tag_393\n        /* \"#utility.yul\":7219:7220   */\n      0x00\n        /* \"#utility.yul\":7208:7217   */\n      dup4\n        /* \"#utility.yul\":7204:7221   */\n      add\n        /* \"#utility.yul\":7195:7201   */\n      dup5\n        /* \"#utility.yul\":7135:7222   */\n      tag_287\n      jump\t// in\n    tag_393:\n        /* \"#utility.yul\":6975:7229   */\n      swap3\n      swap2\n      pop\n      pop\n      jump\t// out\n        /* \"#utility.yul\":7235:7457   */\n    tag_73:\n        /* \"#utility.yul\":7328:7332   */\n      0x00\n        /* \"#utility.yul\":7366:7368   */\n      0x20\n        /* \"#utility.yul\":7355:7364   */\n      dup3\n        /* \"#utility.yul\":7351:7369   */\n      add\n        /* \"#utility.yul\":7343:7369   */\n      swap1\n      pop\n        /* \"#utility.yul\":7379:7450   */\n      tag_395\n        /* \"#utility.yul\":7447:7448   */\n      0x00\n        /* \"#utility.yul\":7436:7445   */\n      dup4\n        /* \"#utility.yul\":7432:7449   */\n      add\n        /* \"#utility.yul\":7423:7429   */\n      dup5\n        /* \"#utility.yul\":7379:7450   */\n      tag_284\n      jump\t// in\n    tag_395:\n        /* \"#utility.yul\":7235:7457   */\n      swap3\n      swap2\n      pop\n      pop\n      jump\t// out\n        /* \"#utility.yul\":7463:7585   */\n    tag_288:\n        /* \"#utility.yul\":7536:7560   */\n      tag_397\n        /* \"#utility.yul\":7554:7559   */\n      dup2\n        /* \"#utility.yul\":7536:7560   */\n      tag_262\n      jump\t// in\n    tag_397:\n        /* \"#utility.yul\":7529:7534   */\n      dup2\n        /* \"#utility.yul\":7526:7561   */\n      eq\n        /* \"#utility.yul\":7516:7579   */\n      tag_398\n      jumpi\n        /* \"#utility.yul\":7575:7576   */\n      0x00\n        /* \"#utility.yul\":7572:7573   */\n      0x00\n        /* \"#utility.yul\":7565:7577   */\n      revert\n        /* \"#utility.yul\":7516:7579   */\n    tag_398:\n        /* \"#utility.yul\":7463:7585   */\n      pop\n      jump\t// out\n        /* \"#utility.yul\":7591:7730   */\n    tag_289:\n        /* \"#utility.yul\":7637:7642   */\n      0x00\n        /* \"#utility.yul\":7675:7681   */\n      dup2\n        /* \"#utility.yul\":7662:7682   */\n      calldataload\n        /* \"#utility.yul\":7653:7682   */\n      swap1\n      pop\n        /* \"#utility.yul\":7691:7724   */\n      tag_400\n        /* \"#utility.yul\":7718:7723   */\n      dup2\n        /* \"#utility.yul\":7691:7724   */\n      tag_288\n      jump\t// in\n    tag_400:\n        /* \"#utility.yul\":7591:7730   */\n      swap3\n      swap2\n      pop\n      pop\n      jump\t// out\n        /* \"#utility.yul\":7736:8065   */\n    tag_92:\n        /* \"#utility.yul\":7795:7801   */\n      0x00\n        /* \"#utility.yul\":7844:7846   */\n      0x20\n        /* \"#utility.yul\":7832:7841   */\n      dup3\n        /* \"#utility.yul\":7823:7830   */\n      dup5\n        /* \"#utility.yul\":7819:7842   */\n      sub\n        /* \"#utility.yul\":7815:7847   */\n      slt\n        /* \"#utility.yul\":7812:7931   */\n      iszero\n      tag_402\n      jumpi\n        /* \"#utility.yul\":7850:7929   */\n      tag_403\n      tag_265\n      jump\t// in\n    tag_403:\n        /* \"#utility.yul\":7812:7931   */\n    tag_402:\n        /* \"#utility.yul\":7970:7971   */\n      0x00\n        /* \"#utility.yul\":7995:8048   */\n      tag_404\n        /* \"#utility.yul\":8040:8047   */\n      dup5\n        /* \"#utility.yul\":8031:8037   */\n      dup3\n        /* \"#utility.yul\":8020:8029   */\n      dup6\n        /* \"#utility.yul\":8016:8038   */\n      add\n        /* \"#utility.yul\":7995:8048   */\n      tag_289\n      jump\t// in\n    tag_404:\n        /* \"#utility.yul\":7985:8048   */\n      swap2\n      pop\n        /* \"#utility.yul\":7941:8058   */\n      pop\n        /* \"#utility.yul\":7736:8065   */\n      swap3\n      swap2\n      pop\n      pop\n      jump\t// out\n        /* \"#utility.yul\":8071:8612   */\n    tag_95:\n        /* \"#utility.yul\":8242:8246   */\n      0x00\n        /* \"#utility.yul\":8280:8283   */\n      0x80\n        /* \"#utility.yul\":8269:8278   */\n      dup3\n        /* \"#utility.yul\":8265:8284   */\n      add\n        /* \"#utility.yul\":8257:8284   */\n      swap1\n      pop\n        /* \"#utility.yul\":8294:8365   */\n      tag_406\n        /* \"#utility.yul\":8362:8363   */\n      0x00\n        /* \"#utility.yul\":8351:8360   */\n      dup4\n        /* \"#utility.yul\":8347:8364   */\n      add\n        /* \"#utility.yul\":8338:8344   */\n      dup8\n        /* \"#utility.yul\":8294:8365   */\n      tag_284\n      jump\t// in\n    tag_406:\n        /* \"#utility.yul\":8375:8447   */\n      tag_407\n        /* \"#utility.yul\":8443:8445   */\n      0x20\n        /* \"#utility.yul\":8432:8441   */\n      dup4\n        /* \"#utility.yul\":8428:8446   */\n      add\n        /* \"#utility.yul\":8419:8425   */\n      dup7\n        /* \"#utility.yul\":8375:8447   */\n      tag_263\n      jump\t// in\n    tag_407:\n        /* \"#utility.yul\":8457:8529   */\n      tag_408\n        /* \"#utility.yul\":8525:8527   */\n      0x40\n        /* \"#utility.yul\":8514:8523   */\n      dup4\n        /* \"#utility.yul\":8510:8528   */\n      add\n        /* \"#utility.yul\":8501:8507   */\n      dup6\n        /* \"#utility.yul\":8457:8529   */\n      tag_263\n      jump\t// in\n    tag_408:\n        /* \"#utility.yul\":8539:8605   */\n      tag_409\n        /* \"#utility.yul\":8601:8603   */\n      0x60\n        /* \"#utility.yul\":8590:8599   */\n      dup4\n        /* \"#utility.yul\":8586:8604   */\n      add\n        /* \"#utility.yul\":8577:8583   */\n      dup5\n        /* \"#utility.yul\":8539:8605   */\n      tag_285\n      jump\t// in\n    tag_409:\n        /* \"#utility.yul\":8071:8612   */\n      swap6\n      swap5\n      pop\n      pop\n      pop\n      pop\n      pop\n      jump\t// out\n        /* \"#utility.yul\":8618:8787   */\n    tag_290:\n        /* \"#utility.yul\":8702:8713   */\n      0x00\n        /* \"#utility.yul\":8736:8742   */\n      dup3\n        /* \"#utility.yul\":8731:8734   */\n      dup3\n        /* \"#utility.yul\":8724:8743   */\n      mstore\n        /* \"#utility.yul\":8776:8780   */\n      0x20\n        /* \"#utility.yul\":8771:8774   */\n      dup3\n        /* \"#utility.yul\":8767:8781   */\n      add\n        /* \"#utility.yul\":8752:8781   */\n      swap1\n      pop\n        /* \"#utility.yul\":8618:8787   */\n      swap3\n      swap2\n      pop\n      pop\n      jump\t// out\n        /* \"#utility.yul\":8793:8953   */\n    tag_291:\n        /* \"#utility.yul\":8933:8945   */\n      0x4f776e6572206f6e6c7900000000000000000000000000000000000000000000\n        /* \"#utility.yul\":8929:8930   */\n      0x00\n        /* \"#utility.yul\":8921:8927   */\n      dup3\n        /* \"#utility.yul\":8917:8931   */\n      add\n        /* \"#utility.yul\":8910:8946   */\n      mstore\n        /* \"#utility.yul\":8793:8953   */\n      pop\n      jump\t// out\n        /* \"#utility.yul\":8959:9325   */\n    tag_292:\n        /* \"#utility.yul\":9101:9104   */\n      0x00\n        /* \"#utility.yul\":9122:9189   */\n      tag_413\n        /* \"#utility.yul\":9186:9188   */\n      0x0a\n        /* \"#utility.yul\":9181:9184   */\n      dup4\n        /* \"#utility.yul\":9122:9189   */\n      tag_290\n      jump\t// in\n    tag_413:\n        /* \"#utility.yul\":9115:9189   */\n      swap2\n      pop\n        /* \"#utility.yul\":9198:9291   */\n      tag_414\n        /* \"#utility.yul\":9287:9290   */\n      dup3\n        /* \"#utility.yul\":9198:9291   */\n      tag_291\n      jump\t// in\n    tag_414:\n        /* \"#utility.yul\":9316:9318   */\n      0x20\n        /* \"#utility.yul\":9311:9314   */\n      dup3\n        /* \"#utility.yul\":9307:9319   */\n      add\n        /* \"#utility.yul\":9300:9319   */\n      swap1\n      pop\n        /* \"#utility.yul\":8959:9325   */\n      swap2\n      swap1\n      pop\n      jump\t// out\n        /* \"#utility.yul\":9331:9750   */\n    tag_104:\n        /* \"#utility.yul\":9497:9501   */\n      0x00\n        /* \"#utility.yul\":9535:9537   */\n      0x20\n        /* \"#utility.yul\":9524:9533   */\n      dup3\n        /* \"#utility.yul\":9520:9538   */\n      add\n        /* \"#utility.yul\":9512:9538   */\n      swap1\n      pop\n        /* \"#utility.yul\":9584:9593   */\n      dup2\n        /* \"#utility.yul\":9578:9582   */\n      dup2\n        /* \"#utility.yul\":9574:9594   */\n      sub\n        /* \"#utility.yul\":9570:9571   */\n      0x00\n        /* \"#utility.yul\":9559:9568   */\n      dup4\n        /* \"#utility.yul\":9555:9572   */\n      add\n        /* \"#utility.yul\":9548:9595   */\n      mstore\n        /* \"#utility.yul\":9612:9743   */\n      tag_416\n        /* \"#utility.yul\":9738:9742   */\n      dup2\n        /* \"#utility.yul\":9612:9743   */\n      tag_292\n      jump\t// in\n    tag_416:\n        /* \"#utility.yul\":9604:9743   */\n      swap1\n      pop\n        /* \"#utility.yul\":9331:9750   */\n      swap2\n      swap1\n      pop\n      jump\t// out\n        /* \"#utility.yul\":9756:9927   */\n    tag_293:\n        /* \"#utility.yul\":9896:9919   */\n      0x41756374696f6e206973206e6f74206163746976650000000000000000000000\n        /* \"#utility.yul\":9892:9893   */\n      0x00\n        /* \"#utility.yul\":9884:9890   */\n      dup3\n        /* \"#utility.yul\":9880:9894   */\n      add\n        /* \"#utility.yul\":9873:9920   */\n      mstore\n        /* \"#utility.yul\":9756:9927   */\n      pop\n      jump\t// out\n        /* \"#utility.yul\":9933:10299   */\n    tag_294:\n        /* \"#utility.yul\":10075:10078   */\n      0x00\n        /* \"#utility.yul\":10096:10163   */\n      tag_419\n        /* \"#utility.yul\":10160:10162   */\n      0x15\n        /* \"#utility.yul\":10155:10158   */\n      dup4\n        /* \"#utility.yul\":10096:10163   */\n      tag_290\n      jump\t// in\n    tag_419:\n        /* \"#utility.yul\":10089:10163   */\n      swap2\n      pop\n        /* \"#utility.yul\":10172:10265   */\n      tag_420\n        /* \"#utility.yul\":10261:10264   */\n      dup3\n        /* \"#utility.yul\":10172:10265   */\n      tag_293\n      jump\t// in\n    tag_420:\n        /* \"#utility.yul\":10290:10292   */\n      0x20\n        /* \"#utility.yul\":10285:10288   */\n      dup3\n        /* \"#utility.yul\":10281:10293   */\n      add\n        /* \"#utility.yul\":10274:10293   */\n      swap1\n      pop\n        /* \"#utility.yul\":9933:10299   */\n      swap2\n      swap1\n      pop\n      jump\t// out\n        /* \"#utility.yul\":10305:10724   */\n    tag_110:\n        /* \"#utility.yul\":10471:10475   */\n      0x00\n        /* \"#utility.yul\":10509:10511   */\n      0x20\n        /* \"#utility.yul\":10498:10507   */\n      dup3\n        /* \"#utility.yul\":10494:10512   */\n      add\n        /* \"#utility.yul\":10486:10512   */\n      swap1\n      pop\n        /* \"#utility.yul\":10558:10567   */\n      dup2\n        /* \"#utility.yul\":10552:10556   */\n      dup2\n        /* \"#utility.yul\":10548:10568   */\n      sub\n        /* \"#utility.yul\":10544:10545   */\n      0x00\n        /* \"#utility.yul\":10533:10542   */\n      dup4\n        /* \"#utility.yul\":10529:10546   */\n      add\n        /* \"#utility.yul\":10522:10569   */\n      mstore\n        /* \"#utility.yul\":10586:10717   */\n      tag_422\n        /* \"#utility.yul\":10712:10716   */\n      dup2\n        /* \"#utility.yul\":10586:10717   */\n      tag_294\n      jump\t// in\n    tag_422:\n        /* \"#utility.yul\":10578:10717   */\n      swap1\n      pop\n        /* \"#utility.yul\":10305:10724   */\n      swap2\n      swap1\n      pop\n      jump\t// out\n        /* \"#utility.yul\":10730:10894   */\n    tag_295:\n        /* \"#utility.yul\":10870:10886   */\n      0x506175736564203d3d2074727565000000000000000000000000000000000000\n        /* \"#utility.yul\":10866:10867   */\n      0x00\n        /* \"#utility.yul\":10858:10864   */\n      dup3\n        /* \"#utility.yul\":10854:10868   */\n      add\n        /* \"#utility.yul\":10847:10887   */\n      mstore\n        /* \"#utility.yul\":10730:10894   */\n      pop\n      jump\t// out\n        /* \"#utility.yul\":10900:11266   */\n    tag_296:\n        /* \"#utility.yul\":11042:11045   */\n      0x00\n        /* \"#utility.yul\":11063:11130   */\n      tag_425\n        /* \"#utility.yul\":11127:11129   */\n      0x0e\n        /* \"#utility.yul\":11122:11125   */\n      dup4\n        /* \"#utility.yul\":11063:11130   */\n      tag_290\n      jump\t// in\n    tag_425:\n        /* \"#utility.yul\":11056:11130   */\n      swap2\n      pop\n        /* \"#utility.yul\":11139:11232   */\n      tag_426\n        /* \"#utility.yul\":11228:11231   */\n      dup3\n        /* \"#utility.yul\":11139:11232   */\n      tag_295\n      jump\t// in\n    tag_426:\n        /* \"#utility.yul\":11257:11259   */\n      0x20\n        /* \"#utility.yul\":11252:11255   */\n      dup3\n        /* \"#utility.yul\":11248:11260   */\n      add\n        /* \"#utility.yul\":11241:11260   */\n      swap1\n      pop\n        /* \"#utility.yul\":10900:11266   */\n      swap2\n      swap1\n      pop\n      jump\t// out\n        /* \"#utility.yul\":11272:11691   */\n    tag_114:\n        /* \"#utility.yul\":11438:11442   */\n      0x00\n        /* \"#utility.yul\":11476:11478   */\n      0x20\n        /* \"#utility.yul\":11465:11474   */\n      dup3\n        /* \"#utility.yul\":11461:11479   */\n      add\n        /* \"#utility.yul\":11453:11479   */\n      swap1\n      pop\n        /* \"#utility.yul\":11525:11534   */\n      dup2\n        /* \"#utility.yul\":11519:11523   */\n      dup2\n        /* \"#utility.yul\":11515:11535   */\n      sub\n        /* \"#utility.yul\":11511:11512   */\n      0x00\n        /* \"#utility.yul\":11500:11509   */\n      dup4\n        /* \"#utility.yul\":11496:11513   */\n      add\n        /* \"#utility.yul\":11489:11536   */\n      mstore\n        /* \"#utility.yul\":11553:11684   */\n      tag_428\n        /* \"#utility.yul\":11679:11683   */\n      dup2\n        /* \"#utility.yul\":11553:11684   */\n      tag_296\n      jump\t// in\n    tag_428:\n        /* \"#utility.yul\":11545:11684   */\n      swap1\n      pop\n        /* \"#utility.yul\":11272:11691   */\n      swap2\n      swap1\n      pop\n      jump\t// out\n        /* \"#utility.yul\":11697:11853   */\n    tag_297:\n        /* \"#utility.yul\":11837:11845   */\n      0x4e6f204554480000000000000000000000000000000000000000000000000000\n        /* \"#utility.yul\":11833:11834   */\n      0x00\n        /* \"#utility.yul\":11825:11831   */\n      dup3\n        /* \"#utility.yul\":11821:11835   */\n      add\n        /* \"#utility.yul\":11814:11846   */\n      mstore\n        /* \"#utility.yul\":11697:11853   */\n      pop\n      jump\t// out\n        /* \"#utility.yul\":11859:12224   */\n    tag_298:\n        /* \"#utility.yul\":12001:12004   */\n      0x00\n        /* \"#utility.yul\":12022:12088   */\n      tag_431\n        /* \"#utility.yul\":12086:12087   */\n      0x06\n        /* \"#utility.yul\":12081:12084   */\n      dup4\n        /* \"#utility.yul\":12022:12088   */\n      tag_290\n      jump\t// in\n    tag_431:\n        /* \"#utility.yul\":12015:12088   */\n      swap2\n      pop\n        /* \"#utility.yul\":12097:12190   */\n      tag_432\n        /* \"#utility.yul\":12186:12189   */\n      dup3\n        /* \"#utility.yul\":12097:12190   */\n      tag_297\n      jump\t// in\n    tag_432:\n        /* \"#utility.yul\":12215:12217   */\n      0x20\n        /* \"#utility.yul\":12210:12213   */\n      dup3\n        /* \"#utility.yul\":12206:12218   */\n      add\n        /* \"#utility.yul\":12199:12218   */\n      swap1\n      pop\n        /* \"#utility.yul\":11859:12224   */\n      swap2\n      swap1\n      pop\n      jump\t// out\n        /* \"#utility.yul\":12230:12649   */\n    tag_118:\n        /* \"#utility.yul\":12396:12400   */\n      0x00\n        /* \"#utility.yul\":12434:12436   */\n      0x20\n        /* \"#utility.yul\":12423:12432   */\n      dup3\n        /* \"#utility.yul\":12419:12437   */\n      add\n        /* \"#utility.yul\":12411:12437   */\n      swap1\n      pop\n        /* \"#utility.yul\":12483:12492   */\n      dup2\n        /* \"#utility.yul\":12477:12481   */\n      dup2\n        /* \"#utility.yul\":12473:12493   */\n      sub\n        /* \"#utility.yul\":12469:12470   */\n      0x00\n        /* \"#utility.yul\":12458:12467   */\n      dup4\n        /* \"#utility.yul\":12454:12471   */\n      add\n        /* \"#utility.yul\":12447:12494   */\n      mstore\n        /* \"#utility.yul\":12511:12642   */\n      tag_434\n        /* \"#utility.yul\":12637:12641   */\n      dup2\n        /* \"#utility.yul\":12511:12642   */\n      tag_298\n      jump\t// in\n    tag_434:\n        /* \"#utility.yul\":12503:12642   */\n      swap1\n      pop\n        /* \"#utility.yul\":12230:12649   */\n      swap2\n      swap1\n      pop\n      jump\t// out\n        /* \"#utility.yul\":12655:12835   */\n    tag_299:\n        /* \"#utility.yul\":12703:12780   */\n      0x4e487b7100000000000000000000000000000000000000000000000000000000\n        /* \"#utility.yul\":12700:12701   */\n      0x00\n        /* \"#utility.yul\":12693:12781   */\n      mstore\n        /* \"#utility.yul\":12800:12804   */\n      0x11\n        /* \"#utility.yul\":12797:12798   */\n      0x04\n        /* \"#utility.yul\":12790:12805   */\n      mstore\n        /* \"#utility.yul\":12824:12828   */\n      0x24\n        /* \"#utility.yul\":12821:12822   */\n      0x00\n        /* \"#utility.yul\":12814:12829   */\n      revert\n        /* \"#utility.yul\":12841:13251   */\n    tag_120:\n        /* \"#utility.yul\":12881:12888   */\n      0x00\n        /* \"#utility.yul\":12904:12924   */\n      tag_437\n        /* \"#utility.yul\":12922:12923   */\n      dup3\n        /* \"#utility.yul\":12904:12924   */\n      tag_262\n      jump\t// in\n    tag_437:\n        /* \"#utility.yul\":12899:12924   */\n      swap2\n      pop\n        /* \"#utility.yul\":12938:12958   */\n      tag_438\n        /* \"#utility.yul\":12956:12957   */\n      dup4\n        /* \"#utility.yul\":12938:12958   */\n      tag_262\n      jump\t// in\n    tag_438:\n        /* \"#utility.yul\":12933:12958   */\n      swap3\n      pop\n        /* \"#utility.yul\":12993:12994   */\n      dup3\n        /* \"#utility.yul\":12990:12991   */\n      dup3\n        /* \"#utility.yul\":12986:12995   */\n      mul\n        /* \"#utility.yul\":13015:13045   */\n      tag_439\n        /* \"#utility.yul\":13033:13044   */\n      dup2\n        /* \"#utility.yul\":13015:13045   */\n      tag_262\n      jump\t// in\n    tag_439:\n        /* \"#utility.yul\":13004:13045   */\n      swap2\n      pop\n        /* \"#utility.yul\":13194:13195   */\n      dup3\n        /* \"#utility.yul\":13185:13192   */\n      dup3\n        /* \"#utility.yul\":13181:13196   */\n      div\n        /* \"#utility.yul\":13178:13179   */\n      dup5\n        /* \"#utility.yul\":13175:13197   */\n      eq\n        /* \"#utility.yul\":13155:13156   */\n      dup4\n        /* \"#utility.yul\":13148:13157   */\n      iszero\n        /* \"#utility.yul\":13128:13211   */\n      or\n        /* \"#utility.yul\":13105:13244   */\n      tag_440\n      jumpi\n        /* \"#utility.yul\":13224:13242   */\n      tag_441\n      tag_299\n      jump\t// in\n    tag_441:\n        /* \"#utility.yul\":13105:13244   */\n    tag_440:\n        /* \"#utility.yul\":12889:13251   */\n      pop\n        /* \"#utility.yul\":12841:13251   */\n      swap3\n      swap2\n      pop\n      pop\n      jump\t// out\n        /* \"#utility.yul\":13257:13415   */\n    tag_300:\n        /* \"#utility.yul\":13397:13407   */\n      0x426964203c203525000000000000000000000000000000000000000000000000\n        /* \"#utility.yul\":13393:13394   */\n      0x00\n        /* \"#utility.yul\":13385:13391   */\n      dup3\n        /* \"#utility.yul\":13381:13395   */\n      add\n        /* \"#utility.yul\":13374:13408   */\n      mstore\n        /* \"#utility.yul\":13257:13415   */\n      pop\n      jump\t// out\n        /* \"#utility.yul\":13421:13786   */\n    tag_301:\n        /* \"#utility.yul\":13563:13566   */\n      0x00\n        /* \"#utility.yul\":13584:13650   */\n      tag_444\n        /* \"#utility.yul\":13648:13649   */\n      0x08\n        /* \"#utility.yul\":13643:13646   */\n      dup4\n        /* \"#utility.yul\":13584:13650   */\n      tag_290\n      jump\t// in\n    tag_444:\n        /* \"#utility.yul\":13577:13650   */\n      swap2\n      pop\n        /* \"#utility.yul\":13659:13752   */\n      tag_445\n        /* \"#utility.yul\":13748:13751   */\n      dup3\n        /* \"#utility.yul\":13659:13752   */\n      tag_300\n      jump\t// in\n    tag_445:\n        /* \"#utility.yul\":13777:13779   */\n      0x20\n        /* \"#utility.yul\":13772:13775   */\n      dup3\n        /* \"#utility.yul\":13768:13780   */\n      add\n        /* \"#utility.yul\":13761:13780   */\n      swap1\n      pop\n        /* \"#utility.yul\":13421:13786   */\n      swap2\n      swap1\n      pop\n      jump\t// out\n        /* \"#utility.yul\":13792:14211   */\n    tag_124:\n        /* \"#utility.yul\":13958:13962   */\n      0x00\n        /* \"#utility.yul\":13996:13998   */\n      0x20\n        /* \"#utility.yul\":13985:13994   */\n      dup3\n        /* \"#utility.yul\":13981:13999   */\n      add\n        /* \"#utility.yul\":13973:13999   */\n      swap1\n      pop\n        /* \"#utility.yul\":14045:14054   */\n      dup2\n        /* \"#utility.yul\":14039:14043   */\n      dup2\n        /* \"#utility.yul\":14035:14055   */\n      sub\n        /* \"#utility.yul\":14031:14032   */\n      0x00\n        /* \"#utility.yul\":14020:14029   */\n      dup4\n        /* \"#utility.yul\":14016:14033   */\n      add\n        /* \"#utility.yul\":14009:14056   */\n      mstore\n        /* \"#utility.yul\":14073:14204   */\n      tag_447\n        /* \"#utility.yul\":14199:14203   */\n      dup2\n        /* \"#utility.yul\":14073:14204   */\n      tag_301\n      jump\t// in\n    tag_447:\n        /* \"#utility.yul\":14065:14204   */\n      swap1\n      pop\n        /* \"#utility.yul\":13792:14211   */\n      swap2\n      swap1\n      pop\n      jump\t// out\n        /* \"#utility.yul\":14217:14411   */\n    tag_126:\n        /* \"#utility.yul\":14257:14261   */\n      0x00\n        /* \"#utility.yul\":14277:14297   */\n      tag_449\n        /* \"#utility.yul\":14295:14296   */\n      dup3\n        /* \"#utility.yul\":14277:14297   */\n      tag_262\n      jump\t// in\n    tag_449:\n        /* \"#utility.yul\":14272:14297   */\n      swap2\n      pop\n        /* \"#utility.yul\":14311:14331   */\n      tag_450\n        /* \"#utility.yul\":14329:14330   */\n      dup4\n        /* \"#utility.yul\":14311:14331   */\n      tag_262\n      jump\t// in\n    tag_450:\n        /* \"#utility.yul\":14306:14331   */\n      swap3\n      pop\n        /* \"#utility.yul\":14355:14356   */\n      dup3\n        /* \"#utility.yul\":14352:14353   */\n      dup3\n        /* \"#utility.yul\":14348:14357   */\n      sub\n        /* \"#utility.yul\":14340:14357   */\n      swap1\n      pop\n        /* \"#utility.yul\":14379:14380   */\n      dup2\n        /* \"#utility.yul\":14373:14377   */\n      dup2\n        /* \"#utility.yul\":14370:14381   */\n      gt\n        /* \"#utility.yul\":14367:14404   */\n      iszero\n      tag_451\n      jumpi\n        /* \"#utility.yul\":14384:14402   */\n      tag_452\n      tag_299\n      jump\t// in\n    tag_452:\n        /* \"#utility.yul\":14367:14404   */\n    tag_451:\n        /* \"#utility.yul\":14217:14411   */\n      swap3\n      swap2\n      pop\n      pop\n      jump\t// out\n        /* \"#utility.yul\":14417:14608   */\n    tag_129:\n        /* \"#utility.yul\":14457:14460   */\n      0x00\n        /* \"#utility.yul\":14476:14496   */\n      tag_454\n        /* \"#utility.yul\":14494:14495   */\n      dup3\n        /* \"#utility.yul\":14476:14496   */\n      tag_262\n      jump\t// in\n    tag_454:\n        /* \"#utility.yul\":14471:14496   */\n      swap2\n      pop\n        /* \"#utility.yul\":14510:14530   */\n      tag_455\n        /* \"#utility.yul\":14528:14529   */\n      dup4\n        /* \"#utility.yul\":14510:14530   */\n      tag_262\n      jump\t// in\n    tag_455:\n        /* \"#utility.yul\":14505:14530   */\n      swap3\n      pop\n        /* \"#utility.yul\":14553:14554   */\n      dup3\n        /* \"#utility.yul\":14550:14551   */\n      dup3\n        /* \"#utility.yul\":14546:14555   */\n      add\n        /* \"#utility.yul\":14539:14555   */\n      swap1\n      pop\n        /* \"#utility.yul\":14574:14577   */\n      dup1\n        /* \"#utility.yul\":14571:14572   */\n      dup3\n        /* \"#utility.yul\":14568:14578   */\n      gt\n        /* \"#utility.yul\":14565:14601   */\n      iszero\n      tag_456\n      jumpi\n        /* \"#utility.yul\":14581:14599   */\n      tag_457\n      tag_299\n      jump\t// in\n    tag_457:\n        /* \"#utility.yul\":14565:14601   */\n    tag_456:\n        /* \"#utility.yul\":14417:14608   */\n      swap3\n      swap2\n      pop\n      pop\n      jump\t// out\n        /* \"#utility.yul\":14614:14794   */\n    tag_146:\n        /* \"#utility.yul\":14662:14739   */\n      0x4e487b7100000000000000000000000000000000000000000000000000000000\n        /* \"#utility.yul\":14659:14660   */\n      0x00\n        /* \"#utility.yul\":14652:14740   */\n      mstore\n        /* \"#utility.yul\":14759:14763   */\n      0x32\n        /* \"#utility.yul\":14756:14757   */\n      0x04\n        /* \"#utility.yul\":14749:14764   */\n      mstore\n        /* \"#utility.yul\":14783:14787   */\n      0x24\n        /* \"#utility.yul\":14780:14781   */\n      0x00\n        /* \"#utility.yul\":14773:14788   */\n      revert\n        /* \"#utility.yul\":14800:15033   */\n    tag_154:\n        /* \"#utility.yul\":14839:14842   */\n      0x00\n        /* \"#utility.yul\":14862:14886   */\n      tag_460\n        /* \"#utility.yul\":14880:14885   */\n      dup3\n        /* \"#utility.yul\":14862:14886   */\n      tag_262\n      jump\t// in\n    tag_460:\n        /* \"#utility.yul\":14853:14886   */\n      swap2\n      pop\n        /* \"#utility.yul\":14908:14974   */\n      0xffffffffffffffffffffffffffffffffffffffffffffffffffffffffffffffff\n        /* \"#utility.yul\":14901:14906   */\n      dup3\n        /* \"#utility.yul\":14898:14975   */\n      sub\n        /* \"#utility.yul\":14895:14998   */\n      tag_461\n      jumpi\n        /* \"#utility.yul\":14978:14996   */\n      tag_462\n      tag_299\n      jump\t// in\n    tag_462:\n        /* \"#utility.yul\":14895:14998   */\n    tag_461:\n        /* \"#utility.yul\":15025:15026   */\n      0x01\n        /* \"#utility.yul\":15018:15023   */\n      dup3\n        /* \"#utility.yul\":15014:15027   */\n      add\n        /* \"#utility.yul\":15007:15027   */\n      swap1\n      pop\n        /* \"#utility.yul\":14800:15033   */\n      swap2\n      swap1\n      pop\n      jump\t// out\n        /* \"#utility.yul\":15039:15207   */\n    tag_302:\n        /* \"#utility.yul\":15179:15199   */\n      0x4e6f20726566756e6461626c6520626964730000000000000000000000000000\n        /* \"#utility.yul\":15175:15176   */\n      0x00\n        /* \"#utility.yul\":15167:15173   */\n      dup3\n        /* \"#utility.yul\":15163:15177   */\n      add\n        /* \"#utility.yul\":15156:15200   */\n      mstore\n        /* \"#utility.yul\":15039:15207   */\n      pop\n      jump\t// out\n        /* \"#utility.yul\":15213:15579   */\n    tag_303:\n        /* \"#utility.yul\":15355:15358   */\n      0x00\n        /* \"#utility.yul\":15376:15443   */\n      tag_465\n        /* \"#utility.yul\":15440:15442   */\n      0x12\n        /* \"#utility.yul\":15435:15438   */\n      dup4\n        /* \"#utility.yul\":15376:15443   */\n      tag_290\n      jump\t// in\n    tag_465:\n        /* \"#utility.yul\":15369:15443   */\n      swap2\n      pop\n        /* \"#utility.yul\":15452:15545   */\n      tag_466\n        /* \"#utility.yul\":15541:15544   */\n      dup3\n        /* \"#utility.yul\":15452:15545   */\n      tag_302\n      jump\t// in\n    tag_466:\n        /* \"#utility.yul\":15570:15572   */\n      0x20\n        /* \"#utility.yul\":15565:15568   */\n      dup3\n        /* \"#utility.yul\":15561:15573   */\n      add\n        /* \"#utility.yul\":15554:15573   */\n      swap1\n      pop\n        /* \"#utility.yul\":15213:15579   */\n      swap2\n      swap1\n      pop\n      jump\t// out\n        /* \"#utility.yul\":15585:16004   */\n    tag_157:\n        /* \"#utility.yul\":15751:15755   */\n      0x00\n        /* \"#utility.yul\":15789:15791   */\n      0x20\n        /* \"#utility.yul\":15778:15787   */\n      dup3\n        /* \"#utility.yul\":15774:15792   */\n      add\n        /* \"#utility.yul\":15766:15792   */\n      swap1\n      pop\n        /* \"#utility.yul\":15838:15847   */\n      dup2\n        /* \"#utility.yul\":15832:15836   */\n      dup2\n        /* \"#utility.yul\":15828:15848   */\n      sub\n        /* \"#utility.yul\":15824:15825   */\n      0x00\n        /* \"#utility.yul\":15813:15822   */\n      dup4\n        /* \"#utility.yul\":15809:15826   */\n      add\n        /* \"#utility.yul\":15802:15849   */\n      mstore\n        /* \"#utility.yul\":15866:15997   */\n      tag_468\n        /* \"#utility.yul\":15992:15996   */\n      dup2\n        /* \"#utility.yul\":15866:15997   */\n      tag_303\n      jump\t// in\n    tag_468:\n        /* \"#utility.yul\":15858:15997   */\n      swap1\n      pop\n        /* \"#utility.yul\":15585:16004   */\n      swap2\n      swap1\n      pop\n      jump\t// out\n        /* \"#utility.yul\":16010:16190   */\n    tag_304:\n        /* \"#utility.yul\":16058:16135   */\n      0x4e487b7100000000000000000000000000000000000000000000000000000000\n        /* \"#utility.yul\":16055:16056   */\n      0x00\n        /* \"#utility.yul\":16048:16136   */\n      mstore\n        /* \"#utility.yul\":16155:16159   */\n      0x12\n        /* \"#utility.yul\":16152:16153   */\n      0x04\n        /* \"#utility.yul\":16145:16160   */\n      mstore\n        /* \"#utility.yul\":16179:16183   */\n      0x24\n        /* \"#utility.yul\":16176:16177   */\n      0x00\n        /* \"#utility.yul\":16169:16184   */\n      revert\n        /* \"#utility.yul\":16196:16381   */\n    tag_176:\n        /* \"#utility.yul\":16236:16237   */\n      0x00\n        /* \"#utility.yul\":16253:16273   */\n      tag_471\n        /* \"#utility.yul\":16271:16272   */\n      dup3\n        /* \"#utility.yul\":16253:16273   */\n      tag_262\n      jump\t// in\n    tag_471:\n        /* \"#utility.yul\":16248:16273   */\n      swap2\n      pop\n        /* \"#utility.yul\":16287:16307   */\n      tag_472\n        /* \"#utility.yul\":16305:16306   */\n      dup4\n        /* \"#utility.yul\":16287:16307   */\n      tag_262\n      jump\t// in\n    tag_472:\n        /* \"#utility.yul\":16282:16307   */\n      swap3\n      pop\n        /* \"#utility.yul\":16326:16327   */\n      dup3\n        /* \"#utility.yul\":16316:16351   */\n      tag_473\n      jumpi\n        /* \"#utility.yul\":16331:16349   */\n      tag_474\n      tag_304\n      jump\t// in\n    tag_474:\n        /* \"#utility.yul\":16316:16351   */\n    tag_473:\n        /* \"#utility.yul\":16373:16374   */\n      dup3\n        /* \"#utility.yul\":16370:16371   */\n      dup3\n        /* \"#utility.yul\":16366:16375   */\n      div\n        /* \"#utility.yul\":16361:16375   */\n      swap1\n      pop\n        /* \"#utility.yul\":16196:16381   */\n      swap3\n      swap2\n      pop\n      pop\n      jump\t// out\n        /* \"#utility.yul\":16387:16554   */\n    tag_305:\n        /* \"#utility.yul\":16527:16546   */\n      0x4e6f7468696e6720746f20726566756e64000000000000000000000000000000\n        /* \"#utility.yul\":16523:16524   */\n      0x00\n        /* \"#utility.yul\":16515:16521   */\n      dup3\n        /* \"#utility.yul\":16511:16525   */\n      add\n        /* \"#utility.yul\":16504:16547   */\n      mstore\n        /* \"#utility.yul\":16387:16554   */\n      pop\n      jump\t// out\n        /* \"#utility.yul\":16560:16926   */\n    tag_306:\n        /* \"#utility.yul\":16702:16705   */\n      0x00\n        /* \"#utility.yul\":16723:16790   */\n      tag_477\n        /* \"#utility.yul\":16787:16789   */\n      0x11\n        /* \"#utility.yul\":16782:16785   */\n      dup4\n        /* \"#utility.yul\":16723:16790   */\n      tag_290\n      jump\t// in\n    tag_477:\n        /* \"#utility.yul\":16716:16790   */\n      swap2\n      pop\n        /* \"#utility.yul\":16799:16892   */\n      tag_478\n        /* \"#utility.yul\":16888:16891   */\n      dup3\n        /* \"#utility.yul\":16799:16892   */\n      tag_305\n      jump\t// in\n    tag_478:\n        /* \"#utility.yul\":16917:16919   */\n      0x20\n        /* \"#utility.yul\":16912:16915   */\n      dup3\n        /* \"#utility.yul\":16908:16920   */\n      add\n        /* \"#utility.yul\":16901:16920   */\n      swap1\n      pop\n        /* \"#utility.yul\":16560:16926   */\n      swap2\n      swap1\n      pop\n      jump\t// out\n        /* \"#utility.yul\":16932:17351   */\n    tag_183:\n        /* \"#utility.yul\":17098:17102   */\n      0x00\n        /* \"#utility.yul\":17136:17138   */\n      0x20\n        /* \"#utility.yul\":17125:17134   */\n      dup3\n        /* \"#utility.yul\":17121:17139   */\n      add\n        /* \"#utility.yul\":17113:17139   */\n      swap1\n      pop\n        /* \"#utility.yul\":17185:17194   */\n      dup2\n        /* \"#utility.yul\":17179:17183   */\n      dup2\n        /* \"#utility.yul\":17175:17195   */\n      sub\n        /* \"#utility.yul\":17171:17172   */\n      0x00\n        /* \"#utility.yul\":17160:17169   */\n      dup4\n        /* \"#utility.yul\":17156:17173   */\n      add\n        /* \"#utility.yul\":17149:17196   */\n      mstore\n        /* \"#utility.yul\":17213:17344   */\n      tag_480\n        /* \"#utility.yul\":17339:17343   */\n      dup2\n        /* \"#utility.yul\":17213:17344   */\n      tag_306\n      jump\t// in\n    tag_480:\n        /* \"#utility.yul\":17205:17344   */\n      swap1\n      pop\n        /* \"#utility.yul\":16932:17351   */\n      swap2\n      swap1\n      pop\n      jump\t// out\n        /* \"#utility.yul\":17357:17504   */\n    tag_307:\n        /* \"#utility.yul\":17458:17469   */\n      0x00\n        /* \"#utility.yul\":17495:17498   */\n      dup2\n        /* \"#utility.yul\":17480:17498   */\n      swap1\n      pop\n        /* \"#utility.yul\":17357:17504   */\n      swap3\n      swap2\n      pop\n      pop\n      jump\t// out\n        /* \"#utility.yul\":17510:17624   */\n    tag_308:\n      pop\n      jump\t// out\n        /* \"#utility.yul\":17630:18028   */\n    tag_309:\n        /* \"#utility.yul\":17789:17792   */\n      0x00\n        /* \"#utility.yul\":17810:17893   */\n      tag_484\n        /* \"#utility.yul\":17891:17892   */\n      0x00\n        /* \"#utility.yul\":17886:17889   */\n      dup4\n        /* \"#utility.yul\":17810:17893   */\n      tag_307\n      jump\t// in\n    tag_484:\n        /* \"#utility.yul\":17803:17893   */\n      swap2\n      pop\n        /* \"#utility.yul\":17902:17995   */\n      tag_485\n        /* \"#utility.yul\":17991:17994   */\n      dup3\n        /* \"#utility.yul\":17902:17995   */\n      tag_308\n      jump\t// in\n    tag_485:\n        /* \"#utility.yul\":18020:18021   */\n      0x00\n        /* \"#utility.yul\":18015:18018   */\n      dup3\n        /* \"#utility.yul\":18011:18022   */\n      add\n        /* \"#utility.yul\":18004:18022   */\n      swap1\n      pop\n        /* \"#utility.yul\":17630:18028   */\n      swap2\n      swap1\n      pop\n      jump\t// out\n        /* \"#utility.yul\":18034:18413   */\n    tag_185:\n        /* \"#utility.yul\":18218:18221   */\n      0x00\n        /* \"#utility.yul\":18240:18387   */\n      tag_487\n        /* \"#utility.yul\":18383:18386   */\n      dup3\n        /* \"#utility.yul\":18240:18387   */\n      tag_309\n      jump\t// in\n    tag_487:\n        /* \"#utility.yul\":18233:18387   */\n      swap2\n      pop\n        /* \"#utility.yul\":18404:18407   */\n      dup2\n        /* \"#utility.yul\":18397:18407   */\n      swap1\n      pop\n        /* \"#utility.yul\":18034:18413   */\n      swap2\n      swap1\n      pop\n      jump\t// out\n        /* \"#utility.yul\":18419:18582   */\n    tag_310:\n        /* \"#utility.yul\":18559:18574   */\n      0x526566756e64206661696c656400000000000000000000000000000000000000\n        /* \"#utility.yul\":18555:18556   */\n      0x00\n        /* \"#utility.yul\":18547:18553   */\n      dup3\n        /* \"#utility.yul\":18543:18557   */\n      add\n        /* \"#utility.yul\":18536:18575   */\n      mstore\n        /* \"#utility.yul\":18419:18582   */\n      pop\n      jump\t// out\n        /* \"#utility.yul\":18588:18954   */\n    tag_311:\n        /* \"#utility.yul\":18730:18733   */\n      0x00\n        /* \"#utility.yul\":18751:18818   */\n      tag_490\n        /* \"#utility.yul\":18815:18817   */\n      0x0d\n        /* \"#utility.yul\":18810:18813   */\n      dup4\n        /* \"#utility.yul\":18751:18818   */\n      tag_290\n      jump\t// in\n    tag_490:\n        /* \"#utility.yul\":18744:18818   */\n      swap2\n      pop\n        /* \"#utility.yul\":18827:18920   */\n      tag_491\n        /* \"#utility.yul\":18916:18919   */\n      dup3\n        /* \"#utility.yul\":18827:18920   */\n      tag_310\n      jump\t// in\n    tag_491:\n        /* \"#utility.yul\":18945:18947   */\n      0x20\n        /* \"#utility.yul\":18940:18943   */\n      dup3\n        /* \"#utility.yul\":18936:18948   */\n      add\n        /* \"#utility.yul\":18929:18948   */\n      swap1\n      pop\n        /* \"#utility.yul\":18588:18954   */\n      swap2\n      swap1\n      pop\n      jump\t// out\n        /* \"#utility.yul\":18960:19379   */\n    tag_191:\n        /* \"#utility.yul\":19126:19130   */\n      0x00\n        /* \"#utility.yul\":19164:19166   */\n      0x20\n        /* \"#utility.yul\":19153:19162   */\n      dup3\n        /* \"#utility.yul\":19149:19167   */\n      add\n        /* \"#utility.yul\":19141:19167   */\n      swap1\n      pop\n        /* \"#utility.yul\":19213:19222   */\n      dup2\n        /* \"#utility.yul\":19207:19211   */\n      dup2\n        /* \"#utility.yul\":19203:19223   */\n      sub\n        /* \"#utility.yul\":19199:19200   */\n      0x00\n        /* \"#utility.yul\":19188:19197   */\n      dup4\n        /* \"#utility.yul\":19184:19201   */\n      add\n        /* \"#utility.yul\":19177:19224   */\n      mstore\n        /* \"#utility.yul\":19241:19372   */\n      tag_493\n        /* \"#utility.yul\":19367:19371   */\n      dup2\n        /* \"#utility.yul\":19241:19372   */\n      tag_311\n      jump\t// in\n    tag_493:\n        /* \"#utility.yul\":19233:19372   */\n      swap1\n      pop\n        /* \"#utility.yul\":18960:19379   */\n      swap2\n      swap1\n      pop\n      jump\t// out\n        /* \"#utility.yul\":19385:19552   */\n    tag_312:\n        /* \"#utility.yul\":19525:19544   */\n      0x41756374696f6e20697320616374697665000000000000000000000000000000\n        /* \"#utility.yul\":19521:19522   */\n      0x00\n        /* \"#utility.yul\":19513:19519   */\n      dup3\n        /* \"#utility.yul\":19509:19523   */\n      add\n        /* \"#utility.yul\":19502:19545   */\n      mstore\n        /* \"#utility.yul\":19385:19552   */\n      pop\n      jump\t// out\n        /* \"#utility.yul\":19558:19924   */\n    tag_313:\n        /* \"#utility.yul\":19700:19703   */\n      0x00\n        /* \"#utility.yul\":19721:19788   */\n      tag_496\n        /* \"#utility.yul\":19785:19787   */\n      0x11\n        /* \"#utility.yul\":19780:19783   */\n      dup4\n        /* \"#utility.yul\":19721:19788   */\n      tag_290\n      jump\t// in\n    tag_496:\n        /* \"#utility.yul\":19714:19788   */\n      swap2\n      pop\n        /* \"#utility.yul\":19797:19890   */\n      tag_497\n        /* \"#utility.yul\":19886:19889   */\n      dup3\n        /* \"#utility.yul\":19797:19890   */\n      tag_312\n      jump\t// in\n    tag_497:\n        /* \"#utility.yul\":19915:19917   */\n      0x20\n        /* \"#utility.yul\":19910:19913   */\n      dup3\n        /* \"#utility.yul\":19906:19918   */\n      add\n        /* \"#utility.yul\":19899:19918   */\n      swap1\n      pop\n        /* \"#utility.yul\":19558:19924   */\n      swap2\n      swap1\n      pop\n      jump\t// out\n        /* \"#utility.yul\":19930:20349   */\n    tag_199:\n        /* \"#utility.yul\":20096:20100   */\n      0x00\n        /* \"#utility.yul\":20134:20136   */\n      0x20\n        /* \"#utility.yul\":20123:20132   */\n      dup3\n        /* \"#utility.yul\":20119:20137   */\n      add\n        /* \"#utility.yul\":20111:20137   */\n      swap1\n      pop\n        /* \"#utility.yul\":20183:20192   */\n      dup2\n        /* \"#utility.yul\":20177:20181   */\n      dup2\n        /* \"#utility.yul\":20173:20193   */\n      sub\n        /* \"#utility.yul\":20169:20170   */\n      0x00\n        /* \"#utility.yul\":20158:20167   */\n      dup4\n        /* \"#utility.yul\":20154:20171   */\n      add\n        /* \"#utility.yul\":20147:20194   */\n      mstore\n        /* \"#utility.yul\":20211:20342   */\n      tag_499\n        /* \"#utility.yul\":20337:20341   */\n      dup2\n        /* \"#utility.yul\":20211:20342   */\n      tag_313\n      jump\t// in\n    tag_499:\n        /* \"#utility.yul\":20203:20342   */\n      swap1\n      pop\n        /* \"#utility.yul\":19930:20349   */\n      swap2\n      swap1\n      pop\n      jump\t// out\n        /* \"#utility.yul\":20355:20520   */\n    tag_314:\n        /* \"#utility.yul\":20495:20512   */\n      0x506175736564203d3d2066616c73650000000000000000000000000000000000\n        /* \"#utility.yul\":20491:20492   */\n      0x00\n        /* \"#utility.yul\":20483:20489   */\n      dup3\n        /* \"#utility.yul\":20479:20493   */\n      add\n        /* \"#utility.yul\":20472:20513   */\n      mstore\n        /* \"#utility.yul\":20355:20520   */\n      pop\n      jump\t// out\n        /* \"#utility.yul\":20526:20892   */\n    tag_315:\n        /* \"#utility.yul\":20668:20671   */\n      0x00\n        /* \"#utility.yul\":20689:20756   */\n      tag_502\n        /* \"#utility.yul\":20753:20755   */\n      0x0f\n        /* \"#utility.yul\":20748:20751   */\n      dup4\n        /* \"#utility.yul\":20689:20756   */\n      tag_290\n      jump\t// in\n    tag_502:\n        /* \"#utility.yul\":20682:20756   */\n      swap2\n      pop\n        /* \"#utility.yul\":20765:20858   */\n      tag_503\n        /* \"#utility.yul\":20854:20857   */\n      dup3\n        /* \"#utility.yul\":20765:20858   */\n      tag_314\n      jump\t// in\n    tag_503:\n        /* \"#utility.yul\":20883:20885   */\n      0x20\n        /* \"#utility.yul\":20878:20881   */\n      dup3\n        /* \"#utility.yul\":20874:20886   */\n      add\n        /* \"#utility.yul\":20867:20886   */\n      swap1\n      pop\n        /* \"#utility.yul\":20526:20892   */\n      swap2\n      swap1\n      pop\n      jump\t// out\n        /* \"#utility.yul\":20898:21317   */\n    tag_248:\n        /* \"#utility.yul\":21064:21068   */\n      0x00\n        /* \"#utility.yul\":21102:21104   */\n      0x20\n        /* \"#utility.yul\":21091:21100   */\n      dup3\n        /* \"#utility.yul\":21087:21105   */\n      add\n        /* \"#utility.yul\":21079:21105   */\n      swap1\n      pop\n        /* \"#utility.yul\":21151:21160   */\n      dup2\n        /* \"#utility.yul\":21145:21149   */\n      dup2\n        /* \"#utility.yul\":21141:21161   */\n      sub\n        /* \"#utility.yul\":21137:21138   */\n      0x00\n        /* \"#utility.yul\":21126:21135   */\n      dup4\n        /* \"#utility.yul\":21122:21139   */\n      add\n        /* \"#utility.yul\":21115:21162   */\n      mstore\n        /* \"#utility.yul\":21179:21310   */\n      tag_505\n        /* \"#utility.yul\":21305:21309   */\n      dup2\n        /* \"#utility.yul\":21179:21310   */\n      tag_315\n      jump\t// in\n    tag_505:\n        /* \"#utility.yul\":21171:21310   */\n      swap1\n      pop\n        /* \"#utility.yul\":20898:21317   */\n      swap2\n      swap1\n      pop\n      jump\t// out\n        /* \"#utility.yul\":21323:21491   */\n    tag_316:\n        /* \"#utility.yul\":21463:21483   */\n      0x4e6f2045544820746f2077697468647261770000000000000000000000000000\n        /* \"#utility.yul\":21459:21460   */\n      0x00\n        /* \"#utility.yul\":21451:21457   */\n      dup3\n        /* \"#utility.yul\":21447:21461   */\n      add\n        /* \"#utility.yul\":21440:21484   */\n      mstore\n        /* \"#utility.yul\":21323:21491   */\n      pop\n      jump\t// out\n        /* \"#utility.yul\":21497:21863   */\n    tag_317:\n        /* \"#utility.yul\":21639:21642   */\n      0x00\n        /* \"#utility.yul\":21660:21727   */\n      tag_508\n        /* \"#utility.yul\":21724:21726   */\n      0x12\n        /* \"#utility.yul\":21719:21722   */\n      dup4\n        /* \"#utility.yul\":21660:21727   */\n      tag_290\n      jump\t// in\n    tag_508:\n        /* \"#utility.yul\":21653:21727   */\n      swap2\n      pop\n        /* \"#utility.yul\":21736:21829   */\n      tag_509\n        /* \"#utility.yul\":21825:21828   */\n      dup3\n        /* \"#utility.yul\":21736:21829   */\n      tag_316\n      jump\t// in\n    tag_509:\n        /* \"#utility.yul\":21854:21856   */\n      0x20\n        /* \"#utility.yul\":21849:21852   */\n      dup3\n        /* \"#utility.yul\":21845:21857   */\n      add\n        /* \"#utility.yul\":21838:21857   */\n      swap1\n      pop\n        /* \"#utility.yul\":21497:21863   */\n      swap2\n      swap1\n      pop\n      jump\t// out\n        /* \"#utility.yul\":21869:22288   */\n    tag_252:\n        /* \"#utility.yul\":22035:22039   */\n      0x00\n        /* \"#utility.yul\":22073:22075   */\n      0x20\n        /* \"#utility.yul\":22062:22071   */\n      dup3\n        /* \"#utility.yul\":22058:22076   */\n      add\n        /* \"#utility.yul\":22050:22076   */\n      swap1\n      pop\n        /* \"#utility.yul\":22122:22131   */\n      dup2\n        /* \"#utility.yul\":22116:22120   */\n      dup2\n        /* \"#utility.yul\":22112:22132   */\n      sub\n        /* \"#utility.yul\":22108:22109   */\n      0x00\n        /* \"#utility.yul\":22097:22106   */\n      dup4\n        /* \"#utility.yul\":22093:22110   */\n      add\n        /* \"#utility.yul\":22086:22133   */\n      mstore\n        /* \"#utility.yul\":22150:22281   */\n      tag_511\n        /* \"#utility.yul\":22276:22280   */\n      dup2\n        /* \"#utility.yul\":22150:22281   */\n      tag_317\n      jump\t// in\n    tag_511:\n        /* \"#utility.yul\":22142:22281   */\n      swap1\n      pop\n        /* \"#utility.yul\":21869:22288   */\n      swap2\n      swap1\n      pop\n      jump\t// out\n        /* \"#utility.yul\":22294:22459   */\n    tag_318:\n        /* \"#utility.yul\":22434:22451   */\n      0x5769746864726177206661696c65640000000000000000000000000000000000\n        /* \"#utility.yul\":22430:22431   */\n      0x00\n        /* \"#utility.yul\":22422:22428   */\n      dup3\n        /* \"#utility.yul\":22418:22432   */\n      add\n        /* \"#utility.yul\":22411:22452   */\n      mstore\n        /* \"#utility.yul\":22294:22459   */\n      pop\n      jump\t// out\n        /* \"#utility.yul\":22465:22831   */\n    tag_319:\n        /* \"#utility.yul\":22607:22610   */\n      0x00\n        /* \"#utility.yul\":22628:22695   */\n      tag_514\n        /* \"#utility.yul\":22692:22694   */\n      0x0f\n        /* \"#utility.yul\":22687:22690   */\n      dup4\n        /* \"#utility.yul\":22628:22695   */\n      tag_290\n      jump\t// in\n    tag_514:\n        /* \"#utility.yul\":22621:22695   */\n      swap2\n      pop\n        /* \"#utility.yul\":22704:22797   */\n      tag_515\n        /* \"#utility.yul\":22793:22796   */\n      dup3\n        /* \"#utility.yul\":22704:22797   */\n      tag_318\n      jump\t// in\n    tag_515:\n        /* \"#utility.yul\":22822:22824   */\n      0x20\n        /* \"#utility.yul\":22817:22820   */\n      dup3\n        /* \"#utility.yul\":22813:22825   */\n      add\n        /* \"#utility.yul\":22806:22825   */\n      swap1\n      pop\n        /* \"#utility.yul\":22465:22831   */\n      swap2\n      swap1\n      pop\n      jump\t// out\n        /* \"#utility.yul\":22837:23256   */\n    tag_259:\n        /* \"#utility.yul\":23003:23007   */\n      0x00\n        /* \"#utility.yul\":23041:23043   */\n      0x20\n        /* \"#utility.yul\":23030:23039   */\n      dup3\n        /* \"#utility.yul\":23026:23044   */\n      add\n        /* \"#utility.yul\":23018:23044   */\n      swap1\n      pop\n        /* \"#utility.yul\":23090:23099   */\n      dup2\n        /* \"#utility.yul\":23084:23088   */\n      dup2\n        /* \"#utility.yul\":23080:23100   */\n      sub\n        /* \"#utility.yul\":23076:23077   */\n      0x00\n        /* \"#utility.yul\":23065:23074   */\n      dup4\n        /* \"#utility.yul\":23061:23078   */\n      add\n        /* \"#utility.yul\":23054:23101   */\n      mstore\n        /* \"#utility.yul\":23118:23249   */\n      tag_517\n        /* \"#utility.yul\":23244:23248   */\n      dup2\n        /* \"#utility.yul\":23118:23249   */\n      tag_319\n      jump\t// in\n    tag_517:\n        /* \"#utility.yul\":23110:23249   */\n      swap1\n      pop\n        /* \"#utility.yul\":22837:23256   */\n      swap2\n      swap1\n      pop\n      jump\t// out\n\n    auxdata: 0xa264697066735822122072e11fbf3ead22f55a23ab18ae83602536b585b0e4bcdf78cb8e3f7d2c20f31264736f6c634300081e0033\n}\n",
				"bytecode": {
					"linkReferences": {},
					"object": "60806040525f600460146101000a81548160ff021916908315150217905550348015610029575f5ffd5b504260028190555061012c60025461004191906100c2565b6003819055503360045f6101000a81548173ffffffffffffffffffffffffffffffffffffffff021916908373ffffffffffffffffffffffffffffffffffffffff1602179055506100f5565b5f819050919050565b7f4e487b71000000000000000000000000000000000000000000000000000000005f52601160045260245ffd5b5f6100cc8261008c565b91506100d78361008c565b92508282019050808211156100ef576100ee610095565b5b92915050565b611f08806101025f395ff3fe6080604052600436106100fd575f3560e01c80635c975abb11610094578063ba9b5ae611610063578063ba9b5ae6146102b6578063d46dd5bb146102e0578063d57bde791461030b578063db2e21bc14610335578063ecde973d1461034b576100fd565b80635c975abb1461020e57806378e97925146102385780638da5cb5b1461026257806391f901571461028c576100fd565b80631998aeef116100d05780631998aeef146101b95780631ce2bcf5146101c357806338e771ab146101d957806341b0cfa8146101e3576100fd565b806303ff5e731461010157806304d429011461012b57806314d2687c1461016757806316c38b3c14610191575b5f5ffd5b34801561010c575f5ffd5b5061011561038a565b604051610122919061146a565b60405180910390f35b348015610136575f5ffd5b50610151600480360381019061014c91906114e1565b610390565b60405161015e919061146a565b60405180910390f35b348015610172575f5ffd5b5061017b6103d6565b604051610188919061163f565b60405180910390f35b34801561019c575f5ffd5b506101b760048036038101906101b29190611689565b6104b4565b005b6101c1610560565b005b3480156101ce575f5ffd5b506101d7610895565b005b6101e1610d11565b005b3480156101ee575f5ffd5b506101f76110eb565b6040516102059291906116c3565b60405180910390f35b348015610219575f5ffd5b5061022261115e565b60405161022f91906116f9565b60405180910390f35b348015610243575f5ffd5b5061024c611171565b604051610259919061146a565b60405180910390f35b34801561026d575f5ffd5b50610276611177565b6040516102839190611732565b60405180910390f35b348015610297575f5ffd5b506102a061119c565b6040516102ad919061174b565b60405180910390f35b3480156102c1575f5ffd5b506102ca6111c1565b6040516102d7919061146a565b60405180910390f35b3480156102eb575f5ffd5b506102f46111c8565b6040516103029291906116c3565b60405180910390f35b348015610316575f5ffd5b5061031f6111f6565b60405161032c919061146a565b60405180910390f35b348015610340575f5ffd5b506103496111fb565b005b348015610356575f5ffd5b50610371600480360381019061036c919061178e565b6113ec565b60405161038194939291906117b9565b60405180910390f35b60035481565b5f60055f8373ffffffffffffffffffffffffffffffffffffffff1673ffffffffffffffffffffffffffffffffffffffff1681526020019081526020015f20549050919050565b60606006805480602002602001604051908101604052809291908181526020015f905b828210156104ab578382905f5260205f2090600402016040518060800160405290815f82015f9054906101000a900473ffffffffffffffffffffffffffffffffffffffff1673ffffffffffffffffffffffffffffffffffffffff1673ffffffffffffffffffffffffffffffffffffffff1681526020016001820154815260200160028201548152602001600382015f9054906101000a900460ff161515151581525050815260200190600101906103f9565b50505050905090565b60045f9054906101000a900473ffffffffffffffffffffffffffffffffffffffff1673ffffffffffffffffffffffffffffffffffffffff163373ffffffffffffffffffffffffffffffffffffffff1614610543576040517f08c379a000000000000000000000000000000000000000000000000000000000815260040161053a90611856565b60405180910390fd5b80600460146101000a81548160ff02191690831515021790555050565b600254421015801561057457506003544211155b6105b3576040517f08c379a00000000000000000000000000000000000000000000000000000000081526004016105aa906118be565b60405180910390fd5b600460149054906101000a900460ff1615610603576040517f08c379a00000000000000000000000000000000000000000000000000000000081526004016105fa90611926565b60405180910390fd5b5f3411610645576040517f08c379a000000000000000000000000000000000000000000000000000000000815260040161063c9061198e565b60405180910390fd5b60695f5461065391906119d9565b60643461066091906119d9565b10156106a1576040517f08c379a000000000000000000000000000000000000000000000000000000000815260040161069890611a64565b60405180910390fd5b610258426003546106b29190611a82565b116106d25761025860035f8282546106ca9190611ab5565b925050819055505b3373ffffffffffffffffffffffffffffffffffffffff167fdd0b6c6a77960e2066c96171b4d7ac9e8b4c184011f38544afa36a5bb63ec59f34604051610718919061146a565b60405180910390a23460055f3373ffffffffffffffffffffffffffffffffffffffff1673ffffffffffffffffffffffffffffffffffffffff1681526020019081526020015f205f82825461076c9190611ab5565b92505081905550345f819055503360015f6101000a81548173ffffffffffffffffffffffffffffffffffffffff021916908373ffffffffffffffffffffffffffffffffffffffff160217905550600660405180608001604052803373ffffffffffffffffffffffffffffffffffffffff1681526020013481526020014281526020015f1515815250908060018154018082558091505060019003905f5260205f2090600402015f909190919091505f820151815f015f6101000a81548173ffffffffffffffffffffffffffffffffffffffff021916908373ffffffffffffffffffffffffffffffffffffffff16021790555060208201518160010155604082015181600201556060820151816003015f6101000a81548160ff0219169083151502179055505050565b60025442101580156108a957506003544211155b6108e8576040517f08c379a00000000000000000000000000000000000000000000000000000000081526004016108df906118be565b60405180910390fd5b600460149054906101000a900460ff1615610938576040517f08c379a000000000000000000000000000000000000000000000000000000000815260040161092f90611926565b60405180910390fd5b5f5f90505f60068054905090505f5f90505b81811015610a1c573373ffffffffffffffffffffffffffffffffffffffff166006828154811061097d5761097c611ae8565b5b905f5260205f2090600402015f015f9054906101000a900473ffffffffffffffffffffffffffffffffffffffff1673ffffffffffffffffffffffffffffffffffffffff161480156109fb5750600681815481106109dd576109dc611ae8565b5b905f5260205f2090600402016003015f9054906101000a900460ff16155b15610a0f578280610a0b90611b15565b9350505b808060010191505061094a565b5060018211610a60576040517f08c379a0000000000000000000000000000000000000000000000000000000008152600401610a5790611ba6565b60405180910390fd5b5f5f90505f5f90505f5f90505b83811015610bcc573373ffffffffffffffffffffffffffffffffffffffff1660068281548110610aa057610a9f611ae8565b5b905f5260205f2090600402015f015f9054906101000a900473ffffffffffffffffffffffffffffffffffffffff1673ffffffffffffffffffffffffffffffffffffffff16148015610b1e575060068181548110610b0057610aff611ae8565b5b905f5260205f2090600402016003015f9054906101000a900460ff16155b15610bbf578280610b2e90611b15565b93505084831015610bbe576064606260068381548110610b5157610b50611ae8565b5b905f5260205f20906004020160010154610b6b91906119d9565b610b759190611bf1565b82610b809190611ab5565b9150600160068281548110610b9857610b97611ae8565b5b905f5260205f2090600402016003015f6101000a81548160ff0219169083151502179055505b5b8080600101915050610a6d565b505f8111610c0f576040517f08c379a0000000000000000000000000000000000000000000000000000000008152600401610c0690611c6b565b60405180910390fd5b5f3373ffffffffffffffffffffffffffffffffffffffff1682604051610c3490611cb6565b5f6040518083038185875af1925050503d805f8114610c6e576040519150601f19603f3d011682016040523d82523d5f602084013e610c73565b606091505b5050905080610cb7576040517f08c379a0000000000000000000000000000000000000000000000000000000008152600401610cae90611d14565b60405180910390fd5b8160055f3373ffffffffffffffffffffffffffffffffffffffff1673ffffffffffffffffffffffffffffffffffffffff1681526020019081526020015f205f828254610d039190611a82565b925050819055505050505050565b60045f9054906101000a900473ffffffffffffffffffffffffffffffffffffffff1673ffffffffffffffffffffffffffffffffffffffff163373ffffffffffffffffffffffffffffffffffffffff1614610da0576040517f08c379a0000000000000000000000000000000000000000000000000000000008152600401610d9790611856565b60405180910390fd5b600354421015610de5576040517f08c379a0000000000000000000000000000000000000000000000000000000008152600401610ddc90611d7c565b60405180910390fd5b600460149054906101000a900460ff1615610e35576040517f08c379a0000000000000000000000000000000000000000000000000000000008152600401610e2c90611926565b60405180910390fd5b5f60068054905090505f5f5f90505b828110156110ba575f5460068281548110610e6257610e61611ae8565b5b905f5260205f2090600402016001015414158015610eb257505f151560068281548110610e9257610e91611ae8565b5b905f5260205f2090600402016003015f9054906101000a900460ff161515145b156110af576064606260068381548110610ecf57610ece611ae8565b5b905f5260205f20906004020160010154610ee991906119d9565b610ef39190611bf1565b91505f60068281548110610f0a57610f09611ae8565b5b905f5260205f2090600402015f015f9054906101000a900473ffffffffffffffffffffffffffffffffffffffff1673ffffffffffffffffffffffffffffffffffffffff1683604051610f5b90611cb6565b5f6040518083038185875af1925050503d805f8114610f95576040519150601f19603f3d011682016040523d82523d5f602084013e610f9a565b606091505b5050905080610fde576040517f08c379a0000000000000000000000000000000000000000000000000000000008152600401610fd590611d14565b60405180910390fd5b600160068381548110610ff457610ff3611ae8565b5b905f5260205f2090600402016003015f6101000a81548160ff0219169083151502179055508260055f6006858154811061103157611030611ae8565b5b905f5260205f2090600402015f015f9054906101000a900473ffffffffffffffffffffffffffffffffffffffff1673ffffffffffffffffffffffffffffffffffffffff1673ffffffffffffffffffffffffffffffffffffffff1681526020019081526020015f205f8282546110a69190611a82565b92505081905550505b806001019050610e44565b507fa0e92984607195c326795751263414ee1074526323552e694c90ef2b99ae3f2960405160405180910390a15050565b5f5f600354421015611132576040517f08c379a000000000000000000000000000000000000000000000000000000000815260040161112990611d7c565b60405180910390fd5b60015f9054906101000a900473ffffffffffffffffffffffffffffffffffffffff165f54915091509091565b600460149054906101000a900460ff1681565b60025481565b60045f9054906101000a900473ffffffffffffffffffffffffffffffffffffffff1681565b60015f9054906101000a900473ffffffffffffffffffffffffffffffffffffffff1681565b5f42905090565b5f5f60015f9054906101000a900473ffffffffffffffffffffffffffffffffffffffff165f54915091509091565b5f5481565b60045f9054906101000a900473ffffffffffffffffffffffffffffffffffffffff1673ffffffffffffffffffffffffffffffffffffffff163373ffffffffffffffffffffffffffffffffffffffff161461128a576040517f08c379a000000000000000000000000000000000000000000000000000000000815260040161128190611856565b60405180910390fd5b600460149054906101000a900460ff166112d9576040517f08c379a00000000000000000000000000000000000000000000000000000000081526004016112d090611de4565b60405180910390fd5b5f4790505f811161131f576040517f08c379a000000000000000000000000000000000000000000000000000000000815260040161131690611e4c565b60405180910390fd5b5f60045f9054906101000a900473ffffffffffffffffffffffffffffffffffffffff1673ffffffffffffffffffffffffffffffffffffffff168260405161136590611cb6565b5f6040518083038185875af1925050503d805f811461139f576040519150601f19603f3d011682016040523d82523d5f602084013e6113a4565b606091505b50509050806113e8576040517f08c379a00000000000000000000000000000000000000000000000000000000081526004016113df90611eb4565b60405180910390fd5b5050565b600681815481106113fb575f80fd5b905f5260205f2090600402015f91509050805f015f9054906101000a900473ffffffffffffffffffffffffffffffffffffffff1690806001015490806002015490806003015f9054906101000a900460ff16905084565b5f819050919050565b61146481611452565b82525050565b5f60208201905061147d5f83018461145b565b92915050565b5f5ffd5b5f73ffffffffffffffffffffffffffffffffffffffff82169050919050565b5f6114b082611487565b9050919050565b6114c0816114a6565b81146114ca575f5ffd5b50565b5f813590506114db816114b7565b92915050565b5f602082840312156114f6576114f5611483565b5b5f611503848285016114cd565b91505092915050565b5f81519050919050565b5f82825260208201905092915050565b5f819050602082019050919050565b61153e816114a6565b82525050565b61154d81611452565b82525050565b5f8115159050919050565b61156781611553565b82525050565b608082015f8201516115815f850182611535565b5060208201516115946020850182611544565b5060408201516115a76040850182611544565b5060608201516115ba606085018261155e565b50505050565b5f6115cb838361156d565b60808301905092915050565b5f602082019050919050565b5f6115ed8261150c565b6115f78185611516565b935061160283611526565b805f5b8381101561163257815161161988826115c0565b9750611624836115d7565b925050600181019050611605565b5085935050505092915050565b5f6020820190508181035f83015261165781846115e3565b905092915050565b61166881611553565b8114611672575f5ffd5b50565b5f813590506116838161165f565b92915050565b5f6020828403121561169e5761169d611483565b5b5f6116ab84828501611675565b91505092915050565b6116bd816114a6565b82525050565b5f6040820190506116d65f8301856116b4565b6116e3602083018461145b565b9392505050565b6116f381611553565b82525050565b5f60208201905061170c5f8301846116ea565b92915050565b5f61171c82611487565b9050919050565b61172c81611712565b82525050565b5f6020820190506117455f830184611723565b92915050565b5f60208201905061175e5f8301846116b4565b92915050565b61176d81611452565b8114611777575f5ffd5b50565b5f8135905061178881611764565b92915050565b5f602082840312156117a3576117a2611483565b5b5f6117b08482850161177a565b91505092915050565b5f6080820190506117cc5f8301876116b4565b6117d9602083018661145b565b6117e6604083018561145b565b6117f360608301846116ea565b95945050505050565b5f82825260208201905092915050565b7f4f776e6572206f6e6c79000000000000000000000000000000000000000000005f82015250565b5f611840600a836117fc565b915061184b8261180c565b602082019050919050565b5f6020820190508181035f83015261186d81611834565b9050919050565b7f41756374696f6e206973206e6f742061637469766500000000000000000000005f82015250565b5f6118a86015836117fc565b91506118b382611874565b602082019050919050565b5f6020820190508181035f8301526118d58161189c565b9050919050565b7f506175736564203d3d20747275650000000000000000000000000000000000005f82015250565b5f611910600e836117fc565b915061191b826118dc565b602082019050919050565b5f6020820190508181035f83015261193d81611904565b9050919050565b7f4e6f2045544800000000000000000000000000000000000000000000000000005f82015250565b5f6119786006836117fc565b915061198382611944565b602082019050919050565b5f6020820190508181035f8301526119a58161196c565b9050919050565b7f4e487b71000000000000000000000000000000000000000000000000000000005f52601160045260245ffd5b5f6119e382611452565b91506119ee83611452565b92508282026119fc81611452565b91508282048414831517611a1357611a126119ac565b5b5092915050565b7f426964203c2035250000000000000000000000000000000000000000000000005f82015250565b5f611a4e6008836117fc565b9150611a5982611a1a565b602082019050919050565b5f6020820190508181035f830152611a7b81611a42565b9050919050565b5f611a8c82611452565b9150611a9783611452565b9250828203905081811115611aaf57611aae6119ac565b5b92915050565b5f611abf82611452565b9150611aca83611452565b9250828201905080821115611ae257611ae16119ac565b5b92915050565b7f4e487b71000000000000000000000000000000000000000000000000000000005f52603260045260245ffd5b5f611b1f82611452565b91507fffffffffffffffffffffffffffffffffffffffffffffffffffffffffffffffff8203611b5157611b506119ac565b5b600182019050919050565b7f4e6f20726566756e6461626c65206269647300000000000000000000000000005f82015250565b5f611b906012836117fc565b9150611b9b82611b5c565b602082019050919050565b5f6020820190508181035f830152611bbd81611b84565b9050919050565b7f4e487b71000000000000000000000000000000000000000000000000000000005f52601260045260245ffd5b5f611bfb82611452565b9150611c0683611452565b925082611c1657611c15611bc4565b5b828204905092915050565b7f4e6f7468696e6720746f20726566756e640000000000000000000000000000005f82015250565b5f611c556011836117fc565b9150611c6082611c21565b602082019050919050565b5f6020820190508181035f830152611c8281611c49565b9050919050565b5f81905092915050565b50565b5f611ca15f83611c89565b9150611cac82611c93565b5f82019050919050565b5f611cc082611c96565b9150819050919050565b7f526566756e64206661696c6564000000000000000000000000000000000000005f82015250565b5f611cfe600d836117fc565b9150611d0982611cca565b602082019050919050565b5f6020820190508181035f830152611d2b81611cf2565b9050919050565b7f41756374696f6e206973206163746976650000000000000000000000000000005f82015250565b5f611d666011836117fc565b9150611d7182611d32565b602082019050919050565b5f6020820190508181035f830152611d9381611d5a565b9050919050565b7f506175736564203d3d2066616c736500000000000000000000000000000000005f82015250565b5f611dce600f836117fc565b9150611dd982611d9a565b602082019050919050565b5f6020820190508181035f830152611dfb81611dc2565b9050919050565b7f4e6f2045544820746f20776974686472617700000000000000000000000000005f82015250565b5f611e366012836117fc565b9150611e4182611e02565b602082019050919050565b5f6020820190508181035f830152611e6381611e2a565b9050919050565b7f5769746864726177206661696c656400000000000000000000000000000000005f82015250565b5f611e9e600f836117fc565b9150611ea982611e6a565b602082019050919050565b5f6020820190508181035f830152611ecb81611e92565b905091905056fea264697066735822122072e11fbf3ead22f55a23ab18ae83602536b585b0e4bcdf78cb8e3f7d2c20f31264736f6c634300081e0033",
					"opcodes": "PUSH1 0x80 PUSH1 0x40 MSTORE PUSH0 PUSH1 0x4 PUSH1 0x14 PUSH2 0x100 EXP DUP2 SLOAD DUP2 PUSH1 0xFF MUL NOT AND SWAP1 DUP4 ISZERO ISZERO MUL OR SWAP1 SSTORE POP CALLVALUE DUP1 ISZERO PUSH2 0x29 JUMPI PUSH0 PUSH0 REVERT JUMPDEST POP TIMESTAMP PUSH1 0x2 DUP2 SWAP1 SSTORE POP PUSH2 0x12C PUSH1 0x2 SLOAD PUSH2 0x41 SWAP2 SWAP1 PUSH2 0xC2 JUMP JUMPDEST PUSH1 0x3 DUP2 SWAP1 SSTORE POP CALLER PUSH1 0x4 PUSH0 PUSH2 0x100 EXP DUP2 SLOAD DUP2 PUSH20 0xFFFFFFFFFFFFFFFFFFFFFFFFFFFFFFFFFFFFFFFF MUL NOT AND SWAP1 DUP4 PUSH20 0xFFFFFFFFFFFFFFFFFFFFFFFFFFFFFFFFFFFFFFFF AND MUL OR SWAP1 SSTORE POP PUSH2 0xF5 JUMP JUMPDEST PUSH0 DUP2 SWAP1 POP SWAP2 SWAP1 POP JUMP JUMPDEST PUSH32 0x4E487B7100000000000000000000000000000000000000000000000000000000 PUSH0 MSTORE PUSH1 0x11 PUSH1 0x4 MSTORE PUSH1 0x24 PUSH0 REVERT JUMPDEST PUSH0 PUSH2 0xCC DUP3 PUSH2 0x8C JUMP JUMPDEST SWAP2 POP PUSH2 0xD7 DUP4 PUSH2 0x8C JUMP JUMPDEST SWAP3 POP DUP3 DUP3 ADD SWAP1 POP DUP1 DUP3 GT ISZERO PUSH2 0xEF JUMPI PUSH2 0xEE PUSH2 0x95 JUMP JUMPDEST JUMPDEST SWAP3 SWAP2 POP POP JUMP JUMPDEST PUSH2 0x1F08 DUP1 PUSH2 0x102 PUSH0 CODECOPY PUSH0 RETURN INVALID PUSH1 0x80 PUSH1 0x40 MSTORE PUSH1 0x4 CALLDATASIZE LT PUSH2 0xFD JUMPI PUSH0 CALLDATALOAD PUSH1 0xE0 SHR DUP1 PUSH4 0x5C975ABB GT PUSH2 0x94 JUMPI DUP1 PUSH4 0xBA9B5AE6 GT PUSH2 0x63 JUMPI DUP1 PUSH4 0xBA9B5AE6 EQ PUSH2 0x2B6 JUMPI DUP1 PUSH4 0xD46DD5BB EQ PUSH2 0x2E0 JUMPI DUP1 PUSH4 0xD57BDE79 EQ PUSH2 0x30B JUMPI DUP1 PUSH4 0xDB2E21BC EQ PUSH2 0x335 JUMPI DUP1 PUSH4 0xECDE973D EQ PUSH2 0x34B JUMPI PUSH2 0xFD JUMP JUMPDEST DUP1 PUSH4 0x5C975ABB EQ PUSH2 0x20E JUMPI DUP1 PUSH4 0x78E97925 EQ PUSH2 0x238 JUMPI DUP1 PUSH4 0x8DA5CB5B EQ PUSH2 0x262 JUMPI DUP1 PUSH4 0x91F90157 EQ PUSH2 0x28C JUMPI PUSH2 0xFD JUMP JUMPDEST DUP1 PUSH4 0x1998AEEF GT PUSH2 0xD0 JUMPI DUP1 PUSH4 0x1998AEEF EQ PUSH2 0x1B9 JUMPI DUP1 PUSH4 0x1CE2BCF5 EQ PUSH2 0x1C3 JUMPI DUP1 PUSH4 0x38E771AB EQ PUSH2 0x1D9 JUMPI DUP1 PUSH4 0x41B0CFA8 EQ PUSH2 0x1E3 JUMPI PUSH2 0xFD JUMP JUMPDEST DUP1 PUSH4 0x3FF5E73 EQ PUSH2 0x101 JUMPI DUP1 PUSH4 0x4D42901 EQ PUSH2 0x12B JUMPI DUP1 PUSH4 0x14D2687C EQ PUSH2 0x167 JUMPI DUP1 PUSH4 0x16C38B3C EQ PUSH2 0x191 JUMPI JUMPDEST PUSH0 PUSH0 REVERT JUMPDEST CALLVALUE DUP1 ISZERO PUSH2 0x10C JUMPI PUSH0 PUSH0 REVERT JUMPDEST POP PUSH2 0x115 PUSH2 0x38A JUMP JUMPDEST PUSH1 0x40 MLOAD PUSH2 0x122 SWAP2 SWAP1 PUSH2 0x146A JUMP JUMPDEST PUSH1 0x40 MLOAD DUP1 SWAP2 SUB SWAP1 RETURN JUMPDEST CALLVALUE DUP1 ISZERO PUSH2 0x136 JUMPI PUSH0 PUSH0 REVERT JUMPDEST POP PUSH2 0x151 PUSH1 0x4 DUP1 CALLDATASIZE SUB DUP2 ADD SWAP1 PUSH2 0x14C SWAP2 SWAP1 PUSH2 0x14E1 JUMP JUMPDEST PUSH2 0x390 JUMP JUMPDEST PUSH1 0x40 MLOAD PUSH2 0x15E SWAP2 SWAP1 PUSH2 0x146A JUMP JUMPDEST PUSH1 0x40 MLOAD DUP1 SWAP2 SUB SWAP1 RETURN JUMPDEST CALLVALUE DUP1 ISZERO PUSH2 0x172 JUMPI PUSH0 PUSH0 REVERT JUMPDEST POP PUSH2 0x17B PUSH2 0x3D6 JUMP JUMPDEST PUSH1 0x40 MLOAD PUSH2 0x188 SWAP2 SWAP1 PUSH2 0x163F JUMP JUMPDEST PUSH1 0x40 MLOAD DUP1 SWAP2 SUB SWAP1 RETURN JUMPDEST CALLVALUE DUP1 ISZERO PUSH2 0x19C JUMPI PUSH0 PUSH0 REVERT JUMPDEST POP PUSH2 0x1B7 PUSH1 0x4 DUP1 CALLDATASIZE SUB DUP2 ADD SWAP1 PUSH2 0x1B2 SWAP2 SWAP1 PUSH2 0x1689 JUMP JUMPDEST PUSH2 0x4B4 JUMP JUMPDEST STOP JUMPDEST PUSH2 0x1C1 PUSH2 0x560 JUMP JUMPDEST STOP JUMPDEST CALLVALUE DUP1 ISZERO PUSH2 0x1CE JUMPI PUSH0 PUSH0 REVERT JUMPDEST POP PUSH2 0x1D7 PUSH2 0x895 JUMP JUMPDEST STOP JUMPDEST PUSH2 0x1E1 PUSH2 0xD11 JUMP JUMPDEST STOP JUMPDEST CALLVALUE DUP1 ISZERO PUSH2 0x1EE JUMPI PUSH0 PUSH0 REVERT JUMPDEST POP PUSH2 0x1F7 PUSH2 0x10EB JUMP JUMPDEST PUSH1 0x40 MLOAD PUSH2 0x205 SWAP3 SWAP2 SWAP1 PUSH2 0x16C3 JUMP JUMPDEST PUSH1 0x40 MLOAD DUP1 SWAP2 SUB SWAP1 RETURN JUMPDEST CALLVALUE DUP1 ISZERO PUSH2 0x219 JUMPI PUSH0 PUSH0 REVERT JUMPDEST POP PUSH2 0x222 PUSH2 0x115E JUMP JUMPDEST PUSH1 0x40 MLOAD PUSH2 0x22F SWAP2 SWAP1 PUSH2 0x16F9 JUMP JUMPDEST PUSH1 0x40 MLOAD DUP1 SWAP2 SUB SWAP1 RETURN JUMPDEST CALLVALUE DUP1 ISZERO PUSH2 0x243 JUMPI PUSH0 PUSH0 REVERT JUMPDEST POP PUSH2 0x24C PUSH2 0x1171 JUMP JUMPDEST PUSH1 0x40 MLOAD PUSH2 0x259 SWAP2 SWAP1 PUSH2 0x146A JUMP JUMPDEST PUSH1 0x40 MLOAD DUP1 SWAP2 SUB SWAP1 RETURN JUMPDEST CALLVALUE DUP1 ISZERO PUSH2 0x26D JUMPI PUSH0 PUSH0 REVERT JUMPDEST POP PUSH2 0x276 PUSH2 0x1177 JUMP JUMPDEST PUSH1 0x40 MLOAD PUSH2 0x283 SWAP2 SWAP1 PUSH2 0x1732 JUMP JUMPDEST PUSH1 0x40 MLOAD DUP1 SWAP2 SUB SWAP1 RETURN JUMPDEST CALLVALUE DUP1 ISZERO PUSH2 0x297 JUMPI PUSH0 PUSH0 REVERT JUMPDEST POP PUSH2 0x2A0 PUSH2 0x119C JUMP JUMPDEST PUSH1 0x40 MLOAD PUSH2 0x2AD SWAP2 SWAP1 PUSH2 0x174B JUMP JUMPDEST PUSH1 0x40 MLOAD DUP1 SWAP2 SUB SWAP1 RETURN JUMPDEST CALLVALUE DUP1 ISZERO PUSH2 0x2C1 JUMPI PUSH0 PUSH0 REVERT JUMPDEST POP PUSH2 0x2CA PUSH2 0x11C1 JUMP JUMPDEST PUSH1 0x40 MLOAD PUSH2 0x2D7 SWAP2 SWAP1 PUSH2 0x146A JUMP JUMPDEST PUSH1 0x40 MLOAD DUP1 SWAP2 SUB SWAP1 RETURN JUMPDEST CALLVALUE DUP1 ISZERO PUSH2 0x2EB JUMPI PUSH0 PUSH0 REVERT JUMPDEST POP PUSH2 0x2F4 PUSH2 0x11C8 JUMP JUMPDEST PUSH1 0x40 MLOAD PUSH2 0x302 SWAP3 SWAP2 SWAP1 PUSH2 0x16C3 JUMP JUMPDEST PUSH1 0x40 MLOAD DUP1 SWAP2 SUB SWAP1 RETURN JUMPDEST CALLVALUE DUP1 ISZERO PUSH2 0x316 JUMPI PUSH0 PUSH0 REVERT JUMPDEST POP PUSH2 0x31F PUSH2 0x11F6 JUMP JUMPDEST PUSH1 0x40 MLOAD PUSH2 0x32C SWAP2 SWAP1 PUSH2 0x146A JUMP JUMPDEST PUSH1 0x40 MLOAD DUP1 SWAP2 SUB SWAP1 RETURN JUMPDEST CALLVALUE DUP1 ISZERO PUSH2 0x340 JUMPI PUSH0 PUSH0 REVERT JUMPDEST POP PUSH2 0x349 PUSH2 0x11FB JUMP JUMPDEST STOP JUMPDEST CALLVALUE DUP1 ISZERO PUSH2 0x356 JUMPI PUSH0 PUSH0 REVERT JUMPDEST POP PUSH2 0x371 PUSH1 0x4 DUP1 CALLDATASIZE SUB DUP2 ADD SWAP1 PUSH2 0x36C SWAP2 SWAP1 PUSH2 0x178E JUMP JUMPDEST PUSH2 0x13EC JUMP JUMPDEST PUSH1 0x40 MLOAD PUSH2 0x381 SWAP5 SWAP4 SWAP3 SWAP2 SWAP1 PUSH2 0x17B9 JUMP JUMPDEST PUSH1 0x40 MLOAD DUP1 SWAP2 SUB SWAP1 RETURN JUMPDEST PUSH1 0x3 SLOAD DUP2 JUMP JUMPDEST PUSH0 PUSH1 0x5 PUSH0 DUP4 PUSH20 0xFFFFFFFFFFFFFFFFFFFFFFFFFFFFFFFFFFFFFFFF AND PUSH20 0xFFFFFFFFFFFFFFFFFFFFFFFFFFFFFFFFFFFFFFFF AND DUP2 MSTORE PUSH1 0x20 ADD SWAP1 DUP2 MSTORE PUSH1 0x20 ADD PUSH0 KECCAK256 SLOAD SWAP1 POP SWAP2 SWAP1 POP JUMP JUMPDEST PUSH1 0x60 PUSH1 0x6 DUP1 SLOAD DUP1 PUSH1 0x20 MUL PUSH1 0x20 ADD PUSH1 0x40 MLOAD SWAP1 DUP2 ADD PUSH1 0x40 MSTORE DUP1 SWAP3 SWAP2 SWAP1 DUP2 DUP2 MSTORE PUSH1 0x20 ADD PUSH0 SWAP1 JUMPDEST DUP3 DUP3 LT ISZERO PUSH2 0x4AB JUMPI DUP4 DUP3 SWAP1 PUSH0 MSTORE PUSH1 0x20 PUSH0 KECCAK256 SWAP1 PUSH1 0x4 MUL ADD PUSH1 0x40 MLOAD DUP1 PUSH1 0x80 ADD PUSH1 0x40 MSTORE SWAP1 DUP2 PUSH0 DUP3 ADD PUSH0 SWAP1 SLOAD SWAP1 PUSH2 0x100 EXP SWAP1 DIV PUSH20 0xFFFFFFFFFFFFFFFFFFFFFFFFFFFFFFFFFFFFFFFF AND PUSH20 0xFFFFFFFFFFFFFFFFFFFFFFFFFFFFFFFFFFFFFFFF AND PUSH20 0xFFFFFFFFFFFFFFFFFFFFFFFFFFFFFFFFFFFFFFFF AND DUP2 MSTORE PUSH1 0x20 ADD PUSH1 0x1 DUP3 ADD SLOAD DUP2 MSTORE PUSH1 0x20 ADD PUSH1 0x2 DUP3 ADD SLOAD DUP2 MSTORE PUSH1 0x20 ADD PUSH1 0x3 DUP3 ADD PUSH0 SWAP1 SLOAD SWAP1 PUSH2 0x100 EXP SWAP1 DIV PUSH1 0xFF AND ISZERO ISZERO ISZERO ISZERO DUP2 MSTORE POP POP DUP2 MSTORE PUSH1 0x20 ADD SWAP1 PUSH1 0x1 ADD SWAP1 PUSH2 0x3F9 JUMP JUMPDEST POP POP POP POP SWAP1 POP SWAP1 JUMP JUMPDEST PUSH1 0x4 PUSH0 SWAP1 SLOAD SWAP1 PUSH2 0x100 EXP SWAP1 DIV PUSH20 0xFFFFFFFFFFFFFFFFFFFFFFFFFFFFFFFFFFFFFFFF AND PUSH20 0xFFFFFFFFFFFFFFFFFFFFFFFFFFFFFFFFFFFFFFFF AND CALLER PUSH20 0xFFFFFFFFFFFFFFFFFFFFFFFFFFFFFFFFFFFFFFFF AND EQ PUSH2 0x543 JUMPI PUSH1 0x40 MLOAD PUSH32 0x8C379A000000000000000000000000000000000000000000000000000000000 DUP2 MSTORE PUSH1 0x4 ADD PUSH2 0x53A SWAP1 PUSH2 0x1856 JUMP JUMPDEST PUSH1 0x40 MLOAD DUP1 SWAP2 SUB SWAP1 REVERT JUMPDEST DUP1 PUSH1 0x4 PUSH1 0x14 PUSH2 0x100 EXP DUP2 SLOAD DUP2 PUSH1 0xFF MUL NOT AND SWAP1 DUP4 ISZERO ISZERO MUL OR SWAP1 SSTORE POP POP JUMP JUMPDEST PUSH1 0x2 SLOAD TIMESTAMP LT ISZERO DUP1 ISZERO PUSH2 0x574 JUMPI POP PUSH1 0x3 SLOAD TIMESTAMP GT ISZERO JUMPDEST PUSH2 0x5B3 JUMPI PUSH1 0x40 MLOAD PUSH32 0x8C379A000000000000000000000000000000000000000000000000000000000 DUP2 MSTORE PUSH1 0x4 ADD PUSH2 0x5AA SWAP1 PUSH2 0x18BE JUMP JUMPDEST PUSH1 0x40 MLOAD DUP1 SWAP2 SUB SWAP1 REVERT JUMPDEST PUSH1 0x4 PUSH1 0x14 SWAP1 SLOAD SWAP1 PUSH2 0x100 EXP SWAP1 DIV PUSH1 0xFF AND ISZERO PUSH2 0x603 JUMPI PUSH1 0x40 MLOAD PUSH32 0x8C379A000000000000000000000000000000000000000000000000000000000 DUP2 MSTORE PUSH1 0x4 ADD PUSH2 0x5FA SWAP1 PUSH2 0x1926 JUMP JUMPDEST PUSH1 0x40 MLOAD DUP1 SWAP2 SUB SWAP1 REVERT JUMPDEST PUSH0 CALLVALUE GT PUSH2 0x645 JUMPI PUSH1 0x40 MLOAD PUSH32 0x8C379A000000000000000000000000000000000000000000000000000000000 DUP2 MSTORE PUSH1 0x4 ADD PUSH2 0x63C SWAP1 PUSH2 0x198E JUMP JUMPDEST PUSH1 0x40 MLOAD DUP1 SWAP2 SUB SWAP1 REVERT JUMPDEST PUSH1 0x69 PUSH0 SLOAD PUSH2 0x653 SWAP2 SWAP1 PUSH2 0x19D9 JUMP JUMPDEST PUSH1 0x64 CALLVALUE PUSH2 0x660 SWAP2 SWAP1 PUSH2 0x19D9 JUMP JUMPDEST LT ISZERO PUSH2 0x6A1 JUMPI PUSH1 0x40 MLOAD PUSH32 0x8C379A000000000000000000000000000000000000000000000000000000000 DUP2 MSTORE PUSH1 0x4 ADD PUSH2 0x698 SWAP1 PUSH2 0x1A64 JUMP JUMPDEST PUSH1 0x40 MLOAD DUP1 SWAP2 SUB SWAP1 REVERT JUMPDEST PUSH2 0x258 TIMESTAMP PUSH1 0x3 SLOAD PUSH2 0x6B2 SWAP2 SWAP1 PUSH2 0x1A82 JUMP JUMPDEST GT PUSH2 0x6D2 JUMPI PUSH2 0x258 PUSH1 0x3 PUSH0 DUP3 DUP3 SLOAD PUSH2 0x6CA SWAP2 SWAP1 PUSH2 0x1AB5 JUMP JUMPDEST SWAP3 POP POP DUP2 SWAP1 SSTORE POP JUMPDEST CALLER PUSH20 0xFFFFFFFFFFFFFFFFFFFFFFFFFFFFFFFFFFFFFFFF AND PUSH32 0xDD0B6C6A77960E2066C96171B4D7AC9E8B4C184011F38544AFA36A5BB63EC59F CALLVALUE PUSH1 0x40 MLOAD PUSH2 0x718 SWAP2 SWAP1 PUSH2 0x146A JUMP JUMPDEST PUSH1 0x40 MLOAD DUP1 SWAP2 SUB SWAP1 LOG2 CALLVALUE PUSH1 0x5 PUSH0 CALLER PUSH20 0xFFFFFFFFFFFFFFFFFFFFFFFFFFFFFFFFFFFFFFFF AND PUSH20 0xFFFFFFFFFFFFFFFFFFFFFFFFFFFFFFFFFFFFFFFF AND DUP2 MSTORE PUSH1 0x20 ADD SWAP1 DUP2 MSTORE PUSH1 0x20 ADD PUSH0 KECCAK256 PUSH0 DUP3 DUP3 SLOAD PUSH2 0x76C SWAP2 SWAP1 PUSH2 0x1AB5 JUMP JUMPDEST SWAP3 POP POP DUP2 SWAP1 SSTORE POP CALLVALUE PUSH0 DUP2 SWAP1 SSTORE POP CALLER PUSH1 0x1 PUSH0 PUSH2 0x100 EXP DUP2 SLOAD DUP2 PUSH20 0xFFFFFFFFFFFFFFFFFFFFFFFFFFFFFFFFFFFFFFFF MUL NOT AND SWAP1 DUP4 PUSH20 0xFFFFFFFFFFFFFFFFFFFFFFFFFFFFFFFFFFFFFFFF AND MUL OR SWAP1 SSTORE POP PUSH1 0x6 PUSH1 0x40 MLOAD DUP1 PUSH1 0x80 ADD PUSH1 0x40 MSTORE DUP1 CALLER PUSH20 0xFFFFFFFFFFFFFFFFFFFFFFFFFFFFFFFFFFFFFFFF AND DUP2 MSTORE PUSH1 0x20 ADD CALLVALUE DUP2 MSTORE PUSH1 0x20 ADD TIMESTAMP DUP2 MSTORE PUSH1 0x20 ADD PUSH0 ISZERO ISZERO DUP2 MSTORE POP SWAP1 DUP1 PUSH1 0x1 DUP2 SLOAD ADD DUP1 DUP3 SSTORE DUP1 SWAP2 POP POP PUSH1 0x1 SWAP1 SUB SWAP1 PUSH0 MSTORE PUSH1 0x20 PUSH0 KECCAK256 SWAP1 PUSH1 0x4 MUL ADD PUSH0 SWAP1 SWAP2 SWAP1 SWAP2 SWAP1 SWAP2 POP PUSH0 DUP3 ADD MLOAD DUP2 PUSH0 ADD PUSH0 PUSH2 0x100 EXP DUP2 SLOAD DUP2 PUSH20 0xFFFFFFFFFFFFFFFFFFFFFFFFFFFFFFFFFFFFFFFF MUL NOT AND SWAP1 DUP4 PUSH20 0xFFFFFFFFFFFFFFFFFFFFFFFFFFFFFFFFFFFFFFFF AND MUL OR SWAP1 SSTORE POP PUSH1 0x20 DUP3 ADD MLOAD DUP2 PUSH1 0x1 ADD SSTORE PUSH1 0x40 DUP3 ADD MLOAD DUP2 PUSH1 0x2 ADD SSTORE PUSH1 0x60 DUP3 ADD MLOAD DUP2 PUSH1 0x3 ADD PUSH0 PUSH2 0x100 EXP DUP2 SLOAD DUP2 PUSH1 0xFF MUL NOT AND SWAP1 DUP4 ISZERO ISZERO MUL OR SWAP1 SSTORE POP POP POP JUMP JUMPDEST PUSH1 0x2 SLOAD TIMESTAMP LT ISZERO DUP1 ISZERO PUSH2 0x8A9 JUMPI POP PUSH1 0x3 SLOAD TIMESTAMP GT ISZERO JUMPDEST PUSH2 0x8E8 JUMPI PUSH1 0x40 MLOAD PUSH32 0x8C379A000000000000000000000000000000000000000000000000000000000 DUP2 MSTORE PUSH1 0x4 ADD PUSH2 0x8DF SWAP1 PUSH2 0x18BE JUMP JUMPDEST PUSH1 0x40 MLOAD DUP1 SWAP2 SUB SWAP1 REVERT JUMPDEST PUSH1 0x4 PUSH1 0x14 SWAP1 SLOAD SWAP1 PUSH2 0x100 EXP SWAP1 DIV PUSH1 0xFF AND ISZERO PUSH2 0x938 JUMPI PUSH1 0x40 MLOAD PUSH32 0x8C379A000000000000000000000000000000000000000000000000000000000 DUP2 MSTORE PUSH1 0x4 ADD PUSH2 0x92F SWAP1 PUSH2 0x1926 JUMP JUMPDEST PUSH1 0x40 MLOAD DUP1 SWAP2 SUB SWAP1 REVERT JUMPDEST PUSH0 PUSH0 SWAP1 POP PUSH0 PUSH1 0x6 DUP1 SLOAD SWAP1 POP SWAP1 POP PUSH0 PUSH0 SWAP1 POP JUMPDEST DUP2 DUP2 LT ISZERO PUSH2 0xA1C JUMPI CALLER PUSH20 0xFFFFFFFFFFFFFFFFFFFFFFFFFFFFFFFFFFFFFFFF AND PUSH1 0x6 DUP3 DUP2 SLOAD DUP2 LT PUSH2 0x97D JUMPI PUSH2 0x97C PUSH2 0x1AE8 JUMP JUMPDEST JUMPDEST SWAP1 PUSH0 MSTORE PUSH1 0x20 PUSH0 KECCAK256 SWAP1 PUSH1 0x4 MUL ADD PUSH0 ADD PUSH0 SWAP1 SLOAD SWAP1 PUSH2 0x100 EXP SWAP1 DIV PUSH20 0xFFFFFFFFFFFFFFFFFFFFFFFFFFFFFFFFFFFFFFFF AND PUSH20 0xFFFFFFFFFFFFFFFFFFFFFFFFFFFFFFFFFFFFFFFF AND EQ DUP1 ISZERO PUSH2 0x9FB JUMPI POP PUSH1 0x6 DUP2 DUP2 SLOAD DUP2 LT PUSH2 0x9DD JUMPI PUSH2 0x9DC PUSH2 0x1AE8 JUMP JUMPDEST JUMPDEST SWAP1 PUSH0 MSTORE PUSH1 0x20 PUSH0 KECCAK256 SWAP1 PUSH1 0x4 MUL ADD PUSH1 0x3 ADD PUSH0 SWAP1 SLOAD SWAP1 PUSH2 0x100 EXP SWAP1 DIV PUSH1 0xFF AND ISZERO JUMPDEST ISZERO PUSH2 0xA0F JUMPI DUP3 DUP1 PUSH2 0xA0B SWAP1 PUSH2 0x1B15 JUMP JUMPDEST SWAP4 POP POP JUMPDEST DUP1 DUP1 PUSH1 0x1 ADD SWAP2 POP POP PUSH2 0x94A JUMP JUMPDEST POP PUSH1 0x1 DUP3 GT PUSH2 0xA60 JUMPI PUSH1 0x40 MLOAD PUSH32 0x8C379A000000000000000000000000000000000000000000000000000000000 DUP2 MSTORE PUSH1 0x4 ADD PUSH2 0xA57 SWAP1 PUSH2 0x1BA6 JUMP JUMPDEST PUSH1 0x40 MLOAD DUP1 SWAP2 SUB SWAP1 REVERT JUMPDEST PUSH0 PUSH0 SWAP1 POP PUSH0 PUSH0 SWAP1 POP PUSH0 PUSH0 SWAP1 POP JUMPDEST DUP4 DUP2 LT ISZERO PUSH2 0xBCC JUMPI CALLER PUSH20 0xFFFFFFFFFFFFFFFFFFFFFFFFFFFFFFFFFFFFFFFF AND PUSH1 0x6 DUP3 DUP2 SLOAD DUP2 LT PUSH2 0xAA0 JUMPI PUSH2 0xA9F PUSH2 0x1AE8 JUMP JUMPDEST JUMPDEST SWAP1 PUSH0 MSTORE PUSH1 0x20 PUSH0 KECCAK256 SWAP1 PUSH1 0x4 MUL ADD PUSH0 ADD PUSH0 SWAP1 SLOAD SWAP1 PUSH2 0x100 EXP SWAP1 DIV PUSH20 0xFFFFFFFFFFFFFFFFFFFFFFFFFFFFFFFFFFFFFFFF AND PUSH20 0xFFFFFFFFFFFFFFFFFFFFFFFFFFFFFFFFFFFFFFFF AND EQ DUP1 ISZERO PUSH2 0xB1E JUMPI POP PUSH1 0x6 DUP2 DUP2 SLOAD DUP2 LT PUSH2 0xB00 JUMPI PUSH2 0xAFF PUSH2 0x1AE8 JUMP JUMPDEST JUMPDEST SWAP1 PUSH0 MSTORE PUSH1 0x20 PUSH0 KECCAK256 SWAP1 PUSH1 0x4 MUL ADD PUSH1 0x3 ADD PUSH0 SWAP1 SLOAD SWAP1 PUSH2 0x100 EXP SWAP1 DIV PUSH1 0xFF AND ISZERO JUMPDEST ISZERO PUSH2 0xBBF JUMPI DUP3 DUP1 PUSH2 0xB2E SWAP1 PUSH2 0x1B15 JUMP JUMPDEST SWAP4 POP POP DUP5 DUP4 LT ISZERO PUSH2 0xBBE JUMPI PUSH1 0x64 PUSH1 0x62 PUSH1 0x6 DUP4 DUP2 SLOAD DUP2 LT PUSH2 0xB51 JUMPI PUSH2 0xB50 PUSH2 0x1AE8 JUMP JUMPDEST JUMPDEST SWAP1 PUSH0 MSTORE PUSH1 0x20 PUSH0 KECCAK256 SWAP1 PUSH1 0x4 MUL ADD PUSH1 0x1 ADD SLOAD PUSH2 0xB6B SWAP2 SWAP1 PUSH2 0x19D9 JUMP JUMPDEST PUSH2 0xB75 SWAP2 SWAP1 PUSH2 0x1BF1 JUMP JUMPDEST DUP3 PUSH2 0xB80 SWAP2 SWAP1 PUSH2 0x1AB5 JUMP JUMPDEST SWAP2 POP PUSH1 0x1 PUSH1 0x6 DUP3 DUP2 SLOAD DUP2 LT PUSH2 0xB98 JUMPI PUSH2 0xB97 PUSH2 0x1AE8 JUMP JUMPDEST JUMPDEST SWAP1 PUSH0 MSTORE PUSH1 0x20 PUSH0 KECCAK256 SWAP1 PUSH1 0x4 MUL ADD PUSH1 0x3 ADD PUSH0 PUSH2 0x100 EXP DUP2 SLOAD DUP2 PUSH1 0xFF MUL NOT AND SWAP1 DUP4 ISZERO ISZERO MUL OR SWAP1 SSTORE POP JUMPDEST JUMPDEST DUP1 DUP1 PUSH1 0x1 ADD SWAP2 POP POP PUSH2 0xA6D JUMP JUMPDEST POP PUSH0 DUP2 GT PUSH2 0xC0F JUMPI PUSH1 0x40 MLOAD PUSH32 0x8C379A000000000000000000000000000000000000000000000000000000000 DUP2 MSTORE PUSH1 0x4 ADD PUSH2 0xC06 SWAP1 PUSH2 0x1C6B JUMP JUMPDEST PUSH1 0x40 MLOAD DUP1 SWAP2 SUB SWAP1 REVERT JUMPDEST PUSH0 CALLER PUSH20 0xFFFFFFFFFFFFFFFFFFFFFFFFFFFFFFFFFFFFFFFF AND DUP3 PUSH1 0x40 MLOAD PUSH2 0xC34 SWAP1 PUSH2 0x1CB6 JUMP JUMPDEST PUSH0 PUSH1 0x40 MLOAD DUP1 DUP4 SUB DUP2 DUP6 DUP8 GAS CALL SWAP3 POP POP POP RETURNDATASIZE DUP1 PUSH0 DUP2 EQ PUSH2 0xC6E JUMPI PUSH1 0x40 MLOAD SWAP2 POP PUSH1 0x1F NOT PUSH1 0x3F RETURNDATASIZE ADD AND DUP3 ADD PUSH1 0x40 MSTORE RETURNDATASIZE DUP3 MSTORE RETURNDATASIZE PUSH0 PUSH1 0x20 DUP5 ADD RETURNDATACOPY PUSH2 0xC73 JUMP JUMPDEST PUSH1 0x60 SWAP2 POP JUMPDEST POP POP SWAP1 POP DUP1 PUSH2 0xCB7 JUMPI PUSH1 0x40 MLOAD PUSH32 0x8C379A000000000000000000000000000000000000000000000000000000000 DUP2 MSTORE PUSH1 0x4 ADD PUSH2 0xCAE SWAP1 PUSH2 0x1D14 JUMP JUMPDEST PUSH1 0x40 MLOAD DUP1 SWAP2 SUB SWAP1 REVERT JUMPDEST DUP2 PUSH1 0x5 PUSH0 CALLER PUSH20 0xFFFFFFFFFFFFFFFFFFFFFFFFFFFFFFFFFFFFFFFF AND PUSH20 0xFFFFFFFFFFFFFFFFFFFFFFFFFFFFFFFFFFFFFFFF AND DUP2 MSTORE PUSH1 0x20 ADD SWAP1 DUP2 MSTORE PUSH1 0x20 ADD PUSH0 KECCAK256 PUSH0 DUP3 DUP3 SLOAD PUSH2 0xD03 SWAP2 SWAP1 PUSH2 0x1A82 JUMP JUMPDEST SWAP3 POP POP DUP2 SWAP1 SSTORE POP POP POP POP POP POP JUMP JUMPDEST PUSH1 0x4 PUSH0 SWAP1 SLOAD SWAP1 PUSH2 0x100 EXP SWAP1 DIV PUSH20 0xFFFFFFFFFFFFFFFFFFFFFFFFFFFFFFFFFFFFFFFF AND PUSH20 0xFFFFFFFFFFFFFFFFFFFFFFFFFFFFFFFFFFFFFFFF AND CALLER PUSH20 0xFFFFFFFFFFFFFFFFFFFFFFFFFFFFFFFFFFFFFFFF AND EQ PUSH2 0xDA0 JUMPI PUSH1 0x40 MLOAD PUSH32 0x8C379A000000000000000000000000000000000000000000000000000000000 DUP2 MSTORE PUSH1 0x4 ADD PUSH2 0xD97 SWAP1 PUSH2 0x1856 JUMP JUMPDEST PUSH1 0x40 MLOAD DUP1 SWAP2 SUB SWAP1 REVERT JUMPDEST PUSH1 0x3 SLOAD TIMESTAMP LT ISZERO PUSH2 0xDE5 JUMPI PUSH1 0x40 MLOAD PUSH32 0x8C379A000000000000000000000000000000000000000000000000000000000 DUP2 MSTORE PUSH1 0x4 ADD PUSH2 0xDDC SWAP1 PUSH2 0x1D7C JUMP JUMPDEST PUSH1 0x40 MLOAD DUP1 SWAP2 SUB SWAP1 REVERT JUMPDEST PUSH1 0x4 PUSH1 0x14 SWAP1 SLOAD SWAP1 PUSH2 0x100 EXP SWAP1 DIV PUSH1 0xFF AND ISZERO PUSH2 0xE35 JUMPI PUSH1 0x40 MLOAD PUSH32 0x8C379A000000000000000000000000000000000000000000000000000000000 DUP2 MSTORE PUSH1 0x4 ADD PUSH2 0xE2C SWAP1 PUSH2 0x1926 JUMP JUMPDEST PUSH1 0x40 MLOAD DUP1 SWAP2 SUB SWAP1 REVERT JUMPDEST PUSH0 PUSH1 0x6 DUP1 SLOAD SWAP1 POP SWAP1 POP PUSH0 PUSH0 PUSH0 SWAP1 POP JUMPDEST DUP3 DUP2 LT ISZERO PUSH2 0x10BA JUMPI PUSH0 SLOAD PUSH1 0x6 DUP3 DUP2 SLOAD DUP2 LT PUSH2 0xE62 JUMPI PUSH2 0xE61 PUSH2 0x1AE8 JUMP JUMPDEST JUMPDEST SWAP1 PUSH0 MSTORE PUSH1 0x20 PUSH0 KECCAK256 SWAP1 PUSH1 0x4 MUL ADD PUSH1 0x1 ADD SLOAD EQ ISZERO DUP1 ISZERO PUSH2 0xEB2 JUMPI POP PUSH0 ISZERO ISZERO PUSH1 0x6 DUP3 DUP2 SLOAD DUP2 LT PUSH2 0xE92 JUMPI PUSH2 0xE91 PUSH2 0x1AE8 JUMP JUMPDEST JUMPDEST SWAP1 PUSH0 MSTORE PUSH1 0x20 PUSH0 KECCAK256 SWAP1 PUSH1 0x4 MUL ADD PUSH1 0x3 ADD PUSH0 SWAP1 SLOAD SWAP1 PUSH2 0x100 EXP SWAP1 DIV PUSH1 0xFF AND ISZERO ISZERO EQ JUMPDEST ISZERO PUSH2 0x10AF JUMPI PUSH1 0x64 PUSH1 0x62 PUSH1 0x6 DUP4 DUP2 SLOAD DUP2 LT PUSH2 0xECF JUMPI PUSH2 0xECE PUSH2 0x1AE8 JUMP JUMPDEST JUMPDEST SWAP1 PUSH0 MSTORE PUSH1 0x20 PUSH0 KECCAK256 SWAP1 PUSH1 0x4 MUL ADD PUSH1 0x1 ADD SLOAD PUSH2 0xEE9 SWAP2 SWAP1 PUSH2 0x19D9 JUMP JUMPDEST PUSH2 0xEF3 SWAP2 SWAP1 PUSH2 0x1BF1 JUMP JUMPDEST SWAP2 POP PUSH0 PUSH1 0x6 DUP3 DUP2 SLOAD DUP2 LT PUSH2 0xF0A JUMPI PUSH2 0xF09 PUSH2 0x1AE8 JUMP JUMPDEST JUMPDEST SWAP1 PUSH0 MSTORE PUSH1 0x20 PUSH0 KECCAK256 SWAP1 PUSH1 0x4 MUL ADD PUSH0 ADD PUSH0 SWAP1 SLOAD SWAP1 PUSH2 0x100 EXP SWAP1 DIV PUSH20 0xFFFFFFFFFFFFFFFFFFFFFFFFFFFFFFFFFFFFFFFF AND PUSH20 0xFFFFFFFFFFFFFFFFFFFFFFFFFFFFFFFFFFFFFFFF AND DUP4 PUSH1 0x40 MLOAD PUSH2 0xF5B SWAP1 PUSH2 0x1CB6 JUMP JUMPDEST PUSH0 PUSH1 0x40 MLOAD DUP1 DUP4 SUB DUP2 DUP6 DUP8 GAS CALL SWAP3 POP POP POP RETURNDATASIZE DUP1 PUSH0 DUP2 EQ PUSH2 0xF95 JUMPI PUSH1 0x40 MLOAD SWAP2 POP PUSH1 0x1F NOT PUSH1 0x3F RETURNDATASIZE ADD AND DUP3 ADD PUSH1 0x40 MSTORE RETURNDATASIZE DUP3 MSTORE RETURNDATASIZE PUSH0 PUSH1 0x20 DUP5 ADD RETURNDATACOPY PUSH2 0xF9A JUMP JUMPDEST PUSH1 0x60 SWAP2 POP JUMPDEST POP POP SWAP1 POP DUP1 PUSH2 0xFDE JUMPI PUSH1 0x40 MLOAD PUSH32 0x8C379A000000000000000000000000000000000000000000000000000000000 DUP2 MSTORE PUSH1 0x4 ADD PUSH2 0xFD5 SWAP1 PUSH2 0x1D14 JUMP JUMPDEST PUSH1 0x40 MLOAD DUP1 SWAP2 SUB SWAP1 REVERT JUMPDEST PUSH1 0x1 PUSH1 0x6 DUP4 DUP2 SLOAD DUP2 LT PUSH2 0xFF4 JUMPI PUSH2 0xFF3 PUSH2 0x1AE8 JUMP JUMPDEST JUMPDEST SWAP1 PUSH0 MSTORE PUSH1 0x20 PUSH0 KECCAK256 SWAP1 PUSH1 0x4 MUL ADD PUSH1 0x3 ADD PUSH0 PUSH2 0x100 EXP DUP2 SLOAD DUP2 PUSH1 0xFF MUL NOT AND SWAP1 DUP4 ISZERO ISZERO MUL OR SWAP1 SSTORE POP DUP3 PUSH1 0x5 PUSH0 PUSH1 0x6 DUP6 DUP2 SLOAD DUP2 LT PUSH2 0x1031 JUMPI PUSH2 0x1030 PUSH2 0x1AE8 JUMP JUMPDEST JUMPDEST SWAP1 PUSH0 MSTORE PUSH1 0x20 PUSH0 KECCAK256 SWAP1 PUSH1 0x4 MUL ADD PUSH0 ADD PUSH0 SWAP1 SLOAD SWAP1 PUSH2 0x100 EXP SWAP1 DIV PUSH20 0xFFFFFFFFFFFFFFFFFFFFFFFFFFFFFFFFFFFFFFFF AND PUSH20 0xFFFFFFFFFFFFFFFFFFFFFFFFFFFFFFFFFFFFFFFF AND PUSH20 0xFFFFFFFFFFFFFFFFFFFFFFFFFFFFFFFFFFFFFFFF AND DUP2 MSTORE PUSH1 0x20 ADD SWAP1 DUP2 MSTORE PUSH1 0x20 ADD PUSH0 KECCAK256 PUSH0 DUP3 DUP3 SLOAD PUSH2 0x10A6 SWAP2 SWAP1 PUSH2 0x1A82 JUMP JUMPDEST SWAP3 POP POP DUP2 SWAP1 SSTORE POP POP JUMPDEST DUP1 PUSH1 0x1 ADD SWAP1 POP PUSH2 0xE44 JUMP JUMPDEST POP PUSH32 0xA0E92984607195C326795751263414EE1074526323552E694C90EF2B99AE3F29 PUSH1 0x40 MLOAD PUSH1 0x40 MLOAD DUP1 SWAP2 SUB SWAP1 LOG1 POP POP JUMP JUMPDEST PUSH0 PUSH0 PUSH1 0x3 SLOAD TIMESTAMP LT ISZERO PUSH2 0x1132 JUMPI PUSH1 0x40 MLOAD PUSH32 0x8C379A000000000000000000000000000000000000000000000000000000000 DUP2 MSTORE PUSH1 0x4 ADD PUSH2 0x1129 SWAP1 PUSH2 0x1D7C JUMP JUMPDEST PUSH1 0x40 MLOAD DUP1 SWAP2 SUB SWAP1 REVERT JUMPDEST PUSH1 0x1 PUSH0 SWAP1 SLOAD SWAP1 PUSH2 0x100 EXP SWAP1 DIV PUSH20 0xFFFFFFFFFFFFFFFFFFFFFFFFFFFFFFFFFFFFFFFF AND PUSH0 SLOAD SWAP2 POP SWAP2 POP SWAP1 SWAP2 JUMP JUMPDEST PUSH1 0x4 PUSH1 0x14 SWAP1 SLOAD SWAP1 PUSH2 0x100 EXP SWAP1 DIV PUSH1 0xFF AND DUP2 JUMP JUMPDEST PUSH1 0x2 SLOAD DUP2 JUMP JUMPDEST PUSH1 0x4 PUSH0 SWAP1 SLOAD SWAP1 PUSH2 0x100 EXP SWAP1 DIV PUSH20 0xFFFFFFFFFFFFFFFFFFFFFFFFFFFFFFFFFFFFFFFF AND DUP2 JUMP JUMPDEST PUSH1 0x1 PUSH0 SWAP1 SLOAD SWAP1 PUSH2 0x100 EXP SWAP1 DIV PUSH20 0xFFFFFFFFFFFFFFFFFFFFFFFFFFFFFFFFFFFFFFFF AND DUP2 JUMP JUMPDEST PUSH0 TIMESTAMP SWAP1 POP SWAP1 JUMP JUMPDEST PUSH0 PUSH0 PUSH1 0x1 PUSH0 SWAP1 SLOAD SWAP1 PUSH2 0x100 EXP SWAP1 DIV PUSH20 0xFFFFFFFFFFFFFFFFFFFFFFFFFFFFFFFFFFFFFFFF AND PUSH0 SLOAD SWAP2 POP SWAP2 POP SWAP1 SWAP2 JUMP JUMPDEST PUSH0 SLOAD DUP2 JUMP JUMPDEST PUSH1 0x4 PUSH0 SWAP1 SLOAD SWAP1 PUSH2 0x100 EXP SWAP1 DIV PUSH20 0xFFFFFFFFFFFFFFFFFFFFFFFFFFFFFFFFFFFFFFFF AND PUSH20 0xFFFFFFFFFFFFFFFFFFFFFFFFFFFFFFFFFFFFFFFF AND CALLER PUSH20 0xFFFFFFFFFFFFFFFFFFFFFFFFFFFFFFFFFFFFFFFF AND EQ PUSH2 0x128A JUMPI PUSH1 0x40 MLOAD PUSH32 0x8C379A000000000000000000000000000000000000000000000000000000000 DUP2 MSTORE PUSH1 0x4 ADD PUSH2 0x1281 SWAP1 PUSH2 0x1856 JUMP JUMPDEST PUSH1 0x40 MLOAD DUP1 SWAP2 SUB SWAP1 REVERT JUMPDEST PUSH1 0x4 PUSH1 0x14 SWAP1 SLOAD SWAP1 PUSH2 0x100 EXP SWAP1 DIV PUSH1 0xFF AND PUSH2 0x12D9 JUMPI PUSH1 0x40 MLOAD PUSH32 0x8C379A000000000000000000000000000000000000000000000000000000000 DUP2 MSTORE PUSH1 0x4 ADD PUSH2 0x12D0 SWAP1 PUSH2 0x1DE4 JUMP JUMPDEST PUSH1 0x40 MLOAD DUP1 SWAP2 SUB SWAP1 REVERT JUMPDEST PUSH0 SELFBALANCE SWAP1 POP PUSH0 DUP2 GT PUSH2 0x131F JUMPI PUSH1 0x40 MLOAD PUSH32 0x8C379A000000000000000000000000000000000000000000000000000000000 DUP2 MSTORE PUSH1 0x4 ADD PUSH2 0x1316 SWAP1 PUSH2 0x1E4C JUMP JUMPDEST PUSH1 0x40 MLOAD DUP1 SWAP2 SUB SWAP1 REVERT JUMPDEST PUSH0 PUSH1 0x4 PUSH0 SWAP1 SLOAD SWAP1 PUSH2 0x100 EXP SWAP1 DIV PUSH20 0xFFFFFFFFFFFFFFFFFFFFFFFFFFFFFFFFFFFFFFFF AND PUSH20 0xFFFFFFFFFFFFFFFFFFFFFFFFFFFFFFFFFFFFFFFF AND DUP3 PUSH1 0x40 MLOAD PUSH2 0x1365 SWAP1 PUSH2 0x1CB6 JUMP JUMPDEST PUSH0 PUSH1 0x40 MLOAD DUP1 DUP4 SUB DUP2 DUP6 DUP8 GAS CALL SWAP3 POP POP POP RETURNDATASIZE DUP1 PUSH0 DUP2 EQ PUSH2 0x139F JUMPI PUSH1 0x40 MLOAD SWAP2 POP PUSH1 0x1F NOT PUSH1 0x3F RETURNDATASIZE ADD AND DUP3 ADD PUSH1 0x40 MSTORE RETURNDATASIZE DUP3 MSTORE RETURNDATASIZE PUSH0 PUSH1 0x20 DUP5 ADD RETURNDATACOPY PUSH2 0x13A4 JUMP JUMPDEST PUSH1 0x60 SWAP2 POP JUMPDEST POP POP SWAP1 POP DUP1 PUSH2 0x13E8 JUMPI PUSH1 0x40 MLOAD PUSH32 0x8C379A000000000000000000000000000000000000000000000000000000000 DUP2 MSTORE PUSH1 0x4 ADD PUSH2 0x13DF SWAP1 PUSH2 0x1EB4 JUMP JUMPDEST PUSH1 0x40 MLOAD DUP1 SWAP2 SUB SWAP1 REVERT JUMPDEST POP POP JUMP JUMPDEST PUSH1 0x6 DUP2 DUP2 SLOAD DUP2 LT PUSH2 0x13FB JUMPI PUSH0 DUP1 REVERT JUMPDEST SWAP1 PUSH0 MSTORE PUSH1 0x20 PUSH0 KECCAK256 SWAP1 PUSH1 0x4 MUL ADD PUSH0 SWAP2 POP SWAP1 POP DUP1 PUSH0 ADD PUSH0 SWAP1 SLOAD SWAP1 PUSH2 0x100 EXP SWAP1 DIV PUSH20 0xFFFFFFFFFFFFFFFFFFFFFFFFFFFFFFFFFFFFFFFF AND SWAP1 DUP1 PUSH1 0x1 ADD SLOAD SWAP1 DUP1 PUSH1 0x2 ADD SLOAD SWAP1 DUP1 PUSH1 0x3 ADD PUSH0 SWAP1 SLOAD SWAP1 PUSH2 0x100 EXP SWAP1 DIV PUSH1 0xFF AND SWAP1 POP DUP5 JUMP JUMPDEST PUSH0 DUP2 SWAP1 POP SWAP2 SWAP1 POP JUMP JUMPDEST PUSH2 0x1464 DUP2 PUSH2 0x1452 JUMP JUMPDEST DUP3 MSTORE POP POP JUMP JUMPDEST PUSH0 PUSH1 0x20 DUP3 ADD SWAP1 POP PUSH2 0x147D PUSH0 DUP4 ADD DUP5 PUSH2 0x145B JUMP JUMPDEST SWAP3 SWAP2 POP POP JUMP JUMPDEST PUSH0 PUSH0 REVERT JUMPDEST PUSH0 PUSH20 0xFFFFFFFFFFFFFFFFFFFFFFFFFFFFFFFFFFFFFFFF DUP3 AND SWAP1 POP SWAP2 SWAP1 POP JUMP JUMPDEST PUSH0 PUSH2 0x14B0 DUP3 PUSH2 0x1487 JUMP JUMPDEST SWAP1 POP SWAP2 SWAP1 POP JUMP JUMPDEST PUSH2 0x14C0 DUP2 PUSH2 0x14A6 JUMP JUMPDEST DUP2 EQ PUSH2 0x14CA JUMPI PUSH0 PUSH0 REVERT JUMPDEST POP JUMP JUMPDEST PUSH0 DUP2 CALLDATALOAD SWAP1 POP PUSH2 0x14DB DUP2 PUSH2 0x14B7 JUMP JUMPDEST SWAP3 SWAP2 POP POP JUMP JUMPDEST PUSH0 PUSH1 0x20 DUP3 DUP5 SUB SLT ISZERO PUSH2 0x14F6 JUMPI PUSH2 0x14F5 PUSH2 0x1483 JUMP JUMPDEST JUMPDEST PUSH0 PUSH2 0x1503 DUP5 DUP3 DUP6 ADD PUSH2 0x14CD JUMP JUMPDEST SWAP2 POP POP SWAP3 SWAP2 POP POP JUMP JUMPDEST PUSH0 DUP2 MLOAD SWAP1 POP SWAP2 SWAP1 POP JUMP JUMPDEST PUSH0 DUP3 DUP3 MSTORE PUSH1 0x20 DUP3 ADD SWAP1 POP SWAP3 SWAP2 POP POP JUMP JUMPDEST PUSH0 DUP2 SWAP1 POP PUSH1 0x20 DUP3 ADD SWAP1 POP SWAP2 SWAP1 POP JUMP JUMPDEST PUSH2 0x153E DUP2 PUSH2 0x14A6 JUMP JUMPDEST DUP3 MSTORE POP POP JUMP JUMPDEST PUSH2 0x154D DUP2 PUSH2 0x1452 JUMP JUMPDEST DUP3 MSTORE POP POP JUMP JUMPDEST PUSH0 DUP2 ISZERO ISZERO SWAP1 POP SWAP2 SWAP1 POP JUMP JUMPDEST PUSH2 0x1567 DUP2 PUSH2 0x1553 JUMP JUMPDEST DUP3 MSTORE POP POP JUMP JUMPDEST PUSH1 0x80 DUP3 ADD PUSH0 DUP3 ADD MLOAD PUSH2 0x1581 PUSH0 DUP6 ADD DUP3 PUSH2 0x1535 JUMP JUMPDEST POP PUSH1 0x20 DUP3 ADD MLOAD PUSH2 0x1594 PUSH1 0x20 DUP6 ADD DUP3 PUSH2 0x1544 JUMP JUMPDEST POP PUSH1 0x40 DUP3 ADD MLOAD PUSH2 0x15A7 PUSH1 0x40 DUP6 ADD DUP3 PUSH2 0x1544 JUMP JUMPDEST POP PUSH1 0x60 DUP3 ADD MLOAD PUSH2 0x15BA PUSH1 0x60 DUP6 ADD DUP3 PUSH2 0x155E JUMP JUMPDEST POP POP POP POP JUMP JUMPDEST PUSH0 PUSH2 0x15CB DUP4 DUP4 PUSH2 0x156D JUMP JUMPDEST PUSH1 0x80 DUP4 ADD SWAP1 POP SWAP3 SWAP2 POP POP JUMP JUMPDEST PUSH0 PUSH1 0x20 DUP3 ADD SWAP1 POP SWAP2 SWAP1 POP JUMP JUMPDEST PUSH0 PUSH2 0x15ED DUP3 PUSH2 0x150C JUMP JUMPDEST PUSH2 0x15F7 DUP2 DUP6 PUSH2 0x1516 JUMP JUMPDEST SWAP4 POP PUSH2 0x1602 DUP4 PUSH2 0x1526 JUMP JUMPDEST DUP1 PUSH0 JUMPDEST DUP4 DUP2 LT ISZERO PUSH2 0x1632 JUMPI DUP2 MLOAD PUSH2 0x1619 DUP9 DUP3 PUSH2 0x15C0 JUMP JUMPDEST SWAP8 POP PUSH2 0x1624 DUP4 PUSH2 0x15D7 JUMP JUMPDEST SWAP3 POP POP PUSH1 0x1 DUP2 ADD SWAP1 POP PUSH2 0x1605 JUMP JUMPDEST POP DUP6 SWAP4 POP POP POP POP SWAP3 SWAP2 POP POP JUMP JUMPDEST PUSH0 PUSH1 0x20 DUP3 ADD SWAP1 POP DUP2 DUP2 SUB PUSH0 DUP4 ADD MSTORE PUSH2 0x1657 DUP2 DUP5 PUSH2 0x15E3 JUMP JUMPDEST SWAP1 POP SWAP3 SWAP2 POP POP JUMP JUMPDEST PUSH2 0x1668 DUP2 PUSH2 0x1553 JUMP JUMPDEST DUP2 EQ PUSH2 0x1672 JUMPI PUSH0 PUSH0 REVERT JUMPDEST POP JUMP JUMPDEST PUSH0 DUP2 CALLDATALOAD SWAP1 POP PUSH2 0x1683 DUP2 PUSH2 0x165F JUMP JUMPDEST SWAP3 SWAP2 POP POP JUMP JUMPDEST PUSH0 PUSH1 0x20 DUP3 DUP5 SUB SLT ISZERO PUSH2 0x169E JUMPI PUSH2 0x169D PUSH2 0x1483 JUMP JUMPDEST JUMPDEST PUSH0 PUSH2 0x16AB DUP5 DUP3 DUP6 ADD PUSH2 0x1675 JUMP JUMPDEST SWAP2 POP POP SWAP3 SWAP2 POP POP JUMP JUMPDEST PUSH2 0x16BD DUP2 PUSH2 0x14A6 JUMP JUMPDEST DUP3 MSTORE POP POP JUMP JUMPDEST PUSH0 PUSH1 0x40 DUP3 ADD SWAP1 POP PUSH2 0x16D6 PUSH0 DUP4 ADD DUP6 PUSH2 0x16B4 JUMP JUMPDEST PUSH2 0x16E3 PUSH1 0x20 DUP4 ADD DUP5 PUSH2 0x145B JUMP JUMPDEST SWAP4 SWAP3 POP POP POP JUMP JUMPDEST PUSH2 0x16F3 DUP2 PUSH2 0x1553 JUMP JUMPDEST DUP3 MSTORE POP POP JUMP JUMPDEST PUSH0 PUSH1 0x20 DUP3 ADD SWAP1 POP PUSH2 0x170C PUSH0 DUP4 ADD DUP5 PUSH2 0x16EA JUMP JUMPDEST SWAP3 SWAP2 POP POP JUMP JUMPDEST PUSH0 PUSH2 0x171C DUP3 PUSH2 0x1487 JUMP JUMPDEST SWAP1 POP SWAP2 SWAP1 POP JUMP JUMPDEST PUSH2 0x172C DUP2 PUSH2 0x1712 JUMP JUMPDEST DUP3 MSTORE POP POP JUMP JUMPDEST PUSH0 PUSH1 0x20 DUP3 ADD SWAP1 POP PUSH2 0x1745 PUSH0 DUP4 ADD DUP5 PUSH2 0x1723 JUMP JUMPDEST SWAP3 SWAP2 POP POP JUMP JUMPDEST PUSH0 PUSH1 0x20 DUP3 ADD SWAP1 POP PUSH2 0x175E PUSH0 DUP4 ADD DUP5 PUSH2 0x16B4 JUMP JUMPDEST SWAP3 SWAP2 POP POP JUMP JUMPDEST PUSH2 0x176D DUP2 PUSH2 0x1452 JUMP JUMPDEST DUP2 EQ PUSH2 0x1777 JUMPI PUSH0 PUSH0 REVERT JUMPDEST POP JUMP JUMPDEST PUSH0 DUP2 CALLDATALOAD SWAP1 POP PUSH2 0x1788 DUP2 PUSH2 0x1764 JUMP JUMPDEST SWAP3 SWAP2 POP POP JUMP JUMPDEST PUSH0 PUSH1 0x20 DUP3 DUP5 SUB SLT ISZERO PUSH2 0x17A3 JUMPI PUSH2 0x17A2 PUSH2 0x1483 JUMP JUMPDEST JUMPDEST PUSH0 PUSH2 0x17B0 DUP5 DUP3 DUP6 ADD PUSH2 0x177A JUMP JUMPDEST SWAP2 POP POP SWAP3 SWAP2 POP POP JUMP JUMPDEST PUSH0 PUSH1 0x80 DUP3 ADD SWAP1 POP PUSH2 0x17CC PUSH0 DUP4 ADD DUP8 PUSH2 0x16B4 JUMP JUMPDEST PUSH2 0x17D9 PUSH1 0x20 DUP4 ADD DUP7 PUSH2 0x145B JUMP JUMPDEST PUSH2 0x17E6 PUSH1 0x40 DUP4 ADD DUP6 PUSH2 0x145B JUMP JUMPDEST PUSH2 0x17F3 PUSH1 0x60 DUP4 ADD DUP5 PUSH2 0x16EA JUMP JUMPDEST SWAP6 SWAP5 POP POP POP POP POP JUMP JUMPDEST PUSH0 DUP3 DUP3 MSTORE PUSH1 0x20 DUP3 ADD SWAP1 POP SWAP3 SWAP2 POP POP JUMP JUMPDEST PUSH32 0x4F776E6572206F6E6C7900000000000000000000000000000000000000000000 PUSH0 DUP3 ADD MSTORE POP JUMP JUMPDEST PUSH0 PUSH2 0x1840 PUSH1 0xA DUP4 PUSH2 0x17FC JUMP JUMPDEST SWAP2 POP PUSH2 0x184B DUP3 PUSH2 0x180C JUMP JUMPDEST PUSH1 0x20 DUP3 ADD SWAP1 POP SWAP2 SWAP1 POP JUMP JUMPDEST PUSH0 PUSH1 0x20 DUP3 ADD SWAP1 POP DUP2 DUP2 SUB PUSH0 DUP4 ADD MSTORE PUSH2 0x186D DUP2 PUSH2 0x1834 JUMP JUMPDEST SWAP1 POP SWAP2 SWAP1 POP JUMP JUMPDEST PUSH32 0x41756374696F6E206973206E6F74206163746976650000000000000000000000 PUSH0 DUP3 ADD MSTORE POP JUMP JUMPDEST PUSH0 PUSH2 0x18A8 PUSH1 0x15 DUP4 PUSH2 0x17FC JUMP JUMPDEST SWAP2 POP PUSH2 0x18B3 DUP3 PUSH2 0x1874 JUMP JUMPDEST PUSH1 0x20 DUP3 ADD SWAP1 POP SWAP2 SWAP1 POP JUMP JUMPDEST PUSH0 PUSH1 0x20 DUP3 ADD SWAP1 POP DUP2 DUP2 SUB PUSH0 DUP4 ADD MSTORE PUSH2 0x18D5 DUP2 PUSH2 0x189C JUMP JUMPDEST SWAP1 POP SWAP2 SWAP1 POP JUMP JUMPDEST PUSH32 0x506175736564203D3D2074727565000000000000000000000000000000000000 PUSH0 DUP3 ADD MSTORE POP JUMP JUMPDEST PUSH0 PUSH2 0x1910 PUSH1 0xE DUP4 PUSH2 0x17FC JUMP JUMPDEST SWAP2 POP PUSH2 0x191B DUP3 PUSH2 0x18DC JUMP JUMPDEST PUSH1 0x20 DUP3 ADD SWAP1 POP SWAP2 SWAP1 POP JUMP JUMPDEST PUSH0 PUSH1 0x20 DUP3 ADD SWAP1 POP DUP2 DUP2 SUB PUSH0 DUP4 ADD MSTORE PUSH2 0x193D DUP2 PUSH2 0x1904 JUMP JUMPDEST SWAP1 POP SWAP2 SWAP1 POP JUMP JUMPDEST PUSH32 0x4E6F204554480000000000000000000000000000000000000000000000000000 PUSH0 DUP3 ADD MSTORE POP JUMP JUMPDEST PUSH0 PUSH2 0x1978 PUSH1 0x6 DUP4 PUSH2 0x17FC JUMP JUMPDEST SWAP2 POP PUSH2 0x1983 DUP3 PUSH2 0x1944 JUMP JUMPDEST PUSH1 0x20 DUP3 ADD SWAP1 POP SWAP2 SWAP1 POP JUMP JUMPDEST PUSH0 PUSH1 0x20 DUP3 ADD SWAP1 POP DUP2 DUP2 SUB PUSH0 DUP4 ADD MSTORE PUSH2 0x19A5 DUP2 PUSH2 0x196C JUMP JUMPDEST SWAP1 POP SWAP2 SWAP1 POP JUMP JUMPDEST PUSH32 0x4E487B7100000000000000000000000000000000000000000000000000000000 PUSH0 MSTORE PUSH1 0x11 PUSH1 0x4 MSTORE PUSH1 0x24 PUSH0 REVERT JUMPDEST PUSH0 PUSH2 0x19E3 DUP3 PUSH2 0x1452 JUMP JUMPDEST SWAP2 POP PUSH2 0x19EE DUP4 PUSH2 0x1452 JUMP JUMPDEST SWAP3 POP DUP3 DUP3 MUL PUSH2 0x19FC DUP2 PUSH2 0x1452 JUMP JUMPDEST SWAP2 POP DUP3 DUP3 DIV DUP5 EQ DUP4 ISZERO OR PUSH2 0x1A13 JUMPI PUSH2 0x1A12 PUSH2 0x19AC JUMP JUMPDEST JUMPDEST POP SWAP3 SWAP2 POP POP JUMP JUMPDEST PUSH32 0x426964203C203525000000000000000000000000000000000000000000000000 PUSH0 DUP3 ADD MSTORE POP JUMP JUMPDEST PUSH0 PUSH2 0x1A4E PUSH1 0x8 DUP4 PUSH2 0x17FC JUMP JUMPDEST SWAP2 POP PUSH2 0x1A59 DUP3 PUSH2 0x1A1A JUMP JUMPDEST PUSH1 0x20 DUP3 ADD SWAP1 POP SWAP2 SWAP1 POP JUMP JUMPDEST PUSH0 PUSH1 0x20 DUP3 ADD SWAP1 POP DUP2 DUP2 SUB PUSH0 DUP4 ADD MSTORE PUSH2 0x1A7B DUP2 PUSH2 0x1A42 JUMP JUMPDEST SWAP1 POP SWAP2 SWAP1 POP JUMP JUMPDEST PUSH0 PUSH2 0x1A8C DUP3 PUSH2 0x1452 JUMP JUMPDEST SWAP2 POP PUSH2 0x1A97 DUP4 PUSH2 0x1452 JUMP JUMPDEST SWAP3 POP DUP3 DUP3 SUB SWAP1 POP DUP2 DUP2 GT ISZERO PUSH2 0x1AAF JUMPI PUSH2 0x1AAE PUSH2 0x19AC JUMP JUMPDEST JUMPDEST SWAP3 SWAP2 POP POP JUMP JUMPDEST PUSH0 PUSH2 0x1ABF DUP3 PUSH2 0x1452 JUMP JUMPDEST SWAP2 POP PUSH2 0x1ACA DUP4 PUSH2 0x1452 JUMP JUMPDEST SWAP3 POP DUP3 DUP3 ADD SWAP1 POP DUP1 DUP3 GT ISZERO PUSH2 0x1AE2 JUMPI PUSH2 0x1AE1 PUSH2 0x19AC JUMP JUMPDEST JUMPDEST SWAP3 SWAP2 POP POP JUMP JUMPDEST PUSH32 0x4E487B7100000000000000000000000000000000000000000000000000000000 PUSH0 MSTORE PUSH1 0x32 PUSH1 0x4 MSTORE PUSH1 0x24 PUSH0 REVERT JUMPDEST PUSH0 PUSH2 0x1B1F DUP3 PUSH2 0x1452 JUMP JUMPDEST SWAP2 POP PUSH32 0xFFFFFFFFFFFFFFFFFFFFFFFFFFFFFFFFFFFFFFFFFFFFFFFFFFFFFFFFFFFFFFFF DUP3 SUB PUSH2 0x1B51 JUMPI PUSH2 0x1B50 PUSH2 0x19AC JUMP JUMPDEST JUMPDEST PUSH1 0x1 DUP3 ADD SWAP1 POP SWAP2 SWAP1 POP JUMP JUMPDEST PUSH32 0x4E6F20726566756E6461626C6520626964730000000000000000000000000000 PUSH0 DUP3 ADD MSTORE POP JUMP JUMPDEST PUSH0 PUSH2 0x1B90 PUSH1 0x12 DUP4 PUSH2 0x17FC JUMP JUMPDEST SWAP2 POP PUSH2 0x1B9B DUP3 PUSH2 0x1B5C JUMP JUMPDEST PUSH1 0x20 DUP3 ADD SWAP1 POP SWAP2 SWAP1 POP JUMP JUMPDEST PUSH0 PUSH1 0x20 DUP3 ADD SWAP1 POP DUP2 DUP2 SUB PUSH0 DUP4 ADD MSTORE PUSH2 0x1BBD DUP2 PUSH2 0x1B84 JUMP JUMPDEST SWAP1 POP SWAP2 SWAP1 POP JUMP JUMPDEST PUSH32 0x4E487B7100000000000000000000000000000000000000000000000000000000 PUSH0 MSTORE PUSH1 0x12 PUSH1 0x4 MSTORE PUSH1 0x24 PUSH0 REVERT JUMPDEST PUSH0 PUSH2 0x1BFB DUP3 PUSH2 0x1452 JUMP JUMPDEST SWAP2 POP PUSH2 0x1C06 DUP4 PUSH2 0x1452 JUMP JUMPDEST SWAP3 POP DUP3 PUSH2 0x1C16 JUMPI PUSH2 0x1C15 PUSH2 0x1BC4 JUMP JUMPDEST JUMPDEST DUP3 DUP3 DIV SWAP1 POP SWAP3 SWAP2 POP POP JUMP JUMPDEST PUSH32 0x4E6F7468696E6720746F20726566756E64000000000000000000000000000000 PUSH0 DUP3 ADD MSTORE POP JUMP JUMPDEST PUSH0 PUSH2 0x1C55 PUSH1 0x11 DUP4 PUSH2 0x17FC JUMP JUMPDEST SWAP2 POP PUSH2 0x1C60 DUP3 PUSH2 0x1C21 JUMP JUMPDEST PUSH1 0x20 DUP3 ADD SWAP1 POP SWAP2 SWAP1 POP JUMP JUMPDEST PUSH0 PUSH1 0x20 DUP3 ADD SWAP1 POP DUP2 DUP2 SUB PUSH0 DUP4 ADD MSTORE PUSH2 0x1C82 DUP2 PUSH2 0x1C49 JUMP JUMPDEST SWAP1 POP SWAP2 SWAP1 POP JUMP JUMPDEST PUSH0 DUP2 SWAP1 POP SWAP3 SWAP2 POP POP JUMP JUMPDEST POP JUMP JUMPDEST PUSH0 PUSH2 0x1CA1 PUSH0 DUP4 PUSH2 0x1C89 JUMP JUMPDEST SWAP2 POP PUSH2 0x1CAC DUP3 PUSH2 0x1C93 JUMP JUMPDEST PUSH0 DUP3 ADD SWAP1 POP SWAP2 SWAP1 POP JUMP JUMPDEST PUSH0 PUSH2 0x1CC0 DUP3 PUSH2 0x1C96 JUMP JUMPDEST SWAP2 POP DUP2 SWAP1 POP SWAP2 SWAP1 POP JUMP JUMPDEST PUSH32 0x526566756E64206661696C656400000000000000000000000000000000000000 PUSH0 DUP3 ADD MSTORE POP JUMP JUMPDEST PUSH0 PUSH2 0x1CFE PUSH1 0xD DUP4 PUSH2 0x17FC JUMP JUMPDEST SWAP2 POP PUSH2 0x1D09 DUP3 PUSH2 0x1CCA JUMP JUMPDEST PUSH1 0x20 DUP3 ADD SWAP1 POP SWAP2 SWAP1 POP JUMP JUMPDEST PUSH0 PUSH1 0x20 DUP3 ADD SWAP1 POP DUP2 DUP2 SUB PUSH0 DUP4 ADD MSTORE PUSH2 0x1D2B DUP2 PUSH2 0x1CF2 JUMP JUMPDEST SWAP1 POP SWAP2 SWAP1 POP JUMP JUMPDEST PUSH32 0x41756374696F6E20697320616374697665000000000000000000000000000000 PUSH0 DUP3 ADD MSTORE POP JUMP JUMPDEST PUSH0 PUSH2 0x1D66 PUSH1 0x11 DUP4 PUSH2 0x17FC JUMP JUMPDEST SWAP2 POP PUSH2 0x1D71 DUP3 PUSH2 0x1D32 JUMP JUMPDEST PUSH1 0x20 DUP3 ADD SWAP1 POP SWAP2 SWAP1 POP JUMP JUMPDEST PUSH0 PUSH1 0x20 DUP3 ADD SWAP1 POP DUP2 DUP2 SUB PUSH0 DUP4 ADD MSTORE PUSH2 0x1D93 DUP2 PUSH2 0x1D5A JUMP JUMPDEST SWAP1 POP SWAP2 SWAP1 POP JUMP JUMPDEST PUSH32 0x506175736564203D3D2066616C73650000000000000000000000000000000000 PUSH0 DUP3 ADD MSTORE POP JUMP JUMPDEST PUSH0 PUSH2 0x1DCE PUSH1 0xF DUP4 PUSH2 0x17FC JUMP JUMPDEST SWAP2 POP PUSH2 0x1DD9 DUP3 PUSH2 0x1D9A JUMP JUMPDEST PUSH1 0x20 DUP3 ADD SWAP1 POP SWAP2 SWAP1 POP JUMP JUMPDEST PUSH0 PUSH1 0x20 DUP3 ADD SWAP1 POP DUP2 DUP2 SUB PUSH0 DUP4 ADD MSTORE PUSH2 0x1DFB DUP2 PUSH2 0x1DC2 JUMP JUMPDEST SWAP1 POP SWAP2 SWAP1 POP JUMP JUMPDEST PUSH32 0x4E6F2045544820746F2077697468647261770000000000000000000000000000 PUSH0 DUP3 ADD MSTORE POP JUMP JUMPDEST PUSH0 PUSH2 0x1E36 PUSH1 0x12 DUP4 PUSH2 0x17FC JUMP JUMPDEST SWAP2 POP PUSH2 0x1E41 DUP3 PUSH2 0x1E02 JUMP JUMPDEST PUSH1 0x20 DUP3 ADD SWAP1 POP SWAP2 SWAP1 POP JUMP JUMPDEST PUSH0 PUSH1 0x20 DUP3 ADD SWAP1 POP DUP2 DUP2 SUB PUSH0 DUP4 ADD MSTORE PUSH2 0x1E63 DUP2 PUSH2 0x1E2A JUMP JUMPDEST SWAP1 POP SWAP2 SWAP1 POP JUMP JUMPDEST PUSH32 0x5769746864726177206661696C65640000000000000000000000000000000000 PUSH0 DUP3 ADD MSTORE POP JUMP JUMPDEST PUSH0 PUSH2 0x1E9E PUSH1 0xF DUP4 PUSH2 0x17FC JUMP JUMPDEST SWAP2 POP PUSH2 0x1EA9 DUP3 PUSH2 0x1E6A JUMP JUMPDEST PUSH1 0x20 DUP3 ADD SWAP1 POP SWAP2 SWAP1 POP JUMP JUMPDEST PUSH0 PUSH1 0x20 DUP3 ADD SWAP1 POP DUP2 DUP2 SUB PUSH0 DUP4 ADD MSTORE PUSH2 0x1ECB DUP2 PUSH2 0x1E92 JUMP JUMPDEST SWAP1 POP SWAP2 SWAP1 POP JUMP INVALID LOG2 PUSH5 0x6970667358 0x22 SLT KECCAK256 PUSH19 0xE11FBF3EAD22F55A23AB18AE83602536B585B0 RETF 0xBC 0xDF PUSH25 0xCB8E3F7D2C20F31264736F6C634300081E0033000000000000 "
				},
				"gasEstimates": {
					"creation": {
						"codeDepositCost": "1588800",
						"executionCost": "infinite",
						"totalCost": "infinite"
					},
					"external": {
						"bid()": "infinite",
						"bidHistory(uint256)": "infinite",
						"emergencyWithdraw()": "infinite",
						"getBidOf(address)": "2875",
						"getTimeNow()": "353",
						"highestBid()": "2490",
						"highestBidder()": "2597",
						"owner()": "2575",
						"partialRefund()": "infinite",
						"paused()": "2540",
						"refundAll()": "infinite",
						"setPaused(bool)": "26983",
						"showBids()": "infinite",
						"showCurrentWinner()": "4770",
						"showFinalWinner()": "6940",
						"startTime()": "2470",
						"stopTime()": "2449"
					}
				},
				"methodIdentifiers": {
					"bid()": "1998aeef",
					"bidHistory(uint256)": "ecde973d",
					"emergencyWithdraw()": "db2e21bc",
					"getBidOf(address)": "04d42901",
					"getTimeNow()": "ba9b5ae6",
					"highestBid()": "d57bde79",
					"highestBidder()": "91f90157",
					"owner()": "8da5cb5b",
					"partialRefund()": "1ce2bcf5",
					"paused()": "5c975abb",
					"refundAll()": "38e771ab",
					"setPaused(bool)": "16c38b3c",
					"showBids()": "14d2687c",
					"showCurrentWinner()": "d46dd5bb",
					"showFinalWinner()": "41b0cfa8",
					"startTime()": "78e97925",
					"stopTime()": "03ff5e73"
				}
			},
			"storageLayout": {
				"storage": [
					{
						"astId": 3,
						"contract": "Subasta.sol:Subasta",
						"label": "highestBid",
						"offset": 0,
						"slot": "0",
						"type": "t_uint256"
					},
					{
						"astId": 5,
						"contract": "Subasta.sol:Subasta",
						"label": "highestBidder",
						"offset": 0,
						"slot": "1",
						"type": "t_address"
					},
					{
						"astId": 7,
						"contract": "Subasta.sol:Subasta",
						"label": "startTime",
						"offset": 0,
						"slot": "2",
						"type": "t_uint256"
					},
					{
						"astId": 9,
						"contract": "Subasta.sol:Subasta",
						"label": "stopTime",
						"offset": 0,
						"slot": "3",
						"type": "t_uint256"
					},
					{
						"astId": 11,
						"contract": "Subasta.sol:Subasta",
						"label": "owner",
						"offset": 0,
						"slot": "4",
						"type": "t_address_payable"
					},
					{
						"astId": 14,
						"contract": "Subasta.sol:Subasta",
						"label": "paused",
						"offset": 20,
						"slot": "4",
						"type": "t_bool"
					},
					{
						"astId": 18,
						"contract": "Subasta.sol:Subasta",
						"label": "bids",
						"offset": 0,
						"slot": "5",
						"type": "t_mapping(t_address,t_uint256)"
					},
					{
						"astId": 43,
						"contract": "Subasta.sol:Subasta",
						"label": "bidHistory",
						"offset": 0,
						"slot": "6",
						"type": "t_array(t_struct(BidInfo)28_storage)dyn_storage"
					}
				],
				"types": {
					"t_address": {
						"encoding": "inplace",
						"label": "address",
						"numberOfBytes": "20"
					},
					"t_address_payable": {
						"encoding": "inplace",
						"label": "address payable",
						"numberOfBytes": "20"
					},
					"t_array(t_struct(BidInfo)28_storage)dyn_storage": {
						"base": "t_struct(BidInfo)28_storage",
						"encoding": "dynamic_array",
						"label": "struct Subasta.BidInfo[]",
						"numberOfBytes": "32"
					},
					"t_bool": {
						"encoding": "inplace",
						"label": "bool",
						"numberOfBytes": "1"
					},
					"t_mapping(t_address,t_uint256)": {
						"encoding": "mapping",
						"key": "t_address",
						"label": "mapping(address => uint256)",
						"numberOfBytes": "32",
						"value": "t_uint256"
					},
					"t_struct(BidInfo)28_storage": {
						"encoding": "inplace",
						"label": "struct Subasta.BidInfo",
						"members": [
							{
								"astId": 21,
								"contract": "Subasta.sol:Subasta",
								"label": "bidder",
								"offset": 0,
								"slot": "0",
								"type": "t_address"
							},
							{
								"astId": 23,
								"contract": "Subasta.sol:Subasta",
								"label": "amount",
								"offset": 0,
								"slot": "1",
								"type": "t_uint256"
							},
							{
								"astId": 25,
								"contract": "Subasta.sol:Subasta",
								"label": "time",
								"offset": 0,
								"slot": "2",
								"type": "t_uint256"
							},
							{
								"astId": 27,
								"contract": "Subasta.sol:Subasta",
								"label": "refunded",
								"offset": 0,
								"slot": "3",
								"type": "t_bool"
							}
						],
						"numberOfBytes": "128"
					},
					"t_uint256": {
						"encoding": "inplace",
						"label": "uint256",
						"numberOfBytes": "32"
					}
				}
			},
			"userdoc": {
				"events": {
					"AuctionEnded()": {
						"notice": "Emitted when the auction ends and refunds are issued"
					},
					"NewBid(address,uint256)": {
						"notice": "Emitted when a new bid is placed"
					}
				},
				"kind": "user",
				"methods": {
					"bid()": {
						"notice": "Places a new bid during the active auction period."
					},
					"bidHistory(uint256)": {
						"notice": "Stores the history of all bids placed during the auction"
					},
					"constructor": {
						"notice": "Initializes the auction with default start and stop times. The auction starts immediately and lasts for 5 minutes. The contract deployer is set as the owner."
					},
					"emergencyWithdraw()": {
						"notice": "Withdraws all ETH from the contract in case of emergency."
					},
					"getBidOf(address)": {
						"notice": "Returns the total amount bid by a given address."
					},
					"getTimeNow()": {
						"notice": "Returns the current block timestamp."
					},
					"partialRefund()": {
						"notice": "Allows bidders to request a partial refund of 98% of all but their latest bid."
					},
					"refundAll()": {
						"notice": "Refunds 98% of all bids (except the winning one) after the auction ends."
					},
					"setPaused(bool)": {
						"notice": "Enables or disables the paused state of the contract."
					},
					"showBids()": {
						"notice": "Returns the full history of all bids placed in the auction."
					},
					"showCurrentWinner()": {
						"notice": "Returns the address and amount of the current highest bidder."
					},
					"showFinalWinner()": {
						"notice": "Returns the final winner of the auction after it has ended."
					}
				},
				"version": 1
			}
		}
	}
}